:020000040800F2
:10000000000003202D100008092900080B29000812
:100010000D2900080F290008112900080000000020
:1000200000000000000000000000000041AD0008DA
:100030001329000800000000D1AD0008E7A2000865
:100040007D1000087D1000087D1000087D1000085C
:100050007D1000087D1000087D1000087D1000084C
:100060007D1000087D1000087D1000087D1000083C
:100070007D1000087D1000087D1000087D1000082C
:100080007D1000087D1000087D1000087D1000081C
:100090007D1000087D1000087D1000087D1000080C
:1000A0007D1000087D1000087D1000087D100008FC
:1000B0007D1000087D1000087D1000087D100008EC
:1000C0007D1000087D1000087D1000087D100008DC
:1000D0007D1000087D1000087D1000087D100008CC
:1000E0007D1000087D1000087D1000087D100008BC
:1000F0007D1000087D1000087D1000087D100008AC
:100100007D1000087D1000087D1000087D1000089B
:100110007D1000087D100008152900087D100008DA
:100120007D1000087D1000087D1000087D1000087B
:100130007D1000087D1000087D1000087D1000086B
:100140007D1000087D1000087D1000087D1000085B
:100150007D1000087D1000087D1000087D1000084B
:100160007D1000087D1000087D1000087D1000083B
:100170007D1000087D1000087D10000800000000C0
:100180007D1000087D1000087D1000087D1000081B
:100190007D1000087D1000087D1000087D1000080B
:0C01A000212900087D1000082D2900080E
:1001B00010B5054C237833B9044B13B10448AFF3A1
:1001C00000800123237010BDC40300200000000044
:1001D000E411040808B5034B1BB103490348AFF30E
:1001E000008008BD00000000C8030020E4110408DE
:1001F00001F0FF01102A2BDB10F0070F08D010F8D8
:10020000013B013A8B422DD010F0070F42B3F6D1DB
:10021000F0B441EA012141EA014122F007047FF0F4
:1002200000070023F0E80256083C85EA010586EA4B
:10023000010685FA47F5A3FA87F586FA47F6A5FA87
:1002400087F68EB9EED1F0BC01F0FF0102F0070293
:1002500032B110F8013B013A83EA010313B1F8D13E
:100260000020704701387047002D06BF354603381F
:10027000073815F0010F07D1013015F4807F02BF58
:10028000013015F4C03F0130F0BC0138704700BFA9
:1002900010F8012B11F8013B012A28BF9A42F7D030
:1002A000D01A7047034613F8012B002AFBD1181A05
:1002B0000138704781F0004102E000BF83F0004345
:1002C00030B54FEA41044FEA430594EA050F08BFF1
:1002D00090EA020F1FBF54EA000C55EA020C7FEAB5
:1002E000645C7FEA655C00F0E2804FEA5454D4EB32
:1002F0005555B8BF6D420CDD2C4480EA020281EAFC
:10030000030382EA000083EA010180EA020281EA33
:100310000303362D88BF30BD11F0004F4FEA013185
:100320004FF4801C4CEA113102D0404261EB410194
:1003300013F0004F4FEA03334CEA133302D052421A
:1003400063EB430394EA050F00F0A780A4F10104D6
:10035000D5F1200E0DDB02FA0EFC22FA05F2801810
:1003600041F1000103FA0EF2801843FA05F35941F6
:100370000EE0A5F120050EF1200E012A03FA0EFC75
:1003800028BF4CF0020C43FA05F3C01851EBE3719F
:1003900001F0004507D54FF0000EDCF1000C7EEBBC
:1003A00000006EEB0101B1F5801F1BD3B1F5001FFA
:1003B0000CD349085FEA30004FEA3C0C04F1010419
:1003C0004FEA445212F5800F80F09A80BCF1004F42
:1003D00008BF5FEA500C50F1000041EB045141EAC4
:1003E000050130BD5FEA4C0C404141EB0101013C8D
:1003F00028BFB1F5801FE9D291F0000F04BF01467C
:100400000020B1FA81F308BF2033A3F10B03B3F14D
:1004100020020CDA0C3208DD02F1140CC2F10C02DD
:1004200001FA0CF021FA02F10CE002F11402D8BF3B
:10043000C2F1200C01FA02F120FA0CFCDCBF41EA07
:100440000C019040E41AA2BF01EB0451294330BDD6
:100450006FEA04041F3C1CDA0C340EDC04F11404B3
:10046000C4F1200220FA04F001FA02F340EA03008A
:1004700021FA04F345EA030130BDC4F10C04C4F1D0
:10048000200220FA02F001FA04F340EA03002946B0
:1004900030BD21FA04F0294630BD94F0000F83F4FA
:1004A000801306BF81F480110134013D4EE77FEADD
:1004B000645C18BF7FEA655C29D094EA050F08BF29
:1004C00090EA020F05D054EA000C04BF194610460A
:1004D00030BD91EA030F1EBF0021002030BD5FEA4E
:1004E000545C05D14000494128BF41F0004130BD76
:1004F00014F580043CBF01F5801130BD01F00045CA
:1005000045F0FE4141F470014FF0000030BD7FEA3C
:10051000645C1ABF194610467FEA655C1CBF0B4637
:10052000024650EA013406BF52EA033591EA030F4E
:1005300041F4002130BD00BF90F0000F04BF002146
:10054000704730B54FF4806404F132044FF0000579
:100550004FF0000150E700BF90F0000F04BF0021F2
:10056000704730B54FF4806404F1320410F0004558
:1005700048BF40424FF000013EE700BF42004FEA53
:10058000E2014FEA31014FEA02701FBF12F07F43D0
:1005900093F07F4F81F06051704732F07F4208BF87
:1005A000704793F07F4F04BF41F40021704730B58E
:1005B0004FF4607401F0004521F000411CE700BFDA
:1005C00050EA010208BF704730B54FF000050AE05D
:1005D00050EA010208BF704730B511F0004502D55E
:1005E000404261EB41014FF4806404F132045FEA60
:1005F000915C3FF4D8AE4FF003025FEADC0C18BF09
:1006000003325FEADC0C18BF033202EBDC02C2F1FA
:10061000200300FA03FC20FA02F001FA03FE40EA8C
:100620000E0021FA02F11444BDE600BF70B54FF090
:10063000FF0C4CF4E06C1CEA11541DBF1CEA13556E
:1006400094EA0C0F95EA0C0F00F0DEF82C4481EAD6
:10065000030621EA4C5123EA4C5350EA013518BFF6
:1006600052EA033541F4801143F4801338D0A0FBE3
:1006700002CE4FF00005E1FB02E506F00042E0FB90
:1006800003E54FF00006E1FB03569CF0000F18BF96
:100690004EF0010EA4F1FF04B6F5007F64F540743E
:1006A00004D25FEA4E0E6D4146EB060642EAC621D1
:1006B00041EA55514FEAC52040EA5E504FEACE2E3E
:1006C000B4F1FD0C88BFBCF5E06F1ED8BEF1004F41
:1006D00008BF5FEA500E50F1000041EB045170BDBD
:1006E00006F0004646EA010140EA020081EA030101
:1006F000B4EB5C04C2BFD4EB0C0541EA045170BDFD
:1007000041F480114FF0000E013C00F3AB8014F176
:10071000360FDEBF002001F0004170BDC4F10004BF
:10072000203C35DA0C341BDC04F11404C4F1200540
:1007300000FA05F320FA04F001FA05F240EA02009B
:1007400001F0004221F0004110EBD37021FA04F6D1
:1007500042EB06015EEA430E08BF20EAD37070BD8B
:10076000C4F10C04C4F1200500FA04F320FA05F0EA
:1007700001FA04F240EA020001F0004110EBD370EC
:1007800041F100015EEA430E08BF20EAD37070BD5C
:10079000C4F1200500FA05F24EEA020E20FA04F335
:1007A00001FA05F243EA020321FA04F001F00041E4
:1007B00021FA04F220EA020000EBD3705EEA430E55
:1007C00008BF20EAD37070BD94F0000F0FD101F084
:1007D0000046400041EB010111F4801F08BF013CBD
:1007E000F7D041EA060195F0000F18BF704703F0FB
:1007F0000046520043EB030313F4801F08BF013D82
:10080000F7D043EA0603704794EA0C0F0CEA13553D
:1008100018BF95EA0C0F0CD050EA410618BF52EAF7
:100820004306D1D181EA030101F000414FF00000FD
:1008300070BD50EA410606BF1046194652EA43060B
:1008400019D094EA0C0F02D150EA013613D195EA7F
:100850000C0F05D152EA03361CBF104619460AD1C7
:1008600081EA030101F0004141F0FE4141F47001D1
:100870004FF0000070BD41F0FE4141F4780170BDC1
:1008800070B54FF0FF0C4CF4E06C1CEA11541DBF26
:100890001CEA135594EA0C0F95EA0C0F00F0A7F828
:1008A000A4EB050481EA030E52EA03354FEA013155
:1008B00000F088804FEA03334FF0805545EA131368
:1008C00043EA12634FEA022245EA111545EA106530
:1008D0004FEA00260EF000419D4208BF964244F1C7
:1008E000FD0404F5407402D25B084FEA3202B61AE6
:1008F00065EB03055B084FEA32024FF480104FF4BA
:10090000002CB6EB020E75EB030E22BFB61A75462D
:1009100040EA0C005B084FEA3202B6EB020E75EBC0
:10092000030E22BFB61A754640EA5C005B084FEA28
:100930003202B6EB020E75EB030E22BFB61A7546F5
:1009400040EA9C005B084FEA3202B6EB020E75EB00
:10095000030E22BFB61A754640EADC0055EA060EC1
:1009600018D04FEA051545EA16754FEA06164FEA04
:10097000C30343EA52734FEAC2025FEA1C1CC0D1B0
:1009800011F4801F0BD141EA00014FF000004FF03D
:10099000004CB6E711F4801F04BF01430020B4F1FE
:1009A000FD0C88BFBCF5E06F3FF6AFAEB5EB030CB6
:1009B00004BFB6EB020C5FEA500C50F1000041EBB3
:1009C000045170BD0EF0004E4EEA113114EB5C0480
:1009D000C2BFD4EB0C0541EA045170BD41F4801153
:1009E0004FF0000E013C90E645EA060E8DE60CEA5B
:1009F000135594EA0C0F08BF95EA0C0F3FF43BAF78
:100A000094EA0C0F0AD150EA01347FF434AF95EA2E
:100A10000C0F7FF425AF104619462CE795EA0C0F12
:100A200006D152EA03353FF4FDAE1046194622E7DF
:100A300050EA410618BF52EA43067FF4C5AE50EAB9
:100A400041047FF40DAF52EA43057FF4EBAE12E7A9
:100A50004FF0FF3C06E000BF4FF0010C02E000BF8A
:100A60004FF0010C4DF804CD4FEA410C7FEA6C5C6D
:100A70004FEA430C18BF7FEA6C5C1BD001B050EA10
:100A8000410C0CBF52EA430C91EA030F02BF90EAFB
:100A9000020F0020704710F1000F91EA030F58BFBA
:100AA000994208BF90422CBFD8176FEAE37040F01C
:100AB000010070474FEA410C7FEA6C5C02D150EABA
:100AC000013C07D14FEA430C7FEA6C5CD6D152EA75
:100AD000033CD3D05DF8040B704700BF844610463A
:100AE00062468C461946634600E000BF01B5FFF739
:100AF000B7FF002848BF10F1000F01BD4DF808ED09
:100B0000FFF7F4FF0CBF012000205DF808FB00BFD9
:100B10004DF808EDFFF7EAFF34BF012000205DF833
:100B200008FB00BF4DF808EDFFF7E0FF94BF012080
:100B300000205DF808FB00BF4DF808EDFFF7CEFF81
:100B400094BF012000205DF808FB00BF4DF808EDC0
:100B5000FFF7C4FF34BF012000205DF808FB00BF91
:100B60004FEA410C7FEA6C5C02D150EA013C0AD1A9
:100B70004FEA430C7FEA6C5C02D152EA033C02D19B
:100B80004FF0000070474FF0010070474FEA4102FC
:100B900012F5001215D211D56FF47873B3EB6252CF
:100BA00012D94FEAC12343F0004343EA505311F0F6
:100BB000004F23FA02F018BF404270474FF0000088
:100BC000704750EA013005D111F0004008BF6FF0C6
:100BD000004070474FF00000704700BF4A0011D23C
:100BE00012F5001211D20DD56FF47873B3EB625287
:100BF0000ED44FEAC12343F0004343EA505323FA93
:100C000002F070474FF00000704750EA013002D107
:100C10004FF0FF3070474FF0000070474FEA41023D
:100C2000B2F1E04324BFB3F5001CDCF1FE5C0DD94A
:100C300001F0004C4FEAC0024CEA5070B2F1004F94
:100C400040EB830008BF20F00100704711F0804F97
:100C500021D113F13872BCBF01F00040704741F45C
:100C600080114FEA5252C2F11802C2F1200C10FA60
:100C70000CF320FA02F018BF40F001004FEAC12344
:100C80004FEAD32303FA0CFC40EA0C0023FA02F3E8
:100C90004FEA4303CCE77FEA625307D150EA0133BE
:100CA0001EBF4FF0FE4040F44000704701F000408E
:100CB00040F0FE4040F40000704700BF53B94AB90D
:100CC000002908BF00281CBF4FF0FF314FF0FF3054
:100CD00000F0AAB9ADF1080C6DE904CE00F03CF8C3
:100CE000DDF804E0DDE9022304B0704738B50022E6
:100CF000002304460D46FFF70BFF28B9204629467E
:100D0000BDE8384000F00AB8204605F1004100F087
:100D100005F8404261EB410138BD00BFD0B50C4B36
:100D2000002206460F46FFF781FCFFF757FF0446F7
:100D3000FFF702FC074B0022FFF778FC02460B4648
:100D400030463946FFF7BAFAFFF748FF2146D0BDD3
:100D50000000F03D0000F0412DE9F047089D0446F9
:100D60008E46002B4DD18A42944669D9B2FA82F25E
:100D700052B101FA02F3C2F1200120FA01F10CFA9A
:100D800002FC41EA030E94404FEA1C48210CBEFBD2
:100D9000F8F61FFA8CF708FB16E341EA034306FB5B
:100DA00007F199420AD91CEB030306F1FF3080F0EA
:100DB0001F81994240F21C81023E63445B1AA4B237
:100DC000B3FBF8F008FB103344EA034400FB07F7D9
:100DD000A7420AD91CEB040400F1FF3380F00A811A
:100DE000A74240F207816444023840EA0640E41B0F
:100DF00000261DB1D4400023C5E900433146BDE8BB
:100E0000F0878B4209D9002D00F0EF800026C5E95C
:100E1000000130463146BDE8F087B3FA83F6002E74
:100E20004AD18B4202D3824200F2F980841A61EBEC
:100E3000030301209E46002DE0D0C5E9004EDDE70A
:100E400002B9FFDEB2FA82F2002A40F09280A1EBF2
:100E50000C014FEA1C471FFA8CFE0126200CB1FB47
:100E6000F7F307FB131140EA01410EFB03F0884240
:100E700008D91CEB010103F1FF3802D2884200F2CD
:100E8000CB804346091AA4B2B1FBF7F007FB10115F
:100E900044EA01440EFB00FEA64508D91CEB0404FD
:100EA00000F1FF3102D2A64500F2BB800846A4EB58
:100EB0000E0440EA03409CE7C6F12007B34022FA43
:100EC00007FC4CEA030C20FA07F401FA06F31C4372
:100ED000F9404FEA1C4900FA06F3B1FBF9F8200C7F
:100EE0001FFA8CFE09FB181140EA014108FB0EF0C5
:100EF000884202FA06F20BD91CEB010108F1FF3A15
:100F000080F08880884240F28580A8F10208614420
:100F1000091AA4B2B1FBF9F009FB101144EA01412E
:100F200000FB0EFE8E4508D91CEB010100F1FF34D9
:100F30006CD28E456AD90238614440EA0840A0FB71
:100F40000294A1EB0E01A142C846A64656D353D047
:100F50005DB1B3EB080261EB0E0101FA07F722FA6B
:100F600006F3F1401F43C5E9007100263146BDE894
:100F7000F087C2F12003D8400CFA02FC21FA03F3F7
:100F8000914001434FEA1C471FFA8CFEB3FBF7F078
:100F900007FB10360B0C43EA064300FB0EF69E429D
:100FA00004FA02F408D91CEB030300F1FF382FD236
:100FB0009E422DD9023863449B1B89B2B3FBF7F6DE
:100FC00007FB163341EA034106FB0EF38B4208D9B7
:100FD0001CEB010106F1FF3816D28B4214D9023EF8
:100FE0006144C91A46EA004638E72E46284605E716
:100FF0000646E3E61846F8E64B45A9D2B9EB0208E7
:1010000064EB0C0E0138A3E74646EAE7204694E776
:101010004046D1E7D0467BE7023B614432E73046A9
:1010200009E76444023842E7704700BFDFF834D074
:10103000002103E00C4B5B58435004310B480C4B30
:1010400042189A42F6D30B4A02E0002342F8043BCE
:10105000094B9A42F9D306F015FF38F085F900F0F4
:10106000F3FE704700000320C87E14080000002033
:10107000C4030020C4030020A4440120FEE77047FD
:1010800008B500F01DFDBDE8084000F0A9BC00F067
:1010900019BD704710B5042104461EF003FB20461D
:1010A00010BD000038B50C4B0C4C18800C4B822046
:1010B00019806368984740F6110398420AD1094D98
:1010C00023682C60822098472B688220DB68984731
:1010D000002038BD0120FCE7E00300205000002084
:1010E000E2030020E40300204FF4A071F020FFF79A
:1010F000D9BF0000F7B52D4D2B6804461B6982202F
:10110000984780B22080002843D02B680DF106025A
:101110005B6901A982209847BDF80620A2F5B47248
:1011200092B20A2A37D90B23B2FBF3F2204B1B8869
:101130009A4201D9013B9AB2BDF8043040F6B83169
:101140008B422AD8C3F571630E339BB20F21B3FBD8
:10115000F1F3184909888B4201D94B1E9BB2164EF8
:10116000164D30682F68834281B28CBF591AC91A54
:10117000B8B2BA428CBF101A801A89B280B2014448
:101180000529C8BF33603368C8BF2A6063802B68F5
:10119000A38003B0F0BD0022CEE7C3F56D63083332
:1011A0009BB20E2BD2D80023D9E700BFE403002066
:1011B000E2030020E0030020E8030020EC0300200D
:1011C00037B568460D461446FFF794FFBDF800009A
:1011D00030B1BDF802302B60BDF80430236001202F
:1011E00003B030BD032821D8DFE800F0020B12194C
:1011F0000F4B1A68B2FA82F2520904210D4807F027
:10120000D9B80B4B5A68B2FA82F252090821F5E7B5
:10121000074B9A68B2FA82F252091021EEE7044BAA
:10122000DA68B2FA82F252092021E7E7704700BF7C
:10123000F003002000100240032821D8DFE800F06E
:10124000020B12190F4B1A68003A18BF0122042131
:101250000D4807F0AFB80B4B5A68003A18BF01228F
:101260000821F5E7074B9A68003A18BF01221021C0
:10127000EEE7044BDA68003A18BF01222021E7E7C5
:10128000704700BFF00300200010024003280DD873
:10129000DFE800F00206080A0421054807F08FB8CD
:1012A0000821FAE71021F8E72021F6E7704700BF90
:1012B0000010024008B5032811D8DFE800F0020A48
:1012C0000C0E0421074807F06FF8431E584258419E
:1012D00008BD0821F6E71021F4E72021F2E70020FD
:1012E000F3E700BF0010024070B5084D002401264E
:1012F000E0B2FFF7DFFF18B12B68012B18BF2E609B
:101300000134052C05F10405F2D170BDF003002075
:10131000012380F8741080F8753070470020704702
:10132000034B4164003918BF01211970704700BF99
:101330009B2B012000207047836B0BB10846184798
:1013400070474FF6FF707047406803689B69184705
:10135000704770477047000070B5044600F080FC8D
:101360002368D3F88850044BD4E90F122046AC46CA
:10137000BDE87040604700BF000000D008B50368BA
:101380000446D3F880309847236820469B6F9847DF
:1013900000F0ECF8236820461B6F9847292000F0E6
:1013A000D3FF00F0E3F8236820461B6F9847F8E767
:1013B00010B504460CF02EFC23682046D3F8AC3060
:1013C000BDE81040184700F03DBC00F041BC00F003
:1013D0006DBC00F013BC00F075BC00F07DBC00F0EB
:1013E00017BC0BF07DBE10B57C2104461EF05AF9E7
:1013F000204610BD90F877301BB1406803681B6829
:10140000184718467047000010B590F8341090F84F
:1014100074400C4B8C421A7809D03AB90A4A0B49ED
:101420001488088810800C8001221A7010BD002AD0
:10143000FCD0054A05491488088810800C800022D9
:10144000F3E700BF942B0120902B0120922B012069
:1014500070B50D46194635B9094B0A4A0A4840F29B
:10146000D22137F097FAC0E90F52084B003A18BF63
:1014700001221A700368BDE87040D3F88C30184719
:10148000641204089C120408EA1204089A2B012032
:1014900008B5094B1B888B4203D8084B1B88934225
:1014A00005D9074B074A08489E2137F073FA074BC6
:1014B0001980074B1A8008BD902B0120922B012028
:1014C0002F13040892130408EA120408962B012033
:1014D000982B0120012108B50022084609F048F8A0
:1014E0000A4B186028B90A4B0A4A28210A4837F0E3
:1014F00051FA00220421012009F0D7F8074B1860A7
:1015000018B9074B034A2C21F0E708BD040400205A
:10151000B0140408F9140408281504080004002075
:101520006F150408024B4FF0FF31186809F06AB8D4
:1015300004040020014B186809F08FB8040400204F
:10154000024B0021186809F05DB800BF04040020B8
:10155000FFF7F0BF03480449006800231A4609F06A
:10156000DFB800BF000400200400002013B5084CC1
:1015700000231A4601A9206809F002F920684FF0FB
:10158000FF33002201A909F0FBF802B010BD00BF33
:101590000004002003685B6C184701207047036853
:1015A0009B6A184782B0002301930D4B1A6B42F4DB
:1015B00000021A631A6B02F400020192019A1A697E
:1015C00042F400021A611A6922F400021A61054B02
:1015D000054A1A61054B4FF080629A6002B070476D
:1015E000003802408C1A00203116000800E100E0AB
:1015F00040F2EF3070470000054B0360054B4FF0A1
:101600008062C3F88820BFF34F8FBFF36F8F70479E
:101610000817040800E100E010B504464FF45A61D1
:10162000FFF7EAFF20461EF03DF8204610BD0000FF
:10163000024B1B68586803685B6918479C2B0120A4
:1016400070B5044625460A4B0C30002660602672B1
:10165000667245F8203B602229460CF019FC04F51F
:101660005A63EE602435AB42FBD1204670BD00BF0B
:101670000817040808B50B290BD8DFE801F012069B
:10168000100A0A0A0A0808080808012008BD0520EF
:10169000FCE7054B054A0648662137F07BF9002038
:1016A000F4E70220F2E700BFB1150408CC150408E6
:1016B0001616040808B50A2909D8DFE801F0100653
:1016C0000E080808080606060600012008BD054B9E
:1016D000054A0648872137F05DF90020F6E7022029
:1016E000F4E700BFB11504085B16040816160408D9
:1016F0002DE9F8434F7F0C4639468146FFF7BAFF84
:1017000094F81E80054641464846FFF7B3FF414620
:1017100006464846FFF7CEFFA18A628B424B521A1B
:101720001A649A61228B521A1A61E28A586342EA59
:1017300001425A6420696268D863DA60216894F8CB
:101740001CC080294FEA0C6226D010D8202945EA17
:10175000020461D040295FD004295DD0324B2A4376
:1017600042F400324745DA615AD0304A40E0B1F5E0
:10177000807F07D0B1F5007FF0D142F4003242F013
:10178000090203E042F4003242F00A02DA61E26840
:101790001A625E6258612AE0A4682A4342F4003269
:1017A000211DD962DA6122785E62586142B1012A54
:1017B00021D01F4B1F4A204840F2111137F0EAF8A0
:1017C000DA69618822F47F42013922F0100242EA8C
:1017D0000122DA610120144BDA6942F02002DA6159
:1017E000DA699206FCD410229A600028BDD0134A10
:1017F0001A60BDE8F8836288D969541E21F47F42DB
:1018000022F0100242EA0422BCF1FF0042F0100272
:1018100018BF0120DA61DEE744F40034DC61B8E788
:1018200040F20122E4E700BF00B0024001020100E3
:10183000A6160408C01604081616040801020200C1
:1018400070B50C46897FFFF735FFA68AE18A628B67
:10185000154B2569586341EA0641921B5964DD63C3
:101860001A642668E168082E0DD19A611A615862DF
:10187000207F0E4A42EA0062DA610D4A19625D6118
:10188000DD601A6070BD0022D8611A6148090A0A39
:1018900002F4784200F4FC600243C1F3C4010A433D
:1018A0009A63044AEDE700BF00B00240090001005E
:1018B0000102020001020300012070470C20704762
:1018C0000C2303FB0100083070470C2303FB0100CD
:1018D000083070470120704740F20C60704740F2BA
:1018E0000C6303FB01000830704740F20C6303FBFC
:1018F000010008307047012070471020704700EB4E
:1019000001100830704700EB01100830704708469E
:1019100001F04CB910B5034B036004460BF037F9E6
:10192000204610BDC017040810B50446FFF7F2FFAB
:10193000204614211DF0B6FE204610BD10B5034B05
:10194000036004460BF023F9204610BD8C170408F1
:1019500010B50446FFF7F2FF204640F214611DF077
:10196000A1FE204610BD000010B5034B03600446E5
:101970000BF00DF9204610BD5817040810B50446A9
:10198000FFF7F2FF204618211DF08CFE204610BD07
:1019900010B5084B0360044600F5C860FFF7BAFFB6
:1019A00004F12C00FFF7CAFF04F11400FFF7DCFF7D
:1019B000204610BDF417040808B50248FFF7E8FFF9
:1019C00008BD00BF0C04002010B50446FFF7E0FF7F
:1019D00020464FF4F7611DF065FE204610BD000063
:1019E0002DE9F34101F018F8054601F019F800243B
:1019F0000146234628462246009412F047F8254B1C
:101A0000254A264D1A60204604F0D8FE244811F0DD
:101A1000A5FF2B78BFF35B8FDB0735D428461DF07D
:101A200043FE88B31F4C204B236004F25C6604F134
:101A3000140004F12C0804F5C8676060C4F808803D
:101A4000E76026610BF0A4F8184B636140460BF089
:101A50009FF8174BE36238460BF09AF8154BC4F821
:101A6000403604F2546005F001FC224604F2546151
:101A7000304605F0AFFB304601F098F80E4836F0DE
:101A8000A7FF28461DF01CFE0C4802B0BDE8F0413F
:101A9000FFF762BCF82B0120E419002008040020A5
:101AA000080000200C040020F4170408581704084C
:101AB0008C170408C0170408B91900086819002019
:101AC000704700000148FFF759BC00BF68190020AB
:101AD00070B5234C234E244B244D23603046FFF732
:101AE000AFFD284615F0DCF8214B2248DC60224C83
:101AF00003600022F0204FF480712080C3E91212AD
:101B00001E4C1F492080C3E919121E4C1A864FF043
:101B100080714FF4A07059670121C3E90422C3E921
:101B20000622C3E90822C3E90A22C3E90E22C3E957
:101B30001022C3E91422C3E916221A6683F86C2026
:101B40001A67C3E9016583F8781020800E4C83F88A
:101B5000341020800D4802700D4A1A6070BD00BF1D
:101B6000C40B0020C80B002054120408E819002000
:101B7000681900209C2B0120902B0120962B01201E
:101B800001000001922B0120982B0120942B0120B1
:101B9000E01304080148FFF72FBD00BFC80B002069
:101BA0000020704781807047C18070470181704775
:101BB000418170477047704770477047704710B455
:101BC000C4880368121B84885B6D091B12B25DF820
:101BD000044B09B218474FF6FF7383814FF0FF3370
:101BE00003621368C3611060704790F825201AB132
:101BF00090F8242002B1186070470000034B902237
:101C000083F85A2383F85823704700BF00E100E0AF
:101C1000094A0A49D3680A48C3F30A03013B9BB245
:101C20000B801169C1F30A01013901801364536B00
:101C300043F001035363704700680140641A0020B9
:101C4000621A0020014BD3F8AC00704700680140D5
:101C5000024B0122C3F8AC105A6270470068014081
:101C600070B504460BF091FA23685D6E0EF0A8FE85
:101C700001462046A8472368054AD3F888502046E5
:101C8000AC460023BDE87040A2F51631604700BFA6
:101C900000B004D00BF060BA90F84B3013B1024B97
:101CA00001221A700BF064BA601A00200BF01EBA01
:101CB0000BF079BB90F8252012B103685B691847D7
:101CC00070470000034B4FF080629A604FF08072C3
:101CD0009A60704700E100E0084B4FF08062C3F863
:101CE0008820BFF34F8FBFF36F8F4FF08072C3F820
:101CF0008820BFF34F8FBFF36F8F704700E100E084
:101D000010B5144C236823B3134B144A1B6C118871
:101D10008B4213D1124B198807F032F9226892F8DE
:101D20006630013382F86630FFF714FC20680BF050
:101D300071FFBDE810400020FFF754BA07F020F90A
:101D4000206803681B6A9847BDE810400020FFF731
:101D500073BA10BD9C2B012000680140641A00205A
:101D6000621A0020704700207047000007B5064B3C
:101D7000ADF806001B68054801220DF1060107F0C9
:101D80004BFE03B05DF804FB10000020FC1B00209C
:101D900008B5012008F029FBFBE708B50AF0D2FEE0
:101DA000FCE708B50AF0C8FEFCE70AF0ADBE00008B
:101DB00030B595B0102200210AA837F0ABFC1422F0
:101DC000002103A837F0A6FC00241D4B01941A6CD7
:101DD00042F080521A641B6C03F080530193019B04
:101DE000184B02941A6842F440421A601B6803F4CC
:101DF000404302930122029B4FF48033CDE9082334
:101E000002254FF48003CDE90E5308214FF4A87347
:101E1000CDE9101308A804231393129507F0CEF808
:101E20000F23CDE903354FF4A0504FF48053CDE993
:101E30000603052103A8059407F09EFA15B030BDEE
:101E4000003802400070004080B59AB006F028F8D3
:101E5000FFF7AEFF142200210DA8002437F05AFC32
:101E6000C64B00941A6BC648C64D42F010021A6366
:101E70001A6B02F010020092009A01941A6B42F061
:101E800020021A631A6B02F020020192019A029456
:101E90001A6B42F080021A631A6B02F080020292FF
:101EA000029A03941A6B42F004021A631A6B02F04E
:101EB00004020392039A04941A6B42F001021A631B
:101EC0001A6B02F001020492049A05941A6B42F014
:101ED00002021A631A6B02F002020592059A069436
:101EE0001A6B42F040021A631A6B02F0400206922B
:101EF000069A07941A6B42F008021A631B6B03F0F0
:101F00000803079322463C21079B06F053FA9E489C
:101F10002246042106F04EFA9C4822464FF44051D6
:101F200006F048FA22469A484FF4C04106F042FAB9
:101F300001264FF003083C239148CDF840800DA9BD
:101F400002274FF00409CDE90D360F9406F046F94B
:101F50008D480F940DA9CDE90D96109706F03EF926
:101F60004FF4405389480DA9CDE90D36CDE90F470F
:101F700006F034F90DA94FF4C0438548CDE90D367C
:101F8000CDE90F4406F02AF98248834B036006F03E
:101F900019F8824A824B2C62C5E9002328464FF487
:101FA0008043C5E90434C5E90244C5E9064406F0A6
:101FB000EBFB1021284606F027FE2146284606F0B6
:101FC00042FE7848784984624FF48273C0E9001376
:101FD0004FF400751823C0E906530A23734DC362FA
:101FE000C0E90244C0E90444C0E9084407F0B8FC71
:101FF0006F4B0D974FF0100CC5E900364023C5E933
:1020000004C34FF4C073C5E906344FF40063C5E957
:1020100008344FF40053AB620DA907232846CDE9DD
:102020000E39CDE910384FF0080AC5E90249CDE96B
:10203000127707F095FB4FF6FF7209A92846CDE904
:102040000AA6089409960C9407F0AAFB304605F0FE
:1020500053FF4FF6FF7209A92846CDE9097ACDE969
:102060000B6407F09DFB4FF6FF7209A92846CDE9E6
:10207000098ACDE90B9407F093FB4FF40C73089396
:10208000089B0C934FF6FF7209A92846CDE9099ADF
:102090000B9607F085FB40F26A51284607F09EFB3D
:1020A000342221460DEB020037F034FB414D424B08
:1020B000AC86C5E900340923C5E905361D2340F285
:1020C0000D1EC5E9073840F24313C5E909E3284668
:1020D00040F2471340F21718C5E90B83C5E90244E3
:1020E0002C6185F8364006F053FEFF21F022CDE941
:1020F00012144FF4806905214FF4A073CDE90E242A
:10210000CDE91491CDE916420DA922462846CDE924
:1021100010372A4D18930D94ADF864408DF8664041
:1021200006F001FF264B2B601B6898472B68254D56
:10213000DB689847244BC5E90A47C5E90C442846A3
:10214000C5E90034C5E9027405F04CFF3146284664
:1021500006F000F8FEF794FFFEF791FF08F0D0F8C4
:1021600022461A4B1A48314608F04CF9194B4FF4E5
:102170007A71186008F082F92EE000BF0038024042
:1021800000100240CC1A002000080240000C02405F
:1021900000180240841A002000300240005C004019
:1021A000A0860100FC1B002000500140C81B00203D
:1021B000400100A0201B002000680140741A00208C
:1021C000180000208C1A002000B002406C1804088F
:1021D000AB1D00086C1A0020114A1248214608F075
:1021E000BBF8114B114A18602146114808F0B4F8A9
:1021F000104B114A18602146104808F0ADF8104BFA
:10220000104A18602146104808F0A6F80F4B1860D5
:102210000F4808F04AF90F4B186008F083F8FEE702
:10222000D4180408911D0008801A00207C180408A6
:102230008F100008701A0020481804089B1D000821
:10224000681A0020B0180408A31D00087C1A00209A
:10225000A0180408781A0020704770477FB5094B12
:102260008DF817201B6802930DF1170201230092CD
:1022700001930A460146044806F02EFB07B05DF8BC
:1022800004FB00BF0C000020CC1A00207FB5002307
:102290008DF81730084B1B6802930A4601230DF195
:1022A0001701009101930146044806F0A5FB9DF833
:1022B000170007B05DF804FB0C000020CC1A0020CA
:1022C0001FB5084C24680092CDE901340A46012369
:1022D0000146054806F090FB003818BF012004B005
:1022E00010BD00BF0C000020CC1A002005F004BE79
:1022F00008B506480022042106F05CF8BDE8084055
:1023000002480122042106F055B800BF000802402F
:1023100038B50B4D044601220A484FF4005106F02F
:1023200049F800220421284606F044F82046FFF729
:102330001DFD28460122BDE83840042106F03AB8C8
:1023400000080240000C024038B50B4D0446002244
:102350000A484FF4005106F02DF8002204212846C7
:1023600006F028F82046FFF701FD28460122BDE8C7
:102370003840042106F01EB800080240000C02405C
:10238000F7B5144E144F05460C4630460022042182
:1023900006F010F800224FF40051384606F00AF813
:1023A0002846FFF7E3FC0D4B0D481B68224601A9A8
:1023B00007F0D4FC384601224FF40051019C05F08F
:1023C000F9FF30460122042105F0F4FF204603B056
:1023D000F0BD00BF00080240000C024010000020C9
:1023E000FC1B002005F088BD0268034B9A4201D116
:1023F00005F070BD704700BF00100040704700003E
:1024000082B00E4B00220092596C41F48041596415
:10241000596C01F48041009100990192196C41F0CE
:10242000805119641B6C03F080530193019B0F21B1
:102430006FF0010002B005F085BD00BF003802401A
:102440000268094B9A4282B00BD100230193074BDB
:102450001A6B42F480521A631B6B03F4805301938E
:10246000019B02B0704700BF0030024000380240BC
:1024700007B50F4B02689A4216D10022A3F5F0432C
:102480000192196B41F4000119631B6B03F4000303
:10249000019305215A20019B05F054FD5A2003B0F9
:1024A0005DF804EB05F080BD03B05DF804FB00BFF0
:1024B00000B002402DE9F043044689B01422002107
:1024C00003A837F027F92268244B9A4243D1244CC1
:1024D000244800250095236B43F004032363236BFA
:1024E00003F004030093009B0195236B43F0010369
:1024F0002363236B03F001030193019B4FF0120947
:102500004FF400734FF001080327042603A9CDE917
:102510000339CDE90587079605F060FE4FF4807317
:102520001148079603A9CDE90339CDE9058705F0E0
:1025300055FE0295236C43F400032364236C03F4DB
:1025400000030293029B236A43F400032362236A7D
:1025500023F40003236209B0BDE8F083005C00406F
:10256000003802400008024000000240F0B599B077
:1025700004461422002107A837F0CCF830220DEBD6
:102580000200002137F0C6F822685E4B9A4240F004
:10259000B78008230C93C0231093042312930CA834
:1025A0004FF40033159306F0B1FF08B1FFF726FF93
:1025B000554B5648002400945A6C42F080625A648D
:1025C0005A6C02F080620092009A01941A6B42F0F9
:1025D00020021A631A6B02F020020192019A0294FF
:1025E0001A6B42F001021A631A6B02F001020292A6
:1025F000029A03941A6B42F002021A631A6B02F0F9
:1026000002020392039A04941A6B42F040021A6386
:102610001A6B02F040020492049A05941A6B42F07D
:1026200004021A631A6B02F004020592059A0694DA
:102630001A6B42F008021A631B6B03F0080306933F
:1026400002250E26069B0B964FF4806307A9CDE961
:102650000735CDE9094505F0C1FD41F658032C4881
:102660000B9607A9CDE907350927CDE9094505F0FE
:10267000B5FD032327480B9707A9CDE90735CDE919
:10268000094505F0ABFD4FF4706322480B9607A98E
:10269000CDE90735CDE9094505F0A0FD4FF40C6300
:1026A0001D480B9607A9CDE90735CDE9094505F089
:1026B00095FDC02319480B9607A9CDE90735CDE94B
:1026C000094505F08BFD082315480B9607A9CDE9B0
:1026D0000735CDE9094505F081FD4FF4A0530E48BB
:1026E0000B9707A9CDE90735CDE9094505F076FD3A
:1026F00058202246052105F025FC582005F054FC01
:1027000019B0F0BD006801400038024000140240DA
:10271000000002400004024000180240000802408D
:10272000000C024010B5044688B01422002103A812
:1027300036F0F0FF2268144B9A4223D103F5684328
:10274000002101915A6C114842F480125A645A6C6B
:1027500002F480120192019A02911A6B42F0200257
:102760001A631B6B03F020030293029B4FF4607209
:1027700002230321CDE903230523CDE9061303A991
:1027800005F02CFD08B010BD0050014000140240BF
:102790002DE9F04186B0002303932B4B1C68002CDD
:1027A0004FD14FF00108C3F80080284B00949A6B7A
:1027B000274842EA08029A639B6B03EA08030093E6
:1027C000022703260C25009B01A94FF63F03CDE904
:1027D0000137CDE9046505F001FD1E48059501A905
:1027E000CDE90187CDE9034605F0F8FC48F2331343
:1027F0001948059501A9CDE90137CDE9034605F052
:10280000EDFC4FF683731548059501A9CDE9013715
:10281000CDE9034605F0E2FC4CF203731048059540
:1028200001A9CDE90137CDE9034605F0D7FC6023C6
:102830000C48059501A9CDE90137CDE9034605F01E
:10284000CDFC06B0BDE8F081541C002000380240E9
:10285000001402400008024000180240001002402C
:10286000000C02400004024070B588B000230293BF
:10287000204B1A6C42F010021A641B6C03F0100318
:102880000293054601A903A8029B06F021FE069BC0
:102890004BBB06F00DFE184E184B336040F2E73389
:1028A000F360174BB0FBF3F3013B7360304600233A
:1028B0003361B360B36107F03DFC044680B9304634
:1028C00007F0F2FA044658B9362005F06DFB0F2DDB
:1028D0000DD822462946362005F034FB094B1D60F1
:1028E000204608B070BD06F0E3FD4000D3E70124A8
:1028F000F6E700BF00380240581C002000100040DE
:1029000040420F00800000207047FEE7FEE7FEE730
:10291000FEE77047014807F005BB00BF581C0020C8
:10292000014806F0A3BA00BF201B0020014805F0B3
:1029300087BB00BF8C1A00200120704708B536F015
:10294000A5F8162303604FF0FF3008BD08B536F038
:102950009DF816230360FEE770B50D4614460E463B
:10296000731B9C4201DC204670BDAFF3008006F86B
:10297000010BF5E770B50D4614460E46731B9C42DD
:1029800001DC204670BD16F8010BAFF30080F5E7BF
:102990004FF0FF3070474FF400534B6000207047FA
:1029A00001207047002070470A4A116808B50346A5
:1029B00009B9094911601068694603448B4206D978
:1029C00036F064F80C2303604FF0FF3008BD13604D
:1029D000FCE700BFA41C0020A8440120704710B5EC
:1029E000042104461CF05EFE204610BD08B50329F4
:1029F0000FD8DFE801F0020A060A03F02BFF006897
:102A000008BD03F027FF8068FAE703F023FF406862
:102A1000F6E70020F4E70000004870470C190408AE
:102A20003620704713B5002451B1036801948DF826
:102A3000034001AA9C680DF10303A04702B010BD3A
:102A40000846FBE7C0897047008A7047C088704716
:102A500080887047807A00F07F007047807AC009D4
:102A60007047704710B5082104461CF01BFE204635
:102A700010BD7047704700F598730868496803C334
:102A8000704770477047416070477047064BC0F809
:102A90004C310023C0F8503100F5A273C0F8480152
:102AA000C0F84031704700BF75340008012303723D
:102AB00070477047704710B4C268416854100346AD
:102AC00001EB6200D20748BF0A599B685DF8044BCE
:102AD00048BFD358184743682BB183682BB9C068E7
:102AE00000F001007047184670470120704710B58C
:102AF0000C2104461CF0D6FD204610BD10B5102157
:102B000004461CF0CFFD204610BD10B54FF4AE7149
:102B100004461CF0C7FD204610BD08B50DF050FF5F
:102B2000BDE808400EF0DEBB10B50446D0F8400109
:102B300058B10368DB68984738B1D4F8400103689E
:102B40009B6898470023C4F8403110BDF8B504468F
:102B500017460E460EF040F8104B0025C4E9557696
:102B60000F4E1C60C4E953550E4B306823600E4B6A
:102B7000C4E95135036801219B68C4E94F55984762
:102B8000284603F01BFE336893F876200AB1D86C10
:102B900000B9986815F06BFE2046F8BDE82B0120BF
:102BA0009C2B0120CC260408B4260408064BC0F850
:102BB0004C310023C0F8503100F5A273C0F8480131
:102BC000C0F84031704700BF75340008064BC0F8AC
:102BD0004C310023C0F8503100F5A273C0F8480111
:102BE000C0F84031704700BF25330008064BC0F8DD
:102BF0004C310023C0F8503100F5A273C0F84801F1
:102C0000C0F84031704700BFD5310008064BC0F80E
:102C10004C310023C0F8503100F5A273C0F84801D0
:102C2000C0F84031704700BF85300008064BC0F83F
:102C30004C310023C0F8503100F5A273C0F84801B0
:102C4000C0F84031704700BF352F0008064BC0F870
:102C50004C310023C0F8503100F5A273C0F8480190
:102C6000C0F84031704700BFE52D0008064BC0F8A2
:102C70004C310023C0F8503100F5A273C0F8480170
:102C8000C0F84031704700BF952C000803685B6AAC
:102C9000184700002DE9F14FD0E9555A0746A868BA
:102CA00003681B6A984740F20B63984205D8454B6E
:102CB000454AA321454835F06DFE686803681B6AE4
:102CC00098470F2803D8424B3F4AA421F2E7E8680F
:102CD00003681B6A98470B2803D83E4B3A4AA52144
:102CE000E8E70DF06DFEDFF8F49004300DF0A6FE7D
:102CF000D9F8000010B10368DB689847D9F80000E4
:102D000010B103681B689847DFF8D480D8F800003A
:102D100010B103685B699847D7F83C0110B10368AC
:102D20005B689847D8F8000010B103681B689847A3
:102D3000D7F83C0110B103689B689847E868002108
:102D4000FFF7A4FF4FF0000B234B03600446C0F8CD
:102D500004B080F808B0A868036859465B6A9847D1
:102D6000064604F0C9FC6868036859465B6A9847E0
:102D70003146054604F09AFCC9F80040C7F83C51BA
:102D8000C8F80060E5B12B1DCAF800303368C5F8FB
:102D900008A03046DB68F56398472B6828461B6817
:102DA0009847214630460FF0EDFA236820461B690C
:102DB000984723685B69204601B0BDE8F04F18478B
:102DC0002B46E1E7541D0408E21D0408EA1E04082E
:102DD000311F0408D41F040818270408DC2B012025
:102DE000D82B01202DE9F14FD0E9555A0746A868A4
:102DF00003681B6A984740F20B63984205D8454B1D
:102E0000454AA321454835F0C5FD686803681B6A3B
:102E100098470F2803D8424B3F4AA421F2E7E868BD
:102E200003681B6A98470B2803D83E4B3A4AA521F2
:102E3000E8E70DF0C5FDDFF8F49004300DF0FEFD7D
:102E4000D9F8000010B10368DB689847D9F8000092
:102E500010B103681B689847DFF8D480D8F80000E9
:102E600010B103685B699847D7F83C0110B103685B
:102E70005B689847D8F8000010B103681B68984752
:102E8000D7F83C0110B103689B689847E8680021B7
:102E9000FFF7FCFE4FF0000B234B03600446C0F825
:102EA00004B080F808B0A868036859465B6A984780
:102EB000064604F053FB6868036859465B6A984706
:102EC0003146054604F016FBC9F80040C7F83C51EE
:102ED000C8F80060E5B12B1DCAF800303368C5F8AA
:102EE00008A03046DB68F56398472B6828461B68C6
:102EF0009847214630460FF045FA236820461B6963
:102F0000984723685B69204601B0BDE8F04F184739
:102F10002B46E1E7541D040877200408EA1E040844
:102F2000311F0408D41F040818270408DC2B0120D3
:102F3000D82B01202DE9F14FD0E9555A0746A86852
:102F400003681B6A9847B0F5976F05D2454B464A10
:102F5000A321464835F01EFD686803681B6A984740
:102F60000F2803D8424B404AA421F2E7E8680368DF
:102F70001B6A98470B2803D83E4B3B4AA521E8E73C
:102F80000DF01EFDDFF8F49004300DF057FDD9F878
:102F9000000010B10368DB689847D9F8000010B151
:102FA00003681B689847DFF8D880D8F8000010B194
:102FB00003685B699847D7F83C0110B103685B6808
:102FC0009847D8F8000010B103681B689847D7F8F5
:102FD0003C0110B103689B689847E8680021FFF73F
:102FE00055FE4FF0000B244B03600446C0F804B0BC
:102FF00080F808B0A868036859465B6A9847064697
:1030000004F018FA6868036859465B6A98473146C5
:10301000054604F0D5F9C9F80040C7F83C51C8F896
:103020000060E5B12B1DCAF800303368C5F808A070
:103030003046DB68F56398472B6828461B6898473D
:10304000214630460FF09EF9236820461B699847B9
:1030500023685B69204601B0BDE8F04F18472B4656
:10306000E1E700BF541D04087F210408EA1E04089C
:10307000311F0408D41F040818270408DC2B012082
:10308000D82B01202DE9F14FD0E9555A0746A86801
:1030900003681B6A9847B0F55C7F05D2454B464AEA
:1030A000A321464835F076FC686803681B6A984798
:1030B0000F2803D8424B404AA421F2E7E86803688E
:1030C0001B6A98470B2803D83E4B3B4AA521E8E7EB
:1030D0000DF076FCDFF8F49004300DF0AFFCD9F879
:1030E000000010B10368DB689847D9F8000010B100
:1030F00003681B689847DFF8D880D8F8000010B143
:1031000003685B699847D7F83C0110B103685B68B6
:103110009847D8F8000010B103681B689847D7F8A3
:103120003C0110B103689B689847E8680021FFF7ED
:10313000ADFD4FF0000B244B03600446C0F804B013
:1031400080F808B0A868036859465B6A9847064645
:1031500004F0CAF86868036859465B6A98473146C4
:10316000054604F09BF8C9F80040C7F83C51C8F880
:103170000060E5B12B1DCAF800303368C5F808A01F
:103180003046DB68F56398472B6828461B689847EC
:10319000214630460FF0F6F8236820461B69984711
:1031A00023685B69204601B0BDE8F04F18472B4605
:1031B000E1E700BF541D040887220408EA1E040842
:1031C000311F0408D41F040818270408DC2B012031
:1031D000D82B01202DE9F14FD0E9555A0746A868B0
:1031E00003681B6A9847B0F5317F05D2454B464AC4
:1031F000A321464835F0CEFB686803681B6A9847F0
:103200000F2803D8424B404AA421F2E7E86803683C
:103210001B6A98470B2803D83E4B3B4AA521E8E799
:103220000DF0CEFBDFF8F49004300DF007FCD9F878
:10323000000010B10368DB689847D9F8000010B1AE
:1032400003681B689847DFF8D880D8F8000010B1F1
:1032500003685B699847D7F83C0110B103685B6865
:103260009847D8F8000010B103681B689847D7F852
:103270003C0110B103689B689847E8680021FFF79C
:1032800005FD4FF0000B244B03600446C0F804B06A
:1032900080F808B0A868036859465B6A98470646F4
:1032A00004F0F8FA6868036859465B6A9847314643
:1032B000054604F0C9FAC9F80040C7F83C51C8F8FF
:1032C0000060E5B12B1DCAF800303368C5F808A0CE
:1032D0003046DB68F56398472B6828461B6898479B
:1032E000214630460FF04EF8236820461B69984768
:1032F00023685B69204601B0BDE8F04F18472B46B4
:10330000E1E700BF541D04088F230408EA1E0408E7
:10331000311F0408D41F040818270408DC2B0120DF
:10332000D82B01202DE9F14FD0E9555A0746A8685E
:1033300003681B6A9847B0F5BF6F05D2454B464AF4
:10334000A321464835F026FB686803681B6A984746
:103350000F2803D8424B404AA421F2E7E8680368EB
:103360001B6A98470B2803D83E4B3B4AA521E8E748
:103370000DF026FBDFF8F49004300DF05FFBD9F878
:10338000000010B10368DB689847D9F8000010B15D
:1033900003681B689847DFF8D880D8F8000010B1A0
:1033A00003685B699847D7F83C0110B103685B6814
:1033B0009847D8F8000010B103681B689847D7F801
:1033C0003C0110B103689B689847E8680021FFF74B
:1033D0005DFC4FF0000B244B03600446C0F804B0C2
:1033E00080F808B0A868036859465B6A98470646A3
:1033F00004F098FA6868036859465B6A9847314652
:10340000054604F069FAC9F80040C7F83C51C8F80D
:103410000060E5B12B1DCAF800303368C5F808A07C
:103420003046DB68F56398472B6828461B68984749
:10343000214630460EF0A6FF236820461B699847B8
:1034400023685B69204601B0BDE8F04F18472B4662
:10345000E1E700BF541D04089D240408EA1E040887
:10346000311F0408D41F040818270408DC2B01208E
:10347000D82B01202DE9F14FD0E9555A0746A8680D
:1034800003681B6A9847B0F5946F05D2454B464ACE
:10349000A321464835F07EFA686803681B6A98479E
:1034A0000F2803D8424B404AA421F2E7E86803689A
:1034B0001B6A98470B2803D83E4B3B4AA521E8E7F7
:1034C0000DF07EFADFF8F49004300DF0B7FAD9F879
:1034D000000010B10368DB689847D9F8000010B10C
:1034E00003681B689847DFF8D880D8F8000010B14F
:1034F00003685B699847D7F83C0110B103685B68C3
:103500009847D8F8000010B103681B689847D7F8AF
:103510003C0110B103689B689847E8680021FFF7F9
:10352000B5FB4FF0000B244B03600446C0F804B019
:1035300080F808B0A868036859465B6A9847064651
:1035400003F088FE6868036859465B6A984731460D
:10355000054603F059FEC9F80040C7F83C51C8F8C9
:103560000060E5B12B1DCAF800303368C5F808A02B
:103570003046DB68F56398472B6828461B689847F8
:10358000214630460EF0FEFE236820461B69984710
:1035900023685B69204601B0BDE8F04F18472B4611
:1035A000E1E700BF541D0408AD250408EA1E040825
:1035B000311F0408D41F040818270408DC2B01203D
:1035C000D82B0120406A7047806A704770478B880B
:1035D000C0690A68DB0A50F823001044704710B530
:1035E000C2B1137BB3B1547BD27A240204F4E064F9
:1035F0001443026A98B202EB840213888B4202D110
:1036000092F9020010BD05D8013880B204320028BA
:10361000F3D1F7E70020F5E710B52C2104461CF0A4
:1036200041F8204610BD000030B58BB00446BDF80F
:1036300060500895BDF85C5007959DF85050069570
:103640009DF84C5005959DF8485004959DF84450C0
:1036500003959DF8405002959DF83C500195BDF8AA
:10366000385000950EF0E8FA064B2360159BE36195
:10367000169B2362199B63621A9BA36220460BB0C0
:1036800030BD00BF3C270408806A70477047704710
:1036900070477047704730B50368018185B06D464B
:1036A0000146D3F8843004462846984795E8070039
:1036B0003C3484E8070005B030BD30B50368418173
:1036C00085B06D460146D3F88430044628469847B5
:1036D00095E807003C3484E8070005B030BD0022BF
:1036E000028042808280C280704780F83610704726
:1036F00070B5036804461B6B154698472368294636
:1037000020465B6EBDE87040184700207047806C13
:10371000704770477047704790F82C304BB100F1FC
:103720007002126802663BB100F178031B684366C1
:10373000704700F16C02F4E700F17403F6E708B596
:1037400090F82C303BB100F1C8031B68C0F8AC30D6
:10375000FFF7E2FF08BD00F1C403F6E770477047CA
:10376000704730B4C26844685510034604EB6200E9
:10377000D20748BF62599B6830BC48BFD35818472E
:1037800043682BB183682BB9C06800F00100704713
:10379000184670470120704790F82D3080F8B230FD
:1037A00080F85E30704790F82D3080F85E307047BA
:1037B00010B54C2104461BF075FF204610BD10B516
:1037C000102104461BF06EFF204610BD10B57C2171
:1037D00004461BF067FF204610BD10B5CC210446FF
:1037E0001BF060FF204610BD10B54FF494610446F5
:1037F0001BF058FF204610BD08B5FEF75BFA08BD68
:1038000010B50446006B50B10368DB68984730B1CF
:10381000206B036821469B68BDE81040184710BD27
:10382000036870B55E6B124B1B6804468DB22BB9F2
:10383000104B114A6C21114835F0ACF81049828DBB
:103840000988914203D80F4B0B4A6D21F3E713F817
:1038500012200D4B1B6853F8220003681B6B98471E
:10386000281A01B233462046BDE87040184700BF11
:10387000EC2B012094270408D627040811280408FB
:10388000F02B012058280408F42B012070B50D46B8
:10389000097990F8342090F82C30A1F1020CDCF179
:1038A000000646EB0C060129044680F8346016D069
:1038B000BAB983F0010380F82C300368D3F88C3058
:1038C0009847236820465B6998472B79012B08D1DC
:1038D00023682046D3F88830BDE870401847002A96
:1038E000F6D070BD38B500F58963994204460D469F
:1038F00003D10DF065F8FFF769F904F5B274A5423C
:1039000005D10DF05DF8BDE83840FFF76FB938BD5F
:1039100000224FF0FF31C0E900218260704770B58E
:10392000036804461B6B15469847236829462046C2
:103930005B6BBDE87040184770B5036804469B6B2D
:1039400015469847236829462046DB6BBDE8704042
:10395000184738B504461D46FFF7E1FFBDF91020B2
:1039600029462046FFF7E8FF38BD00000022C0E9E5
:103970000122C0E90322C0E90522C0E907224FF471
:1039800080728284014A0260704700BFD828040810
:1039900010B526220446002135F0BCFE2046FFF774
:1039A000E5FF044B2360FF2384F826300023A36245
:1039B000204610BDA835040810B526220446002173
:1039C00035F0A8FE2046FFF7D1FF0A4B23600A4BD3
:1039D000A3624FF6FF73A3854FF47F020023C4E96F
:1039E0000C324FF0FF32C4E910232387E3632046F3
:1039F00010BD00BF183504084C1D04081A4B73B5E0
:103A00001B88018F8B4206462AD9184B1B682BB99D
:103A1000174B184A18486C2134F0BCFF13F81120DA
:103A2000164B1B6853F82250154B186802F002FF22
:103A30002B6801909B6B284698472B6801999B6CDB
:103A40000446284698472B6801995B6A14FB00F4EA
:103A500028469847A4B20444A6F8464002B070BD78
:103A60000023A0F84630F9E7F02B0120EC2B0120D1
:103A700094270408D627040811280408F42B0120F1
:103A8000F82B01204FF47F4370B50646838540F242
:103A90000113002583841A4B8562C0E90155C0E9F2
:103AA0000355C0E90555C0E90755056380F8345052
:103AB00046F8383B04463046FFF76AFF114BA363D4
:103AC0002A4629463046C4E91B55C4E91D5565669A
:103AD000A4F86850FFF723FF31462046264609F038
:103AE00069F8094B46F87C3B3046FFF765FF2046F6
:103AF000C4E93155314609F05DF8204670BD00BF7C
:103B0000D0290408103604086C2A040813B50446AA
:103B10007C3001900AF074FEB4F90A20B4F9081060
:103B20000198FFF709FF02B010BD00002DE9F04F2A
:103B30002DED0A8B04468FB0A24600250EF076FAD2
:103B4000EA4BE5634AF8403B04F16C095046FFF745
:103B50001FFF4FF6FF76262229464846ADF8306013
:103B600035F0D8FD4846FFF701FFE14BE3660DF164
:103B7000300BBDF83030A4F89230594604F1980863
:103B8000484684F894600BF006F94046FFF77AFF48
:103B900004F5B27304F5D07718460BEE103A0BF02B
:103BA000D3F83846FFF76EFF04F51B7318460BEE8B
:103BB000903AD04EFFF7ECFE04F52873C4F86C621F
:103BC0001846C4F89852A4F89C520CEE103AFFF72D
:103BD000DFFE04F53573C4F8A0621846C4F8CC5271
:103BE000A4F8D05209EE903AFFF7E6FE04F54773C9
:103BF000184608EE103AC04EFFF7DEFE04F55A7381
:103C0000C4F81C631846C4F8645308EE903AFFF7F2
:103C1000D3FE04F56D73C4F868631846C4F8B05356
:103C20000AEE103AFFF7C8FE04F57F73184609EE56
:103C3000103AFFF7C1FE04F58963C4F8FC63184627
:103C4000C4F844540AEE903A0BF0DCF9AB4BC4F8DC
:103C50009034AB4BC4F898344FF4A0732A465046C6
:103C600000932946F023C4F89444C4F89C54261DBC
:103C7000FFF76FFE4FF07F43A3665146304608F0D2
:103C800099FF2A4648462946FFF749FE48465946C5
:103C9000ADF830500BF07FF8494630464FF033090D
:103CA00008F088FF2946CDF80090F0232A4604F159
:103CB000D000FFF74EFE934A934BC4E94123C4E979
:103CC0004333D4F898304FF0050A4046D3F88C308F
:103CD000A4F800A198478D4B0C9340462D235946DC
:103CE000ADF83430FFF712FF0C22CDF80090F0232E
:103CF000294604F58A70FFF72CFE8549854B40461E
:103D0000C4E95713FFF71BFDF0239E224046CDF870
:103D100000902946FFF71DFE4146304608F04AFF55
:103D20001BEE100A0722AD21FFF7F9FD30230BA887
:103D30000AAAADF82C30ADF8303009A90346CDF809
:103D400000B01BEE100AADF824A0ADF828A00AF0D0
:103D500065FF4FF0051304F592601BEE101AC4F8CE
:103D60009C310390C4F88C01304608F023FF0123F6
:103D700084F8CC31D4F8A031DFF8A891D3F88C3096
:103D80004FF03208384698472A46CDF80080F02395
:103D9000294604F5EC70FFF7DCFD5F495F4BA4F8A2
:103DA00008A2C4E98313C4E98533D4F8A0313846A6
:103DB000D3F88C309847554A0C922C2338465946F4
:103DC000ADF83430FFF7A2FE0C22CDF80080F023CE
:103DD000294604F50770FFF7BCFD4D494D4B3846A9
:103DE000C4E99913FFF7ABFCF023D9223846CDF88C
:103DF00000802946FFF7ADFD4FF0430839463046B5
:103E000008F0D8FE97232A461BEE900ACDF80080D2
:103E10002946FFF79EFD4249A4F89CA27927C4E9F0
:103E2000A59184F892721BEE901A304608F0C2FEFB
:103E3000F0234F221CEE100ACDF800802946FFF730
:103E400088FD3749C4F8CC1284F8C6721CEE101AEB
:103E50003046C4F8C892A4F8D0A208F0ABFE0822FD
:103E600019EE900A0F21FFF75AFD04AF294BC4F851
:103E7000043319EE901A3846A4F808530AF026FACB
:103E800097E8070004F5447383E807001F4A0C9283
:103E900019EE900A4FF026025946ADF834200AF088
:103EA000AFFC19EE901A304608F084FE212218EE7D
:103EB000100A0F21FFF733FD164BC4F84C33D4F82A
:103EC0001C33A4F85053D3F88430DFF85C8018EE2C
:103ED000101A3846984797E8070004F5567383E8A8
:103EE0000700D8F800303BBB20E000BF202B0408BF
:103EF000F03604081036040840290408082B04088A
:103F0000E53800089CFFB6FF008232FF4C1D040814
:103F1000745E34FFFBF6E8FF8B8BF7FF0000B5FF04
:103F2000574728FF93764EFFEC2B01207B4B7C4AB2
:103F300060217C4834F02EFDDFF8F8A1BAF800309B
:103F4000192B03D8784B764A6121F2E7DFF8E89124
:103F50001921D9F8000002F06DFCC4F8640318EED2
:103F6000100A0AF02DFC714B0C9318EE100A122364
:103F70005946ADF834300AF043FC18EE101A3046BA
:103F800008F018FE18EE900A21225B21FFF7C7FC0B
:103F9000D4F86833664AD3F88430C4F8982318EE0E
:103FA000901A3846A4F89C53984797E8070004F500
:103FB000697383E80700D8F80030002BB6D0BAF850
:103FC0000030182BBED91821D9F8000002F032FCBD
:103FD000C4F8B00318EE900A0AF0F2FB534B0C93AE
:103FE00018EE900A11235946ADF834300AF008FC57
:103FF00018EE901A304608F0DDFD1AEE100A57222E
:104000000B21FFF78CFC4A4AC4F8E4231AEE101A7D
:104010003846A4F8E8530AF059F997E8070004F580
:104020007C7383E80700414B0C931AEE100A25239A
:104030005946ADF834300AF0E3FB1AEE101A304658
:1040400008F0B8FD19EE100A70220B21FFF767FC8B
:10405000D4F8FC33364AD3F88430C4F82C2419EE53
:10406000101A3846A4F83054984797E8070004F52A
:10407000876383E80700D8F80030002B3FF456AF81
:10408000BAF80030172B7FF65DAF1721D9F8000082
:1040900002F0D0FBC4F8440419EE100A0AF090FBB9
:1040A000224B0C9319EE100A10235946ADF8343008
:1040B0000AF0A6FB19EE101A304608F07BFD1AEE46
:1040C000900A4FF48A725F21FFF729FC06235A46B3
:1040D0000BA91AEE900AADF82C300723ADF830305A
:1040E0000AF0E8FB2B231AEE900AA4F88034FFF7BD
:1040F00085FC4FF0FF33C4F88434C4F88834039B44
:10410000C4F8703430461AEE901A08F053FD204679
:104110000FB0BDEC0A8BBDE8F08F00BF94270408F8
:104120009628040811280408582804084C1D04087F
:10413000FBF6E8FFF02B0120F82B012070477047B9
:1041400070477047704730B4C268446855100346E2
:1041500004EB6200D20748BF62599B6830BC48BF7D
:10416000D358184743682BB183682BB9C06800F057
:1041700001007047184670470120704710B51021A4
:1041800004461BF08FFA204610BD10B54FF45B714A
:1041900004461BF087FA204610BD38B500F1CC0369
:1041A000994204460D4603D10CF00AFCFEF7FEFCD2
:1041B00004F5A2739D4203D10CF002FCFEF736FD1C
:1041C00004F584739D4203D10CF0FAFBFEF70EFD5B
:1041D00004F534739D4203D123682046DB6A984777
:1041E00004F543739D4203D1236820461B6B984717
:1041F00004F5C074A54205D10CF0E2FBBDE83840DF
:10420000FEF734BD38BD00002DE9F04F2DED0A8BCF
:1042100004468DB0A14600250DF008FFEA4BE5638A
:1042200049F8403B04F16C084846FFF7B1FB4FF6F4
:10423000FF76262229464046ADF8286035F06AFA16
:104240004046FFF793FBE14BE3660AAFBDF8283029
:10425000A4F89230394604F1980B404684F89460F3
:104260000AF099FD5846FFF793FBD94BC4F89830F4
:1042700004F1CC03C4F8C450A4F8C850184609EEA1
:10428000903A0AF061FD04F5847318460AEE103A7C
:104290000AF05AFD04F5A27318460AEE903A0AF0A5
:1042A00053FD04F5C07318460BEE103A0AF04CFDAE
:1042B00004F5DE73184608EE103AFFF77DFB04F5AF
:1042C0000173184608EE903AFFF776FB04F5137376
:1042D00009EE103A29462622184635F01BFA19EE47
:1042E000100AFFF743FB4FF0010304F5217A84F82D
:1042F0007032B84BC4F8745284F87852A4F87A62D9
:10430000A4F87C6284F87E62C4F84C32A4F880621F
:104310005046FFF751FBB04BC4F8843204F53473B8
:10432000C4F8CC5218460BEE903A0AF00DFD04F595
:10433000437318460CEE103A0AF006FDA74BC4E989
:10434000D734A74BC4E9D9354FF4A0732A46294680
:1043500048460093F023261DFFF7FBFA4FF07F43FA
:10436000A3664946304608F025FC2A4629464046C1
:10437000FFF7D5FA40463946ADF828500AF00BFD54
:104380004146304608F016FC432358460093BA22B3
:10439000AD232221FFF7DDFA924A934B4FF0050837
:1043A000C4E93023792384F8BE305946A4F8C88084
:1043B000304608F0FFFB4246414619EE900AFFF7EF
:1043C000AEFA4FF00103ADF81C302E234FF0020B74
:1043D00008AA19EE900AADF82430ADF8283007A9E4
:1043E00009AB009704F55779ADF820B00AF016FC38
:1043F0007E4BC4F8043119EE901A3046C4F8F4909C
:1044000008F0D8FB42461AEE100A6621FFF787FA39
:10441000312309A94FF00102ADF82430ADF828305E
:104420000B4608A91AEE100AADF81C2000970A46A0
:1044300007A9ADF820B00AF0F1FB6C4BC4F840318D
:104440001AEE101A3046C4F8309108F0B3FB424619
:104450001AEE900AC321FFF762FA352309A94FF03B
:104460000102ADF82430ADF828300B4608A91AEE49
:10447000900AADF81C2000970A4607A9ADF820B0B5
:104480000AF0CCFB594BC4F87C311AEE901A304636
:10449000C4F86C9108F08EFB42461BEE100A962180
:1044A000FFF73DFA4FF001023423ADF81C2009AAB2
:1044B0001BEE100AADF82430ADF8283007A91346DA
:1044C000009708AAADF820B00AF0A8FB474BC4F843
:1044D000B8311BEE101A3046C4F8A8910DF1080847
:1044E00008F068FBDFF80CB1362218EE100A1A212A
:1044F000FFF715FA18EE101AA4F8F0514046C4F868
:10450000ECB109F0E3FE98E8070004F5FC7383E8DA
:104510000700374B0A9318EE100A24233946ADF8EA
:104520002C300AF06DF918EE101A304608F042FBF4
:10453000942218EE900A2221FFF7F1F918EE901A52
:10454000A4F838524046C4F834B209F0BFFE98E8E7
:10455000070004F5107383E80700254B0A9318EE53
:10456000900A23233946ADF82C300AF049F918EEA9
:10457000901A304608F01EFB19EE100A542233211F
:10458000FFF7CDF90F23ADF824300E23A4F88032C5
:104590003A4619EE100A09A9ADF828300AF08AF94E
:1045A00019EE101A304608F005FBC322612150466F
:1045B000FFF7B5F9D4F88432A4F8B852D3F88430B0
:1045C000C4F8B4B218E000BF702B0408F036040839
:1045D000103604082834040840290408582B04081D
:1045E0009B41000893764EFF574728FF04000200C6
:1045F0004C1D0408FBF6E8FF51464046984798E8F2
:10460000070004F5307383E807003E4B1B6804F590
:1046100052752BB93C4B3D4A60213D4834F0BAF904
:104620003C4B1B88132B03D83B4B384A6121F4E7E2
:104630003A4B1321186802F0FDF8394A03460A2163
:1046400028460FF07DF9C4F8CC5250460AF0B8F86D
:104650000A25344B0A9339465046ADF82C500AF0DF
:10466000CFF85146304608F0A5FA1BEE900A2946CD
:1046700040F20D12FFF753F9332308AA1BEE900AFC
:10468000294DADF824304FF0080A4FF00908ADF875
:10469000283007A909AB0097ADF81CA0ADF8208021
:1046A0000AF0BCFA1BEE901A3046C4F80853C4F85E
:1046B000F89208F07FFA1CEE100A40F20D128221E7
:1046C000FFF72DF932231CEE100AADF82430ADF8B7
:1046D000283008AA09AB07A90097ADF81CA0ADF8CF
:1046E00020800AF09BFA30461CEE101AC4F844539E
:1046F000C4F8349308F05EFA20460DB0BDEC0A8B86
:10470000BDE8F08FEC2B01209427040896280408BC
:1047100011280408F02B012058280408F82B012048
:104720004C2B04084C1D04081900F9FF7047704712
:1047300070477047704730B4C268446855100346EC
:1047400004EB6200D20748BF62599B6830BC48BF87
:10475000D358184743682BB183682BB9C06800F061
:1047600001007047184670470120704710B51021AE
:1047700004461AF097FF204610BD10B54FF497611C
:1047800004461AF08FFF204610BD00F5A67399422B
:1047900070B504460D4603D10CF012F9FEF706FA87
:1047A00004F1D4039D4203D10CF00AF9FEF72EFA6E
:1047B00004F198039D4203D10CF002F9FEF716FABA
:1047C00004F588739D4203D10CF0FAF8FEF73EFA27
:1047D00004F5C4739D4203D123682046DB6A9847E1
:1047E00004F514739D4205D1236820461B6BBDE878
:1047F0007040184770BD000010B526220446002105
:1048000034F088FF2046FFF7B1F80023A36284F854
:104810002C300123064A84F824304FF6FF73E385D9
:10482000238684F832302260A386204610BD00BF64
:10483000283404082DE9F04F2DED0E8B04468FB07F
:10484000274600250DF0F2FBE74BE56347F8403BB8
:1048500029462622384634F05DFF3846FFF786F8B1
:1048600004F16C09E14B2364FF264FF6FF7184F8D5
:104870006660ADF8301026222946A566484634F019
:1048800049FF4846FFF772F8D94AE266BDF8302082
:10489000A4F892200CA904F1980B84F8946048467F
:1048A0000AF079FA04F1D40A58460AF04DFA504653
:1048B0000AF04AFA04F5887318460DEE903A0AF0A9
:1048C00043FA04F5A67304F5C47818460EEE103AC0
:1048D0000AF03AFA4046FFF78FFF04F5E0731846F6
:1048E00008EE103AFFF768F804F50273184608EE70
:1048F000903AFFF761F804F51473184609EE103A80
:10490000FFF77AFF04F52273184609EE903AFFF795
:1049100053F804F5347318460AEE103AFFF74CF8D2
:1049200004F5467318460AEE903AFFF765FF04F562
:10493000547318460BEE103AFFF73EF804F5667311
:1049400018460BEE903AFFF737F804F578731846DF
:104950000CEE103AFFF730F804F5856318460CEEBC
:10496000903AFFF729F804F58E6318460DEE103AD9
:10497000FFF742FF9F4AC4F8A8249F4AC4F8B02416
:1049800029462A463846C4F8AC44C4F8B454FEF765
:10499000C6FF3846F021FDF709F938464FF4A071FB
:1049A000261DFDF705F94FF07F42A26639463046D5
:1049B00008F000F92A4629464846FEF7B0FF0CA940
:1049C0004846ADF830500AF0E6F94946304608F05E
:1049D000F1F8584605226621FEF7A1FF4FF00203C9
:1049E000ADF828303123ADF82C30ADF830300CABB9
:1049F0004FF001090AAA009309A90BAB58467F4F53
:104A0000ADF824900AF00AF904F59563C4F8C030B3
:104A1000C4F8D07059463046039308F0CBF850469E
:104A200005229621FEF77BFF3423ADF82C30ADF83C
:104A300030300CAB4FF0020B0AAA009309A90BAB64
:104A40005046ADF82490ADF828B00AF0E7F8039B83
:104A5000C4F8FC30C4F80C715146304608F0AAF88E
:104A60001DEE900A0522C321FEF759FF3523ADF84C
:104A70002C30ADF830300CAB0AAA1DEE900A009332
:104A800009A90BABADF82490ADF828B00AF0C6F830
:104A9000039BC4F838311DEE901AC4F848713046B3
:104AA00008F088F805221EEE100A1146FEF737FFBF
:104AB0002E23ADF82C30ADF830300CAB0AAA1EEE28
:104AC000100A009309A90BABADF82490ADF828B0FB
:104AD0000AF0A4F8039BC4F874311EEE101AC4F84F
:104AE0008471304608F066F84FF00E0A40467C228A
:104AF0006321FEF714FF4FF00F0B0CAAA4F8BCA122
:104B00000BA94046ADF82CB0ADF830A009F0D2FEAC
:104B10004046012109F001FA039BC4F8B031414637
:104B2000304604AFDFF8D890DFF8D88008F042F8BC
:104B300018EE100A8F220421FEF7F1FE18EE101A6B
:104B40003846C4F8F091A4F8F45109F0BFFB97E897
:104B5000070004F5FE7383E807001B2318EE100A14
:104B60000CA9ADF83430CDF8308009F049FE18EECC
:104B7000101A304608F01EF818EE900A4FF48A72A8
:104B80000421FEF7CCFE18EE901A3846C4F838928D
:104B9000A4F83C5209F09AFB97E8070004F511735A
:104BA00083E807001F2318EE900A0CA9ADF83430F3
:104BB000CDF8308009F024FE18EE901A304607F048
:104BC000F9FF19EE100A40F201126321FEF7A7FE69
:104BD0000CAA19EE100AA4F884A20BA9ADF82CB007
:104BE000ADF830A010E000BFC42B0408A8350408BD
:104BF000F0360408AC2B04088B47000804000200C0
:104C0000FBF6E8FF4C1D040809F054FE19EE100AEB
:104C1000012109F082F9039BC4F8783219EE101AC9
:104C2000304607F0C7FF19EE900A2F220721FEF742
:104C300076FE19EE901A3846C4F8B892A4F8BC5221
:104C400009F044FB97E8070004F5317383E8070097
:104C50001C2319EE900A0CA9ADF83430CDF8308041
:104C600009F0CEFD19EE901A304607F0A3FF1AEEB8
:104C7000100AB2224621FEF752FE1AEE101A3846EA
:104C8000C4F80093A4F8045309F020FB97E8070048
:104C900004F5437383E8070022231AEE100A0CA9D7
:104CA000ADF83430CDF8308009F0AAFD1AEE101AB4
:104CB000304607F07FFF4FF00C0A1AEE900A4822A8
:104CC0004121FEF72CFE4FF00D0B0CAA1AEE900AB4
:104CD0000BA9A4F84CA3ADF82CB0ADF830A009F0A6
:104CE000E9FD1AEE900A012109F017F91AEE901A5F
:104CF000304684F83D5307F05DFF1BEE100A5B223F
:104D00000A21FEF70CFE1BEE101A3846C4F88093F9
:104D1000A4F8845309F0DAFA97E8070004F56373FE
:104D200083E807001D231BEE100A0CA9ADF83430F0
:104D3000CDF8308009F064FD1BEE101A304607F004
:104D400039FF1BEE900A5B22BB21FEF7E8FD1BEE4C
:104D5000901A3846C4F8C893A4F8CC5309F0B6FAB0
:104D600097E8070004F5757383E807001E231BEE20
:104D7000900A0CA9ADF83430CDF8308009F040FD30
:104D80001BEE901A304607F015FF1CEE100ADF22CA
:104D9000BB21FEF7C4FD1CEE101A3846C4F810946F
:104DA000A4F8145409F092FA97E8070004F21C439F
:104DB00083E8070021231CEE100A0CA9ADF834305B
:104DC000CDF8308009F01CFD1CEE101A304607F0BB
:104DD000F1FE1CEE900ADF220A21FEF7A0FD1CEE78
:104DE000901A3846C4F85894A4F85C5409F06EFA46
:104DF00097E8070004F2644383E8070020231CEED1
:104E0000900A0CA9ADF83430CDF8308009F0F8FCE8
:104E10001CEE901A304607F0CDFE1DEE100ACC2293
:104E20004421FEF77CFD0CAA1DEE100A0BA9A4F884
:104E3000A4A4ADF82CB0ADF830A009F03BFD1DEEF8
:104E4000100A012109F069F830461DEE101A84F8A5
:104E5000955407F0AFFE20460FB0BDEC0E8BBDE8B9
:104E6000F08F00BF704770477047704770477047BA
:104E7000704730B4C26844685510034604EB6200C2
:104E8000D20748BF62599B6830BC48BFD358184707
:104E900043682BB183682BB9C06800F001007047EC
:104EA000184670470120704710B5102104461AF0CB
:104EB000F9FB204610BD10B540F20C6104461AF013
:104EC000F1FB204610BD00F59A73994270B5044677
:104ED0000D4603D10BF074FDFDF768FE04F5D673A3
:104EE0009D4203D10BF06CFDFDF7A0FE04F5167397
:104EF0009D4203D10BF064FDFDF778FE04F5B87315
:104F00009D4203D10BF05CFDFDF7B0FE04F5F47398
:104F10009D4203D123682046DB6A984704F5087355
:104F20009D4203D1236820461B6B984704F234430B
:104F30009D4203D1236820465B6B984704F57F733D
:104F40009D4205D1236820469B6BBDE87040184701
:104F500070BD00002DE9F04F2DED108B044691B08F
:104F600027464FF000090DF061F8E74BC4F83C907C
:104F700047F8403B04F16C063846FEF709FD26224F
:104F80004FF0FF3349463046ADF8383034F0C2FBBD
:104F90003046FEF7EBFCDD4BE366BDF83830A4F895
:104FA00092304FF0FF330EA984F8943004F1980B3F
:104FB000304609F0F0FE04F1CC0AD54D5846FEF714
:104FC000E7FCC4F89850C4F8C490A4F8C8905046C0
:104FD000FEF7DEFC04F58073C4F8CC50C4F8F890FA
:104FE000A4F8FC9018460593FEF7D2FC04F59A73DA
:104FF000C4F80051C4F82C91A4F8309118460FEE73
:10500000903A09F0A1FE04F5B87304F5D678184675
:10501000039309F099FE404609F096FE04F5F473F7
:10502000184608EE103AFFF7E7FB04F50873184638
:1050300008EE903AFFF7E0FB04F516731846049368
:1050400009F082FE04F52573184609EE103AFEF7C2
:10505000B3FC04F53773184609EE903AFEF7ACFC42
:1050600004F5497318460AEE103AFEF7A5FC04F55C
:105070005B7318460AEE903AFEF79EFC04F56D73DA
:1050800018460BEE103AFEF797FC04F57F731846AE
:105090000BEE903AFFF7B0FB04F2344318460CEEE7
:1050A000103AFFF7A9FB04F26C4318460CEE903A55
:1050B000FFF7A2FB04F2A44318460DEE103AFFF7E7
:1050C0009BFB04F2DC4318460DEE903AFEF774FCAD
:1050D00004F2245318460EEE103AFEF76DFC04F26B
:1050E0006C5318460EEE903AFEF766FC04F2B45389
:1050F00018460FEE103AFEF75FFC864BC4F8FC35FD
:10510000854BC4F804364FF4A0734A4600934946D1
:105110003846C4F80046C4F80896F023251DFEF76B
:1051200018FC4FF07F43A3663946284607F042FD3E
:105130004A4649463046FEF7F2FB0EA93046ADF826
:10514000389009F028FE3146284607F033FD5B23EE
:10515000009349465846F0233822FEF7FAFB6F4B7E
:105160006F4A05267927C4E93032A4F8C86084F86C
:10517000BE705946284607F01DFD4FF04E0BF02338
:10518000CDF800B01A4649465046FEF7E2FB634BA5
:10519000634AA4F8FC60C4E93D3284F8F2705146D9
:1051A000284607F007FD0598CDF800B04946F023E2
:1051B0009A22FEF7CEFB594B594A0599A4F8306163
:1051C000C4E94A3284F82671284607F0F3FC1FEE42
:1051D000900A32463146FEF7A2FB2E23ADF834305A
:1051E000ADF838300EAB01274FF0020A0CAA1FEEC3
:1051F000900A00930BA90DAB04F2FC5BADF82C7088
:10520000ADF830A009F00AFD464BC4F86C311FEE32
:10521000901AC4F85CB1284607F0CCFC03983246DB
:10522000C321FEF77CFB4FF035020DA9ADF8342009
:10523000ADF838200B460EAA0CA9039800920A4636
:105240000BA9ADF82C70ADF830A009F0E7FC354B98
:10525000C4F8A8310399C4F898B1284607F0AAFC0D
:10526000324640469621FEF75AFB4FF034020DA914
:10527000ADF83420ADF838200B460EAA0CA90092E8
:1052800040460A460BA9ADF82C70ADF830A009F0E5
:10529000C5FC244BC4F8E431C4F8D4B141462846D7
:1052A00007F088FC18EE100A69220A214FF0100856
:1052B000FEF735FB0EA94FF0110218EE100AADF8FB
:1052C0003420A4F81C820A460DA9ADF8388009F0F4
:1052D000F1FA18EE100A394608F01FFE18EE101AFF
:1052E000C4F810B2284607F065FC18EE900A69224F
:1052F000A721FEF714FB0EA94FF0110218EE900A39
:10530000ADF8342010E000BF182C0408F036040873
:1053100010360408002C0408C74E000893764EFF90
:10532000574728FF04000200A4F854820A460DA93A
:10533000ADF8388009F0BEFA18EE900A394608F048
:10534000ECFD18EE901AC4F848B2284607F032FC7B
:10535000049832466621FEF7E2FA31230DA9ADF832
:105360003430ADF838300EAA0B460CA904980092E0
:105370000A460BA9ADF82C70ADF830A009F04EFC30
:10538000F44BC4F890320499C4F880B2284607F070
:1053900011FC19EE100A3D22132106AEFEF7BFFAEA
:1053A000DFF8B8A3C4F8C4A24FF0FF3319EE101A07
:1053B000A4F8C832304608F089FF96E8070004F5E3
:1053C000347383E80700E44B0E9338230DEB03019D
:1053D00019EE100AADF83C3009F012FA19EE101A65
:1053E000284607F0E7FB19EE900A58221221FEF733
:1053F00096FA4FF0FF31A4F81013304619EE901AC8
:10540000C4F80CA308F062FF96E8070004F54673A1
:105410000DF1380C83E80700CF4B0E93614637231C
:1054200019EE900AADF83C3009F0EAF919EE901A3D
:10543000284607F0BFFB1AEE100A74226021FEF71F
:105440006EFA4FF0FF31A4F8581330461AEE101AD6
:10545000C4F854A308F03AFF96E8070004F558731F
:105460000DF1380C83E807004FF03400BA4BADF86B
:105470003C0061461AEE100A0E9309F0C1F91AEECB
:10548000101A284607F096FB1AEE900AA122242152
:10549000FEF745FA1AEE901A3046C4F89CA3A4F819
:1054A000A09308F013FF96E8070004F56A730DF166
:1054B000380C83E80700A84B0E93614639231AEE97
:1054C000900AADF83C3009F09BF91AEE901A284684
:1054D00007F070FB1BEE100AC6226021FEF71FFAD0
:1054E0004FF0FF31A4F8E81330461BEE101AC4F851
:1054F000E4A308F0EBFE96E8070004F57C7383E86C
:1055000007000DF1380C4FF03400934BADF83C0020
:1055100061461BEE100A0E9309F072F91BEE101A89
:10552000284607F047FB1BEE900ABB22A721FEF797
:10553000F6F90DF1380C4FF01102ADF83420624647
:105540000DF1340C61461BEE900AA4F83084ADF8DE
:10555000388009F0AFF91BEE900A394608F0DDFCFF
:105560001BEE901AC4F824B4284684F8219407F05E
:1055700021FB1CEE100ABB220A21FEF7D0F90DF127
:10558000380C4FF01102ADF8342062460DF1340CA6
:1055900061461CEE100AA4F86884ADF8388009F062
:1055A00089F91CEE100A394608F0B7FC1CEE101AF7
:1055B000C4F85CB4284684F8599407F0FBFA1CEE52
:1055C000900A40F211120A21FEF7A9F90DF1380CE8
:1055D00062460DF1340C61461CEE900A4FF0110B3F
:1055E000A4F8A084ADF83880ADF834B009F062F9C1
:1055F0001CEE900A394608F090FC1CEE901A2846E2
:1056000084F8919407F0D6FA1DEE100A40F21112B8
:10561000A721FEF784F90DF1380C62460DF1340C28
:1056200061461DEE100AA4F8D884ADF83880ADF8B4
:1056300034B009F03FF91DEE100A394608F06DFC50
:105640001DEE101A284684F8C99407F0B3FA4FF0FB
:10565000FF381DEE900A5822AF21FEF760F91DEECB
:10566000901A3046C4F80CA5A4F8108508F02EFE58
:1056700096E8070004F5A36383E80700364F0E970A
:1056800036231DEE900A0EA9ADF83C3009F0B8F8AB
:105690001DEE901A284607F08DFA1EEE100A4FF400
:1056A0008E726021FEF73BF91EEE101A3046C4F8E8
:1056B00054A5A4F8588508F009FE96E8070004F5FB
:1056C000AC6383E807004FF03400ADF83C000EA94E
:1056D0001EEE100A0E9709F093F81EEE101A2846D7
:1056E00007F068FA1EEE900A74226121FEF717F99E
:1056F0004FF07F431EEE901AC4F89C353046A4F854
:10570000A09508F0E3FD96E8070004F5B56383E88B
:10571000070033231EEE900A0EA9ADF83C300E9719
:1057200009F06EF81EEE901A284607F043FA1FEEB5
:10573000100AF6224B21FEF7F2F81FEE101A30463F
:10574000C4F8E4A5A4F8E89508F0C0FD96E80700C1
:1057500006E000BF040002004C1D0408FBF6E8FF51
:1057600004F5BE6383E807004FF035021FEE100A10
:105770000EA9ADF83C200E9709F042F828461FEE1E
:10578000101A07F017FA204611B0BDEC108BBDE8D7
:10579000F08F00BF70477047704770477047704781
:1057A000704730B4C26844685510034604EB620089
:1057B000D20748BF62599B6830BC48BFD3581847CE
:1057C00043682BB183682BB9C06800F001007047B3
:1057D000184670470120704710B51021044619F093
:1057E00061FF204610BD10B540F20C61044619F06F
:1057F00059FF204610BD00F59A73994270B50446D2
:105800000D4603D10BF0DCF8FDF7D0F904F5D673A3
:105810009D4203D10BF0D4F8FDF718FA04F5167386
:105820009D4203D10BF0CCF8FDF7E0F904F5B87315
:105830009D4203D10BF0C4F8FDF7E8F904F5F473C9
:105840009D4203D123682046DB6A984704F508731C
:105850009D4203D1236820461B6B984704F23443D2
:105860009D4203D1236820465B6B984704F57F7304
:105870009D4205D1236820469B6BBDE870401847C8
:1058800070BD00002DE9F04F2DED108B044691B056
:1058900027464FF000090CF0C9FBE74BC4F83C90D9
:1058A00047F8403B04F16C063846FEF771F82622B3
:1058B0004FF0FF3349463046ADF8383033F02AFF19
:1058C0003046FEF753F8DD4BE366BDF83830A4F8F8
:1058D00092304FF0FF330EA984F8943004F1980B06
:1058E000304609F058FA04F1CC0AD54D5846FEF777
:1058F0004FF8C4F89850C4F8C490A4F8C890504623
:10590000FEF746F804F58073C4F8CC50C4F8F8905C
:10591000A4F8FC9018460593FEF73AF804F59A733C
:10592000C4F80051C4F82C91A4F8309118460FEE39
:10593000903A09F009FA04F5B87304F5D6781846D8
:10594000039309F001FA404609F0FEF904F5F473F7
:10595000184608EE103AFEF74FFF04F50873184694
:1059600008EE903AFEF748FF04F5167318460493C4
:1059700009F0EAF904F52573184609EE103AFEF726
:105980001BF804F53773184609EE903AFEF714F841
:1059900004F5497318460AEE103AFEF70DF804F5BF
:1059A0005B7318460AEE903AFEF706F804F56D733D
:1059B00018460BEE103AFDF7FFFF04F57F7318460B
:1059C0000BEE903AFEF718FF04F2344318460CEE43
:1059D000103AFEF711FF04F26C4318460CEE903AB1
:1059E000FEF70AFF04F2A44318460DEE103AFEF744
:1059F00003FF04F2DC4318460DEE903AFDF7DCFF9E
:105A000004F2245318460EEE103AFDF7D5FF04F2C7
:105A10006C5318460EEE903AFDF7CEFF04F2B453E5
:105A200018460FEE103AFDF7C7FF864BC4F8FC3559
:105A3000854BC4F804364FF4A0734A460093494698
:105A40003846C4F80046C4F80896F023251DFDF733
:105A500080FF4FF07F43A3663946284607F0AAF837
:105A60004A4649463046FDF75AFF0EA93046ADF882
:105A7000389009F090F93146284607F09BF85B23EF
:105A8000009349465846F0233822FDF762FF6F4BDA
:105A90006F4A05267927C4E93032A4F8C86084F833
:105AA000BE705946284607F085F84FF04E0BF0239C
:105AB000CDF800B01A4649465046FDF74AFF634B01
:105AC000634AA4F8FC60C4E93D3284F8F2705146A0
:105AD000284607F06FF80598CDF800B04946F02346
