:020000040800F2
:100000000000032095050008C51D0008C71D000855
:10001000C91D0008CB1D0008CD1D00080000000010
:10002000000000000000000000000000B1700008A7
:10003000CF1D00080000000041710008D7690008CA
:10004000E5050008E5050008E5050008E5050008E8
:10005000E5050008E5050008E5050008E5050008D8
:10006000E5050008E5050008E5050008E5050008C8
:10007000E5050008E5050008E5050008E5050008B8
:10008000E5050008E5050008E5050008E5050008A8
:10009000E5050008E5050008E5050008E505000898
:1000A000E5050008E5050008E5050008E505000888
:1000B000E5050008E5050008E5050008E505000878
:1000C000E5050008E5050008E5050008E505000868
:1000D000E5050008E5050008E5050008E505000858
:1000E000E5050008E5050008E5050008E505000848
:1000F000E5050008E5050008E5050008E505000838
:10010000E5050008E5050008E5050008E505000827
:10011000E5050008E5050008D11D0008E505000813
:10012000E5050008E5050008E5050008E505000807
:10013000E5050008E5050008E5050008E5050008F7
:10014000E5050008E5050008E5050008E5050008E7
:10015000E5050008E5050008E5050008E5050008D7
:10016000E5050008E5050008E5050008E5050008C7
:10017000E5050008E5050008E505000800000000A9
:10018000E5050008E5050008E5050008E5050008A7
:10019000E5050008E5050008E5050008E505000897
:0C01A000DD1D0008E5050008E91D000851
:1001B00010B5054C237833B9044B13B10448AFF3A1
:1001C00000800123237010BD6401002000000000A6
:1001D00080C1010808B5034B1BB103490348AFF3C5
:1001E000008008BD000000006801002080C10108F7
:1001F00001F0FF01102A2BDB10F0070F08D010F8D8
:10020000013B013A8B422DD010F0070F42B3F6D1DB
:10021000F0B441EA012141EA014122F007047FF0F4
:1002200000070023F0E80256083C85EA010586EA4B
:10023000010685FA47F5A3FA87F586FA47F6A5FA87
:1002400087F68EB9EED1F0BC01F0FF0102F0070293
:1002500032B110F8013B013A83EA010313B1F8D13E
:100260000020704701387047002D06BF354603381F
:10027000073815F0010F07D1013015F4807F02BF58
:10028000013015F4C03F0130F0BC0138704700BFA9
:1002900053B94AB9002908BF00281CBF4FF0FF31ED
:1002A0004FF0FF3000F074B9ADF1080C6DE904CEE9
:1002B00000F006F8DDF804E0DDE9022304B0704741
:1002C0002DE9F047089D04468E46002B4DD18A4209
:1002D000944669D9B2FA82F252B101FA02F3C2F13C
:1002E000200120FA01F10CFA02FC41EA030E9440CD
:1002F0004FEA1C48210CBEFBF8F61FFA8CF708FBEE
:1003000016E341EA034306FB07F199420AD91CEBC5
:10031000030306F1FF3080F01F81994240F21C81F7
:10032000023E63445B1AA4B2B3FBF8F008FB10333F
:1003300044EA034400FB07F7A7420AD91CEB040474
:1003400000F1FF3380F00A81A74240F20781644444
:10035000023840EA0640E41B00261DB1D4400023C9
:10036000C5E900433146BDE8F0878B4209D9002D2D
:1003700000F0EF800026C5E9000130463146BDE8B7
:10038000F087B3FA83F6002E4AD18B4202D3824221
:1003900000F2F980841A61EB030301209E46002DD0
:1003A000E0D0C5E9004EDDE702B9FFDEB2FA82F225
:1003B000002A40F09280A1EB0C014FEA1C471FFA83
:1003C0008CFE0126200CB1FBF7F307FB131140EA6A
:1003D00001410EFB03F0884208D91CEB010103F137
:1003E000FF3802D2884200F2CB804346091AA4B2F9
:1003F000B1FBF7F007FB101144EA01440EFB00FECD
:10040000A64508D91CEB040400F1FF3102D2A64531
:1004100000F2BB800846A4EB0E0440EA03409CE7D0
:10042000C6F12007B34022FA07FC4CEA030C20FA7D
:1004300007F401FA06F31C43F9404FEA1C4900FA9D
:1004400006F3B1FBF9F8200C1FFA8CFE09FB18111A
:1004500040EA014108FB0EF0884202FA06F20BD98D
:100460001CEB010108F1FF3A80F08880884240F2DD
:100470008580A8F102086144091AA4B2B1FBF9F021
:1004800009FB101144EA014100FB0EFE8E4508D91C
:100490001CEB010100F1FF346CD28E456AD90238A1
:1004A000614440EA0840A0FB0294A1EB0E01A14286
:1004B000C846A64656D353D05DB1B3EB080261EBF4
:1004C0000E0101FA07F722FA06F3F1401F43C5E9CE
:1004D000007100263146BDE8F087C2F12003D84004
:1004E0000CFA02FC21FA03F3914001434FEA1C4746
:1004F0001FFA8CFEB3FBF7F007FB10360B0C43EA38
:10050000064300FB0EF69E4204FA02F408D91CEBE7
:10051000030300F1FF382FD29E422DD902386344E5
:100520009B1B89B2B3FBF7F607FB163341EA034185
:1005300006FB0EF38B4208D91CEB010106F1FF38D4
:1005400016D28B4214D9023E6144C91A46EA0046CB
:1005500038E72E46284605E70646E3E61846F8E65D
:100560004B45A9D2B9EB020864EB0C0E0138A3E7A6
:100570004646EAE7204694E74046D1E7D0467BE787
:10058000023B614432E7304609E76444023842E7FF
:10059000704700BFDFF834D0002103E00C4B5B58FC
:1005A000435004310B480C4B42189A42F6D30B4A85
:1005B00002E0002342F8043B094B9A42F9D303F0CE
:1005C000E3FF1AF077FD00F0E5FE7047000003201E
:1005D000C89D0D0800000020640100206401002077
:1005E000642B0120FEE7704708B500F01DFDBDE853
:1005F000084000F0A9BC00F019BD704710B50421F7
:1006000004461AF0DFFC204610BD000038B50C4B44
:100610000C4C18800C4B822019806368984740F678
:10062000110398420AD1094D23682C608220984713
:100630002B688220DB689847002038BD0120FCE74A
:10064000800100204C000020820100208401002055
:100650004FF4A071F020FFF7D9BF0000F7B52D4D82
:100660002B6804461B698220984780B220800028AE
:1006700043D02B680DF106025B6901A982209847DF
:10068000BDF80620A2F5B47292B20A2A37D90B231C
:10069000B2FBF3F2204B1B889A4201D9013B9AB27C
:1006A000BDF8043040F6B8318B422AD8C3F57163E7
:1006B0000E339BB20F21B3FBF1F3184909888B422B
:1006C00001D94B1E9BB2164E164D30682F688342DF
:1006D00081B28CBF591AC91AB8B2BA428CBF101A6B
:1006E000801A89B280B201440529C8BF33603368DB
:1006F000C8BF2A6063802B68A38003B0F0BD0022CE
:10070000CEE7C3F56D6308339BB20E2BD2D800231E
:10071000D9E700BF84010020820100208001002071
:10072000880100208C01002037B568460D4614462C
:10073000FFF794FFBDF8000030B1BDF802302B6028
:10074000BDF804302360012003B030BD032821D858
:10075000DFE800F0020B12190F4B1A68B2FA82F2AE
:10076000520904210D4804F0A7B90B4B5A68B2FA9C
:1007700082F252090821F5E7074B9A68B2FA82F231
:1007800052091021EEE7044BDA68B2FA82F25209FC
:100790002021E7E7704700BF9001002000100240D1
:1007A000032821D8DFE800F0020B12190F4B1A685A
:1007B000003A18BF012204210D4804F07DB90B4B0B
:1007C0005A68003A18BF01220821F5E7074B9A68DA
:1007D000003A18BF01221021EEE7044BDA68003A14
:1007E00018BF01222021E7E7704700BF90010020D9
:1007F0000010024003280DD8DFE800F00206080AC6
:100800000421054804F05DB90821FAE71021F8E752
:100810002021F6E7704700BF0010024008B503280A
:1008200011D8DFE800F0020A0C0E0421074804F09A
:100830003DF9431E5842584108BD0821F6E71021F2
:10084000F4E72021F2E70020F3E700BF00100240A8
:1008500070B5084D00240126E0B2FFF7DFFF18B1A4
:100860002B68012B18BF2E600134052C05F10405FF
:10087000F2D170BD90010020012380F8741080F83F
:100880007530704700207047034B4164003918BF32
:1008900001211970704700BFBF2801200020704758
:1008A000836B0BB10846184770474FF6FF707047CF
:1008B000406803689B69184770477047704700009D
:1008C00070B5044600F080FC2368D3F88850044BD0
:1008D000D4E90F122046AC46BDE87040604700BF27
:1008E000000000D008B503680446D3F8803098476C
:1008F000236820469B6F984700F0ECF82368204659
:100900001B6F9847292000F07DFF00F0E3F8236873
:1009100020461B6F9847F8E710B5044609F0B0F978
:1009200023682046D3F8AC30BDE81040184700F0EB
:100930003DBC00F041BC00F06DBC00F013BC00F009
:1009400075BC00F07DBC00F017BC08F0FFBB10B513
:100950007C2104461AF036FB204610BD90F8773013
:100960001BB1406803681B681847184670470000B1
:1009700010B590F8341090F874400C4B8C421A78F3
:1009800009D03AB90A4A0B491488088810800C80AB
:1009900001221A7010BD002AFCD0054A05491488AE
:1009A000088810800C800022F3E700BFB8280120DF
:1009B000B4280120B628012070B50D46194635B976
:1009C000094B0A4A0A4840F2D2211AF029FBC0E931
:1009D0000F52084B003A18BF01221A700368BDE895
:1009E0007040D3F88C301847F0C1010828C20108C4
:1009F00076C20108BE28012008B5094B1B888B422E
:100A000003D8084B1B88934205D9074B074A08486F
:100A10009E211AF005FB074B1980074B1A8008BD71
:100A2000B4280120B6280120BBC201081EC301085A
:100A300076C20108BA280120BC280120012108B58E
:100A40000022084606F055F80A4B186028B90A4BF0
:100A50000A4A28210A481AF0E3FA00220421012058
:100A600006F0E4F8074B186018B9074B034A2C212D
:100A7000F0E708BDA40100203CC4010885C40108BA
:100A8000B4C40108A001002008C50108024B4FF0C2
:100A9000FF31186806F077B8A4010020014B1868F0
:100AA00006F09CB8A4010020024B0021186806F053
:100AB0006AB800BFA4010020FFF7F0BF0348044953
:100AC000006800231A4606F0ECB800BFA001002021
:100AD0000400002013B5084C00231A4601A9206821
:100AE00006F00FF920684FF0FF33002201A906F04D
:100AF00008F902B010BD00BFA001002003685B6CC4
:100B000018470120704703689B6A184782B000238A
:100B100001930D4B1A6B42F400021A631A6B02F434
:100B200000020192019A1A6942F400021A611A69DC
:100B300022F400021A61054B054A1A61054B4FF079
:100B400080629A6002B0704700380240941800201A
:100B5000990B000800E100E040F2EF307047000020
:100B6000054B0360054B4FF08062C3F88820BFF34C
:100B70004F8FBFF36F8F7047ACC6010800E100E0F4
:100B800010B504464FF45A61FFF7EAFF20461AF009
:100B900019FA204610BD0000024B1B685868036814
:100BA0005B691847C028012070B5044625460A4BEA
:100BB0000C30002660602672667245F8203B602289
:100BC000294609F09BF904F55A63EE602435AB42DF
:100BD000FBD1204670BD00BFACC6010808B50B298B
:100BE0000BD8DFE801F01206100A0A0A0A08080802
:100BF0000808012008BD0520FCE7054B054A06480A
:100C000066211AF00DFA0020F4E70220F2E700BF97
:100C10004AC5010865C50108AFC5010808B50A291C
:100C200009D8DFE801F010060E08080808060606D5
:100C30000600012008BD054B054A064887211AF029
:100C4000EFF90020F6E70220F4E700BF4AC50108EB
:100C500001C60108AFC501082DE9F8434F7F0C46D6
:100C600039468146FFF7BAFF94F81E800546414693
:100C70004846FFF7B3FF414606464846FFF7CEFF1A
:100C8000A18A628B424B521A1A649A61228B521AC1
:100C90001A61E28A586342EA01425A642069626832
:100CA000D863DA60216894F81CC080294FEA0C628E
:100CB00026D010D8202945EA020461D040295FD00F
:100CC00004295DD0324B2A4342F400324745DA61B1
:100CD0005AD0304A40E0B1F5807F07D0B1F5007FAF
:100CE000F0D142F4003242F0090203E042F4003253
:100CF00042F00A02DA61E2681A625E6258612AE032
:100D0000A4682A4342F40032211DD962DA612278B4
:100D10005E62586142B1012A21D01F4B1F4A204810
:100D200040F211111AF07CF9DA69618822F47F42ED
:100D3000013922F0100242EA0122DA610120144B4B
:100D4000DA6942F02002DA61DA699206FCD41022F4
:100D50009A600028BDD0134A1A60BDE8F883628803
:100D6000D969541E21F47F4222F0100242EA042283
:100D7000BCF1FF0042F0100218BF0120DA61DEE78B
:100D800044F40034DC61B8E740F20122E4E700BF3C
:100D900000B00240010201004CC6010866C601080D
:100DA000AFC501080102020070B50C46897FFFF74C
:100DB00035FFA68AE18A628B154B2569586341EAA3
:100DC0000641921B5964DD631A642668E168082EA7
:100DD0000DD19A611A615862207F0E4A42EA006280
:100DE000DA610D4A19625D61DD601A6070BD002232
:100DF000D8611A6148090A0A02F4784200F4FC60DA
:100E00000243C1F3C4010A439A63044AEDE700BFF9
:100E100000B00240090001000102020001020300CB
:100E2000012070470C2070470C2303FB01000830A1
:100E300070470C2303FB0100083070470120704706
:100E40004FF4D16070474FF4D16303FB01000830C9
:100E500070474FF4D16303FB010008307047012055
:100E600070471020704700EB01100830704700EB0E
:100E7000011008307047084601F0F4B810B5034B74
:100E80000360044607F0B9FE204610BD64C70108A0
:100E900010B50446FFF7F2FF204614211AF092F82D
:100EA000204610BD10B5034B0360044607F0A5FEB5
:100EB000204610BD30C7010810B50446FFF7F2FF09
:100EC00020464FF4D2611AF07DF8204610BD000094
:100ED00010B5034B0360044607F08FFE204610BD9B
:100EE000FCC6010810B50446FFF7F2FF20461821A2
:100EF0001AF068F8204610BD10B5084B0360044690
:100F000000F2BC60FFF7BAFF04F12C00FFF7CAFF44
:100F100004F11400FFF7DCFF204610BD98C701085C
:100F200008B50248FFF7E8FF08BD00BFAC0100208C
:100F300010B50446FFF7E0FF20464FF403611AF0B6
:100F400041F8204610BD00002DE9F34100F0C0FF3C
:100F5000054600F0C1FF00240146234628462246EC
:100F600000940EF023FA254B254A264D1A602046A0
:100F700002F028FA24480EF081F92B78BFF35B8F3A
:100F8000DB0735D428461AF01FF888B31F4C204BD6
:100F9000236004F2D46604F1140004F12C0804F276
:100FA000BC676060C4F80880E760266107F026FE31
:100FB000184B6361404607F021FE174BE362384649
:100FC00007F01CFE154BC4F8BC3604F5DA6002F0DD
:100FD000B9FF224604F5DA61304602F069FF304677
:100FE00001F040F80E481AF039F8284619F0F8FFD9
:100FF0000C4802B0BDE8F041FFF762BC1C2901209B
:10100000FC170020A801002008000020AC010020EF
:1010100098C70108FCC6010830C7010864C7010869
:10102000210F000880170020704700000148FFF7DB
:1010300059BC00BF8017002070B5234C234E244BB1
:10104000244D23603046FFF7AFFD284611F0B8FA73
:10105000214B2248DC60224C03600022F0204FF438
:1010600080712080C3E912121E4C1F492080C3E901
:1010700019121E4C1A864FF080714FF4A0705967F8
:101080000121C3E90422C3E90622C3E90822C3E916
:101090000A22C3E90E22C3E91022C3E91422C3E9DC
:1010A00016221A6683F86C201A67C3E9016583F873
:1010B000781020800E4C83F8341020800D48027088
:1010C0000D4A1A6070BD00BFDC090020E009002055
:1010D000E0C101080018002080170020C02801206E
:1010E000B4280120BA28012001000001B6280120FF
:1010F000BC280120B82801206CC301080148FFF773
:101100002FBD00BFE009002000207047818070479C
:10111000C1807047018170474181704770477047B7
:1011200070477047704710B4C4880368121B8488E6
:101130005B6D091B12B25DF8044B09B218474FF6FC
:10114000FF7383814FF0FF3303621368C361106044
:10115000704790F825201AB190F8242002B1186049
:1011600070470000034B902283F85A2383F85823DA
:10117000704700BF00E100E0094A0A49D3680A4805
:10118000C3F30A03013B9BB20B801169C1F30A014F
:10119000013901801364536B43F0010353637047BB
:1011A000006801407C1800207A180020014BD3F819
:1011B000AC00704700680140024B0122C3F8AC103C
:1011C0005A6270470068014070B5044608F013F891
:1011D00023685D6E0BF006FC01462046A847236895
:1011E000054AD3F888502046AC460023BDE870403D
:1011F000A2F51631604700BF00B004D007F0E2BF8F
:1012000090F84B3013B1024B01221A7007F0E6BF81
:101210007818002007F0A0BF08F0FBB890F8252050
:1012200012B103685B69184770470000034B4FF029
:1012300080629A604FF080729A60704700E100E02F
:10124000084B4FF08062C3F88820BFF34F8FBFF385
:101250006F8F4FF08072C3F88820BFF34F8FBFF3BA
:101260006F8F704700E100E010B5144C236823B382
:10127000134B144A1B6C11888B4213D1124B1988E3
:1012800004F000FA226892F86630013382F8663082
:10129000FFF714FC206808F0F3FCBDE810400020C4
:1012A000FFF754BA04F0EEF9206803681B6A984708
:1012B000BDE810400020FFF773BA10BDC028012020
:1012C000006801407C1800207A18002007B5064B02
:1012D000ADF806001B68054801220DF1060104F077
:1012E0001DFF03B05DF804FB10000020041A00206D
:1012F00008B5642005F0F1FBFBE7000030B595B0C0
:10130000102200210AA819F017FF1422002103A8B7
:1013100019F012FF00241D4B01941A6C42F0805208
:101320001A641B6C03F080530193019B184B0294C9
:101330001A6842F440421A601B6803F44043029367
:101340000122029B4FF48033CDE9082302254FF49C
:101350008003CDE90E5308214FF4A873CDE9101393
:1013600008A804231393129504F0AAF90F23CDE9DA
:1013700003354FF4A0504FF48053CDE90603052107
:1013800003A8059404F07AFB15B030BD0038024084
:101390000070004080B59AB003F004F9FFF7AEFF8B
:1013A000142200210DA8002419F0C6FEC04B0094A1
:1013B0001A6BC048C04D42F010021A631A6B02F05B
:1013C00010020092009A01941A6B42F020021A63F4
:1013D0001A6B02F020020192019A02941A6B42F0F9
:1013E00080021A631A6B02F080020292029A03943E
:1013F0001A6B42F004021A631A6B02F004020392A1
:10140000039A04941A6B42F001021A631A6B02F0F9
:1014100001020492049A05941A6B42F002021A63C4
:101420001A6B02F002020592059A06941A6B42F0BA
:1014300040021A631A6B02F040020692069A079461
:101440001A6B42F008021A631B6B03F00803079340
:1014500022463C21079B03F02FFB9848224604219B
:1014600003F02AFB224696484FF4405103F024FB38
:1014700001264FF003083C238E48CDF840800DA98B
:1014800002274FF00409CDE90D360F9403F028FA36
:101490008A480F940DA9CDE90D96109703F020FA14
:1014A0000DA94FF440538648CDE90D36CDE90F47DD
:1014B00003F016FA8348844B036003F005F9834A6E
:1014C000834B2C62C5E9002328464FF48043C5E9CD
:1014D0000434C5E90244C5E9064403F0D7FC1021F1
:1014E000284603F013FF2146284603F02EFF7948D3
:1014F000794984624FF48273C0E900134FF4007598
:101500001823C0E906530A23744DC362C0E902449C
:10151000C0E90444C0E9084404F0A4FD704B0D97F1
:101520004FF0100CC5E900364023C5E904C34FF461
:10153000C073C5E906344FF40063C5E908344FF4BD
:101540000053AB620DA907232846CDE90E39CDE93A
:1015500010384FF0080AC5E90249CDE9127704F0C6
:1015600081FC4FF6FF7209A92846CDE90AA6089426
:1015700009960C9404F096FC304603F03FF84FF6C1
:10158000FF7209A92846CDE9097ACDE90B6404F078
:1015900089FC4FF6FF7209A92846CDE9098ACDE9F1
:1015A0000B9404F07FFC4FF40C730893089B0C938E
:1015B0004FF6FF7209A92846CDE9099A0B9604F067
:1015C00071FC40F26A51284604F08AFC342221461C
:1015D0000DEB020019F0B0FD424D434BAC86C5E95E
:1015E00000340923C5E905361D2340F20D1EC5E967
:1015F000073840F24313C5E909E3284640F2471390
:1016000040F21718C5E90B83C5E902442C6185F83F
:10161000364003F03FFFFF21F022CDE912144FF4D2
:10162000806905214FF4A073CDE90E24CDE9149112
:10163000CDE916420DA922462846CDE910372B4D9B
:1016400018930D94ADF864408DF8664003F0EDFFFB
:10165000274B2B601B6898472B68264DDB68984703
:10166000254BC5E90A47C5E90C442846C5E90034BD
:10167000C5E9027403F038F83146284603F0ECF867
:10168000FEF7B2FFFEF7AFFF05F0B2F91B4A1C48A8
:10169000214605F0D9F91B4B1B4A186021461B480F
:1016A00005F0D2F91A4B186005F0B4F9FEE700BF57
:1016B0000038024000100240D41800200008024008
:1016C000000C02408C18002000300240005C0040FA
:1016D000A0860100041A002000500140D01900200B
:1016E000400100A028190020006801408418002053
:1016F000140000209418002000B00240E0C7010848
:10170000F112000888180020BCC70108F70500087E
:1017100080180020704770477FB5094B8DF817205F
:101720001B6802930DF117020123009201930A46F0
:101730000146044803F052FC07B05DF804FB00BF0B
:101740000C000020D41800207FB500238DF817303E
:10175000084B1B6802930A4601230DF11701009103
:1017600001930146044803F0C9FC9DF8170007B037
:101770005DF804FB0C000020D41800201FB5084CB5
:1017800024680092CDE901340A4601230146054848
:1017900003F0B4FC003818BF012004B010BD00BF36
:1017A0000C000020D418002002F028BF08B506481D
:1017B0000022042103F080F9BDE80840024801221C
:1017C000042103F079B900BF0008024038B50B4D81
:1017D000044601220A484FF4005103F06DF900223B
:1017E0000421284603F068F92046FFF76FFD2846DC
:1017F0000122BDE83840042103F05EB90008024030
:10180000000C024038B50B4D044600220A484FF444
:10181000005103F051F900220421284603F04CF94D
:101820002046FFF753FD28460122BDE83840042139
:1018300003F042B900080240000C0240F7B5144E14
:10184000144F05460C4630460022042103F034F9BB
:1018500000224FF40051384603F02EF92846FFF7D6
:1018600035FD0D4B0D481B68224601A904F0F8FD1B
:10187000384601224FF40051019C03F01DF9304617
:101880000122042103F018F9204603B0F0BD00BF87
:1018900000080240000C024010000020041A002042
:1018A00002F0ACBE0268034B9A4201D102F094BE32
:1018B000704700BF001000407047000082B00E4B20
:1018C00000220092596C41F480415964596C01F432
:1018D0008041009100990192196C41F08051196486
:1018E0001B6C03F080530193019B0F216FF00100EB
:1018F00002B002F0A9BE00BF003802400268094BE6
:101900009A4282B00BD100230193074B1A6B42F429
:1019100080521A631B6B03F480530193019B02B046
:10192000704700BF003002400038024007B50F4B3F
:1019300002689A4216D10022A3F5F0430192196B76
:1019400041F4000119631B6B03F4000301930521AB
:101950005A20019B02F078FE5A2003B05DF804EB98
:1019600002F0A4BE03B05DF804FB00BF00B002406B
:101970002DE9F043044689B01422002103A819F090
:10198000DBFB2268244B9A4243D1244C2448002597
:101990000095236B43F004032363236B03F00403DC
:1019A0000093009B0195236B43F001032363236B9A
:1019B00003F001030193019B4FF012094FF40073F0
:1019C0004FF001080327042603A9CDE90339CDE927
:1019D0000587079602F084FF4FF48073114807963D
:1019E00003A9CDE90339CDE9058702F079FF029516
:1019F000236C43F400032364236C03F40003029379
:101A0000029B236A43F400032362236A23F4000346
:101A1000236209B0BDE8F083005C0040003802405A
:101A20000008024000000240F0B599B004461422BC
:101A3000002107A819F080FB30220DEB02000021E5
:101A400019F07AFB22685E4B9A4240F0B780082377
:101A50000C93C0231093042312930CA84FF400336B
:101A6000159304F0D5F808B1FFF726FF554B5648FB
:101A7000002400945A6C42F080625A645A6C02F05E
:101A800080620092009A01941A6B42F020021A635D
:101A90001A6B02F020020192019A02941A6B42F032
:101AA00001021A631A6B02F001020292029A039475
:101AB0001A6B42F002021A631A6B02F002020392DE
:101AC000039A04941A6B42F040021A631A6B02F0F4
:101AD00040020492049A05941A6B42F004021A63BD
:101AE0001A6B02F004020592059A06941A6B42F0F2
:101AF00008021A631B6B03F00803069302250E26E7
:101B0000069B0B964FF4806307A9CDE90735CDE915
:101B1000094502F0E5FE41F658032C480B9607A94B
:101B2000CDE907350927CDE9094502F0D9FE0323A0
:101B300027480B9707A9CDE90735CDE9094502F0FC
:101B4000CFFE4FF4706322480B9607A9CDE9073505
:101B5000CDE9094502F0C4FE4FF40C631D480B9615
:101B600007A9CDE90735CDE9094502F0B9FEC02343
:101B700019480B9607A9CDE90735CDE9094502F0CB
:101B8000AFFE082315480B9607A9CDE90735CDE927
:101B9000094502F0A5FE4FF4A0530E480B9707A984
:101BA000CDE90735CDE9094502F09AFE58202246D5
:101BB000052102F049FD582002F078FD19B0F0BD72
:101BC000006801400038024000140240000002405A
:101BD000000402400018024000080240000C0240CD
:101BE00010B5044688B01422002103A819F0A4FA05
:101BF0002268144B9A4223D103F5684300210191D6
:101C00005A6C114842F480125A645A6C02F48012E1
:101C10000192019A02911A6B42F020021A631B6B27
:101C200003F020030293029B4FF46072022303210E
:101C3000CDE903230523CDE9061303A902F050FEE5
:101C400008B010BD00500140001402402DE9F041E1
:101C500086B0002303932B4B1C68002C4FD14FF010
:101C60000108C3F80080284B00949A6B274842EA89
:101C700008029A639B6B03EA08030093022703267A
:101C80000C25009B01A94FF63F03CDE90137CDE9B3
:101C9000046502F025FE1E48059501A9CDE90187DE
:101CA000CDE9034602F01CFE48F2331319480595AE
:101CB00001A9CDE90137CDE9034602F011FE4FF647
:101CC00083731548059501A9CDE90137CDE9034690
:101CD00002F006FE4CF203731048059501A9CDE908
:101CE0000137CDE9034602F0FBFD60230C48059562
:101CF00001A9CDE90137CDE9034602F0F1FD06B0B7
:101D0000BDE8F0815C1A0020003802400014024057
:101D1000000802400018024000100240000C02407F
:101D20000004024070B588B000230293204B1A6C67
:101D300042F010021A641B6C03F010030293054674
:101D400001A903A8029B03F045FF069B4BBB03F0D0
:101D500031FF184E184B336040F2E733F360174BF6
:101D6000B0FBF3F3013B7360304600233361B36093
:101D7000B36104F061FD044680B9304604F016FCFE
:101D8000044658B9362002F091FC0F2D0DD822469A
:101D90002946362002F058FC094B1D60204608B049
:101DA00070BD03F007FF4000D3E70124F6E700BF52
:101DB00000380240601A00200010004040420F002E
:101DC0007C0000207047FEE7FEE7FEE7FEE7704775
:101DD000014804F029BC00BF601A0020014803F04C
:101DE000C7BB00BF28190020014802F0ABBC00BFF0
:101DF000941800200120704708B519F043F9162304
:101E000003604FF0FF3008BD08B519F03BF9162309
:101E10000360FEE770B50D4614460E46731B9C42E8
:101E200001DC204670BDAFF3008006F8010BF5E73A
:101E300070B50D4614460E46731B9C4201DC2046CD
:101E400070BD16F8010BAFF30080F5E74FF0FF30DF
:101E500070474FF400534B600020704701207047DB
:101E6000002070470A4A116808B5034609B90949B4
:101E700011601068694603448B4206D919F002F9D3
:101E80000C2303604FF0FF3008BD1360FCE700BF78
:101E9000A81A0020682B0120704710B504210446C1
:101EA00019F090F8204610BD012908B506D0022986
:101EB00008D059B901F0D2FA006808BD01F0CEFA95
:101EC0004068FAE701F0CAFA8068F6E70020F4E714
:101ED0000048704718C801082720704713B5002430
:101EE00051B1036801948DF8034001AA9C680DF17B
:101EF0000303A04702B010BD0846FBE7C089704746
:101F0000008A7047C088704780887047807A00F0E8
:101F10007F007047807AC0097047704710B508216C
:101F2000044619F04FF8204610BD7047704700F581
:101F300098730868496803C37047704770474160E9
:101F400070477047064BC0F84C310023C0F8503141
:101F500000F5A273C0F84801C0F84031704700BFD7
:101F6000692300080123037270477047704710B45B
:101F7000C26841685410034601EB6200D20748BFB3
:101F80000A599B685DF8044B48BFD358184743680B
:101F90002BB183682BB9C06800F001007047184668
:101FA00070470120704710B50C21044619F00AF85B
:101FB000204610BD10B51021044619F003F8204644
:101FC00010BD10B54FF4AE71044618F0FBFF20466B
:101FD00010BD08B50AF006FDBDE808400BF094B945
:101FE00010B50446D0F8400158B10368DB68984743
:101FF00038B1D4F8400103689B6898470023C4F8BF
:10200000403110BDF8B5044617460E460AF0F6FDFD
:10201000104B0025C4E955760F4E1C60C4E953559A
:102020000E4B306823600E4BC4E951350368012123
:102030009B68C4E94F559847284601F0C3F93368B7
:1020400093F876200AB1D86C00B9986812F09FF81E
:102050002046F8BD0C290120C028012088D00108A5
:1020600070D00108064BC0F84C310023C0F8503145
:1020700000F5A273C0F84801C0F84031704700BFB6
:1020800069230008064BC0F84C310023C0F85031DA
:1020900000F5A273C0F84801C0F84031704700BF96
:1020A00019220008064BC0F84C310023C0F850310B
:1020B00000F5A273C0F84801C0F84031704700BF76
:1020C000CD20000803685B6A184700002DE9F14F36
:1020D000D0E9555A0746A86803681B6A9847D32871
:1020E00005D8454B454AA321454818F099FF686833
:1020F00003681B6A98470F2803D8424B3F4AA42124
:10210000F2E7E86803681B6A98470B2803D83E4B40
:102110003A4AA521E8E70AF065FCDFF8F4900430BC
:102120000AF09EFCD9F8000010B10368DB689847FC
:10213000D9F8000010B103681B689847DFF8D48015
:10214000D8F8000010B103685B699847D7F83C01E4
:1021500010B103685B689847D8F8000010B10368B5
:102160001B689847D7F83C0110B103689B689847F3
:10217000E8680021FFF7A6FF4FF0000B234B036038
:102180000446C0F804B080F808B0A868036859464F
:102190005B6A9847064601F00BFF6868036859467A
:1021A0005B6A98473146054601F0DEFEC9F80040FB
:1021B000C7F83C51C8F80060E5B12B1DCAF80030E3
:1021C0003368C5F808A03046DB68F56398472B688C
:1021D00028461B689847214630460CF0E5F82368EE
:1021E00020461B69984723685B69204601B0BDE81B
:1021F000F04F18472B46E1E734CB0108C2CB01086A
:10220000CACC010811CD0108B4CD0108D4D0010811
:1022100000290120FC2801202DE9F14FD0E9555A71
:102220000746A86803681B6A9847B0F5D16F05D2C6
:10223000454B464AA321464818F0F2FE68680368F9
:102240001B6A98470F2803D8424B404AA421F2E763
:10225000E86803681B6A98470B2803D83E4B3B4A43
:10226000A521E8E70AF0BEFBDFF8F49004300AF09D
:10227000F7FBD9F8000010B10368DB689847D9F87C
:10228000000010B103681B689847DFF8D880D8F8C1
:10229000000010B103685B699847D7F83C0110B1A2
:1022A00003685B689847D8F8000010B103681B68A2
:1022B0009847D7F83C0110B103689B689847E868D5
:1022C0000021FFF7FFFE4FF0000B244B0360044694
:1022D000C0F804B080F808B0A868036859465B6A83
:1022E0009847064601F0A4FE6868036859465B6A91
:1022F00098473146054601F075FEC9F80040C7F819
:102300003C51C8F80060E5B12B1DCAF800303368B5
:10231000C5F808A03046DB68F56398472B68284667
:102320001B689847214630460CF03EF8236820464B
:102330001B69984723685B69204601B0BDE8F04FF0
:1023400018472B46E1E700BF34CB010857CE010800
:10235000CACC010811CD0108B4CD0108D4D00108C0
:1023600000290120FC2801202DE9F14FD0E9555A20
:102370000746A86803681B6A9847B0F5946F05D2B2
:10238000454B464AA321464818F04AFE6868036850
:102390001B6A98470F2803D8424B404AA421F2E712
:1023A000E86803681B6A98470B2803D83E4B3B4AF2
:1023B000A521E8E70AF016FBDFF8F49004300AF0F4
:1023C0004FFBD9F8000010B10368DB689847D9F8D3
:1023D000000010B103681B689847DFF8D880D8F870
:1023E000000010B103685B699847D7F83C0110B151
:1023F00003685B689847D8F8000010B103681B6851
:102400009847D7F83C0110B103689B689847E86883
:102410000021FFF757FE4FF0000B244B03600446EA
:10242000C0F804B080F808B0A868036859465B6A31
:102430009847064601F07AFD6868036859465B6A6A
:1024400098473146054601F04BFDC9F80040C7F8F2
:102450003C51C8F80060E5B12B1DCAF80030336864
:10246000C5F808A03046DB68F56398472B68284616
:102470001B689847214630460BF096FF236820469C
:102480001B69984723685B69204601B0BDE8F04F9F
:1024900018472B46E1E700BF34CB010867CF01089E
:1024A000CACC010811CD0108B4CD0108D4D001086F
:1024B00000290120FC280120406A7047806A70478B
:1024C00070478B88C0690A68DB0A50F82300104403
:1024D000704710B5C2B1137BB3B1547BD27A2402DA
:1024E00004F4E0641443026A98B202EB8402138895
:1024F0008B4202D192F9020010BD05D8013880B29A
:1025000004320028F3D1F7E70020F5E710B52C21BD
:10251000044618F057FD204610BD000030B58BB0C2
:102520000446BDF860500895BDF85C5007959DF8CD
:10253000505006959DF84C5005959DF848500495CF
:102540009DF8445003959DF8405002959DF83C50ED
:102550000195BDF8385000950BF080FB064B2360C9
:10256000159BE361169B2362199B63621A9BA3620E
:1025700020460BB030BD00BFF8D00108806A70471C
:102580007047704770477047704730B503680181E6
:1025900085B06D460146D3F88430044628469847F6
:1025A00095E807003C3484E8070005B030BD30B53D
:1025B0000368418185B06D460146D3F884300446F6
:1025C0002846984795E807003C3484E8070005B0A2
:1025D00030BD0022028042808280C280704780F835
:1025E0003610704770B5036804461B6B1546984754
:1025F0002368294620465B6EBDE8704018470020DE
:102600007047806C704770477047704790F82C3067
:102610004BB100F17002126802663BB100F1780321
:102620001B684366704700F16C02F4E700F1740325
:10263000F6E708B590F82C303BB100F1C8031B68F1
:10264000C0F8AC30FFF7E2FF08BD00F1C403F6E7C5
:1026500070477047704730B4C268446855100346ED
:1026600004EB6200D20748BF62599B6830BC48BF88
:10267000D358184743682BB183682BB9C06800F062
:1026800001007047184670470120704790F82D30C0
:1026900080F8B23080F85E30704790F82D3080F8C6
:1026A0005E30704710B54C21044618F08BFC204674
:1026B00010BD10B51021044618F084FC204610BD52
:1026C00010B57C21044618F07DFC204610BD10B5E5
:1026D000CC21044618F076FC204610BD10B54FF40E
:1026E0009461044618F06EFC204610BD08B5FEF754
:1026F00095FD08BD10B50446006B50B10368DB685A
:10270000984730B1206B036821469B68BDE81040B4
:10271000184710BD036870B55E6B124B1B6804460A
:102720008DB22BB9104B114A6C21114818F078FC6E
:102730001049828D0988914203D80F4B0B4A6D21B5
:10274000F3E713F812200D4B1B6853F822000368BF
:102750001B6B9847281A01B233462046BDE87040EB
:10276000184700BF1029012050D1010892D101085B
:10277000CDD101081429012014D201081829012003
:1027800070B50D46097990F8342090F82C30A1F1FD
:10279000020CDCF1000646EB0C060129044680F829
:1027A000346016D0BAB983F0010380F82C30036886
:1027B000D3F88C309847236820465B6998472B797B
:1027C000012B08D123682046D3F88830BDE870403B
:1027D0001847002AF6D070BD38B500F589639942D4
:1027E00004460D4603D10AF0FDF8FFF74BFC04F553
:1027F000B274A54205D10AF0F5F8BDE83840FFF7FC
:1028000051BC38BD00224FF0FF31C0E90021826089
:10281000704770B5036804461B6B154698472368DC
:10282000294620465B6BBDE87040184770B50368C9
:1028300004469B6B15469847236829462046DB6B68
:10284000BDE87040184738B504461D46FFF7E1FF64
:10285000BDF9102029462046FFF7E8FF38BD0000EB
:102860000022C0E90122C0E90322C0E90522C0E933
:1028700007224FF480728284014A0260704700BFD1
:1028800094D2010810B526220446002118F054FC09
:102890002046FFF7E5FF044B2360FF2384F8263032
:1028A0000023A362204610BDFCDA010810B52622E1
:1028B0000446002118F040FC2046FFF7D1FF0A4BE8
:1028C00023600A4BA3624FF6FF73A3854FF47F0288
:1028D0000023C4E90C324FF0FF32C4E910232387F0
:1028E000E363204610BD00BF6CDA01082CCB010861
:1028F0001A4B73B51B88018F8B4206462AD9184B99
:102900001B682BB9174B184A18486C2118F088FB24
:1029100013F81120164B1B6853F82250154B1868FA
:1029200000F08CFD2B6801909B6B284698472B6824
:1029300001999B6C0446284698472B6801995B6A6D
:1029400014FB00F428469847A4B20444A6F8464075
:1029500002B070BD0023A0F84630F9E71429012029
:102960001029012050D1010892D10108CDD10108D0
:10297000182901201C2901204FF47F4370B5064619
:10298000838540F20113002583841A4B8562C0E9D8
:102990000155C0E90355C0E90555C0E90755056370
:1029A00080F8345046F8383B04463046FFF76AFF5B
:1029B000114BA3632A4629463046C4E91B55C4E996
:1029C0001D556566A4F86850FFF723FF3146204681
:1029D000264606F025F9094B46F87C3B3046FFF7C2
:1029E00065FF2046C4E93155314606F019F9204605
:1029F00070BD00BF8CD3010864DB010828D4010836
:102A000013B504467C30019007F0EEFEB4F90A20BD
:102A1000B4F908100198FFF709FF02B010BD0000DB
:102A20002DE9F04F2DED0A8B04468FB0A24600250C
:102A30000BF00EFBEA4BE5634AF8403B04F16C09EE
:102A40005046FFF71FFF4FF6FF76262229464846DD
:102A5000ADF8306018F070FB4846FFF701FFE14B1E
:102A6000E3660DF1300BBDF83030A4F892305946D2
:102A700004F19808484684F8946008F09EF94046AE
:102A8000FFF77AFF04F5B27304F5D07718460BEE22
:102A9000103A08F06BF93846FFF76EFF04F51B7328
:102AA00018460BEE903AD04EFFF7ECFE04F5287373
:102AB000C4F86C621846C4F89852A4F89C520CEE04
:102AC000103AFFF7DFFE04F53573C4F8A06218462C
:102AD000C4F8CC52A4F8D05209EE903AFFF7E6FEC3
:102AE00004F54773184608EE103AC04EFFF7DEFEB5
:102AF00004F55A73C4F81C631846C4F8645308EE0E
:102B0000903AFFF7D3FE04F56D73C4F86863184676
:102B1000C4F8B0530AEE103AFFF7C8FE04F57F730D
:102B2000184609EE103AFFF7C1FE04F58963C4F8B0
:102B3000FC631846C4F844540AEE903A08F074FA5C
:102B4000AB4BC4F89034AB4BC4F898344FF4A0733B
:102B50002A46504600932946F023C4F89444C4F80A
:102B60009C54261DFFF76FFE4FF07F43A36651462E
:102B7000304606F055F82A4648462946FFF749FEF2
:102B800048465946ADF8305008F017F949463046E6
:102B90004FF0330906F044F82946CDF80090F023B1
:102BA0002A4604F1D000FFF74EFE934A934BC4E946
:102BB0004123C4E94333D4F898304FF0050A404626
:102BC000D3F88C30A4F800A198478D4B0C93404665
:102BD0001C235946ADF83430FFF712FF0C22CDF814
:102BE0000090F023294604F58A70FFF72CFE8549F2
:102BF000854B4046C4E95713FFF71BFDF0239E2287
:102C00004046CDF800902946FFF71DFE414630466C
:102C100006F006F81BEE100A0722AD21FFF7F9FDBA
:102C20004FF02600ADF82C00ADF830000BA80AAA32
:102C3000034609A91BEE100ACDF800B0ADF824A098
:102C4000ADF828A007F0FCFF4FF0051304F59260E3
:102C50001BEE101AC4F89C310390C4F88C01304666
:102C600005F0DEFF012384F8CC31D4F8A031DFF881
:102C7000A891D3F88C304FF03208384698472A464E
:102C8000CDF80080F023294604F5EC70FFF7DBFD5A
:102C90005E495F4BA4F808A2C4E98313C4E98533F5
:102CA000D4F8A0313846D3F88C309847544A0C9267
:102CB0001B2338465946ADF83430FFF7A1FE0C22ED
:102CC000CDF80080F023294604F50770FFF7BBFD1F
:102CD0004C494D4B3846C4E99913FFF7AAFCF02341
:102CE000D9223846CDF800802946FFF7ACFD4FF0D9
:102CF00043083946304605F093FF97232A461BEEDA
:102D0000900ACDF800802946FFF79DFD4149A4F8BF
:102D10009CA27927C4E9A59184F892721BEE901ABF
:102D2000304605F07DFFF0234F221CEE100ACDF84F
:102D300000802946FFF787FD3649C4F8CC1284F895
:102D4000C6721CEE101A3046C4F8C892A4F8D0A27D
:102D500005F066FF082219EE900A0F21FFF759FDD2
:102D600004AF294BC4F8043319EE901A3846A4F87E
:102D7000085307F09FFA97E8070004F5447383E8C7
:102D8000070019231E4AADF8343019EE900A59464F
:102D90000C9207F029FD19EE901A304605F040FF1D
:102DA000212218EE100A0F21FFF733FD164BC4F84D
:102DB0004C33D4F81C33A4F85053D3F88430DFF8E4
:102DC0005C8018EE101A3846984797E8070004F51B
:102DD000567383E80700D8F800303BBB20E000BF03
:102DE000DCD4010844DC010864DB0108FCD20108E2
:102DF000C4D40108D92700089CFFB6FF008232FF27
:102E00002CCB0108745E34FFFBF6E8FF8B8BF7FFD9
:102E10000000B5FF574728FF93764EFF1029012089
:102E20007B4B7C4A60217C4818F0FAF8DFF8F8A167
:102E3000BAF80030172B03D8784B764A6121F2E7B5
:102E4000DFF8E8911721D9F8000000F0F7FAC4F88C
:102E5000640318EE100A07F0A7FC714B0C9318EEF0
:102E6000100A11235946ADF8343007F0BDFC18EEB6
:102E7000101A304605F0D4FE18EE900A21225B218C
:102E8000FFF7C7FCD4F86833664AD3F88430C4F837
:102E9000982318EE901A3846A4F89C53984797E860
:102EA000070004F5697383E80700D8F80030002BA9
:102EB000B6D0BAF80030162BBED91621D9F80000CA
:102EC00000F0BCFAC4F8B00318EE900A07F06CFCEE
:102ED000534B0C9318EE900A10235946ADF834303A
:102EE00007F082FC18EE901A304605F099FE1AEEB3
:102EF000100A57220B21FFF78CFC4A4AC4F8E4233E
:102F00001AEE101A3846A4F8E85307F0D3F997E8F8
:102F1000070004F57C7383E80700414B0C931AEE1D
:102F2000100A18235946ADF8343007F05DFC1AEE4C
:102F3000101A304605F074FE19EE100A70220B21AB
:102F4000FFF767FCD4F8FC33364AD3F88430C4F872
:102F50002C2419EE101A3846A4F83054984797E8F4
:102F6000070004F5876383E80700D8F80030002BDA
:102F70003FF456AFBAF80030152B7FF65DAF152140
:102F8000D9F8000000F05AFAC4F8440419EE100A07
:102F900007F00AFC224B0C9319EE100A0F23594636
:102FA000ADF8343007F020FC19EE101A304605F069
:102FB00037FE1AEE900A4FF48A725F21FFF729FC60
:102FC00006235A460BA91AEE900AADF82C300723B7
:102FD000ADF8303007F065FC1A231AEE900AA4F819
:102FE0008034FFF785FC4FF0FF33C4F88434C4F815
:102FF0008834039BC4F8703430461AEE901A05F0FA
:103000000FFE20460FB0BDEC0A8BBDE8F08F00BF6D
:1030100050D1010852D20108CDD1010814D20108C3
:103020002CCB0108FBF6E8FF142901201C29012004
:103030007047704710B5D421044617F0C3FF2046EF
:1030400010BD00002DE9F047044686B026460AF080
:10305000FFFF0025404BE56346F8403B3F4B2566AC
:10306000C4E910354FF48072FF2304F16C080DF1B0
:10307000140AA4F8642084F86630A4F890204FF66F
:10308000FF73374AA4F8923084F8943004F198071B
:10309000E26651464046C4E91255C4E91455C4E9F4
:1030A0001655C4E91C55C4E91E55C4E92055C4E9A8
:1030B0002255A566ADF8143007F07FFE384607F0BC
:1030C00055FE2A4629463046FFF7A3FB3046F0213D
:1030D000FEF720F830464FF4A071FEF71DF804F11A
:1030E00004094FF07F43A3663146484605F098FD3A
:1030F0002A4629464046FFF78CFB51464046ADF82C
:10310000145007F05AFE4146484605F089FD052255
:1031100011463846FFF77DFB0123ADF80830022346
:10312000ADF80C302423ADF810302323ADF8143063
:1031300003AA04AB02A93846CDF800A007F080FD31
:10314000084BC4F8D0304846394605F069FD2046A2
:1031500006B0BDE8F08700BF10D50108FCDA010811
:1031600044DC0108040002007047000030B5174D30
:103170002C78BFF35B8F14F001048FB022D1284666
:1031800017F022FFF0B13F230993114B0893114B25
:10319000114912480A94CDE9064301220423CDE9DE
:1031A00003320A23009315220C23CDE90B44CDE909
:1031B00001440594FFF7B2F9094817F04FFF28467C
:1031C00017F00EFF05480FB030BD00BFAC1A00204D
:1031D000BCED0108CCED010808EB0108B01A002095
:1031E000693100087047000030B5174D2C78BFF3E7
:1031F0005B8F14F001048FB022D1284617F0E4FE53
:10320000F0B13F230993114B0893114B079301230E
:10321000CDE9053304930423CDE9024314230D497A
:1032200000931B221823CDE90B440B480A94019408
:10323000FFF774F9094817F011FF284617F0D0FE80
:1032400005480FB030BD00BFDC1A0020C0ED0108FA
:10325000D0ED010830EC0108E01A0020E53100084B
:103260007047000030B5164D2C78BFF35B8F14F01B
:1032700001048FB020D1284617F0A6FEE0B13F230D
:103280000993104B0893104B104911480A940122DE
:10329000CDE906430423CDE9033228230093CDE989
:1032A0000B44CDE901440594FFF738F9094817F0BC
:1032B000D5FE284617F094FE05480FB030BD00BF7C
:1032C0000C1B0020C8ED0108D4ED0108ACED01088D
:1032D000101B00206132000800207047002070475A
:1032E0000EB403B503AB002153F8042B01930AF08D
:1032F000DDFA02B05DF804EB03B070470CB407B51B
:1033000004AB53F8042B01930AF0D0FA03B05DF834
:1033100004EB02B070470000436C10B5044673B371
:10332000038F2BB9184B194AC521194817F078FE9D
:10333000C38E00EB43035B8C0BB30BF064FD238F58
:10334000012B03D8134B144ACB21EEE7E28E531C1A
:103350009BB2092B194688BFA3F10A0104EB410176
:1033600040F63F10498C814209D10A2B04EB4202FE
:1033700028BF002304EB4303508C5884518420461B
:10338000BDE810400BF042BC3CD5010845D5010812
:10339000F0D501083AD6010848D601080BF0FDBB6C
:1033A00010B586B002AC84E806001A460AAB059355
:1033B0000193099B00932146089B08F0D1FE06B0BB
:1033C00010BD000038B518BB124B13481B681349D9
:1033D000B3B11A689C681A4402605A681A440A60B9
:1033E0001C440F4B00221A8000F038F8054600F00C
:1033F00033F80C4B1C600C4B1D600C4B188007E025
:103400000B4B03600B4B0B600B4B1C68002CE8D183
:1034100038BD00BF3C1B0020401B0020441B002087
:10342000481B0020102901201829012014290120FF
:103430004CEE0108D8ED010840EF0108044B1B6871
:1034400053F82100034B1B6803EB4000704700BF9B
:10345000441B0020401B00201D207047004870477F
:103460004C1B002010B5FFF7BFFE044C2060FFF797
:10347000F9FE6060FFF77AFEA06010BD4C1B0020D3
:1034800070477047704730B4C268446855100346AF
:1034900004EB6200D20748BF62599B6830BC48BF4A
:1034A000D358184743682BB183682BB9C06800F024
:1034B00001007047184670470120704710B5102171
:1034C000044617F07FFD204610BD10B54FF4D161C2
:1034D000044617F077FD204610BD38B500F5EC73B3
:1034E000994204460D4603D109F07CFAFEF7BAFD75
:1034F0009834A54205D109F075FABDE83840FEF7C9
:10350000D1BD38BD38B5262204460D46002117F03E
:1035100013FE2046FFF7A4F9064B23602B88E384B3
:10352000FF23204684F82830294607F046FC204631
:1035300038BD00BF44DC010800224FF0FF31C0E974
:10354000002182607047000037B54FF6FF730446D4
:103550000D4601A9ADF80430FFF7D4FF084B2360F6
:103560004FF0FF320023C4E90B322A7884F834206C
:10357000204684F83530E38684F8383003B030BD17
:10358000F0D9010810B50446FFF790F9024B23600B
:103590000023A364204610BDFCD201082DE9F04FA2
:1035A0002DED108B044691B027464FF0000A0AF02B
:1035B0004FFDEC4BC4F83CA047F8403B2622514657
:1035C000384617F0B9FD3846FFF74AF9E64B236451
:1035D000FF230DAD84F8663004F16C0304F1980B01
:1035E0004FF6FF7629461846C4F868A00593ADF853
:1035F0003460FFF787FF584607F0B8FB04F1D403A7
:10360000294604F58079184604F5A4780393ADF8AB
:103610003460FFF777FF4846FFF748F94046FFF769
:1036200045F904F5C87318460BEE903AFFF73EF9DA
:1036300004F5EC731846049307F098FB04F5057342
:103640004FF001062946184608EE103A8DF834600E
:10365000FFF77AFF04F514732946184608EE903AEE
:103660008DF83460FFF770FF04F5237318460CEEF5
:10367000103AFFF71BF904F5357318460CEE903A33
:10368000FFF714F904F5477318460DEE103AFFF7EB
:103690000DF904F5597318460DEE903AFFF706F947
:1036A00004F56B7318460EEE103AFFF76BFF04F546
:1036B0007E7318460EEE903AFFF764FF04F244431F
:1036C00018460FEE103AFFF75DFF04F592631846B7
:1036D0000FEE903AFFF756FF04F2DC4318460293D0
:1036E000FFF750FF04F5A563184609EE103AFFF7FF
:1036F000DDF804F5AE63184609EE903AFFF7D6F808
:1037000004F5B76318460AEE103AFFF7CFF804F550
:10371000C063294618460AEE903A8DF83460FFF7E8
:1037200013FF04F23C63184629460BEE103A8DF85D
:103730003460FFF709FF8D4AC4F878268C4AC4F834
:103740008026384652465146C4F87C46C4F884A6C2
:10375000FFF75FF83846F021FDF7DCFC38464FF400
:10376000A071261DFDF7D8FC4FF07F423946A266B6
:10377000304605F055FA059B524618465146FFF76C
:1037800048F8059BADF834A01846294607F015FB0C
:10379000059B3046194605F043FA58460722AD21ED
:1037A000FFF737F84FF026014FF00503ADF8301062
:1037B000ADF834100CA90BAA5846ADF82830ADF876
:1037C0002C3000950B460AA907F03AFA4FF0051184
:1037D000C4F8D01004F5CF610591C4F8C01030468C
:1037E000594605F01DFA48220398DFF88CB10321F1
:1037F000FFF70FF808230398ADF83430294607F097
:10380000DCFA0399304606AF05F00AFA78224846FA
:103810005C21FEF7FEFF49463846C4F830B1A4F8F3
:1038200034A106F047FD97E8070004F59E7C8CE87C
:103830000700504B0D934FF0050248462946ADF85E
:10384000382006F0D1FF4946304605F0E9F97822E4
:1038500040468E21FEF7DDFF41463846C4F878B178
:10386000A4F87CA106F026FD97E8070004F5C27CC9
:10387000404B0D938CE80700082340462946ADF8DD
:10388000383006F0B1FF4146304605F0C9F97822DC
:103890001BEE900A9A21FEF7BCFF1BEE901A3846E9
:1038A000C4F8C0B1A4F8C4A106F004FD97E807006D
:1038B00004F5E67383E807004FF009082D4B0D93DC
:1038C0001BEE900A2946ADF8388006F08DFF1BEEFE
:1038D000901A304605F0A4F9052211460498FEF727
:1038E00098FF4FF025020423ADF83020ADF83420C6
:1038F0000CAA4FF003090498ADF82C300AA913461E
:1039000000950BAAADF8289007F09AF94FF0051230
:10391000C4F81022059A0499C4F80022304605F034
:103920007FF918EE100A85221521FEF772FF142286
:1039300018EE100A414606F0C1FB494618EE100A7F
:1039400006F0CFFB01231A4618EE100A514606F086
:103950000DFB18EE101A304605F062F918EE900AC9
:103960000CE000BF3CD70108FCDA010824D70108AD
:10397000DB3400082CCB0108FBF6E8FF8522B521DB
:10398000FEF747FF142218EE900A414606F096FB18
:10399000494618EE900A06F0A4FB01231A4618EED9
:1039A000900A514606F0E2FA18EE901A304605F0F9
:1039B00037F9AC221CEE100A1C21FEF72AFF1CEE80
:1039C000101A3846C4F8BCB2A4F8C0A206F072FCC3
:1039D00097E8070004F5327383E807004F4B0D9317
:1039E0001CEE100A2946ADF838A006F0FDFE1CEECC
:1039F000101A304605F014F9AC221CEE900ABC21D6
:103A0000FEF707FF1CEE901A3846C4F804B3A4F87A
:103A100008A306F04FFC97E8070004F5447383E819
:103A200007003E4B0D931CEE900A02232946ADF889
:103A3000383006F0D9FE1CEE901A304605F0F0F84A
:103A4000AC221DEE100ACE21FEF7E3FE1DEE101A89
:103A50003846C4F84CB3A4F850A306F02BFC97E802
:103A6000070004F5567383E807002C4B0D931DEEF9
:103A7000100A2946ADF8389006F0B6FE1DEE101A71
:103A8000304605F0CDF8AC221DEE900A2E21FEF74F
:103A9000C0FE1DEE901A3846C4F894B3A4F898A35B
:103AA00006F008FC97E8070004F5687383E8070050
:103AB0001A4B0D931DEE900A4FF001032946ADF805
:103AC000383006F091FE1DEE901A304605F0A8F849
:103AD000E22225211EEE100AFEF79BFEC4F8DCB39D
:103AE000A4F8E0A32846FFF727FD95E80700DFF8D4
:103AF000449004F57A7383E80700D9F800302BB9B5
:103B0000074B084A6021084817F08AFA074F3B889C
:103B1000132B11D8064B034A6121F4E72CCB010883
:103B200050D1010852D20108CDD101081429012039
:103B300014D2010810290120DFF844831321D8F89A
:103B40000000FFF77BFCC4F8F4031EEE100A06F039
:103B50002BFECA4B0D931EEE100A0D232946ADF81D
:103B6000383006F041FE1EEE101A304605F058F8C7
:103B7000E222BA211EEE900AFEF74BFEC4F828B4EA
:103B8000A4F82CA42846FFF7D7FC95E8070004F218
:103B9000344383E80700D9F80030002BB0D03B88CD
:103BA000142BB7D91421D8F80000FFF747FCC4F84C
:103BB00040041EEE900A06F0F7FDB04B0D931EEE8A
:103BC000900A0E232946ADF8383006F00DFE1EEEA1
:103BD000901A304605F024F8E2224E211FEE100A1A
:103BE000FEF717FEC4F874B4A4F878A42846FFF7CB
:103BF000A3FC95E8070004F5906383E80700D9F873
:103C00000030002B3FF47CAF3B88172B82D9172163
:103C1000D8F80000FFF712FCC4F88C041FEE100A5D
:103C200006F0C2FD954B0D931FEE100A0B2329469B
:103C3000ADF8383006F0D8FD1FEE101A304604F00B
:103C4000EFFFE2228C211FEE900AFEF7E2FDC4F89E
:103C5000C0B4A4F8C4A42846FFF76EFC95E807009A
:103C600004F2CC4383E80700D9F80030002B3FF47E
:103C700047AF3B88162B7FF64DAF1621D8F80000D2
:103C8000FFF7DCFBC4F8D8041FEE900A06F08CFDA9
:103C90007A4B0D931FEE900A0C232946ADF838306D
:103CA00006F0A2FD1FEE901A304604F0B9FFA522DF
:103CB00071210298FEF7ADFDC4F80CB5A4F810A56B
:103CC0002846FFF739FC95E8070004F5A36383E86D
:103CD0000700D9F80030002B3FF412AF3B88122BBD
:103CE0007FF618AF1221D8F80000DFF89081DFF8D6
:103CF0009491FFF7A3FBC4F82405029806F054FD45
:103D00000A230298ADF838300DA9CDF8348006F0BA
:103D10006BFD0299304606AD04F082FF002719EED4
:103D2000100A78225021FEF774FD19EE101A284669
:103D3000C4F85895A4F85C7506F0BCFA95E807003D
:103D400019EE103A3C3383E80700042319EE100AF9
:103D50000DA9ADF83830CDF8348006F045FD19EEE8
:103D6000101A304604F05CFF19EE900A7822822186
:103D7000FEF74FFD19EE901A2846C4F8A095A4F856
:103D8000A47506F097FA95E8070019EE903A3C33CF
:103D900083E80700072319EE900A0DA9ADF8383023
:103DA000CDF8348006F020FD19EE901A304604F06C
:103DB00037FF1AEE100A78226721FEF72AFD1AEE65
:103DC000101A2846C4F8E895A4F8EC7506F072FAC3
:103DD00095E807001AEE103A3C3383E80700062303
:103DE0001AEE100A0DA9ADF83830CDF8348006F07F
:103DF000FBFC1AEE101A304604F012FF1AEE900A7D
:103E000056223F21FEF705FD1AEE900A22221521C7
:103E100006F054F91AEE900A052106F062F9012322
:103E20001A4619461AEE900A06F0A0F81AEE901AF1
:103E3000304604F0F5FE1BEE100A56229921FEF7DB
:103E4000E8FC1BEE100A2222152106F037F91BEEC2
:103E5000100A052106F045F901231BEE100A1A4647
:103E6000394606F083F830461BEE101A04F0D8FEEF
:103E7000204611B0BDEC108BBDE8F08F2CCB0108B3
:103E80001C290120FBF6E8FF704710B54FF4AE7116
:103E9000044617F097F8204610BD10B50446D0F838
:103EA000580100F052F82046BDE8104008F036BE38
:103EB00010B50446FEF7A6F8014B2360204610BD5E
:103EC00070D70108704704387047704710B510214B
:103ED000044617F077F8204610BDA0F10400F5E77E
:103EE00010B500228260044AC16002F10804203249
:103EF0000460426010BD00BFB4D7010870470000E5
:103F000010B5034B03600446FEF77DFB204610BD51
:103F1000E4D7010810B50446FFF7F2FF20464FF43E
:103F2000946117F04FF8204610BD000010B504460C
:103F3000FEF776FD014B2360204610BDE4D7010853
:103F4000FEF762BB0022026070477047704704387A
:103F50007047704710B51021044617F033F820461B
:103F600010BDA0F10400F5E710B500228260044AFC
:103F7000C16002F1080420320460426010BD00BF3D
:103F800010D801087047000010B5034B03600446C9
:103F9000FFF74EF8204610BD40D8010810B5044682
:103FA000FFF7F2FF2046D42117F00CF8204610BD91
:103FB00010B50446FFF746F8014B2360204610BDBC
:103FC00040D80108FFF735B870470438704770478C
:103FD00010B51021044616F0F5FF204610BDA0F1E3
:103FE0000400F5E710B500228260044AC16002F1C6
:103FF000080420320460426010BD00BF6CD8010884
:104000007047000010B5034B03600446FFF738FA11
:10401000204610BD9CD8010810B50446FFF7F2FFFA
:1040200020464FF4D16116F0CDFF204610BD0000B0
:1040300010B50446FFF7B2FA014B2360204610BDCD
:104040009CD80108FFF71DBAF02070474FF4A0700C
:1040500070472920FDF7D6BB2820FDF7D3BB08B554
:10406000FDF7A4FBCA20FDF7CDFBC320FDF7AEFB97
:104070000820FDF7ABFB5020FDF7A8FBCF20FDF794
:10408000C1FB0020FDF7A2FBC120FDF79FFB302004
:10409000FDF79CFBED20FDF7B5FB6420FDF796FBDB
:1040A0000320FDF793FB1220FDF790FB8120FDF725
:1040B0008DFBE820FDF7A6FB8520FDF787FB0020A0
:1040C000FDF784FB7820FDF781FBCB20FDF79AFB01
:1040D0003920FDF77BFB2C20FDF778FB0020FDF756
:1040E00075FB3420FDF772FB0220FDF76FFBF72014
:1040F000FDF788FB2020FDF769FBEA20FDF782FB36
:104100000020FDF763FB0020FDF760FBB120FDF709
:1041100079FB0020FDF75AFB1B20FDF757FBB6206B
:10412000FDF770FB0A20FDF751FBA220FDF74EFBC7
:10413000C020FDF767FB1020FDF748FBC120FDF70D
:1041400061FB1020FDF742FBC520FDF75BFB45201E
:10415000FDF73CFB1520FDF739FBC720FDF752FBAF
:104160009020FDF733FB3620FDF74CFBC820FDF710
:104170002DFBF220FDF746FB0020FDF727FBB020CA
:10418000FDF740FBC220FDF721FBB620FDF73AFB0F
:104190000A20FDF71BFBA720FDF718FB2720FDF7E2
:1041A00015FB0420FDF712FB2A20FDF72BFB002056
:1041B000FDF70CFB0020FDF709FB0020FDF706FBD7
:1041C000EF20FDF703FB2B20FDF71CFB0020FDF784
:1041D000FDFA0020FDF7FAFA0120FDF7F7FA3F207B
:1041E000FDF7F4FAF620FDF70DFB0120FDF7EEFADE
:1041F0000020FDF7EBFA0620FDF7E8FA2C20FDF78A
:1042000001FBC820FDF74CFB2620FDF7FBFA01203F
:10421000FDF7DCFAE020FDF7F5FA0F20FDF7D6FAFE
:104220002920FDF7D3FA2420FDF7D0FA0C20FDF762
:10423000CDFA0E20FDF7CAFA0920FDF7C7FA4E2085
:10424000FDF7C4FA7820FDF7C1FA3C20FDF7BEFA6D
:104250000920FDF7BBFA1320FDF7B8FA0520FDF79A
:10426000B5FA1720FDF7B2FA1120FDF7AFFA0020DA
:10427000FDF7ACFAE120FDF7C5FA0020FDF7A6FA3C
:104280001620FDF7A3FA1B20FDF7A0FA0420FDF786
:104290009DFA1120FDF79AFA0720FDF797FA3120D1
:1042A000FDF794FA3320FDF791FA4220FDF78EFADC
:1042B0000520FDF78BFA0C20FDF788FA0A20FDF7A0
:1042C00085FA2820FDF782FA2F20FDF77FFA0F20CC
:1042D000FDF77CFA1120FDF795FAC820FDF7E0FA0A
:1042E0002920FDF78FFABDE808402C20FDF78ABA97
:1042F00008B5FDF75BFA0321D320FDF79FFA80B2E2
:1043000008BD10B5C4B2022203212046FDF704FA0D
:104310000A20FDF749FA204600220321FDF7FCF9A7
:10432000BDE810400220FDF73FBA38B50446E4B2BC
:10433000FDF7F0F900212046FDF706FA01210546B8
:104340002046FDF701FA40EA052080B238BD10B5DD
:10435000C4B240212046FDF7F7F9030607D54C21EA
:104360002046FDF7F1F9003818BF012010BD0122E9
:104370004B212046FDF7D0F9204600224B21FDF7C6
:10438000CBF90020F2E773B50423C4B20E461546FC
:10439000D7210DEB03022046FDF7F0F9019B1BBA74
:1043A0001A0DC3F30B23328020462B8001224B21B0
:1043B000FDF7B2F900224B212046FDF7ADF902B01E
:1043C00070BD000010B50A4B1A78904204460DD01B
:1043D000597888420AD00AB141B901229C54FDF7AC
:1043E00099F92046BDE81040FFF78BBF10BD00BF14
:1043F000581B002010B5C4B209212046FDF7A4F9CE
:1044000040F00100C2B209212046BDE81040FDF78E
:1044100083B910B5C4B209212046FDF795F90921E9
:1044200000F0FE022046BDE81040FDF775B938B532
:10443000C4B20D4620460A21FDF786F92843C2B2D0
:104440000A212046BDE83840FDF766B907B501905E
:10445000FDF761F901981F21FFF7E9FF019803B00B
:104460005DF804EBFFF7C6BF38B5C4B20D46204671
:104470000A21FDF769F920EA0500C2B20A212046A7
:10448000BDE83840FDF748B910B50446FFF7C1FF55
:1044900020461F21BDE81040FFF7E6BF10B5C0B2AF
:1044A0000C460B21FDF750F9204010BD1F21FFF7EE
:1044B000F5BF0A46C0B20B21FDF72EB91F21FFF749
:1044C000F8BF38B5C4B20D4620461721FDF73CF9B8
:1044D00020EA0500C2B217212046BDE83840FDF7AA
:1044E0001BB970B5C4B2064604212046FDF72CF96D
:1044F000042100F0FB0205462046FDF70DF9304689
:10450000F021FFF7DEFF05F0F80220460421FDF759
:1045100003F9492220212046FDF7FEF80220FDF78D
:1045200043F9204601222121FDF7F6F820469A2280
:104530004121FDF7F1F8204601224A21FDF7ECF870
:10454000204601224B21FDF7E7F8204600224B21AF
:10455000FDF7E2F8204601225621FDF7DDF820465E
:1045600001225821FDF7D8F8204601224021FDF70D
:10457000D3F82046FF220B21FDF7CEF8BDE87040AE
:104580000220FDF711B90000054BD3F8882042F452
:104590007002C3F888204FF000629A60704700BF35
:1045A00000ED00E008B50B4B1A6842F400721A6087
:1045B0001A6842F480621A601A6842F480721A60C3
:1045C000032000F02FF80020FDF7ACFBFDF776F993
:1045D000002008BD003C0240034A044B11681B78D0
:1045E0000B441360704700BF5C1B00207800002064
:1045F000014B1868704700BF5C1B002038B50446AB
:10460000FFF7F6FF631C1CBF054B1B78054618BF60
:10461000E418FFF7EDFF431BA342FAD338BD00BFF8
:10462000780000200749CA6822F4E06203021204FD
:1046300003F4E063120C134343F0BF6343F400330D
:10464000CB60704700ED00E0164B30B5DC68C4F37A
:104650000224C4F10705231D042D28BF0425062BC1
:104660004FF0FF338CBF033C002403FA05F521EA29
:104670000501A34022EA0302A140002841EA020307
:10468000ACBF00F16040084A4FEA0313B8BF00F026
:104690000F00DBB2AABF00F56140135480F800336D
:1046A00030BD00BF00ED00E014ED00E0002808DBA5
:1046B0004209012300F01F0003FA00F0014B43F808
:1046C0002200704700E100E010B5044650B1437984
:1046D00003F0FF0213B90271FDF710F901236371B2
:1046E000002010BD0120FCE710B5044630B390F85F
:1046F000393003F0FF021BB980F83820FDF716F9B6
:1047000022686168022384F83930136823F4403347
:104710000B431360536BA16823F007030B435363F0
:10472000136CE16823F47F5323F03F030B431364BE
:1047300000200123E06384F8393010BD0120FCE73C
:1047400070477047036870B55E681D68F2070446DD
:1047500014D5E90512D51A6822F480721A60C26B6A
:1047600042F00102C26301229A60042380F83930CA
:10477000002380F83830436903B19847B20616D554
:10478000AB0414D523681A6822F400521A60202260
:104790009A60E36B43F00203E363042384F8393047
:1047A000002384F8383063690BB1204698473007FE
:1047B00016D5290514D523681A6822F400621A60F8
:1047C00008229A60E36B43F00403E363042384F854
:1047D0003930002384F8383063690BB1204698479C
:1047E00072070BD56B0509D523681A6822F480621D
:1047F0001A6004229A602046FFF7A2FFB00714D582
:10480000A90512D523681A6822F400721A600222E0
:104810009A60E36BE363012384F83930002384F862
:10482000383023690BB120469847F20613D5EB04C4
:1048300011D523681A6822F480521A6010229A60F7
:10484000E36BE363012384F83930002384F83830C4
:104850002046FFF776FF70BDF0B590F83830012B99
:104860004FF002032BD0012280F8393080F8382035
:1048700000EB0113D3E907425D6A184F44EA024294
:10488000093C012C9CBF05F07F431A434FEA0116F7
:10489000036888BF42EA056299B9596A39400A43F8
:1048A0005A62012C82699A6103D8426A22F07F42DF
:1048B0009A62012380F83930002380F83830184696
:1048C000F0BDD96939400A43DA618219012C926935
:1048D0001A619CBF25F07F451D62EAE7F0FFFC00EE
:1048E0002DE9F74FDFF8C0916D4A00230D680124D0
:1048F0009C4004EA050CAC4340F0B9804D6805F0DB
:1049000003044FEA43080326671E06FA08F6012F40
:104910006FEA060634D8876807EA060ECF6807FAFA
:1049200008F747EA0E078760476827EA0C0EC5F3C9
:1049300000179F4047EA0E074760C76807EA060E60
:104940008F6807FA08F747EA0E07022CC76019D1EB
:104950004FEAD30A00EB8A0A03F0070BDAF820705B
:104960004FEA8B0B4FF00F0E0EFA0BFE27EA0E0EDE
:104970000F6907FA0BF747EA0E07CAF8207001E043
:10498000032CDAD1076804FA08F43E40264315F4F4
:10499000403F06606BD04FF0000ACDF804A0D9F874
:1049A0004460404C46F48046C9F84460D9F84460FD
:1049B00006F480460196019E23F0030606F1804628
:1049C00006F59C3603F0030ED6F808804FEA8E0EEB
:1049D0000F2707FA0EF7A04228EA07074ED004F582
:1049E0008064A0424CD004F58064A0424AD004F513
:1049F0008064A04248D004F58064A04246D004F50B
:104A00008064A04244D004F58064A04242D004F502
:104A10008064A04240D004F58064A0423ED004F5FA
:104A20008064A0420CBF09240A2404FA0EF43C431B
:104A3000B46094686FEA0C06EF0254BF34404CEA4D
:104A400004049460D468AF0254BF34404CEA0404B8
:104A5000D4605468AF0354BF34404CEA040454603B
:104A60001468ED0354BF34404CEA0404146001336D
:104A7000102B7FF43BAF03B0BDE8F08F5446D4E772
:104A80000124D2E70224D0E70324CEE70424CCE7B4
:104A90000524CAE70624C8E70724C6E70824C4E7B4
:104AA000003C014000000240003802400369194206
:104AB00014BF0120002070470AB1816170470904CA
:104AC000FBE7436901EA030221EA030141EA0241EB
:104AD0008161704701684B6913F480634FF00002F5
:104AE00010D06FF480634B612023026380F83D3067
:104AF00080F83E20036C80F83C2043F004030364FC
:104B000001207047184670472DE9F84606460F46C3
:104B100091461D464FEA114A3368BAF1010F0CBFA6
:104B20005C699C6927EA0404A4B2B4FA84F46409B9
:104B3000A14501D0002017E06A1CEED0FFF758FD18
:104B4000089BC01AA84201D8002DE5D100232022DD
:104B5000336386F83D2086F83E30326C86F83C3070
:104B600042F0200232640120BDE8F8862DE9F041D0
:104B700004460F46164698462568686927EA0000ED
:104B800080B2B8B16B695A0516D52B6843F400732F
:104B90002B606FF480636B6120220023236384F811
:104BA0003D2084F83E30226C42F00402226484F8F6
:104BB0003C300120BDE8F081731CDED0FFF718FD0A
:104BC000A0EB0800B04201D8002ED5D1002320224E
:104BD000236384F83D2084F83E30226C42F02002AA
:104BE000E4E770B504460D46164621684B6913F09C
:104BF000400301D0002010E04A69D2060ED56FF0C4
:104C000010024A612022236384F83D2084F83E305C
:104C1000226C226484F83C30012070BDFFF7E8FC70
:104C2000801BA84201D8002DDFD10023202223635E
:104C300084F83D2084F83E30226C42F02002E8E700
:104C400070B504460D46164623685B695B0701D5BF
:104C5000002070BD2046FFF73DFFA8B96A1CF3D0C5
:104C6000FFF7C6FC801BA84201D8002DECD1002321
:104C70002022236384F83D2084F83E30226C84F89F
:104C80003C3042F0200222640120E2E770B5044685
:104C90000D46164623685B691B0601D5002070BDD2
:104CA0002046FFF717FFA8B96A1CF3D0FFF7A0FC56
:104CB000801BA84201D8002DECD1002320222363C1
:104CC00084F83D2084F83E30226C84F83C3042F079
:104CD000200222640120E2E72DE9F0431546026834
:104CE00085B0DDE90C789946136843F4807313604E
:104CF0000E463B46CDF8008000224FF001110446DD
:104D0000FFF702FF236838B11B68DB0502D54FF4BB
:104D10000073236403200AE006F0FE061E611949B1
:104D200043463A462046FFF721FF18B1012005B05F
:104D3000BDE8F083236803905A6903929B6903934B
:104D4000424639462046039BFFF7A0FF40B1236C43
:104D5000042B01BF2268136843F400731360E5E776
:104D6000B9F1010F236802D1EDB21D61DFE72A0A14
:104D70001A61394642462046FFF788FF0028E6D1EF
:104D80002368F1E7020001002DE9FF479A46036816
:104D900015461A6842F480621A601A68DDE90C78D8
:104DA00042F480721A600E463B46CDF80080002225
:104DB0004FF001110446FFF7A7FE236848B11B68B6
:104DC000DB0502D54FF400732364032004B0BDE873
:104DD000F0875FFA86F906F0FE061E612A4943460F
:104DE0003A462046FFF7C2FE08B10120EEE72368ED
:104DF00003905A6903929B690393424639462046C1
:104E0000039BFFF743FF40B1236C042B01BF2268D3
:104E1000136843F400731360E7E7BAF1010F2368E6
:104E20001AD1EDB21D61424639462046FFF72EFFEA
:104E30000028E9D12268136843F4807313604FF0AF
:104E400001110246CDF800803B462046FFF75CFE8C
:104E5000226860B11368B3E72A0A1A6139464246EC
:104E60002046FFF713FF0028CED12368D9E749F089
:104E700001031361044943463A462046FFF776FE94
:104E8000003818BF0120A1E70200010070B50446F8
:104E900008B9012070BD90F83D3003F0FF021BB946
:104EA00080F83C20FCF764FD242384F83D3023681F
:104EB0001A6822F001021A601A6842F400421A606D
:104EC0001A6822F400421A6000F074FE3F4B6568D5
:104ED0009D4294BF3E4B3F4B98428CBF0023012321
:104EE000002BD6D12268394E53683B49B0FBF1F113
:104EF00023F03F030B43B542536088BF4FF49676CF
:104F0000136A88BF714323F03F0384BF4FF47A765E
:104F1000B1FBF6F1013119431162D169431E2B48EF
:104F200021F44F41854221F0FF0132D86D0040F657
:104F3000FC70B3FBF5F30133034242D0C3F30B0320
:104F40000B43D361D4E907301168034321F0C0015A
:104F50000B4313609168D4E9030321F40341034335
:104F600021F0FF010B439360D4E90530D16803437E
:104F700021F0FF010B43D360136843F0010313607A
:104F800000202023206484F83D30206384F83E0014
:104F900080E7A06850B905EB4505B3FBF5F3013395
:104FA000C3F30B037BB143F40043C9E71920454326
:104FB000B3FBF5F30133C3F30B0323B143F44043D5
:104FC000BEE70423BCE70123BAE700BFA0860100C7
:104FD0007F841E00FF083D0040420F002DE9F7438B
:104FE000044699460C9E0F469046FFF701FB94F845
:104FF0003D30202B054603D0022003B0BDE8F083EE
:1050000000903C49192301222046FFF77DFD00282E
:10501000F2D194F83C30012BEED02068012384F8C3
:105020003C300368D9075EBF036843F001030360A7
:10503000036823F400630360212384F83D30402398
:1050400084F83E30002323640A9B6362BDF82C3051
:105050006385638D2385284BE362CDE900654B466C
:10506000424639462046FFF737FE00282AD0012065
:10507000C3E7FFF70BFE40B1236C042B01BF22688E
:10508000136843F400731360F1E7636A27681A46F4
:1050900012F8011B39616262628D218D013A92B270
:1050A00062857A69481E80B2520720850AD548B1C8
:1050B0005A783A6102336362638D013B02399BB2D5
:1050C00021856385238D2A4631462046002BD0D189
:1050D000FFF7B6FD0028CFD12268136843F40073B0
:1050E0001360202384F83D3084F83C0084F83E00AF
:1050F00083E700BF020010000000FFFF2DE9F0432E
:10510000044687B09946109F0D469046FFF770FA07
:1051100094F83D30202B064604D00225284607B0DF
:10512000BDE8F08300907649192301222046FFF75D
:10513000EBFC0028F1D194F83C30012BEDD0206835
:10514000012384F83C300368DB075EBF036843F04B
:1051500001030360036823F400630360222384F8DF
:105160003D30402384F83E30002323640E9B63626D
:10517000BDF83C306385638D2385624BE36229462D
:10518000CDE900764B4642462046FFF7FDFD054639
:1051900008B10125C2E7228D2368B2B902905A698D
:1051A00002929A690292029A1A6842F400721A6094
:1051B000DFF85481238D002B2CD1202284F83D2050
:1051C00084F83C3084F83E30A8E7012A0AD11A68F6
:1051D00022F480621A6003905A6903929A690392DA
:1051E000039AE1E7022A0ED11A6822F480621A605B
:1051F0001A6842F400621A6004905A6904929B692A
:105200000493049BD4E705905A6905929B69059322
:10521000059BCDE7032B56D8012B15D132463946D5
:105220002046FFF7DEFC0028B3D123681A69636AC1
:105230001A70636A01336362238D013B2385638D9A
:10524000013B9BB26385B5E7022B00963B464FF0CE
:1052500000024146204619D1FFF756FC002898D19C
:1052600023681A6842F400721A601A69636A1A7035
:10527000626A531C6362238D013B2385638D013B6E
:105280009BB2638523681B695370D2E7FFF73CFC30
:1052900000287FF47EAF23681A6822F480621A60C7
:1052A0001A69636A1A70636A009601336362238D18
:1052B000013B2385638D013B9BB2638502463B46E0
:1052C00041462046C8E7324639462046FFF789FC6A
:1052D00000287FF45EAF23681A69636A1A70626AF5
:1052E000531C6362238D013B2385638D013B9BB27D
:1052F00063852368596949077FF55CAFC3E700BF41
:10530000020010000000FFFF0400010010B590F83B
:105310003D30202BDCB216D1242380F83D300368C9
:105320001A6822F001021A605A6A22F010025A62C8
:105330005A6A114359621A6842F001021A6080F8F1
:105340003D40002010BD0220FCE730B590F83D3014
:10535000202BDCB216D10268242380F83D3013687C
:1053600023F001031360556A4FF6F0732B400B4393
:105370009BB25362136843F00103136080F83D4011
:10538000002030BD0220FCE70068D1F800C0D20147
:10539000843283182DE9F043C6685D684C68D1F803
:1053A000189005F470455D60C5680CF10107C5F300
:1053B0000B45C6F30B463D44264445EA06455D6071
:1053C000C568CE68C5F30A052E449D6805F470458E
:1053D0009D60C7688D68C7F30A0701353D4445EAFB
:1053E00006459D601D690E6925F007051D614FF09A
:1053F000000E1E619D6991F8327091F83180C3F8FA
:1054000018E091F8305045EA096545EA082545EA73
:1054100007459D615D6925F0FF055D614D695D6131
:10542000DD6925F4E06525F00705DD61D1E9075761
:105430003D43DD619D6A4D6AC3F828E09D621EB35D
:10544000012E23D0B51E022D22D9072E0CBF022516
:105450000125DE6A06F0E026DE62A4EB0C048E6A0B
:10546000C96A6C436E43033444EA0644DC621C6B35
:1054700024F4FF6424F007041C631963835843F089
:1054800001038350BDE8F0830425E2E70325E0E74C
:105490000225DEE738B50446002863D090F8A13035
:1054A00003F0FF021BB980F8A020FCF7BDFA02232D
:1054B00084F8A13023689A6922F070429A61D4E995
:1054C00001200243E06899690243206902430A43CC
:1054D0009A619A68244960690A409A609A6842EA27
:1054E0000042A06902439A60DA68E0690A40DA6023
:1054F000DA6842EA0042206A0243DA601A69606AA6
:105500000A401A611A6942EA0042A06A02431A611B
:105510005A69114059615A69E16A42EA0142216BB4
:105520000A435A61D96A94F8360094F8355001F06C
:105530007F41D962D96A94F834200A4342EA0522AD
:1055400042EA0042DA625A6B42F006025A639A69F2
:1055500042F001029A6100200123C4F8A40084F8FB
:10556000A13038BD0120FCE700F800F0704770471B
:10557000036870B59E6B5D6B7207044614D56907AE
:1055800012D55A6B22F004025A630422DA63D0F86F
:10559000A43043F00103C0F8A430002380F8A12018
:1055A00080F8A030FFF7E2FFB20716D5AB0714D59D
:1055B00023685A6B22F002025A630222DA63D4F89B
:1055C000A4301343C4F8A430042384F8A13000238A
:1055D00084F8A0302046FFF7C9FFF00710D5E9078F
:1055E0000ED523685A6B22F001025A630122DA6356
:1055F000002384F8A12084F8A0302046FBF734FE75
:10560000320711D52B070FD523685A6B22F00802F9
:105610005A630822DA63012384F8A130002384F856
:10562000A0302046FFF7A3FF70BD2DE9F04190F8B0
:10563000A030012B06460F4694464FF002001FD0C3
:105640004FF0010886F8A08086F8A10034240D46AA
:1056500004FB02640FCD38340FC40FCD0FC40FCD3F
:105660000FC42B682360304662463946FFF78CFE34
:1056700033680020C3F8248086F8A18086F8A00053
:10568000BDE8F08190F8A030012B4FF0020312D05A
:1056900080F8A13003685A6B22F001025A63074A6E
:1056A00011645A6B42F001025A63012380F8A13061
:1056B000002380F8A0301846704700BF0068014002
:1056C0002DE9F341044640B30368DD0710D4236895
:1056D00098075ED423681A0700F1A08023685B074F
:1056E00000F1C080A069002840F0288100202BE054
:1056F0008F4B9A6802F00C02042A07D09A6802F0D5
:105700000C02082A0BD15A68510208D5884B1B6835
:105710009A03DCD56368002BD9D1012014E06268BC
:10572000B2F5803F13D11A6842F480321A60FEF756
:105730005FFF7F4E054633689B03C8D4FEF758FFD2
:10574000401B6428F7D9032002B0BDE8F081784DF2
:10575000B2F5A02F2B6807D143F480232B602B6870
:1057600043F480332B60E2E723F480332B602B6813
:1057700023F480232B60002AD9D1FEF739FF064697
:105780002B689F03A3D5FEF733FF801B6428F7D94E
:10579000D9E7674B9A6812F00C0F07D09A6802F0AD
:1057A0000C02082A11D15B685E020ED4604A1368AD
:1057B0009D0702D5E368012BAFD11368216923F05F
:1057C000F80343EAC103136084E7E268594BB2B1BE
:1057D00001221A60FEF70CFF554D06462B6898070C
:1057E00007D52B68226923F0F80343EAC2032B6034
:1057F00070E7FEF7FDFE801B0228EFD9A3E71A60D1
:10580000FEF7F6FE4A4E0546336899077FF562AF0C
:10581000FEF7EEFE401B0228F6D994E76269454B7D
:1058200082B10122C3F8802EFEF7E2FE404E05460B
:10583000736F9F073FF552AFFEF7DAFE401B022859
:10584000F6D980E7C3F8802EFEF7D2FE384E054623
:10585000736F98077FF542AFFEF7CAFE401B022820
:10586000F6D970E7324B1A6C12F0805228D10192AF
:105870001A6C42F080521A641B6C03F0805301933F
:10588000019B01272C4D2B68D9051BD5A368284DFA
:10589000012B27D12B6F43F001032B67FEF7A8FEE6
:1058A000234E054641F28838336F9B0739D5002FC8
:1058B0003FF418AF1E4A136C23F08053136411E7B2
:1058C0000027DFE72B6843F480732B60FEF790FE20
:1058D00006462B68DA05D9D4FEF78AFE801B02281B
:1058E000F7D930E7052B04D12B6F43F004032B6766
:1058F000D0E72A6F22F001022A672A6F22F0040201
:105900002A67002BCAD1FEF773FE41F2883806469B
:105910002B6F9807CBD5FEF76BFE801B4045F7D960
:1059200011E7FEF765FE401B4045BDD90BE700BF00
:10593000003802400000474200700040364DAB681E
:1059400003F00C03082B3DD0344B002202281A66CA
:105950002BD1FEF74DFE06462B6899011FD4D4E9E2
:1059600007321343626A43EA8213E26A43EA02633C
:10597000A26A5208013A43EA02436B60274B264D64
:1059800001221A66FEF734FE04462B689A013FF5A1
:10599000ADAEFEF72DFE001B0228F6D9D3E6FEF7CA
:1059A00027FE801B0228D7D9CDE6FEF721FE04464C
:1059B0002B689B017FF59AAEFEF71AFE001B0228AA
:1059C000F6D9C0E601283FF4BFAE6B68E26903F484
:1059D000800191427FF4A1AE216A03F03F028A4226
:1059E0007FF49BAE616A47F6C0721A40B2EB811F2A
:1059F0007FF493AEA26A520803F44031013AB1EB4E
:105A0000024F7FF48AAEE26A03F07063B3EB026F79
:105A10003FF46CAE81E600BF003802400000474210
:105A2000134908B58B6803F00C03042B1CD0082B1A
:105A30001CD14A684B68496813F4800314BF0D48B1
:105A40000D48C1F3881118BF002302F03F02A1FBEB
:105A50000001FAF71DFC064B5B68C3F301430133F9
:105A60005B00B0FBF3F008BD0248FCE70248FAE730
:105A70000038024000127A000024F4002DE9F041C1
:105A80000D46044610B90120BDE8F081444B1A6868
:105A900002F00F028A4228D3226897072DD4D0073C
:105AA00041D43F4B1A6802F00F02AA4266D822681E
:105AB00051076CD4130707D53A4A2169936823F438
:105AC000604343EAC1039360FFF7AAFF354B364AB0
:105AD0009B68C3F30313D35CD840344B1860344B3A
