:020000040800F2
:100000000000032095050008F51D0008F71D0008F5
:10001000F91D0008FB1D0008FD1D00080000000080
:10002000000000000000000000000000D174000883
:10003000FF1D00080000000061750008EB6D00085E
:10004000E5050008E5050008E5050008E5050008E8
:10005000E5050008E5050008E5050008E5050008D8
:10006000E5050008E5050008E5050008E5050008C8
:10007000E5050008E5050008E5050008E5050008B8
:10008000E5050008E5050008E5050008E5050008A8
:10009000E5050008E5050008E5050008E505000898
:1000A000E5050008E5050008E5050008E505000888
:1000B000E5050008E5050008E5050008E505000878
:1000C000E5050008E5050008E5050008E505000868
:1000D000E5050008E5050008E5050008E505000858
:1000E000E5050008E5050008E5050008E505000848
:1000F000E5050008E5050008E5050008E505000838
:10010000E5050008E5050008E5050008E505000827
:10011000E5050008E5050008011E0008E5050008E2
:10012000E5050008E5050008E5050008E505000807
:10013000E5050008E5050008E5050008E5050008F7
:10014000E5050008E5050008E5050008E5050008E7
:10015000E5050008E5050008E5050008E5050008D7
:10016000E5050008E5050008E5050008E5050008C7
:10017000E5050008E5050008E505000800000000A9
:10018000E5050008E5050008E5050008E5050008A7
:10019000E5050008E5050008E5050008E505000897
:0C01A0000D1E0008E5050008191E0008EF
:1001B00010B5054C237833B9044B13B10448AFF3A1
:1001C00000800123237010BD6401002000000000A6
:1001D00064C7010808B5034B1BB103490348AFF3DB
:1001E000008008BD000000006801002064C701080D
:1001F00001F0FF01102A2BDB10F0070F08D010F8D8
:10020000013B013A8B422DD010F0070F42B3F6D1DB
:10021000F0B441EA012141EA014122F007047FF0F4
:1002200000070023F0E80256083C85EA010586EA4B
:10023000010685FA47F5A3FA87F586FA47F6A5FA87
:1002400087F68EB9EED1F0BC01F0FF0102F0070293
:1002500032B110F8013B013A83EA010313B1F8D13E
:100260000020704701387047002D06BF354603381F
:10027000073815F0010F07D1013015F4807F02BF58
:10028000013015F4C03F0130F0BC0138704700BFA9
:1002900053B94AB9002908BF00281CBF4FF0FF31ED
:1002A0004FF0FF3000F074B9ADF1080C6DE904CEE9
:1002B00000F006F8DDF804E0DDE9022304B0704741
:1002C0002DE9F047089D04468E46002B4DD18A4209
:1002D000944669D9B2FA82F252B101FA02F3C2F13C
:1002E000200120FA01F10CFA02FC41EA030E9440CD
:1002F0004FEA1C48210CBEFBF8F61FFA8CF708FBEE
:1003000016E341EA034306FB07F199420AD91CEBC5
:10031000030306F1FF3080F01F81994240F21C81F7
:10032000023E63445B1AA4B2B3FBF8F008FB10333F
:1003300044EA034400FB07F7A7420AD91CEB040474
:1003400000F1FF3380F00A81A74240F20781644444
:10035000023840EA0640E41B00261DB1D4400023C9
:10036000C5E900433146BDE8F0878B4209D9002D2D
:1003700000F0EF800026C5E9000130463146BDE8B7
:10038000F087B3FA83F6002E4AD18B4202D3824221
:1003900000F2F980841A61EB030301209E46002DD0
:1003A000E0D0C5E9004EDDE702B9FFDEB2FA82F225
:1003B000002A40F09280A1EB0C014FEA1C471FFA83
:1003C0008CFE0126200CB1FBF7F307FB131140EA6A
:1003D00001410EFB03F0884208D91CEB010103F137
:1003E000FF3802D2884200F2CB804346091AA4B2F9
:1003F000B1FBF7F007FB101144EA01440EFB00FECD
:10040000A64508D91CEB040400F1FF3102D2A64531
:1004100000F2BB800846A4EB0E0440EA03409CE7D0
:10042000C6F12007B34022FA07FC4CEA030C20FA7D
:1004300007F401FA06F31C43F9404FEA1C4900FA9D
:1004400006F3B1FBF9F8200C1FFA8CFE09FB18111A
:1004500040EA014108FB0EF0884202FA06F20BD98D
:100460001CEB010108F1FF3A80F08880884240F2DD
:100470008580A8F102086144091AA4B2B1FBF9F021
:1004800009FB101144EA014100FB0EFE8E4508D91C
:100490001CEB010100F1FF346CD28E456AD90238A1
:1004A000614440EA0840A0FB0294A1EB0E01A14286
:1004B000C846A64656D353D05DB1B3EB080261EBF4
:1004C0000E0101FA07F722FA06F3F1401F43C5E9CE
:1004D000007100263146BDE8F087C2F12003D84004
:1004E0000CFA02FC21FA03F3914001434FEA1C4746
:1004F0001FFA8CFEB3FBF7F007FB10360B0C43EA38
:10050000064300FB0EF69E4204FA02F408D91CEBE7
:10051000030300F1FF382FD29E422DD902386344E5
:100520009B1B89B2B3FBF7F607FB163341EA034185
:1005300006FB0EF38B4208D91CEB010106F1FF38D4
:1005400016D28B4214D9023E6144C91A46EA0046CB
:1005500038E72E46284605E70646E3E61846F8E65D
:100560004B45A9D2B9EB020864EB0C0E0138A3E7A6
:100570004646EAE7204694E74046D1E7D0467BE787
:10058000023B614432E7304609E76444023842E7FF
:10059000704700BFDFF834D0002103E00C4B5B58FC
:1005A000435004310B480C4B42189A42F6D30B4A85
:1005B00002E0002342F8043B094B9A42F9D304F0CD
:1005C000EDF91BF0F3F800F0EFFE70470000032098
:1005D000605C0F080000002064010020640100201E
:1005E000A02F0120FEE7704708B500F01DFDBDE813
:1005F000084000F0A9BC00F019BD704710B50421F7
:1006000004461AF065FF204610BD000038B50C4BBB
:100610000C4C18800C4B822019806368984740F678
:10062000110398420AD1094D23682C608220984713
:100630002B688220DB689847002038BD0120FCE74A
:10064000800100204C000020820100208401002055
:100650004FF4A071F020FFF7D9BF0000F7B52D4D82
:100660002B6804461B698220984780B220800028AE
:1006700043D02B680DF106025B6901A982209847DF
:10068000BDF80620A2F5B47292B20A2A37D90B231C
:10069000B2FBF3F2204B1B889A4201D9013B9AB27C
:1006A000BDF8043040F6B8318B422AD8C3F57163E7
:1006B0000E339BB20F21B3FBF1F3184909888B422B
:1006C00001D94B1E9BB2164E164D30682F688342DF
:1006D00081B28CBF591AC91AB8B2BA428CBF101A6B
:1006E000801A89B280B201440529C8BF33603368DB
:1006F000C8BF2A6063802B68A38003B0F0BD0022CE
:10070000CEE7C3F56D6308339BB20E2BD2D800231E
:10071000D9E700BF84010020820100208001002071
:10072000880100208C01002037B568460D4614462C
:10073000FFF794FFBDF8000030B1BDF802302B6028
:10074000BDF804302360012003B030BD032821D858
:10075000DFE800F0020B12190F4B1A68B2FA82F2AE
:10076000520904210D4804F0B1BB0B4B5A68B2FA90
:1007700082F252090821F5E7074B9A68B2FA82F231
:1007800052091021EEE7044BDA68B2FA82F25209FC
:100790002021E7E7704700BF9001002000100240D1
:1007A000032821D8DFE800F0020B12190F4B1A685A
:1007B000003A18BF012204210D4804F087BB0B4BFF
:1007C0005A68003A18BF01220821F5E7074B9A68DA
:1007D000003A18BF01221021EEE7044BDA68003A14
:1007E00018BF01222021E7E7704700BF90010020D9
:1007F0000010024003280DD8DFE800F00206080AC6
:100800000421054804F067BB0821FAE71021F8E746
:100810002021F6E7704700BF0010024008B503280A
:1008200011D8DFE800F0020A0C0E0421074804F09A
:1008300047FB431E5842584108BD0821F6E71021E6
:10084000F4E72021F2E70020F3E700BF00100240A8
:1008500070B5084D00240126E0B2FFF7DFFF18B1A4
:100860002B68012B18BF2E600134052C05F10405FF
:10087000F2D170BD90010020012380F8741080F83F
:100880007530704700207047034B4164003918BF32
:1008900001211970704700BFFB2C01200020704718
:1008A000836B0BB10846184770474FF6FF707047CF
:1008B000406803689B69184770477047704700009D
:1008C00070B5044600F080FC2368D3F88850044BD0
:1008D000D4E90F122046AC46BDE87040604700BF27
:1008E000000000D008B503680446D3F8803098476C
:1008F000236820469B6F984700F0ECF82368204659
:100900001B6F9847292000F095FF00F0E3F823685B
:1009100020461B6F9847F8E710B5044609F020FC05
:1009200023682046D3F8AC30BDE81040184700F0EB
:100930003DBC00F041BC00F06DBC00F013BC00F009
:1009400075BC00F07DBC00F017BC08F06FBE10B5A0
:100950007C2104461AF0BCFD204610BD90F877308B
:100960001BB1406803681B681847184670470000B1
:1009700010B590F8341090F874400C4B8C421A78F3
:1009800009D03AB90A4A0B491488088810800C80AB
:1009900001221A7010BD002AFCD0054A05491488AE
:1009A000088810800C800022F3E700BFF42C01209F
:1009B000F02C0120F22C012070B50D46194635B9F6
:1009C000094B0A4A0A4840F2D2211AF0AFFDC0E9A9
:1009D0000F52084B003A18BF01221A700368BDE895
:1009E0007040D3F88C301847D4C701080CC80108F0
:1009F0005AC80108FA2C012008B5094B1B888B4204
:100A000003D8084B1B88934205D9074B074A08486F
:100A10009E211AF08BFD074B1980074B1A8008BDE9
:100A2000F02C0120F22C01209FC8010802C9010806
:100A30005AC80108F62C0120F82C0120012108B524
:100A40000022084606F05FFA0A4B186028B90A4BE4
:100A50000A4A28210A481AF069FD002204210120CF
:100A600006F0EEFA074B186018B9074B034A2C2121
:100A7000F0E708BDA401002020CA010869CA0108E6
:100A800098CA0108A0010020DFCA0108024B4FF0FC
:100A9000FF31186806F081BAA4010020014B1868E4
:100AA00006F0A6BAA4010020024B0021186806F047
:100AB00074BA00BFA4010020FFF7F0BF0348044947
:100AC000006800231A4606F0F6BA00BFA001002015
:100AD0000400002013B5084C00231A4601A9206821
:100AE00006F019FB20684FF0FF33002201A906F041
:100AF00012FB02B010BD00BFA001002003685B6CB8
:100B000018470120704703689B6A184782B000238A
:100B100001930D4B1A6B42F400021A631A6B02F434
:100B200000020192019A1A6942F400021A611A69DC
:100B300022F400021A61054B054A1A61054B4FF079
:100B400080629A6002B07047003802409818002016
:100B5000990B000800E100E040F2EF307047000020
:100B6000054B0360054B4FF08062C3F88820BFF34C
:100B70004F8FBFF36F8F704778CC010800E100E022
:100B800010B504464FF45A61FFF7EAFF20461AF009
:100B90009FFC204610BD0000024B1B68586803688C
:100BA0005B691847FC2C012070B5044625460A4BAA
:100BB0000C30002660602672667245F8203B602289
:100BC000294609F00BFC04F55A63EE602435AB426C
:100BD000FBD1204670BD00BF78CC010808B50B29B9
:100BE0000BD8DFE801F01206100A0A0A0A08080802
:100BF0000808012008BD0520FCE7054B054A06480A
:100C000066211AF093FC0020F4E70220F2E700BF0F
:100C100021CB01083CCB010886CB010808B50A2985
:100C200009D8DFE801F010060E08080808060606D5
:100C30000600012008BD054B054A064887211AF029
:100C400075FC0020F6E70220F4E700BF21CB010885
:100C5000CBCB010886CB01082DE9F8434F7F0C462A
:100C600039468146FFF7BAFF94F81E800546414693
:100C70004846FFF7B3FF414606464846FFF7CEFF1A
:100C8000A18A628B424B521A1A649A61228B521AC1
:100C90001A61E28A586342EA01425A642069626832
:100CA000D863DA60216894F81CC080294FEA0C628E
:100CB00026D010D8202945EA020461D040295FD00F
:100CC00004295DD0324B2A4342F400324745DA61B1
:100CD0005AD0304A40E0B1F5807F07D0B1F5007FAF
:100CE000F0D142F4003242F0090203E042F4003253
:100CF00042F00A02DA61E2681A625E6258612AE032
:100D0000A4682A4342F40032211DD962DA612278B4
:100D10005E62586142B1012A21D01F4B1F4A204810
:100D200040F211111AF002FCDA69618822F47F4264
:100D3000013922F0100242EA0122DA610120144B4B
:100D4000DA6942F02002DA61DA699206FCD41022F4
:100D50009A600028BDD0134A1A60BDE8F883628803
:100D6000D969541E21F47F4222F0100242EA042283
:100D7000BCF1FF0042F0100218BF0120DA61DEE78B
:100D800044F40034DC61B8E740F20122E4E700BF3C
:100D900000B002400102010016CC010830CC01086D
:100DA00086CB01080102020070B50C46897FFFF76F
:100DB00035FFA68AE18A628B154B2569586341EAA3
:100DC0000641921B5964DD631A642668E168082EA7
:100DD0000DD19A611A615862207F0E4A42EA006280
:100DE000DA610D4A19625D61DD601A6070BD002232
:100DF000D8611A6148090A0A02F4784200F4FC60DA
:100E00000243C1F3C4010A439A63044AEDE700BFF9
:100E100000B00240090001000102020001020300CB
:100E2000012070470C2070470C2303FB01000830A1
:100E300070470C2303FB0100083070470120704706
:100E40004FF4D16070474FF4D16303FB01000830C9
:100E500070474FF4D16303FB010008307047012055
:100E600070471020704700EB01100830704700EB0E
:100E7000011008307047084601F00CB910B5034B5B
:100E80000360044608F028F9204610BD30CD010863
:100E900010B50446FFF7F2FF204614211AF018FBA4
:100EA000204610BD10B5034B0360044608F014F94A
:100EB000204610BDFCCC010810B50446FFF7F2FF38
:100EC00020464FF4D2611AF003FB204610BD00000B
:100ED00010B5034B0360044608F0FEF8204610BD31
:100EE000C8CC010810B50446FFF7F2FF20461821D0
:100EF0001AF0EEFA204610BD10B5084B0360044608
:100F000000F2BC60FFF7BAFF04F12C00FFF7CAFF44
:100F100004F11400FFF7DCFF204610BD64CD01088A
:100F200008B50248FFF7E8FF08BD00BFAC0100208C
:100F300010B50446FFF7E0FF20464FF403611AF0B6
:100F4000C7FA204610BD00002DE9F34100F0D8FF9C
:100F5000054600F0D9FF00240146234628462246D4
:100F600000940EF0A9FC254B254A264D1A60204618
:100F700002F032FC24480EF007FC2B78BFF35B8FA5
:100F8000DB0735D428461AF0A5FA88B31F4C204B4E
:100F9000236004F2D46604F1140004F12C0804F276
:100FA000BC676060C4F80880E760266108F096F8C6
:100FB000184B6361404608F091F8174BE3623846DE
:100FC00008F08CF8154BC4F8BC3604F5DA6003F071
:100FD000C1F9224604F5DA61304603F071F9304672
:100FE00001F058F80E481AF0BFFA28461AF07EFAB7
:100FF0000C4802B0BDE8F041FFF762BC582D01205B
:10100000FC170020A801002008000020AC010020EF
:1010100064CD0108C8CC0108FCCC010830CD010822
:10102000210F000880170020704700000148FFF7DB
:1010300059BC00BF8017002070B5234C234E244BB1
:10104000244D23603046FFF7AFFD284611F03EFDEA
:10105000214B2248DC60224C03600022F0204FF438
:1010600080712080C3E912121E4C1F492080C3E901
:1010700019121E4C1A864FF080714FF4A0705967F8
:101080000121C3E90422C3E90622C3E90822C3E916
:101090000A22C3E90E22C3E91022C3E91422C3E9DC
:1010A00016221A6683F86C201A67C3E9016583F873
:1010B000781020800E4C83F8341020800D48027088
:1010C0000D4A1A6070BD00BFDC090020E009002055
:1010D000C4C701080018002080170020FC2C012044
:1010E000F02C0120F62C012001000001F22C01203F
:1010F000F82C0120F42C012050C901080148FFF709
:101100002FBD00BFE009002000207047818070479C
:10111000C1807047018170474181704770477047B7
:1011200070477047704710B4C4880368121B8488E6
:101130005B6D091B12B25DF8044B09B218474FF6FC
:10114000FF7383814FF0FF3303621368C361106044
:10115000704790F825201AB190F8242002B1186049
:1011600070470000034B902283F85A2383F85823DA
:10117000704700BF00E100E0094A0A49D3680A4805
:10118000C3F30A03013B9BB20B801169C1F30A014F
:10119000013901801364536B43F0010353637047BB
:1011A000006801407C1800207A180020014BD3F819
:1011B000AC00704700680140024B0122C3F8AC103C
:1011C0005A6270470068014070B5044608F083FA1F
:1011D00023685D6E0BF08CFE01462046A84723680D
:1011E000054AD3F888502046AC460023BDE870403D
:1011F000A2F51631604700BF00B004D008F052BA23
:1012000090F84B3013B1024B01221A7008F056BA15
:101210007818002008F010BA08F06BBB90F8252071
:1012200012B103685B69184770470000034B4FF029
:1012300080629A604FF080729A60704700E100E02F
:10124000084B4FF08062C3F88820BFF34F8FBFF385
:101250006F8F4FF08072C3F88820BFF34F8FBFF3BA
:101260006F8F704700E100E010B5144C236823B382
:10127000134B144A1B6C11888B4213D1124B1988E3
:1012800004F00AFC226892F86630013382F8663076
:10129000FFF714FC206808F063FFBDE81040002051
:1012A000FFF754BA04F0F8FB206803681B6A9847FC
:1012B000BDE810400020FFF773BA10BDFC2C0120E0
:1012C000006801407C1800207A1800207047002038
:1012D0007047000007B5064BADF806001B680548CF
:1012E00001220DF1060105F023F903B05DF804FBBE
:1012F00010000020081A002008B5642005F0F7FD52
:10130000FBE708B5012005F0F2FD07F0B9FEF9E7AB
:1013100030B595B0102200210AA81AF08DFA1422D7
:10132000002103A81AF088FA00241D4B01941A6CBE
:1013300042F080521A641B6C03F080530193019BAE
:10134000184B02941A6842F440421A601B6803F476
:10135000404302930122029B4FF48033CDE90823DE
:1013600002254FF48003CDE90E5308214FF4A873F2
:10137000CDE9101308A804231393129504F0AAFBD7
:101380000F23CDE903354FF4A0504FF48053CDE93E
:101390000603052103A8059404F07AFD15B030BDBD
:1013A000003802400070004080B59AB003F004FBA2
:1013B000FFF7AEFF142200210DA800241AF03CFA1A
:1013C000C34B00941A6BC348C34D42F010021A631A
:1013D0001A6B02F010020092009A01941A6B42F00C
:1013E00020021A631A6B02F020020192019A029401
:1013F0001A6B42F080021A631A6B02F080020292AA
:10140000029A03941A6B42F004021A631A6B02F0F8
:1014100004020392039A04941A6B42F001021A63C5
:101420001A6B02F001020492049A05941A6B42F0BE
:1014300002021A631A6B02F002020592059A0694E0
:101440001A6B42F040021A631A6B02F040020692D5
:10145000069A07941A6B42F008021A631B6B03F09A
:101460000803079322463C21079B03F02FFD9B486E
:101470002246042103F02AFD224699484FF44051A8
:1014800003F024FD01264FF003083C239148CDF8DA
:1014900040800DA902274FF00409CDE90D360F94C5
:1014A00003F028FC8D480F940DA9CDE90D961097F7
:1014B00003F020FC0DA94FF440538948CDE90D36C7
:1014C000CDE90F4703F016FC8648874B036003F015
:1014D00005FB864A864B2C62C5E9002328464FF45B
:1014E0008043C5E90434C5E90244C5E9064403F074
:1014F000D7FE1021284604F013F92146284604F0AF
:101500002EF97C487C4984624FF48273C0E9001351
:101510004FF400751823C0E906530A23774DC362C0
:10152000C0E90244C0E90444C0E9084404F0A4FF4F
:10153000734B0D974FF0100CC5E900364023C5E9F9
:1015400004C34FF4C073C5E906344FF40063C5E922
:1015500008344FF40053AB620DA907232846CDE9A8
:101560000E39CDE910384FF0080AC5E90249CDE936
:10157000127704F081FE4FF6FF7209A92846CDE9E3
:101580000AA6089409960C9404F096FE304603F0DF
:101590003FFA4FF6FF7209A92846CDE9097ACDE94D
:1015A0000B6404F089FE4FF6FF7209A92846CDE9C5
:1015B000098ACDE90B9404F07FFE4FF40C73089375
:1015C000089B0C934FF6FF7209A92846CDE9099AAA
:1015D0000B9604F071FE40F26A51284604F08AFE30
:1015E000342221460DEB02001AF026F9454D464BF8
:1015F000AC86C5E900340923C5E905361D2340F250
:101600000D1EC5E9073840F24313C5E909E3284632
:1016100040F2471340F21718C5E90B83C5E90244AD
:101620002C6185F8364004F03FF9FF21F022CDE926
:1016300012144FF4806905214FF4A073CDE90E24F4
:10164000CDE91491CDE916420DA922462846CDE9EF
:1016500010372E4D18930D94ADF864408DF8664008
:1016600004F0EDF92A4B2B601B6898472B68294D35
:10167000DB689847284BC5E90A47C5E90C4428466A
:10168000C5E90034C5E9027403F038FA314628464A
:1016900003F0ECFAFEF7A8FFFEF7A5FF05F0B2FB9A
:1016A0001E4A1F48214605F0D9FB1E4B1E4A1860F2
:1016B00021461E4805F0D2FB1D4B1E4A18602146EC
:1016C0001D4805F0CBFB1D4B186005F0ADFB37E066
:1016D0000038024000100240D818002000080240E4
:1016E000000C02409018002000300240005C0040D6
:1016F000A0860100081A002000500140D4190020E3
:10170000400100A02C19002000680140881800202A
:10171000140000209818002000B00240DCCD010821
:10172000F91200088C180020B8CD0108F705000850
:101730008418002094CD01080313000880180020AD
:10174000FEE700BF704770477FB5094B8DF8172043
:101750001B6802930DF117020123009201930A46C0
:101760000146044803F044FE07B05DF804FB00BFE7
:101770000C000020D81800207FB500238DF817300A
:10178000084B1B6802930A4601230DF117010091D3
:1017900001930146044803F0BBFE9DF8170007B013
:1017A0005DF804FB0C000020D81800201FB5084C81
:1017B00024680092CDE901340A4601230146054818
:1017C00003F0A6FE003818BF012004B010BD00BF12
:1017D0000C000020D818002003F01AB908B50648FC
:1017E0000022042103F072FBBDE8084002480122F8
:1017F000042103F06BBB00BF0008024038B50B4D5D
:10180000044601220A484FF4005103F05FFB002216
:101810000421284603F05AFB2046FFF75BFD2846CB
:101820000122BDE83840042103F050BB000802400B
:10183000000C024038B50B4D044600220A484FF414
:10184000005103F043FB00220421284603F03EFB35
:101850002046FFF73FFD28460122BDE8384004211D
:1018600003F034BB00080240000C0240F7B5144EF0
:10187000144F05460C4630460022042103F026FB97
:1018800000224FF40051384603F020FB2846FFF7B2
:1018900021FD0D4B0D481B68224601A904F0EAFF0B
:1018A000384601224FF40051019C03F00FFB3046F3
:1018B0000122042103F00AFB204603B0F0BD00BF63
:1018C00000080240000C024010000020081A00200E
:1018D00003F09EB80268034B9A4201D103F086B828
:1018E000704700BF001000407047000082B00E4BF0
:1018F00000220092596C41F480415964596C01F402
:101900008041009100990192196C41F08051196455
:101910001B6C03F080530193019B0F216FF00100BA
:1019200002B003F09BB800BF003802400268094BC8
:101930009A4282B00BD100230193074B1A6B42F4F9
:1019400080521A631B6B03F480530193019B02B016
:10195000704700BF003002400038024007B50F4B0F
:1019600002689A4216D10022A3F5F0430192196B46
:1019700041F4000119631B6B03F40003019305217B
:101980005A20019B03F06AF85A2003B05DF804EB7B
:1019900003F096B803B05DF804FB00BF00B002404E
:1019A0002DE9F043044689B01422002103A819F060
:1019B00043FF2268244B9A4243D1244C24480025FB
:1019C0000095236B43F004032363236B03F00403AC
:1019D0000093009B0195236B43F001032363236B6A
:1019E00003F001030193019B4FF012094FF40073C0
:1019F0004FF001080327042603A9CDE90339CDE9F7
:101A00000587079603F076F94FF48073114807961F
:101A100003A9CDE90339CDE9058703F06BF90295F8
:101A2000236C43F400032364236C03F40003029348
:101A3000029B236A43F400032362236A23F4000316
:101A4000236209B0BDE8F083005C0040003802402A
:101A50000008024000000240F0B599B0044614228C
:101A6000002107A819F0E8FE30220DEB020000214A
:101A700019F0E2FE22685E4B9A4240F0B7800823DC
:101A80000C93C0231093042312930CA84FF400333B
:101A9000159304F0C7FA08B1FFF726FF554B5648D7
:101AA000002400945A6C42F080625A645A6C02F02E
:101AB00080620092009A01941A6B42F020021A632D
:101AC0001A6B02F020020192019A02941A6B42F002
:101AD00001021A631A6B02F001020292029A039445
:101AE0001A6B42F002021A631A6B02F002020392AE
:101AF000039A04941A6B42F040021A631A6B02F0C4
:101B000040020492049A05941A6B42F004021A638C
:101B10001A6B02F004020592059A06941A6B42F0C1
:101B200008021A631B6B03F00803069302250E26B6
:101B3000069B0B964FF4806307A9CDE90735CDE9E5
:101B4000094503F0D7F841F658032C480B9607A92E
:101B5000CDE907350927CDE9094503F0CBF8032383
:101B600027480B9707A9CDE90735CDE9094503F0CB
:101B7000C1F84FF4706322480B9607A9CDE90735E9
:101B8000CDE9094503F0B6F84FF40C631D480B96F8
:101B900007A9CDE90735CDE9094503F0ABF8C02326
:101BA00019480B9607A9CDE90735CDE9094503F09A
:101BB000A1F8082315480B9607A9CDE90735CDE90B
:101BC000094503F097F84FF4A0530E480B9707A967
:101BD000CDE90735CDE9094503F08CF858202246B8
:101BE000052102F03BFF582002F06AFF19B0F0BD5A
:101BF000006801400038024000140240000002402A
:101C0000000402400018024000080240000C02409C
:101C100010B5044688B01422002103A819F00CFE68
:101C20002268144B9A4223D103F5684300210191A5
:101C30005A6C114842F480125A645A6C02F48012B1
:101C40000192019A02911A6B42F020021A631B6BF7
:101C500003F020030293029B4FF4607202230321DE
:101C6000CDE903230523CDE9061303A903F042F8C8
:101C700008B010BD00500140001402402DE9F041B1
:101C800086B0002303932B4B1C68002C4FD14FF0E0
:101C90000108C3F80080284B00949A6B274842EA59
:101CA00008029A639B6B03EA08030093022703264A
:101CB0000C25009B01A94FF63F03CDE90137CDE983
:101CC000046503F017F81E48059501A9CDE90187C1
:101CD000CDE9034603F00EF848F233131948059591
:101CE00001A9CDE90137CDE9034603F003F84FF62A
:101CF00083731548059501A9CDE90137CDE9034660
:101D000002F0F8FF4CF203731048059501A9CDE9E4
:101D10000137CDE9034602F0EDFF60230C4805953D
:101D200001A9CDE90137CDE9034602F0E3FF06B092
:101D3000BDE8F081601A0020003802400014024023
:101D4000000802400018024000100240000C02404F
:101D50000004024070B588B000230293204B1A6C37
:101D600042F010021A641B6C03F010030293054644
:101D700001A903A8029B04F037F9069B4BBB04F0B2
:101D800023F9184E184B336040F2E733F360174BDA
:101D9000B0FBF3F3013B7360304600233361B36063
:101DA000B36104F053FF044680B9304604F008FEE6
:101DB000044658B9362002F083FE0F2D0DD8224676
:101DC0002946362002F04AFE094B1D60204608B025
:101DD00070BD04F0F9F84000D3E70124F6E700BF36
:101DE00000380240641A00200010004040420F00FA
:101DF0007C0000207047FEE7FEE7FEE7FEE7704745
:101E0000014804F01BBE00BF641A0020014803F023
:101E1000B9BD00BF2C190020014802F09DBE00BFD3
:101E2000981800200120704708B519F0B1FB16235F
:101E300003604FF0FF3008BD08B519F0A9FB162369
:101E40000360FEE770B50D4614460E46731B9C42B8
:101E500001DC204670BDAFF3008006F8010BF5E70A
:101E600070B50D4614460E46731B9C4201DC20469D
:101E700070BD16F8010BAFF30080F5E74FF0FF30AF
:101E800070474FF400534B600020704701207047AB
:101E9000002070470A4A116808B5034609B9094984
:101EA00011601068694603448B4206D919F070FB33
:101EB0000C2303604FF0FF3008BD1360FCE700BF48
:101EC000AC1A0020A02F0120704710B50421044651
:101ED00019F0FEFA204610BD012908B506D00229E6
:101EE00008D059B901F0C4FC006808BD01F0C0FC7D
:101EF0004068FAE701F0BCFC8068F6E70020F4E7F0
:101F00000048704714CE01082F20704713B50024F5
:101F100051B1036801948DF8034001AA9C680DF14A
:101F20000303A04702B010BD0846FBE7C089704715
:101F3000008A7047C088704780887047807A00F0B8
:101F40007F007047807AC0097047704710B508213C
:101F5000044619F0BDFA204610BD7047704700F5E1
:101F600098730868496803C37047704770474160B9
:101F700070477047064BC0F84C310023C0F8503111
:101F800000F5A273C0F84801C0F84031704700BFA7
:101F90009D2300080123037270477047704710B4F7
:101FA000C26841685410034601EB6200D20748BF83
:101FB0000A599B685DF8044B48BFD35818474368DB
:101FC0002BB183682BB9C06800F001007047184638
:101FD00070470120704710B50C21044619F078FABB
:101FE000204610BD10B51021044619F071FA2046A4
:101FF00010BD10B54FF4AE71044619F069FA2046D1
:1020000010BD08B50AF074FFBDE808400BF002BC33
:1020100010B50446D0F8400158B10368DB68984712
:1020200038B1D4F8400103689B6898470023C4F88E
:10203000403110BDF8B5044617460E460BF064F863
:10204000104B0025C4E955760F4E1C60C4E953556A
:102050000E4B306823600E4BC4E9513503680121F3
:102060009B68C4E94F559847284601F0B5FB336893
:1020700093F876200AB1D86C00B9986812F00DFB7D
:102080002046F8BD482D0120FC2C012024D7010852
:102090000CD70108064BC0F84C310023C0F8503172
:1020A00000F5A273C0F84801C0F84031704700BF86
:1020B0009D230008064BC0F84C310023C0F8503176
:1020C00000F5A273C0F84801C0F84031704700BF66
:1020D0004D220008064BC0F84C310023C0F85031A7
:1020E00000F5A273C0F84801C0F84031704700BF46
:1020F000FD20000803685B6A184700002DE9F14FD6
:10210000D0E9555A0746A86803681B6A9847B0F596
:10211000477F05D2454B464AA321464819F006FAA7
:10212000686803681B6A98470F2803D8424B404AE7
:10213000A421F2E7E86803681B6A98470B2803D8D4
:102140003E4B3B4AA521E8E70AF0D2FEDFF8F490C7
:1021500004300AF00BFFD9F8000010B10368DB6807
:102160009847D9F8000010B103681B689847DFF85A
:10217000D880D8F8000010B103685B699847D7F899
:102180003C0110B103685B689847D8F8000010B1B3
:1021900003681B689847D7F83C0110B103689B6837
:1021A0009847E8680021FFF7A5FF4FF0000B244B8C
:1021B00003600446C0F804B080F808B0A86803685B
:1021C00059465B6A9847064602F0FCF8686803685F
:1021D00059465B6A98473146054602F0CDF8C9F882
:1021E0000040C7F83C51C8F80060E5B12B1DCAF8A3
:1021F00000303368C5F808A03046DB68F5639847BF
:102200002B6828461B689847214630460CF052FB45
:10221000236820461B69984723685B69204601B004
:10222000BDE8F04F18472B46E1E700BFD0D10108C9
:102230005ED2010866D30108ADD3010850D401086D
:1022400070D701083C2D0120382D01202DE9F14FD8
:10225000D0E9555A0746A86803681B6A9847B0F545
:10226000D16F05D2454B464AA321464819F05EF985
:10227000686803681B6A98470F2803D8424B404A96
:10228000A421F2E7E86803681B6A98470B2803D883
:102290003E4B3B4AA521E8E70AF02AFEDFF8F4901E
:1022A00004300AF063FED9F8000010B10368DB685F
:1022B0009847D9F8000010B103681B689847DFF809
:1022C000D880D8F8000010B103685B699847D7F848
:1022D0003C0110B103685B689847D8F8000010B162
:1022E00003681B689847D7F83C0110B103689B68E6
:1022F0009847E8680021FFF7FDFE4FF0000B244BE4
:1023000003600446C0F804B080F808B0A868036809
:1023100059465B6A9847064602F094F86868036875
:1023200059465B6A98473146054602F065F8C9F898
:102330000040C7F83C51C8F80060E5B12B1DCAF851
:1023400000303368C5F808A03046DB68F56398476D
:102350002B6828461B689847214630460CF0AAFA9D
:10236000236820461B69984723685B69204601B0B3
:10237000BDE8F04F18472B46E1E700BFD0D1010878
:10238000F3D4010866D30108ADD3010850D4010885
:1023900070D701083C2D0120382D01202DE9F14F87
:1023A000D0E9555A0746A86803681B6A9847B0F5F4
:1023B000946F05D2454B464AA321464819F0B6F81A
:1023C000686803681B6A98470F2803D8424B404A45
:1023D000A421F2E7E86803681B6A98470B2803D832
:1023E0003E4B3B4AA521E8E70AF082FDDFF8F49076
:1023F00004300AF0BBFDD9F8000010B10368DB68B7
:102400009847D9F8000010B103681B689847DFF8B7
:10241000D880D8F8000010B103685B699847D7F8F6
:102420003C0110B103685B689847D8F8000010B110
:1024300003681B689847D7F83C0110B103689B6894
:102440009847E8680021FFF755FE4FF0000B244B3A
:1024500003600446C0F804B080F808B0A8680368B8
:1024600059465B6A9847064601F068FF686803684A
:1024700059465B6A98473146054601F039FFC9F86D
:102480000040C7F83C51C8F80060E5B12B1DCAF800
:1024900000303368C5F808A03046DB68F56398471C
:1024A0002B6828461B689847214630460CF002FAF4
:1024B000236820461B69984723685B69204601B062
:1024C000BDE8F04F18472B46E1E700BFD0D1010827
:1024D00003D6010866D30108ADD3010850D4010822
:1024E00070D701083C2D0120382D0120406A70472B
:1024F000806A704770478B88C0690A68DB0A50F8A9
:1025000023001044704710B5C2B1137BB3B1547BA4
:10251000D27A240204F4E0641443026A98B202EB13
:10252000840213888B4202D192F9020010BD05D8B3
:10253000013880B204320028F3D1F7E70020F5E734
:1025400010B52C21044618F0C3FF204610BD000032
:1025500030B58BB00446BDF860500895BDF85C50AE
:1025600007959DF8505006959DF84C5005959DF89F
:10257000485004959DF8445003959DF840500295AD
:102580009DF83C500195BDF8385000950BF0ECFDDE
:10259000064B2360159BE361169B2362199B6362C4
:1025A0001A9BA36220460BB030BD00BF94D7010830
:1025B000806A70477047704770477047704730B502
:1025C0000368018185B06D460146D3F88430044626
:1025D0002846984795E807003C3484E8070005B092
:1025E00030BD30B50368418185B06D460146D3F8F2
:1025F000843004462846984795E807003C3484E830
:10260000070005B030BD0022028042808280C28077
:10261000704780F83610704770B5036804461B6B2E
:10262000154698472368294620465B6EBDE87040F2
:10263000184700207047806C70477047704770479C
:1026400090F82C304BB100F17002126802663BB179
:1026500000F178031B684366704700F16C02F4E7F1
:1026600000F17403F6E708B590F82C303BB100F1A7
:10267000C8031B68C0F8AC30FFF7E2FF08BD00F1EB
:10268000C403F6E770477047704730B4C2684468C7
:102690005510034604EB6200D20748BF62599B689D
:1026A00030BC48BFD358184743682BB183682BB957
:1026B000C06800F00100704718467047012070475D
:1026C00090F82D3080F8B23080F85E30704790F886
:1026D0002D3080F85E30704710B54C21044618F05C
:1026E000F7FE204610BD10B51021044618F0F0FE8C
:1026F000204610BD10B57C21044618F0E9FE2046A6
:1027000010BD10B5CC21044618F0E2FE204610BDE5
:1027100010B54FF49461044618F0DAFE204610BD5F
:1027200008B5FEF77BFD08BD10B50446006B50B13F
:102730000368DB68984730B1206B036821469B68CB
:10274000BDE81040184710BD036870B55E6B124BB2
:102750001B6804468DB22BB9104B114A6C211148ED
:1027600018F0E4FE1049828D0988914203D80F4B7E
:102770000B4A6D21F3E713F812200D4B1B6853F839
:10278000220003681B6B9847281A01B23346204683
:10279000BDE87040184700BF4C2D0120ECD7010860
:1027A0002ED8010869D80108502D0120B0D80108A1
:1027B000542D012070B50D46097990F8342090F819
:1027C0002C30A1F1020CDCF1000646EB0C060129CD
:1027D000044680F8346016D0BAB983F0010380F85B
:1027E0002C300368D3F88C309847236820465B6907
:1027F00098472B79012B08D123682046D3F88830DD
:10280000BDE870401847002AF6D070BD38B500F515
:102810008963994204460D4603D10AF069FBFFF72C
:1028200049FC04F5B274A54205D10AF061FBBDE88C
:102830003840FFF74FBC38BD00224FF0FF31C0E9F0
:1028400000218260704770B5036804461B6B154613
:1028500098472368294620465B6BBDE870401847BF
:1028600070B5036804469B6B154698472368294654
:102870002046DB6BBDE87040184738B504461D465E
:10288000FFF7E1FFBDF9102029462046FFF7E8FFDA
:1028900038BD00000022C0E90122C0E90322C0E9DE
:1028A0000522C0E907224FF480728284014A026047
:1028B000704700BF30D9010810B526220446002118
:1028C00018F0BAFF2046FFF7E5FF044B2360FF2313
:1028D00084F826300023A362204610BD24E20108BC
:1028E00010B526220446002118F0A6FF2046FFF767
:1028F000D1FF0A4B23600A4BA3624FF6FF73A385F7
:102900004FF47F020023C4E90C324FF0FF32C4E9D8
:1029100010232387E363204610BD00BF94E1010824
:10292000C8D101081A4B73B51B88018F8B4206462C
:102930002AD9184B1B682BB9174B184A18486C2119
:1029400018F0F4FD13F81120164B1B6853F82250B1
:10295000154B186800F07CFF2B6801909B6B284694
:1029600098472B6801999B6C0446284698472B682A
:1029700001995B6A14FB00F428469847A4B204440A
:10298000A6F8464002B070BD0023A0F84630F9E733
:10299000502D01204C2D0120ECD701082ED8010824
:1029A00069D80108542D0120582D01204FF47F4390
:1029B00070B50646838540F20113002583841A4BC7
:1029C0008562C0E90155C0E90355C0E90555C0E974
:1029D0000755056380F8345046F8383B04463046C6
:1029E000FFF76AFF114BA3632A4629463046C4E924
:1029F0001B55C4E91D556566A4F86850FFF723FF11
:102A000031462046264606F07BFB094B46F87C3BC8
:102A10003046FFF765FF2046C4E93155314606F0E0
:102A20006FFB204670BD00BF28DA01088CE2010868
:102A3000C4DA010813B504467C30019008F078F937
:102A4000B4F90A20B4F908100198FFF709FF02B0A1
:102A500010BD00002DE9F04F2DED0A8B04468FB01C
:102A6000A24600250BF07AFDE94BE5634AF8403BAE
:102A700004F16C095046FFF71FFF4FF6FF76262240
:102A800029464846ADF8306018F0D6FE4846FFF7B4
:102A900001FFE04BE3660DF1300BBDF83030A4F8D8
:102AA0009230594604F19808484684F8946008F03A
:102AB0000AFC4046FFF77AFF04F5B27304F5D077BD
:102AC00018460BEE103A08F0D7FB3846FFF76EFFBA
:102AD00004F51B7318460BEE903ACF4EFFF7ECFE51
:102AE00004F52873C4F86C621846C4F89852A4F828
:102AF0009C520CEE103AFFF7DFFE04F53573C4F874
:102B0000A0621846C4F8CC52A4F8D05209EE903A0C
:102B1000FFF7E6FE04F54773184608EE103ABF4E7D
:102B2000FFF7DEFE04F55A73C4F81C631846C4F8B8
:102B3000645308EE903AFFF7D3FE04F56D73C4F8C2
:102B400068631846C4F8B0530AEE103AFFF7C8FE9F
:102B500004F57F73184609EE103AFFF7C1FE04F53D
:102B60008963C4F8FC631846C4F844540AEE903AEA
:102B700008F0E0FCAA4BC4F89034AA4BC4F898348F
:102B80004FF4A0732A46504600932946F023C4F818
:102B90009444C4F89C54261DFFF76FFE4FF07F430A
:102BA000A3665146304606F0ABFA2A464846294607
:102BB000FFF749FE48465946ADF8305008F083FB10
:102BC000494630464FF0330906F09AFA2946CDF8C7
:102BD0000090F0232A4604F1D000FFF74EFE924AFF
:102BE000924BC4E94123C4E94333D4F898304FF001
:102BF000050A4046D3F88C30A4F800A198478C4BC6
:102C00000C93404620235946ADF83430FFF712FFAD
:102C10000C22CDF80090F023294604F58A70FFF7C6
:102C20002CFE8449844B4046C4E95713FFF71BFD33
:102C3000F0239E224046CDF800902946FFF71DFE66
:102C40004146304606F05CFA1BEE100A0722AD2121
:102C5000FFF7F9FD2A230BA80AAAADF82C30ADF82E
:102C6000303009A90346CDF800B01BEE100AADF8CC
:102C700024A0ADF828A008F069FA4FF0051304F578
:102C800092601BEE101AC4F89C310390C4F88C01BA
:102C9000304606F035FA012384F8CC31D4F8A0315F
:102CA000DFF8A491D3F88C304FF0320838469847BB
:102CB0002A46CDF80080F023294604F5EC70FFF792
:102CC000DCFD5E495E4BA4F808A2C4E98313C4E9A5
:102CD0008533D4F8A0313846D3F88C309847544A1D
:102CE0000C921F2338465946ADF83430FFF7A2FE48
:102CF0000C22CDF80080F023294604F50770FFF779
:102D0000BCFD4C494C4B3846C4E99913FFF7ABFC6A
:102D1000F023D9223846CDF800802946FFF7ADFDD3
:102D20004FF043083946304606F0EAF997232A4621
:102D30001BEE900ACDF800802946FFF79EFD414921
:102D4000A4F89CA27927C4E9A59184F892721BEE9D
:102D5000901A304606F0D4F9F0234F221CEE100AE8
:102D6000CDF800802946FFF788FD3649C4F8CC121B
:102D700084F8C6721CEE101A3046C4F8C892A4F843
:102D8000D0A206F0BDF9082219EE900A0F21FFF734
:102D90005AFD04AF284BC4F8043319EE901A384694
:102DA000A4F8085307F02AFD97E8070004F54473D8
:102DB00083E807001D231E4AADF8343019EE900A4F
:102DC00059460C9207F0B4FF19EE901A304606F0FF
:102DD00097F9212218EE100A0F21FFF734FD164B48
:102DE000C4F84C33D4F81C33A4F85053D3F88430CF
:102DF000DFF8588018EE101A3846984797E8070011
:102E000004F5567383E80700D8F8003033BB1FE0A1
:102E100078DB01086CE301088CE2010898D901080D
:102E200060DB01080D2800089CFFB6FF008232FF1E
:102E3000C8D10108745E34FFFBF6E8FF8B8BF7FF07
:102E40000000B5FF574728FF93764EFF4C2D012019
:102E50007B4B7C4A60217C4818F068FBDFF8F8A1C6
:102E6000BAF80030192B03D8784B764A6121F2E783
:102E7000DFF8E8911921D9F8000000F0E9FCC4F866
:102E8000640318EE100A07F033FF714B0C9318EE31
:102E9000100A12235946ADF8343007F049FF18EEF6
:102EA000101A304606F02CF918EE900A21225B2108
:102EB000FFF7C9FCD4F86833664AD3F88430C4F805
:102EC000982318EE901A3846A4F89C53984797E830
:102ED000070004F5697383E80700D8F80030002B79
:102EE000B6D0BAF80030182BBED91821D9F8000096
:102EF00000F0AEFCC4F8B00318EE900A07F0F8FE3C
:102F0000534B0C9318EE900A11235946ADF8343008
:102F100007F00EFF18EE901A304606F0F1F81AEEA0
:102F2000100A57220B21FFF78EFC4A4AC4F8E4230B
:102F30001AEE101A3846A4F8E85307F05FFC97E839
:102F4000070004F57C7383E80700414B0C931AEEED
:102F5000100A1C235946ADF8343007F0E9FE1AEE8A
:102F6000101A304606F0CCF819EE100A70220B2128
:102F7000FFF769FCD4F8FC33364AD3F88430C4F840
:102F80002C2419EE101A3846A4F83054984797E8C4
:102F9000070004F5876383E80700D8F80030002BAA
:102FA0003FF456AFBAF80030172B7FF65DAF17210C
:102FB000D9F8000000F04CFCC4F8440419EE100AE3
:102FC00007F096FE224B0C9319EE100A1023594677
:102FD000ADF8343007F0ACFE19EE101A304606F0AA
:102FE0008FF81AEE900A4FF48A725F21FFF72BFCDC
:102FF00006235A460BA91AEE900AADF82C30072387
:10300000ADF8303007F0EEFE1E231AEE900AA4F859
:103010008034FFF787FC4FF0FF33C4F88434C4F8E2
:103020008834039BC4F8703430461AEE901A06F0C8
:1030300067F820460FB0BDEC0A8BBDE8F08F00BFEB
:10304000ECD70108EED8010869D80108B0D801080A
:10305000C8D10108FBF6E8FF502D0120582D0120B2
:1030600070477047704730B4C268446855100346D3
:1030700004EB6200D20748BF62599B6830BC48BF6E
:10308000D358184743682BB183682BB9C06800F048
:1030900001007047184670470120704710B5102195
:1030A000044618F015FA204610BD10B54FF44771CC
:1030B000044618F00DFA204610BDCC30884208B501
:1030C00005D109F015FFBDE80840FEF7E3BF08BDD4
:1030D0002DE9F04F2DED088B04468DB0A24600255A
:1030E0000BF03CFAE04BE5634AF8403B04F16C0915
:1030F0005046FFF7E1FB4FF6FF7626222946484669
:10310000ADF8286018F098FB4846FFF7C3FBD74B93
:10311000E3660AAFBDF82830A4F89230394604F1CE
:10312000980B484684F8946008F0CDF85846FFF7AD
:10313000C3FBCF4BC4F8983004F1CC031846C4F855
:10314000C450A4F8C85009EE903A08F095F804F578
:10315000847318460AEE103A08F08EF804F5A2734C
:1031600018460AEE903A08F087F804F5C07318463E
:1031700008EE103AFFF7B4FB04F5E473184608EEC6
:10318000903AFFF7ADFB04F5047309EE103A2622DE
:103190002946184618F050FB19EE100AFFF77AFB83
:1031A0004FF0010304F5127884F83432B14BA4F8DF
:1031B0003E62A4F8406284F84262C4F81032A4F877
:1031C0004462C4F8385284F83C524046FFF788FB0A
:1031D000A94BC4F8483204F525731846C4F8905238
:1031E0000BEE103A08F048F804F5347318460BEE6D
:1031F000903A08F041F8A14BC4E9C334A04BC4E9AC
:10320000C5354FF4A0732A46504600932946F02353
:10321000261DFFF732FB4FF07F43A3665146304631
:1032200005F06EFF2A4648462946FFF70CFB484644
:103230003946ADF8285008F046F84946304605F0C2
:103240005FFF432358460093BA22AD232221FFF7A4
:1032500014FB8C4A8C4BDFF850A24FF00509C4E9EF
:103260003023792384F8BE305946A4F8C8903046FC
:1032700005F046FF4A46494619EE900AFFF7E3FA81
:103280004FF00103ADF81C302823ADF8243009AA13
:1032900027234FF0020B19EE900AADF8283007A94A
:1032A0001346009708AAADF820B007F04FFF04F5C9
:1032B0004373C4F8F43019EE901AC4F804A13046F0
:1032C00005F01EFF4A461AEE100AC321FFF7BBFAAB
:1032D0004FF00103ADF81C3009AA2E231AEE100A94
:1032E000ADF82430ADF8283007A91346009708AA96
:1032F000ADF820B007F02AFF1AEE101AC4F840A16A
:10330000304605F0FDFE4A461AEE900A9621FFF778
:103310009AFA4FF00103ADF81C302D2308AA1AEEDB
:10332000900AADF82430ADF8283007A909AB009712
:10333000ADF820B007F00AFF1AEE901AC4F87CA18D
:10334000304605F0DDFE362218EE100A1A21FFF78E
:103350007AFA0DF108094D4BC4F8B03118EE101A85
:103360004846A4F8B45107F049FA99E8070004F573
:10337000DE7C8CE80700DFF834A1CDF828A01B2202
:1033800018EE100A3946ADF82C2007F0D1FC18EEE3
:10339000101A304605F0B4FE942218EE900A22214D
:1033A000FFF751FA394BC4F8F83118EE901A484635
:1033B000A4F8FC5107F022FA99E8070004F5017C13
:1033C0008CE807001A2218EE900A3946ADF82C2036
:1033D000CDF828A007F0ACFC18EE901A304605F0A6
:1033E0008FFE19EE100A54223321FFF72CFA4FF00A
:1033F0000A0B0B2219EE100AADF8242009A93A464F
:10340000A4F844B2ADF828B007F0ECFC19EE101A9D
:10341000304605F075FEC32261214046FFF713FADE
:103420001A4BC4F87832D4F84832A4F87C52D3F856
:10343000843041464846984799E8070004F52173CF
:1034400083E80700124B1B682BB9124B124A60210C
:10345000124818F06BF8124B1B88132B28D8114B0D
:103460000D4A6121F4E700BFC4DB01086CE30108E9
:103470008CE20108A4E0010898D90108ACDB01083E
:10348000BB30000893764EFF574728FFFBF6E8FF56
:103490004C2D0120ECD70108EED8010869D80108AD
:1034A000502D0120B0D8010804000200C8D1010845
:1034B0002F4B304D1868132100F0CAF9C4F8900260
:1034C000404607F015FC39464046CDF828A0ADF837
:1034D0002CB007F02DFC4146304605F011FE1BEEE6
:1034E000100A594640F20D12FFF7ADF92C2308AA35
:1034F0001BEE100A4FF008094FF00908ADF8243010
:10350000ADF8283007A909AB0097ADF81C90ADF8CD
:10351000208007F01BFE1BEE101A3046C4F8CC5278
:1035200005F0EEFD1BEE900A40F20D128221FFF72E
:103530008AF92B231BEE900AADF82430ADF8283021
:1035400008AA09AB07A90097ADF81C90ADF8208038
:1035500007F0FCFD30461BEE901AC4F8085305F046
:10356000CFFD20460DB0BDEC088BBDE8F08F00BF4D
:10357000582D01201900F9FF7047000030B5174D94
:103580002C78BFF35B8F14F001048FB022D1284652
:1035900017F0A0FFF0B13F230993114B0893114B93
:1035A000114912480A94CDE9064301220423CDE9CA
:1035B00003320A23009315220C23CDE90B44CDE9F5
:1035C00001440594FEF7C4FF094817F0CDFF2846D3
:1035D00017F08CFF05480FB030BD00BFB01A0020B7
:1035E00094F90108A4F9010854F60108B41A00205E
:1035F000793500087047000030B5174D2C78BFF3BF
:103600005B8F14F001048FB022D1284617F062FFBF
:10361000F0B13F230993114B0893114B07930123FA
:10362000CDE9053304930423CDE9024314230D4966
:10363000009323221823CDE90B440B480A940194EC
:10364000FEF786FF094817F08FFF284617F04EFF58
:1036500005480FB030BD00BFE01A002098F90108FE
:10366000A8F901087CF70108E41A0020F5350008E4
:103670007047000030B5174D2C78BFF35B8F14F006
:1036800001048FB022D1284617F024FFF0B13F2368
:103690000993114B0893114B114912480A94CDE933
:1036A000064301220423CDE9033228230093032299
:1036B0002923CDE90B44CDE901440594FEF748FFE9
:1036C000094817F051FF284617F010FF05480FB0C2
:1036D00030BD00BF101B0020A0F90108ACF90108A3
:1036E00068F90108141B002071360008002070479B
:1036F000002070470EB403B503AB002153F8042B30
:1037000001930AF059FB02B05DF804EB03B0704777
:103710000CB407B504AB53F8042B01930AF04CFB2F
:1037200003B05DF804EB02B070470000436C10B5C5
:10373000044673B3038F2BB9184B194AC521194896
:1037400017F0F4FEC38E00EB43035B8C0BB30BF05E
:10375000E0FD238F012B03D8134B144ACB21EEE756
:10376000E28E531C9BB2092B194688BFA3F10A01B4
:1037700004EB410140F63F10498C814209D10A2BEC
:1037800004EB420228BF002304EB4303508C58840F
:1037900051842046BDE810400BF0BEBCF0DB0108B0
:1037A000F9DB0108A4DC0108EEDC0108FCDC0108FF
:1037B0000BF079BC10B586B002AC84E806001A465E
:1037C0000AAB05930193099B00932146089B08F0DF
:1037D0004DFF06B010BD000038B518BB124B1348A2
:1037E0001B681349B3B11A689C681A4402605A688E
:1037F0001A440A601C440F4B00221A8000F038F86B
:10380000054600F033F80C4B1C600C4B1D600C4B54
:10381000188007E00B4B03600B4B0B600B4B1C68D5
:10382000002CE8D138BD00BF401B0020441B002005
:10383000481B00204C1B00204C2D0120542D012042
:10384000502D012034FA0108B0F9010878FB010875
:10385000044B1B6853F82100034B1B6803EB40002B
:10386000704700BF481B0020441B002021207047E8
:1038700000487047501B002010B5FFF7BDFE044CF8
:103880002060FFF7F7FE6060FFF778FEA06010BDD4
:10389000501B002070477047704730B4C2684468BE
:1038A0005510034604EB6200D20748BF62599B687B
:1038B00030BC48BFD358184743682BB183682BB935
:1038C000C06800F00100704718467047012070473B
:1038D00010B51021044617F0FBFD204610BD10B5B1
:1038E0004FF4D161044617F0F3FD204610BD38B502
:1038F00000F5EC73994204460D4603D109F0F8FA3D
:10390000FEF7C8FB9834A54205D109F0F1FABDE8ED
:103910003840FEF7DFBB38BD38B5262204460D46D9
:10392000002117F089FF2046FEF7B4FF064B236005
:103930002B88E384FF23204684F82830294607F0AB
:10394000C2FC204638BD00BF6CE3010800224FF0E6
:10395000FF31C0E9002182607047000037B54FF6A3
:10396000FF7304460D4601A9ADF80430FFF7D4FFFC
:10397000084B23604FF0FF320023C4E90B322A7852
:1039800084F83420204684F83530E38684F83830D3
:1039900003B030BD18E1010810B50446FEF7A0FFE2
:1039A000024B23600023A364204610BD98D9010870
:1039B0002DE9F04F2DED108B044693B027464FF0C4
:1039C000000B0AF0CBFDEB4BC4F83CB047F8403B92
:1039D00026225946384617F02FFF3846FEF75AFF81
:1039E000E54B2364FF230FAD84F8663004F16C03CC
:1039F0004FF6FF7629461846C4F868B0ADF83C602B
:103A00000793FFF789FF04F1980304F1D40A1846DD
:103A1000059307F031FC29465046ADF83C60FFF7AE
:103A20007BFF04F5807304F5A47818460BEE903AFA
:103A3000FEF756FF4046FEF753FF04F5C8731846DD
:103A40000CEE103AFEF74CFF04F5EC7318460693A3
:103A500007F012FC04F505734FF0010929461846DA
:103A600008EE103A8DF83C90FFF778FF04F51473D8
:103A70002946184608EE903A8DF83C90FFF76EFF05
:103A800004F5237318460CEE903AFEF729FF04F56F
:103A9000357318460DEE103AFEF722FF04F5477312
:103AA00018460DEE903AFEF71BFF04F559731846C1
:103AB0000EEE103AFEF714FF04F56B7318460EEE87
:103AC000903AFFF769FF04F57E7318460FEE103A3F
:103AD000FFF762FF04F2444318460FEE903AFFF7F7
:103AE0005BFF04F5926318460393FFF755FF04F25A
:103AF000DC4318460493FFF74FFF04F5A56318460F
:103B000009EE103AFEF7ECFE04F5AE63184609EE36
:103B1000903AFEF7E5FE04F5B76318460AEE103A50
:103B2000FEF7DEFE04F5C063294618460AEE903A19
:103B30008DF83C90FFF712FF04F23C6318462946CB
:103B40000BEE103A8DF83C90FFF708FF8B4AC4F853
:103B500078268B4AC4F8802638465A465946C4F817
:103B60007C46C4F884B6FEF76EFE3846F021FDF7B9
:103B7000D1FA38464FF4A071261DFDF7CDFA4FF06B
:103B80007F423946A266304605F0BAFA079B5A468C
:103B900018465946FEF757FE079BADF83CB018464D
:103BA000294607F090FB079B3046194605F0A8FA16
:103BB00005980722AD21FEF746FE4FF00503ADF84C
:103BC0003030ADF834300EA92A230DAA0598ADF88F
:103BD0003830ADF83C3000950B460CA907F0B6FA2A
:103BE0004FF00511C4F8D01004F5CF610791C4F867
:103BF000C0103046059905F083FA4822504603214B
:103C0000FEF721FE4FF00C015046ADF83C1029465E
:103C100007F059FB5146304608AFDFF86CA105F0BC
:103C20006FFA78221BEE900A5C21FEF70CFE1BEE69
:103C3000901A3846C4F830A1A4F834B106F0DEFD7D
:103C400097E8070004F59E7383E807004D4B0F9338
:103C50004FF005021BEE900A2946ADF8402007F010
:103C600067F81BEE901A304605F04AFA7822404673
:103C70008E21FEF7E8FD41463846C4F878A1A4F845
:103C80007CB106F0BBFD97E8070004F5C27383E83A
:103C900007003C4B0F93404608232946ADF84030BF
:103CA00007F046F84146304605F02AFA78221CEE25
:103CB000100A9A21FEF7C7FD1CEE101A3846C4F808
:103CC000C0A1A4F8C4B106F099FD97E8070004F577
:103CD000E67383E807002B4B0F931CEE100A0923B1
:103CE0002946ADF8403007F023F81CEE101A304694
:103CF00005F006FA052211460698FEF7A4FD0423F6
:103D0000ADF834300EAA29234FF003080698ADF819
:103D10003830ADF83C300CA9134600950DAAADF82B
:103D2000308007F013FA4FF00512C4F81022079AFA
:103D30000699C4F80022304605F0E2F918EE100AA0
:103D400085221521FEF77FFD182218EE100A0D219D
:103D500006F059FC18EE100A414606F067FC4B4687
:103D60004A4618EE100A594606F0A5FB18EE101A3E
:103D700030460BE0F0DD010824E20108D8DD01083F
:103D8000EF380008C8D10108FBF6E8FF05F0B8F9E4
:103D900018EE900A8522B521FEF755FD182218EE7F
:103DA000900A0D2106F02FFC18EE900A414606F00D
:103DB0003DFC4B464A4618EE900A594606F07BFBFE
:103DC00018EE901A304605F09BF9AC221CEE900AD2
:103DD0001C21FEF738FD1CEE901A3846C4F8BCA230
:103DE000A4F8C0B206F00AFD97E8070004F53273A4
:103DF00083E807004E4B0F931CEE900A2946ADF85E
:103E000040B006F095FF1CEE901A304605F078F9A8
:103E1000AC221DEE100ABC21FEF715FD1DEE101A96
:103E20003846C4F804A3A4F808B306F0E7FC97E802
:103E3000070004F5447383E807003D4B0F931DEE24
:103E4000100A02232946ADF8403006F071FF1DEE3E
:103E5000101A304605F054F9AC221DEE900ACE211E
:103E6000FEF7F1FC1DEE901A3846C4F84CA3A4F8F6
:103E700050B306F0C3FC97E8070004F5567383E8D7
:103E800007002B4B0F931DEE900A2946ADF840809A
:103E900006F04EFF1DEE901A304605F031F9AC22C7
:103EA0001EEE100A2E21FEF7CEFC1EEE101A38462A
:103EB000C4F894A3A4F898B306F0A0FC97E8070010
:103EC00004F5687383E80700194B0F931EEE100A80
:103ED0002946ADF8409006F02BFF1EEE101A304632
:103EE00005F00EF9E22225211EEE900AFEF7ABFC4A
:103EF000C4F8DCA3A4F8E0B32846FFF727FD95E853
:103F00000700DFF8449004F57A7383E80700D9F8D6
:103F100000302BB9074B084A6021084817F006FB10
:103F2000074F3B88152B11D8064B034A6121F4E754
:103F3000C8D10108ECD70108EED8010869D80108FA
:103F4000502D0120B0D801084C2D0120DFF840830E
:103F50001521D8F80000FFF77BFCC4F8F4031EEE2F
:103F6000900A06F0C5FEC94B0F931EEE900A0E2371
:103F70002946ADF8403006F0DBFE1EEE901A3046C2
:103F800005F0BEF8E222BA211FEE100AFEF75BFC34
:103F9000C4F828A4A4F82CB42846FFF7D7FC95E869
:103FA000070004F2344383E80700D9F80030002BFF
:103FB000B0D03B88162BB7D91621D8F80000FFF7F0
:103FC00047FCC4F840041FEE100A06F091FEAF4B08
:103FD0000F931FEE100A0F232946ADF8403006F06C
:103FE000A7FE1FEE101A304605F08AF8E2224E2195
:103FF0001FEE900AFEF727FCC4F874A4A4F878B466
:104000002846FFF7A3FC95E8070004F5906383E8D2
:104010000700D9F80030002B3FF47CAF3B88192B08
:1040200082D91921D8F80000FFF712FCC4F88C04DB
:104030001FEE900A06F05CFE944B0F934FF00C02BB
:104040001FEE900A2946ADF8402006F071FE1FEEE3
:10405000901A304605F054F8E2228C210398FEF7BE
:10406000F2FBC4F8C0A4A4F8C4B42846FFF76EFC61
:1040700095E8070004F2CC4383E80700D9F8003044
:10408000002B3FF447AF3B88182B7FF64DAF18212C
:10409000D8F80000FFF7DCFBC4F8D804039806F05A
:1040A00027FE7A4B03980F9329460D23ADF8403035
:1040B00006F03EFE0399304605F022F8A522712154
:1040C0000498FEF7C0FBC4F80CA5A4F810B5284668
:1040D000FFF73CFC95E8070004F5A36383E80700BD
:1040E000D9F80030002B3FF415AF3B88142B7FF636
:1040F0001BAF1421D8F80000DFF89081DFF894910D
:10410000FFF7A6FBC4F82405049806F0F1FD0B2385
:104110000498ADF840300FA9CDF83C8006F008FEB9
:104120000499304608AD04F0EBFF002719EE100AA1
:1041300078225021FEF787FB19EE101A2846C4F8A2
:104140005895A4F85C7506F059FB95E8070019EE40
:10415000103A3C3383E80700042319EE100A0FA934
:10416000ADF84030CDF83C8006F0E2FD19EE101AB3
:10417000304604F0C5FF19EE900A78228221FEF73E
:1041800062FB19EE901A2846C4F8A095A4F8A4750D
:1041900006F034FB95E8070019EE903A3C3383E8CB
:1041A0000700072319EE900A0FA9ADF84030CDF8AB
:1041B0003C8006F0BDFD19EE901A304604F0A0FFD9
:1041C0001AEE100A78226721FEF73DFB1AEE101A4C
:1041D0002846C4F8E895A4F8EC7506F00FFB95E8BE
:1041E00007001AEE103A3C3383E8070006231AEE64
:1041F000100A0FA9ADF84030CDF83C8006F098FDCC
:104200001AEE101A304604F07BFF1AEE900A56227E
:104210003F21FEF718FB1AEE900A2622192106F01C
:10422000F2F91AEE900A052106F000FA01231A4667
:1042300019461AEE900A06F03EF91AEE901A304628
:1042400004F05EFF1BEE100A56229921FEF7FBFADE
:104250001BEE100A2622192106F0D5F91BEE100AD2
:10426000052106F0E3F901231BEE100A1A46394630
:1042700006F021F930461BEE101A04F041FF2046EB
:1042800013B0BDEC108BBDE8F08F00BFC8D10108A2
:10429000582D0120FBF6E8FF704710B54FF4AE71C2
:1042A000044617F015F9204610BD10B50446D0F8A5
:1042B000580100F052F82046BDE8104008F0B4BEA6
:1042C00010B50446FDF7B6FE014B2360204610BD35
:1042D00024DE0108704704387047704710B510217C
:1042E000044617F0F5F8204610BDA0F10400F5E7EC
:1042F00010B500228260044AC16002F10804203235
:104300000460426010BD00BF68DE01087047000015
:1043100010B5034B03600446FEF78FF9204610BD2D
:1043200098DE010810B50446FFF7F2FF20464FF46F
:10433000946117F0CDF8204610BD000010B504467A
:10434000FEF788FB014B2360204610BD98DE010874
:10435000FEF774B900220260704770477047043856
:104360007047704710B51021044617F0B1F8204689
:1043700010BDA0F10400F5E710B500228260044AE8
:10438000C16002F1080420320460426010BD00BF29
:10439000C4DE01087047000010B5034B03600446FB
:1043A000FEF75EFE204610BDF4DE010810B504469F
:1043B000FFF7F2FF20464FF4477117F089F82046C7
:1043C00010BD000010B50446FEF782FE014B2360CD
:1043D000204610BDF4DE0108FEF743BE70470438E6
:1043E0007047704710B51021044617F071F8204649
:1043F00010BDA0F10400F5E710B500228260044A68
:10440000C16002F1080420320460426010BD00BFA8
:1044100020DF01087047000010B5034B036004461D
:10442000FFF738FA204610BD50DF010810B50446EA
:10443000FFF7F2FF20464FF4D16117F049F820460C
:1044400010BD000010B50446FFF7B2FA014B23601F
:10445000204610BD50DF0108FFF71DBAF02070475D
:104460004FF4A07070472920FDF7E4B92820FDF72C
:10447000E1B908B5FDF7B2F9CA20FDF7DBF9C320B1
:10448000FDF7BCF90820FDF7B9F95020FDF7B6F9A2
:10449000CF20FDF7CFF90020FDF7B0F9C120FDF7DF
:1044A000ADF93020FDF7AAF9ED20FDF7C3F964203E
:1044B000FDF7A4F90320FDF7A1F91220FDF79EF9FD
:1044C0008120FDF79BF9E820FDF7B4F98520FDF781
:1044D00095F90020FDF792F97820FDF78FF9CB20B0
:1044E000FDF7A8F93920FDF789F92C20FDF786F9A9
:1044F0000020FDF783F93420FDF780F90220FDF755
:104500007DF9F720FDF796F92020FDF777F9EA20ED
:10451000FDF790F90020FDF771F90020FDF76EF925
:10452000B120FDF787F90020FDF768F91B20FDF7A2
:1045300065F9B620FDF77EF90A20FDF75FF9A220A4
:10454000FDF75CF9C020FDF775F91020FDF756F96D
:10455000C120FDF76FF91020FDF750F9C520FDF7D8
:1045600069F94520FDF74AF91520FDF747F9C720FD
:10457000FDF760F99020FDF741F93620FDF75AF973
:10458000C820FDF73BF9F220FDF754F90020FDF7B4
:1045900035F9B020FDF74EF9C220FDF72FF9B6200E
:1045A000FDF748F90A20FDF729F9A720FDF726F9BC
:1045B0002720FDF723F90420FDF720F92A20FDF735
:1045C00039F90020FDF71AF90020FDF717F900204E
:1045D000FDF714F9EF20FDF711F92B20FDF72AF96B
:1045E0000020FDF70BF90020FDF708F90120FDF789
:1045F00005F93F20FDF702F9F620FDF71BF9012030
:10460000FDF7FCF80020FDF7F9F80620FDF7F6F8B5
:104610002C20FDF70FF9C820FDF75AF92620FDF7E9
:1046200009F90120FDF7EAF8E020FDF703F90F2072
:10463000FDF7E4F82920FDF7E1F82420FDF7DEF886
:104640000C20FDF7DBF80E20FDF7D8F80920FDF768
:10465000D5F84E20FDF7D2F87820FDF7CFF83C20B2
:10466000FDF7CCF80920FDF7C9F81320FDF7C6F8CF
:104670000520FDF7C3F81720FDF7C0F81120FDF75E
:10468000BDF80020FDF7BAF8E120FDF7D3F80020CF
:10469000FDF7B4F81620FDF7B1F81B20FDF7AEF8D2
:1046A0000420FDF7ABF81120FDF7A8F80720FDF76F
:1046B000A5F83120FDF7A2F83320FDF79FF842203E
:1046C000FDF79CF80520FDF799F80C20FDF796F80A
:1046D0000A20FDF793F82820FDF790F82F20FDF72A
:1046E0008DF80F20FDF78AF81120FDF7A3F8C820F8
:1046F000FDF7EEF82920FDF79DF8BDE808402C20D5
:10470000FDF798B808B5FDF769F80321D320FDF748
:10471000ADF880B208BD10B5C4B202220321204614
:10472000FDF712F80A20FDF757F820460022032172
:10473000FDF70AF8BDE810400220FDF74DB838B586
:104740000446E4B2FCF7FEFF00212046FDF714F812
:10475000012105462046FDF70FF840EA052080B20A
:1047600038BD10B5C4B240212046FDF705F8030658
:1047700007D54C212046FCF7FFFF003818BF012069
:1047800010BD01224B212046FCF7DEFF204600220F
:104790004B21FCF7D9FF0020F2E773B50423C4B224
:1047A0000E461546D7210DEB03022046FCF7FEFF0F
:1047B000019B1BBA1A0DC3F30B23328020462B80BA
:1047C00001224B21FCF7C0FF00224B212046FCF7C1
:1047D000BBFF02B070BD000010B50A4B1A789042C2
:1047E00004460DD0597888420AD00AB141B9012255
:1047F0009C54FCF7A7FF2046BDE81040FFF78BBF95
:1048000010BD00BF5C1B002010B5C4B209212046BA
:10481000FCF7B2FF40F00100C2B209212046BDE81A
:104820001040FCF791BF10B5C4B209212046FCF737
:10483000A3FF092100F0FE022046BDE81040FCF76E
:1048400083BF38B5C4B20D4620460A21FCF794FF59
:104850002843C2B20A212046BDE83840FCF774BFA5
:1048600007B50190FCF76FFF01981F21FFF7E9FFE3
:10487000019803B05DF804EBFFF7C6BF38B5C4B2CA
:104880000D4620460A21FCF777FF20EA0500C2B258
:104890000A212046BDE83840FCF756BF10B5044653
:1048A000FFF7C1FF20461F21BDE81040FFF7E6BF1C
:1048B00010B5C0B20C460B21FCF75EFF204010BDC6
:1048C0001F21FFF7F5BF0A46C0B20B21FCF73CBF22
:1048D0001F21FFF7F8BF38B5C4B20D462046172197
:1048E000FCF74AFF20EA0500C2B217212046BDE8C6
:1048F0003840FCF729BF70B5C4B2064604212046F3
:10490000FCF73AFF042100F0FB0205462046FCF7C5
:104910001BFF3046F021FFF7DEFF05F0F8022046CE
:104920000421FCF711FF492220212046FCF70CFF4F
:104930000220FCF751FF204601222121FCF704FF51
:1049400020469A224121FCF7FFFE204601224A21FF
:10495000FCF7FAFE204601224B21FCF7F5FE20462B
:1049600000224B21FCF7F0FE204601225621FCF7E5
:10497000EBFE204601225821FCF7E6FE20460122EC
:104980004021FCF7E1FE2046FF220B21FCF7DCFE74
:10499000BDE870400220FCF71FBF0000054BD3F8B4
:1049A000882042F47002C3F888204FF000629A60B9
:1049B000704700BF00ED00E008B50B4B1A6842F4E9
:1049C00000721A601A6842F480621A601A6842F42F
:1049D00080721A60032000F02FF80020FDF7BAF96A
:1049E000FCF784FF002008BD003C0240034A044B52
:1049F00011681B780B441360704700BF601B0020D8
:104A000078000020014B1868704700BF601B002031
:104A100038B50446FFF7F6FF631C1CBF054B1B7837
:104A2000054618BFE418FFF7EDFF431BA342FAD376
:104A300038BD00BF780000200749CA6822F4E06250
:104A40000302120403F4E063120C134343F0BF6348
:104A500043F40033CB60704700ED00E0164B30B5F7
:104A6000DC68C4F30224C4F10705231D042D28BF0C
:104A70000425062B4FF0FF338CBF033C002403FAC0
:104A800005F521EA0501A34022EA0302A14000281E
:104A900041EA0203ACBF00F16040084A4FEA031349
:104AA000B8BF00F00F00DBB2AABF00F5614013549D
:104AB00080F8003330BD00BF00ED00E014ED00E0F1
:104AC000002808DB4209012300F01F0003FA00F070
:104AD000014B43F82200704700E100E010B50446A6
:104AE00050B1437903F0FF0213B90271FCF71EFFC6
:104AF00001236371002010BD0120FCE710B50446BE
:104B000030B390F8393003F0FF021BB980F8382039
:104B1000FCF724FF22686168022384F839301368A7
:104B200023F440330B431360536BA16823F0070356
:104B30000B435363136CE16823F47F5323F03F036B
:104B40000B43136400200123E06384F8393010BD67
:104B50000120FCE770477047036870B55E681D6808
:104B6000F207044614D5E90512D51A6822F48072BA
:104B70001A60C26B42F00102C26301229A600423F0
:104B800080F83930002380F83830436903B1984702
:104B9000B20616D5AB0414D523681A6822F4005265
:104BA0001A6020229A60E36B43F00203E36304235C
:104BB00084F83930002384F8383063690BB120461B
:104BC0009847300716D5290514D523681A6822F4AA
:104BD00000621A6008229A60E36B43F00403E36307
:104BE000042384F83930002384F8383063690BB12A
:104BF0002046984772070BD56B0509D523681A68BC
:104C000022F480621A6004229A602046FFF7A2FF15
:104C1000B00714D5A90512D523681A6822F40072CA
:104C20001A6002229A60E36BE363012384F839304F
:104C3000002384F8383023690BB120469847F206E8
:104C400013D5EB0411D523681A6822F480521A6038
:104C500010229A60E36BE363012384F83930002368
:104C600084F838302046FFF776FF70BDF0B590F835
:104C70003830012B4FF002032BD0012280F839305D
:104C800080F8382000EB0113D3E907425D6A184F22
:104C900044EA0242093C012C9CBF05F07F431A43C1
:104CA0004FEA0116036888BF42EA056299B9596A5A
:104CB00039400A435A62012C82699A6103D8426AD8
:104CC00022F07F429A62012380F83930002380F875
:104CD00038301846F0BDD96939400A43DA61821983
:104CE000012C92691A619CBF25F07F451D62EAE79D
:104CF000F0FFFC002DE9F74FDFF8C0916D4A00236B
:104D00000D6801249C4004EA050CAC4340F0B980D6
:104D10004D6805F003044FEA43080326671E06FAB0
:104D200008F6012F6FEA060634D8876807EA060EF0
:104D3000CF6807FA08F747EA0E078760476827EA4F
:104D40000C0EC5F300179F4047EA0E074760C7687F
:104D500007EA060E8F6807FA08F747EA0E07022CE3
:104D6000C76019D14FEAD30A00EB8A0A03F0070B98
:104D7000DAF820704FEA8B0B4FF00F0E0EFA0BFE95
:104D800027EA0E0E0F6907FA0BF747EA0E07CAF873
:104D9000207001E0032CDAD1076804FA08F43E40E1
:104DA000264315F4403F06606BD04FF0000ACDF863
:104DB00004A0D9F84460404C46F48046C9F84460E9
:104DC000D9F8446006F480460196019E23F003065C
:104DD00006F1804606F59C3603F0030ED6F80880EF
:104DE0004FEA8E0E0F2707FA0EF7A04228EA0707B0
:104DF0004ED004F58064A0424CD004F58064A042FB
:104E00004AD004F58064A04248D004F58064A042F2
:104E100046D004F58064A04244D004F58064A042EA
:104E200042D004F58064A04240D004F58064A042E2
:104E30003ED004F58064A0420CBF09240A2404FA81
:104E40000EF43C43B46094686FEA0C06EF0254BF62
:104E500034404CEA04049460D468AF0254BF344038
:104E60004CEA0404D4605468AF0354BF34404CEAA5
:104E7000040454601468ED0354BF34404CEA040445
:104E800014600133102B7FF43BAF03B0BDE8F08F0B
:104E90005446D4E70124D2E70224D0E70324CEE726
:104EA0000424CCE70524CAE70624C8E70724C6E79C
:104EB0000824C4E7003C01400000024000380240E2
:104EC0000369194214BF0120002070470AB18161B3
:104ED00070470904FBE7436901EA030221EA030181
:104EE00041EA02418161704701684B6913F48063B4
:104EF0004FF0000210D06FF480634B6120230263F7
:104F000080F83D3080F83E20036C80F83C2043F070
:104F10000403036401207047184670472DE9F846E2
:104F200006460F4691461D464FEA114A3368BAF1CC
:104F3000010F0CBF5C699C6927EA0404A4B2B4FAAF
:104F400084F46409A14501D0002017E06A1CEED06A
:104F5000FFF758FD089BC01AA84201D8002DE5D1E3
:104F600000232022336386F83D2086F83E30326CE1
:104F700086F83C3042F0200232640120BDE8F88619
:104F80002DE9F04104460F461646984625686869A3
:104F900027EA000080B2B8B16B695A0516D52B68B4
:104FA00043F400732B606FF480636B612022002355
:104FB000236384F83D2084F83E30226C42F00402E2
:104FC000226484F83C300120BDE8F081731CDED0FF
:104FD000FFF718FDA0EB0800B04201D8002ED5D194
:104FE00000232022236384F83D2084F83E30226C85
:104FF00042F02002E4E770B504460D4616462168EB
:105000004B6913F0400301D0002010E04A69D2063A
:105010000ED56FF010024A612022236384F83D20F0
:1050200084F83E30226C226484F83C30012070BD4C
:10503000FFF7E8FC801BA84201D8002DDFD1002338
:105040002022236384F83D2084F83E30226C42F015
:105050002002E8E770B504460D46164623685B69F2
:105060005B0701D5002070BD2046FFF73DFFA8B9C2
:105070006A1CF3D0FFF7C6FC801BA84201D8002DA4
:10508000ECD100232022236384F83D2084F83E30B5
:10509000226C84F83C3042F0200222640120E2E7D6
:1050A00070B504460D46164623685B691B0601D59C
:1050B000002070BD2046FFF717FFA8B96A1CF3D087
:1050C000FFF7A0FC801BA84201D8002DECD10023E3
:1050D0002022236384F83D2084F83E30226C84F83B
:1050E0003C3042F0200222640120E2E72DE9F04347
:1050F0001546026885B0DDE90C789946136843F4DB
:10510000807313600E463B46CDF8008000224FF0BE
:1051100001110446FFF702FF236838B11B68DB0565
:1051200002D54FF40073236403200AE006F0FE0664
:105130001E61194943463A462046FFF721FF18B140
:10514000012005B0BDE8F083236803905A690392FB
:105150009B690393424639462046039BFFF7A0FF15
:1051600040B1236C042B01BF2268136843F4007321
:105170001360E5E7B9F1010F236802D1EDB21D61BB
:10518000DFE72A0A1A61394642462046FFF788FFC0
:105190000028E6D12368F1E7020001002DE9FF476E
:1051A0009A46036815461A6842F480621A601A68C3
:1051B000DDE90C7842F480721A600E463B46CDF869
:1051C000008000224FF001110446FFF7A7FE23687C
:1051D00048B11B68DB0502D54FF40073236403203C
:1051E00004B0BDE8F0875FFA86F906F0FE061E619E
:1051F0002A4943463A462046FFF7C2FE08B101203D
:10520000EEE7236803905A6903929B690393424631
:1052100039462046039BFFF743FF40B1236C042B24
:1052200001BF2268136843F400731360E7E7BAF123
:10523000010F23681AD1EDB21D614246394620465E
:10524000FFF72EFF0028E9D12268136843F480732A
:1052500013604FF001110246CDF800803B46204616
:10526000FFF75CFE226860B11368B3E72A0A1A618F
:10527000394642462046FFF713FF0028CED1236867
:10528000D9E749F001031361044943463A462046F1
:10529000FFF776FE003818BF0120A1E702000100E9
:1052A00070B5044608B9012070BD90F83D3003F098
:1052B000FF021BB980F83C20FCF772FB242384F822
:1052C0003D3023681A6822F001021A601A6842F41D
:1052D00000421A601A6822F400421A6000F074FE5C
:1052E0003F4B65689D4294BF3E4B3F4B98428CBFFD
:1052F00000230123002BD6D12268394E53683B4945
:10530000B0FBF1F123F03F030B43B542536088BF7C
:105310004FF49676136A88BF714323F03F0384BF2E
:105320004FF47A76B1FBF6F1013119431162D1697C
:10533000431E2B4821F44F41854221F0FF0132D812
:105340006D0040F6FC70B3FBF5F30133034242D02D
:10535000C3F30B030B43D361D4E907301168034354
:1053600021F0C0010B4313609168D4E9030321F4D9
:105370000341034321F0FF010B439360D4E905305F
:10538000D168034321F0FF010B43D360136843F05E
:105390000103136000202023206484F83D30206343
:1053A00084F83E0080E7A06850B905EB4505B3FBE3
:1053B000F5F30133C3F30B037BB143F40043C9E7B7
:1053C00019204543B3FBF5F30133C3F30B0323B1BA
:1053D00043F44043BEE70423BCE70123BAE700BF20
:1053E000A08601007F841E00FF083D0040420F00A0
:1053F0002DE9F743044699460C9E0F469046FFF769
:1054000001FB94F83D30202B054603D0022003B069
:10541000BDE8F08300903C49192301222046FFF7A4
:105420007DFD0028F2D194F83C30012BEED02068AD
:10543000012384F83C300368D9075EBF036843F05A
:1054400001030360036823F400630360212384F8ED
:105450003D30402384F83E30002323640A9B63627E
:10546000BDF82C306385638D2385284BE362CDE93D
:1054700000654B46424639462046FFF737FE002876
:105480002AD00120C3E7FFF70BFE40B1236C042BA9
:1054900001BF2268136843F400731360F1E7636A85
:1054A00027681A4612F8011B39616262628D218DEC
:1054B000013A92B262857A69481E80B2520720850D
:1054C0000AD548B15A783A6102336362638D013B71
:1054D00002399BB221856385238D2A4631462046B9
:1054E000002BD0D1FFF7B6FD0028CFD1226813687A
:1054F00043F400731360202384F83D3084F83C00AB
:1055000084F83E0083E700BF020010000000FFFFA8
:105510002DE9F043044687B09946109F0D4690460A
:10552000FFF770FA94F83D30202B064604D0022590
:10553000284607B0BDE8F083009076491923012280
:105540002046FFF7EBFC0028F1D194F83C30012B0A
:10555000EDD02068012384F83C300368DB075EBF90
:10556000036843F001030360036823F400630360EE
:10557000222384F83D30402384F83E300023236406
:105580000E9B6362BDF83C306385638D2385624B5F
:10559000E3622946CDE900764B4642462046FFF7B6
:1055A000FDFD054608B10125C2E7228D2368B2B989
:1055B00002905A6902929A690292029A1A6842F417
:1055C00000721A60DFF85481238D002B2CD1202229
:1055D00084F83D2084F83C3084F83E30A8E7012A66
:1055E0000AD11A6822F480621A6003905A69039201
:1055F0009A690392039AE1E7022A0ED11A6822F40B
:1056000080621A601A6842F400621A6004905A6953
:1056100004929B690493049BD4E705905A69059210
:105620009B690593059BCDE7032B56D8012B15D11C
:10563000324639462046FFF7DEFC0028B3D1236806
:105640001A69636A1A70636A01336362238D013BCE
:105650002385638D013B9BB26385B5E7022B0096E2
:105660003B464FF000024146204619D1FFF756FC59
:10567000002898D123681A6842F400721A601A69E7
:10568000636A1A70626A531C6362238D013B23852F
:10569000638D013B9BB2638523681B695370D2E71E
:1056A000FFF73CFC00287FF47EAF23681A6822F4E1
:1056B00080621A601A69636A1A70636A009601331D
:1056C0006362238D013B2385638D013B9BB2638520
:1056D00002463B4641462046C8E732463946204608
:1056E000FFF789FC00287FF45EAF23681A69636ABC
:1056F0001A70626A531C6362238D013B2385638D9C
:10570000013B9BB263852368596949077FF55CAF0C
:10571000C3E700BF020010000000FFFF040001000B
:1057200010B590F83D30202BDCB216D1242380F840
:105730003D3003681A6822F001021A605A6A22F0AA
:1057400010025A625A6A114359621A6842F0010201
:105750001A6080F83D40002010BD0220FCE730B503
:1057600090F83D30202BDCB216D10268242380F85B
:105770003D30136823F001031360556A4FF6F07350
:105780002B400B439BB25362136843F00103136039
:1057900080F83D40002030BD0220FCE70068D1F8D1
:1057A00000C0D201843283182DE9F043C6685D68D9
:1057B0004C68D1F8189005F470455D60C5680CF12F
:1057C0000107C5F30B45C6F30B463D44264445EAA5
:1057D00006455D60C568CE68C5F30A052E449D6820
:1057E00005F470459D60C7688D68C7F30A070135E9
:1057F0003D4445EA06459D601D690E6925F0070593
:105800001D614FF0000E1E619D6991F8327091F894
:105810003180C3F818E091F8305045EA096545EA4F
:10582000082545EA07459D615D6925F0FF055D6135
:105830004D695D61DD6925F4E06525F00705DD61F1
:10584000D1E907573D43DD619D6A4D6AC3F828E001
:105850009D621EB3012E23D0B51E022D22D9072E24
:105860000CBF02250125DE6A06F0E026DE62A4EB0D
:105870000C048E6AC96A6C436E43033444EA0644DE
:10588000DC621C6B24F4FF6424F007041C631963BE
:10589000835843F001038350BDE8F0830425E2E719
:1058A0000325E0E70225DEE738B50446002863D08B
:1058B00090F8A13003F0FF021BB980F8A020FCF79C
:1058C000CBF8022384F8A13023689A6922F0704251
:1058D0009A61D4E901200243E06899690243206992
:1058E00002430A439A619A68244960690A409A60AF
:1058F0009A6842EA0042A06902439A60DA68E06965
:105900000A40DA60DA6842EA0042206A0243DA605A
:105910001A69606A0A401A611A6942EA0042A06A7A
:1059200002431A615A69114059615A69E16A42EAAF
:105930000142216B0A435A61D96A94F8360094F8FF
:10594000355001F07F41D962D96A94F834200A4376
:1059500042EA052242EA0042DA625A6B42F006024B
:105960005A639A6942F001029A6100200123C4F847
:10597000A40084F8A13038BD0120FCE700F800F055
:1059800070477047036870B59E6B5D6B7207044685
:1059900014D5690712D55A6B22F004025A63042207
:1059A000DA63D0F8A43043F00103C0F8A430002338
:1059B00080F8A12080F8A030FFF7E2FFB20716D5EB
:1059C000AB0714D523685A6B22F002025A630222F5
:1059D000DA63D4F8A4301343C4F8A430042384F861
:1059E000A130002384F8A0302046FFF7C9FFF0075C
:1059F00010D5E9070ED523685A6B22F001025A63CD
:105A00000122DA63002384F8A12084F8A030204624
:105A1000FBF72AFC320711D52B070FD523685A6BE9
:105A200022F008025A630822DA63012384F8A130C5
:105A3000002384F8A0302046FFF7A3FF70BD2DE9B6
:105A4000F04190F8A030012B06460F4694464FF0E7
:105A500002001FD04FF0010886F8A08086F8A10050
:105A600034240D4604FB02640FCD38340FC40FCD2F
:105A70000FC40FCD0FC42B682360304662463946F1
:105A8000FFF78CFE33680020C3F8248086F8A180DD
:105A900086F8A000BDE8F08190F8A030012B4FF00F
:105AA000020312D080F8A13003685A6B22F0010281
:105AB0005A63074A11645A6B42F001025A63012388
:105AC00080F8A130002380F8A0301846704700BF4E
:105AD000006801402DE9F341044640B30368DD0747
