:020000040800F2
:100000000000032095050008C51D0008C71D000855
:10001000C91D0008CB1D0008CD1D00080000000010
:1000200000000000000000000000000091740008C3
:10003000CF1D00080000000021750008AB6D00080E
:10004000E5050008E5050008E5050008E5050008E8
:10005000E5050008E5050008E5050008E5050008D8
:10006000E5050008E5050008E5050008E5050008C8
:10007000E5050008E5050008E5050008E5050008B8
:10008000E5050008E5050008E5050008E5050008A8
:10009000E5050008E5050008E5050008E505000898
:1000A000E5050008E5050008E5050008E505000888
:1000B000E5050008E5050008E5050008E505000878
:1000C000E5050008E5050008E5050008E505000868
:1000D000E5050008E5050008E5050008E505000858
:1000E000E5050008E5050008E5050008E505000848
:1000F000E5050008E5050008E5050008E505000838
:10010000E5050008E5050008E5050008E505000827
:10011000E5050008E5050008D11D0008E505000813
:10012000E5050008E5050008E5050008E505000807
:10013000E5050008E5050008E5050008E5050008F7
:10014000E5050008E5050008E5050008E5050008E7
:10015000E5050008E5050008E5050008E5050008D7
:10016000E5050008E5050008E5050008E5050008C7
:10017000E5050008E5050008E505000800000000A9
:10018000E5050008E5050008E5050008E5050008A7
:10019000E5050008E5050008E5050008E505000897
:0C01A000DD1D0008E5050008E91D000851
:1001B00010B5054C237833B9044B13B10448AFF3A1
:1001C00000800123237010BD6401002000000000A6
:1001D0008CC5010808B5034B1BB103490348AFF3B5
:1001E000008008BD00000000680100208CC50108E7
:1001F00001F0FF01102A2BDB10F0070F08D010F8D8
:10020000013B013A8B422DD010F0070F42B3F6D1DB
:10021000F0B441EA012141EA014122F007047FF0F4
:1002200000070023F0E80256083C85EA010586EA4B
:10023000010685FA47F5A3FA87F586FA47F6A5FA87
:1002400087F68EB9EED1F0BC01F0FF0102F0070293
:1002500032B110F8013B013A83EA010313B1F8D13E
:100260000020704701387047002D06BF354603381F
:10027000073815F0010F07D1013015F4807F02BF58
:10028000013015F4C03F0130F0BC0138704700BFA9
:1002900053B94AB9002908BF00281CBF4FF0FF31ED
:1002A0004FF0FF3000F074B9ADF1080C6DE904CEE9
:1002B00000F006F8DDF804E0DDE9022304B0704741
:1002C0002DE9F047089D04468E46002B4DD18A4209
:1002D000944669D9B2FA82F252B101FA02F3C2F13C
:1002E000200120FA01F10CFA02FC41EA030E9440CD
:1002F0004FEA1C48210CBEFBF8F61FFA8CF708FBEE
:1003000016E341EA034306FB07F199420AD91CEBC5
:10031000030306F1FF3080F01F81994240F21C81F7
:10032000023E63445B1AA4B2B3FBF8F008FB10333F
:1003300044EA034400FB07F7A7420AD91CEB040474
:1003400000F1FF3380F00A81A74240F20781644444
:10035000023840EA0640E41B00261DB1D4400023C9
:10036000C5E900433146BDE8F0878B4209D9002D2D
:1003700000F0EF800026C5E9000130463146BDE8B7
:10038000F087B3FA83F6002E4AD18B4202D3824221
:1003900000F2F980841A61EB030301209E46002DD0
:1003A000E0D0C5E9004EDDE702B9FFDEB2FA82F225
:1003B000002A40F09280A1EB0C014FEA1C471FFA83
:1003C0008CFE0126200CB1FBF7F307FB131140EA6A
:1003D00001410EFB03F0884208D91CEB010103F137
:1003E000FF3802D2884200F2CB804346091AA4B2F9
:1003F000B1FBF7F007FB101144EA01440EFB00FECD
:10040000A64508D91CEB040400F1FF3102D2A64531
:1004100000F2BB800846A4EB0E0440EA03409CE7D0
:10042000C6F12007B34022FA07FC4CEA030C20FA7D
:1004300007F401FA06F31C43F9404FEA1C4900FA9D
:1004400006F3B1FBF9F8200C1FFA8CFE09FB18111A
:1004500040EA014108FB0EF0884202FA06F20BD98D
:100460001CEB010108F1FF3A80F08880884240F2DD
:100470008580A8F102086144091AA4B2B1FBF9F021
:1004800009FB101144EA014100FB0EFE8E4508D91C
:100490001CEB010100F1FF346CD28E456AD90238A1
:1004A000614440EA0840A0FB0294A1EB0E01A14286
:1004B000C846A64656D353D05DB1B3EB080261EBF4
:1004C0000E0101FA07F722FA06F3F1401F43C5E9CE
:1004D000007100263146BDE8F087C2F12003D84004
:1004E0000CFA02FC21FA03F3914001434FEA1C4746
:1004F0001FFA8CFEB3FBF7F007FB10360B0C43EA38
:10050000064300FB0EF69E4204FA02F408D91CEBE7
:10051000030300F1FF382FD29E422DD902386344E5
:100520009B1B89B2B3FBF7F607FB163341EA034185
:1005300006FB0EF38B4208D91CEB010106F1FF38D4
:1005400016D28B4214D9023E6144C91A46EA0046CB
:1005500038E72E46284605E70646E3E61846F8E65D
:100560004B45A9D2B9EB020864EB0C0E0138A3E7A6
:100570004646EAE7204694E74046D1E7D0467BE787
:10058000023B614432E7304609E76444023842E7FF
:10059000704700BFDFF834D0002103E00C4B5B58FC
:1005A000435004310B480C4B42189A42F6D30B4A85
:1005B00002E0002342F8043B094B9A42F9D304F0CD
:1005C000CDF91AF07DFF00F0E5FE70470000032032
:1005D000B87B0F08000000206401002064010020A7
:1005E000642B0120FEE7704708B500F01DFDBDE853
:1005F000084000F0A9BC00F019BD704710B50421F7
:1006000004461AF0E5FE204610BD000038B50C4B3C
:100610000C4C18800C4B822019806368984740F678
:10062000110398420AD1094D23682C608220984713
:100630002B688220DB689847002038BD0120FCE74A
:10064000800100204C000020820100208401002055
:100650004FF4A071F020FFF7D9BF0000F7B52D4D82
:100660002B6804461B698220984780B220800028AE
:1006700043D02B680DF106025B6901A982209847DF
:10068000BDF80620A2F5B47292B20A2A37D90B231C
:10069000B2FBF3F2204B1B889A4201D9013B9AB27C
:1006A000BDF8043040F6B8318B422AD8C3F57163E7
:1006B0000E339BB20F21B3FBF1F3184909888B422B
:1006C00001D94B1E9BB2164E164D30682F688342DF
:1006D00081B28CBF591AC91AB8B2BA428CBF101A6B
:1006E000801A89B280B201440529C8BF33603368DB
:1006F000C8BF2A6063802B68A38003B0F0BD0022CE
:10070000CEE7C3F56D6308339BB20E2BD2D800231E
:10071000D9E700BF84010020820100208001002071
:10072000880100208C01002037B568460D4614462C
:10073000FFF794FFBDF8000030B1BDF802302B6028
:10074000BDF804302360012003B030BD032821D858
:10075000DFE800F0020B12190F4B1A68B2FA82F2AE
:10076000520904210D4804F091BB0B4B5A68B2FAB0
:1007700082F252090821F5E7074B9A68B2FA82F231
:1007800052091021EEE7044BDA68B2FA82F25209FC
:100790002021E7E7704700BF9001002000100240D1
:1007A000032821D8DFE800F0020B12190F4B1A685A
:1007B000003A18BF012204210D4804F067BB0B4B1F
:1007C0005A68003A18BF01220821F5E7074B9A68DA
:1007D000003A18BF01221021EEE7044BDA68003A14
:1007E00018BF01222021E7E7704700BF90010020D9
:1007F0000010024003280DD8DFE800F00206080AC6
:100800000421054804F047BB0821FAE71021F8E766
:100810002021F6E7704700BF0010024008B503280A
:1008200011D8DFE800F0020A0C0E0421074804F09A
:1008300027FB431E5842584108BD0821F6E7102106
:10084000F4E72021F2E70020F3E700BF00100240A8
:1008500070B5084D00240126E0B2FFF7DFFF18B1A4
:100860002B68012B18BF2E600134052C05F10405FF
:10087000F2D170BD90010020012380F8741080F83F
:100880007530704700207047034B4164003918BF32
:1008900001211970704700BFBF2801200020704758
:1008A000836B0BB10846184770474FF6FF707047CF
:1008B000406803689B69184770477047704700009D
:1008C00070B5044600F080FC2368D3F88850044BD0
:1008D000D4E90F122046AC46BDE87040604700BF27
:1008E000000000D008B503680446D3F8803098476C
:1008F000236820469B6F984700F0ECF82368204659
:100900001B6F9847292000F07DFF00F0E3F8236873
:1009100020461B6F9847F8E710B5044609F0A0FB86
:1009200023682046D3F8AC30BDE81040184700F0EB
:100930003DBC00F041BC00F06DBC00F013BC00F009
:1009400075BC00F07DBC00F017BC08F0EFBD10B521
:100950007C2104461AF03CFD204610BD90F877300B
:100960001BB1406803681B681847184670470000B1
:1009700010B590F8341090F874400C4B8C421A78F3
:1009800009D03AB90A4A0B491488088810800C80AB
:1009900001221A7010BD002AFCD0054A05491488AE
:1009A000088810800C800022F3E700BFB8280120DF
:1009B000B4280120B628012070B50D46194635B976
:1009C000094B0A4A0A4840F2D2211AF02FFDC0E929
:1009D0000F52084B003A18BF01221A700368BDE895
:1009E0007040D3F88C301847FCC5010834C60108A4
:1009F00082C60108BE28012008B5094B1B888B421E
:100A000003D8084B1B88934205D9074B074A08486F
:100A10009E211AF00BFD074B1980074B1A8008BD69
:100A2000B4280120B6280120C7C601082AC701083A
:100A300082C60108BA280120BC280120012108B57E
:100A40000022084606F03FFA0A4B186028B90A4B04
:100A50000A4A28210A481AF0E9FC00220421012050
:100A600006F0CEFA074B186018B9074B034A2C2141
:100A7000F0E708BDA401002048C8010891C801089A
:100A8000C0C80108A00100201CC90108024B4FF09A
:100A9000FF31186806F061BAA4010020014B186804
:100AA00006F086BAA4010020024B0021186806F067
:100AB00054BA00BFA4010020FFF7F0BF0348044967
:100AC000006800231A4606F0D6BA00BFA001002035
:100AD0000400002013B5084C00231A4601A9206821
:100AE00006F0F9FA20684FF0FF33002201A906F062
:100AF000F2FA02B010BD00BFA001002003685B6CD9
:100B000018470120704703689B6A184782B000238A
:100B100001930D4B1A6B42F400021A631A6B02F434
:100B200000020192019A1A6942F400021A611A69DC
:100B300022F400021A61054B054A1A61054B4FF079
:100B400080629A6002B0704700380240941800201A
:100B5000990B000800E100E040F2EF307047000020
:100B6000054B0360054B4FF08062C3F88820BFF34C
:100B70004F8FBFF36F8F7047C8CA010800E100E0D4
:100B800010B504464FF45A61FFF7EAFF20461AF009
:100B90001FFC204610BD0000024B1B68586803680C
:100BA0005B691847C028012070B5044625460A4BEA
:100BB0000C30002660602672667245F8203B602289
:100BC000294609F08BFB04F55A63EE602435AB42ED
:100BD000FBD1204670BD00BFC8CA010808B50B296B
:100BE0000BD8DFE801F01206100A0A0A0A08080802
:100BF0000808012008BD0520FCE7054B054A06480A
:100C000066211AF013FC0020F4E70220F2E700BF8F
:100C10005EC9010879C90108C3C9010808B50A29D4
:100C200009D8DFE801F010060E08080808060606D5
:100C30000600012008BD054B054A064887211AF029
:100C4000F5FB0020F6E70220F4E700BF5EC90108CB
:100C50001DCA0108C3C901082DE9F8434F7F0C469E
:100C600039468146FFF7BAFF94F81E800546414693
:100C70004846FFF7B3FF414606464846FFF7CEFF1A
:100C8000A18A628B424B521A1A649A61228B521AC1
:100C90001A61E28A586342EA01425A642069626832
:100CA000D863DA60216894F81CC080294FEA0C628E
:100CB00026D010D8202945EA020461D040295FD00F
:100CC00004295DD0324B2A4342F400324745DA61B1
:100CD0005AD0304A40E0B1F5807F07D0B1F5007FAF
:100CE000F0D142F4003242F0090203E042F4003253
:100CF00042F00A02DA61E2681A625E6258612AE032
:100D0000A4682A4342F40032211DD962DA612278B4
:100D10005E62586142B1012A21D01F4B1F4A204810
:100D200040F211111AF082FBDA69618822F47F42E5
:100D3000013922F0100242EA0122DA610120144B4B
:100D4000DA6942F02002DA61DA699206FCD41022F4
:100D50009A600028BDD0134A1A60BDE8F883628803
:100D6000D969541E21F47F4222F0100242EA042283
:100D7000BCF1FF0042F0100218BF0120DA61DEE78B
:100D800044F40034DC61B8E740F20122E4E700BF3C
:100D900000B002400102010068CA010882CA0108CD
:100DA000C3C901080102020070B50C46897FFFF734
:100DB00035FFA68AE18A628B154B2569586341EAA3
:100DC0000641921B5964DD631A642668E168082EA7
:100DD0000DD19A611A615862207F0E4A42EA006280
:100DE000DA610D4A19625D61DD601A6070BD002232
:100DF000D8611A6148090A0A02F4784200F4FC60DA
:100E00000243C1F3C4010A439A63044AEDE700BFF9
:100E100000B00240090001000102020001020300CB
:100E2000012070470C2070470C2303FB01000830A1
:100E300070470C2303FB0100083070470120704706
:100E40004FF4D16070474FF4D16303FB01000830C9
:100E500070474FF4D16303FB010008307047012055
:100E600070471020704700EB01100830704700EB0E
:100E7000011008307047084601F0F4B810B5034B74
:100E80000360044608F0A9F8204610BD80CB010895
:100E900010B50446FFF7F2FF204614211AF098FA25
:100EA000204610BD10B5034B0360044608F095F8CA
:100EB000204610BD4CCB010810B50446FFF7F2FFE9
:100EC00020464FF4D2611AF083FA204610BD00008C
:100ED00010B5034B0360044608F07FF8204610BDB0
:100EE00018CB010810B50446FFF7F2FF2046182181
:100EF0001AF06EFA204610BD10B5084B0360044688
:100F000000F2BC60FFF7BAFF04F12C00FFF7CAFF44
:100F100004F11400FFF7DCFF204610BDB4CB01083C
:100F200008B50248FFF7E8FF08BD00BFAC0100208C
:100F300010B50446FFF7E0FF20464FF403611AF0B6
:100F400047FA204610BD00002DE9F34100F0C0FF34
:100F5000054600F0C1FF00240146234628462246EC
:100F600000940EF029FC254B254A264D1A60204698
:100F700002F012FC24480EF087FB2B78BFF35B8F46
:100F8000DB0735D428461AF025FA88B31F4C204BCE
:100F9000236004F2D46604F1140004F12C0804F276
:100FA000BC676060C4F80880E760266108F016F846
:100FB000184B6361404608F011F8174BE36238465E
:100FC00008F00CF8154BC4F8BC3604F5DA6003F0F1
:100FD000A1F9224604F5DA61304603F051F93046B2
:100FE00001F040F80E481AF03FFA28461AF0FEF9D0
:100FF0000C4802B0BDE8F041FFF762BC1C2901209B
:10100000FC170020A801002008000020AC010020EF
:10101000B4CB010818CB01084CCB010880CB0108E8
:10102000210F000880170020704700000148FFF7DB
:1010300059BC00BF8017002070B5234C234E244BB1
:10104000244D23603046FFF7AFFD284611F0BEFC6B
:10105000214B2248DC60224C03600022F0204FF438
:1010600080712080C3E912121E4C1F492080C3E901
:1010700019121E4C1A864FF080714FF4A0705967F8
:101080000121C3E90422C3E90622C3E90822C3E916
:101090000A22C3E90E22C3E91022C3E91422C3E9DC
:1010A00016221A6683F86C201A67C3E9016583F873
:1010B000781020800E4C83F8341020800D48027088
:1010C0000D4A1A6070BD00BFDC090020E009002055
:1010D000ECC501080018002080170020C02801205E
:1010E000B4280120BA28012001000001B6280120FF
:1010F000BC280120B828012078C701080148FFF763
:101100002FBD00BFE009002000207047818070479C
:10111000C1807047018170474181704770477047B7
:1011200070477047704710B4C4880368121B8488E6
:101130005B6D091B12B25DF8044B09B218474FF6FC
:10114000FF7383814FF0FF3303621368C361106044
:10115000704790F825201AB190F8242002B1186049
:1011600070470000034B902283F85A2383F85823DA
:10117000704700BF00E100E0094A0A49D3680A4805
:10118000C3F30A03013B9BB20B801169C1F30A014F
:10119000013901801364536B43F0010353637047BB
:1011A000006801407C1800207A180020014BD3F819
:1011B000AC00704700680140024B0122C3F8AC103C
:1011C0005A6270470068014070B5044608F003FA9F
:1011D00023685D6E0BF00CFE01462046A84723688D
:1011E000054AD3F888502046AC460023BDE870403D
:1011F000A2F51631604700BF00B004D008F0D2B9A4
:1012000090F84B3013B1024B01221A7008F0D6B996
:101210007818002008F090B908F0EBBA90F8252073
:1012200012B103685B69184770470000034B4FF029
:1012300080629A604FF080729A60704700E100E02F
:10124000084B4FF08062C3F88820BFF34F8FBFF385
:101250006F8F4FF08072C3F88820BFF34F8FBFF3BA
:101260006F8F704700E100E010B5144C236823B382
:10127000134B144A1B6C11888B4213D1124B1988E3
:1012800004F0EAFB226892F86630013382F8663097
:10129000FFF714FC206808F0E3FEBDE810400020D2
:1012A000FFF754BA04F0D8FB206803681B6A98471C
:1012B000BDE810400020FFF773BA10BDC028012020
:1012C000006801407C1800207A18002007B5064B02
:1012D000ADF806001B68054801220DF1060105F076
:1012E00007F903B05DF804FB10000020041A002089
:1012F00008B5642005F0DBFDFBE7000030B595B0D4
:10130000102200210AA81AF01DF91422002103A8B6
:101310001AF018F900241D4B01941A6C42F0805207
:101320001A641B6C03F080530193019B184B0294C9
:101330001A6842F440421A601B6803F44043029367
:101340000122029B4FF48033CDE9082302254FF49C
:101350008003CDE90E5308214FF4A873CDE9101393
:1013600008A804231393129504F094FB0F23CDE9EE
:1013700003354FF4A0504FF48053CDE90603052107
:1013800003A8059404F064FD15B030BD0038024098
:101390000070004080B59AB003F0EEFAFFF7AEFFA0
:1013A000142200210DA800241AF0CCF8C04B0094A0
:1013B0001A6BC048C04D42F010021A631A6B02F05B
:1013C00010020092009A01941A6B42F020021A63F4
:1013D0001A6B02F020020192019A02941A6B42F0F9
:1013E00080021A631A6B02F080020292029A03943E
:1013F0001A6B42F004021A631A6B02F004020392A1
:10140000039A04941A6B42F001021A631A6B02F0F9
:1014100001020492049A05941A6B42F002021A63C4
:101420001A6B02F002020592059A06941A6B42F0BA
:1014300040021A631A6B02F040020692069A079461
:101440001A6B42F008021A631B6B03F00803079340
:1014500022463C21079B03F019FD984822460421AF
:1014600003F014FD224696484FF4405103F00EFD60
:1014700001264FF003083C238E48CDF840800DA98B
:1014800002274FF00409CDE90D360F9403F012FC4A
:101490008A480F940DA9CDE90D96109703F00AFC28
:1014A0000DA94FF440538648CDE90D36CDE90F47DD
:1014B00003F000FC8348844B036003F0EFFA834A97
:1014C000834B2C62C5E9002328464FF48043C5E9CD
:1014D0000434C5E90244C5E9064403F0C1FE102105
:1014E000284604F0FDF82146284604F018F979480A
:1014F000794984624FF48273C0E900134FF4007598
:101500001823C0E906530A23744DC362C0E902449C
:10151000C0E90444C0E9084404F08EFF704B0D9705
:101520004FF0100CC5E900364023C5E904C34FF461
:10153000C073C5E906344FF40063C5E908344FF4BD
:101540000053AB620DA907232846CDE90E39CDE93A
:1015500010384FF0080AC5E90249CDE9127704F0C6
:101560006BFE4FF6FF7209A92846CDE90AA608943A
:1015700009960C9404F080FE304603F029FA4FF6E9
:10158000FF7209A92846CDE9097ACDE90B6404F078
:1015900073FE4FF6FF7209A92846CDE9098ACDE905
:1015A0000B9404F069FE4FF40C730893089B0C93A2
:1015B0004FF6FF7209A92846CDE9099A0B9604F067
:1015C0005BFE40F26A51284604F074FE3422214644
:1015D0000DEB020019F0B6FF424D434BAC86C5E956
:1015E00000340923C5E905361D2340F20D1EC5E967
:1015F000073840F24313C5E909E3284640F2471390
:1016000040F21718C5E90B83C5E902442C6185F83F
:10161000364004F029F9FF21F022CDE912144FF4ED
:10162000806905214FF4A073CDE90E24CDE9149112
:10163000CDE916420DA922462846CDE910372B4D9B
:1016400018930D94ADF864408DF8664004F0D7F916
:10165000274B2B601B6898472B68264DDB68984703
:10166000254BC5E90A47C5E90C442846C5E90034BD
:10167000C5E9027403F022FA3146284603F0D6FA8F
:10168000FEF7B2FFFEF7AFFF05F09CFB1B4A1C48BC
:10169000214605F0C3FB1B4B1B4A186021461B4823
:1016A00005F0BCFB1A4B186005F09EFBFEE700BF7F
:1016B0000038024000100240D41800200008024008
:1016C000000C02408C18002000300240005C0040FA
:1016D000A0860100041A002000500140D01900200B
:1016E000400100A028190020006801408418002053
:1016F000140000209418002000B00240FCCB010828
:10170000F112000888180020D8CB0108F70500085E
:1017100080180020704770477FB5094B8DF817205F
:101720001B6802930DF117020123009201930A46F0
:101730000146044803F03CFE07B05DF804FB00BF1F
:101740000C000020D41800207FB500238DF817303E
:10175000084B1B6802930A4601230DF11701009103
:1017600001930146044803F0B3FE9DF8170007B04B
:101770005DF804FB0C000020D41800201FB5084CB5
:1017800024680092CDE901340A4601230146054848
:1017900003F09EFE003818BF012004B010BD00BF4A
:1017A0000C000020D418002003F012B908B5064838
:1017B0000022042103F06AFBBDE808400248012230
:1017C000042103F063BB00BF0008024038B50B4D95
:1017D000044601220A484FF4005103F057FB00224F
:1017E0000421284603F052FB2046FFF76FFD2846F0
:1017F0000122BDE83840042103F048BB0008024044
:10180000000C024038B50B4D044600220A484FF444
:10181000005103F03BFB00220421284603F036FB75
:101820002046FFF753FD28460122BDE83840042139
:1018300003F02CBB00080240000C0240F7B5144E28
:10184000144F05460C4630460022042103F01EFBCF
:1018500000224FF40051384603F018FB2846FFF7EA
:1018600035FD0D4B0D481B68224601A904F0E2FF2F
:10187000384601224FF40051019C03F007FB30462B
:101880000122042103F002FB204603B0F0BD00BF9B
:1018900000080240000C024010000020041A002042
:1018A00003F096B80268034B9A4201D103F07EB868
:1018B000704700BF001000407047000082B00E4B20
:1018C00000220092596C41F480415964596C01F432
:1018D0008041009100990192196C41F08051196486
:1018E0001B6C03F080530193019B0F216FF00100EB
:1018F00002B003F093B800BF003802400268094B01
:101900009A4282B00BD100230193074B1A6B42F429
:1019100080521A631B6B03F480530193019B02B046
:10192000704700BF003002400038024007B50F4B3F
:1019300002689A4216D10022A3F5F0430192196B76
:1019400041F4000119631B6B03F4000301930521AB
:101950005A20019B03F062F85A2003B05DF804EBB3
:1019600003F08EB803B05DF804FB00BF00B0024086
:101970002DE9F043044689B01422002103A819F090
:10198000E1FD2268244B9A4243D1244C244800258F
:101990000095236B43F004032363236B03F00403DC
:1019A0000093009B0195236B43F001032363236B9A
:1019B00003F001030193019B4FF012094FF40073F0
:1019C0004FF001080327042603A9CDE90339CDE927
:1019D0000587079603F06EF94FF480731148079658
:1019E00003A9CDE90339CDE9058703F063F9029531
:1019F000236C43F400032364236C03F40003029379
:101A0000029B236A43F400032362236A23F4000346
:101A1000236209B0BDE8F083005C0040003802405A
:101A20000008024000000240F0B599B004461422BC
:101A3000002107A819F086FD30220DEB02000021DD
:101A400019F080FD22685E4B9A4240F0B78008236F
:101A50000C93C0231093042312930CA84FF400336B
:101A6000159304F0BFFA08B1FFF726FF554B56480F
:101A7000002400945A6C42F080625A645A6C02F05E
:101A800080620092009A01941A6B42F020021A635D
:101A90001A6B02F020020192019A02941A6B42F032
:101AA00001021A631A6B02F001020292029A039475
:101AB0001A6B42F002021A631A6B02F002020392DE
:101AC000039A04941A6B42F040021A631A6B02F0F4
:101AD00040020492049A05941A6B42F004021A63BD
:101AE0001A6B02F004020592059A06941A6B42F0F2
:101AF00008021A631B6B03F00803069302250E26E7
:101B0000069B0B964FF4806307A9CDE90735CDE915
:101B1000094503F0CFF841F658032C480B9607A966
:101B2000CDE907350927CDE9094503F0C3F80323BB
:101B300027480B9707A9CDE90735CDE9094503F0FB
:101B4000B9F84FF4706322480B9607A9CDE9073521
:101B5000CDE9094503F0AEF84FF40C631D480B9630
:101B600007A9CDE90735CDE9094503F0A3F8C0235E
:101B700019480B9607A9CDE90735CDE9094503F0CA
:101B800099F8082315480B9607A9CDE90735CDE943
:101B9000094503F08FF84FF4A0530E480B9707A99F
:101BA000CDE90735CDE9094503F084F858202246F0
:101BB000052102F033FF582002F062FF19B0F0BD9A
:101BC000006801400038024000140240000002405A
:101BD000000402400018024000080240000C0240CD
:101BE00010B5044688B01422002103A819F0AAFCFD
:101BF0002268144B9A4223D103F5684300210191D6
:101C00005A6C114842F480125A645A6C02F48012E1
:101C10000192019A02911A6B42F020021A631B6B27
:101C200003F020030293029B4FF46072022303210E
:101C3000CDE903230523CDE9061303A903F03AF800
:101C400008B010BD00500140001402402DE9F041E1
:101C500086B0002303932B4B1C68002C4FD14FF010
:101C60000108C3F80080284B00949A6B274842EA89
:101C700008029A639B6B03EA08030093022703267A
:101C80000C25009B01A94FF63F03CDE90137CDE9B3
:101C9000046503F00FF81E48059501A9CDE90187F9
:101CA000CDE9034603F006F848F2331319480595C9
:101CB00001A9CDE90137CDE9034602F0FBFF4FF65C
:101CC00083731548059501A9CDE90137CDE9034690
:101CD00002F0F0FF4CF203731048059501A9CDE91D
:101CE0000137CDE9034602F0E5FF60230C48059576
:101CF00001A9CDE90137CDE9034602F0DBFF06B0CB
:101D0000BDE8F0815C1A0020003802400014024057
:101D1000000802400018024000100240000C02407F
:101D20000004024070B588B000230293204B1A6C67
:101D300042F010021A641B6C03F010030293054674
:101D400001A903A8029B04F02FF9069B4BBB04F0EA
:101D50001BF9184E184B336040F2E733F360174B12
:101D6000B0FBF3F3013B7360304600233361B36093
:101D7000B36104F04BFF044680B9304604F000FE26
:101D8000044658B9362002F07BFE0F2D0DD82246AE
:101D90002946362002F042FE094B1D60204608B05D
:101DA00070BD04F0F1F84000D3E70124F6E700BF6E
:101DB00000380240601A00200010004040420F002E
:101DC0007C0000207047FEE7FEE7FEE7FEE7704775
:101DD000014804F013BE00BF601A0020014803F060
:101DE000B1BD00BF28190020014802F095BE00BF18
:101DF000941800200120704708B519F049FB1623FC
:101E000003604FF0FF3008BD08B519F041FB162301
:101E10000360FEE770B50D4614460E46731B9C42E8
:101E200001DC204670BDAFF3008006F8010BF5E73A
:101E300070B50D4614460E46731B9C4201DC2046CD
:101E400070BD16F8010BAFF30080F5E74FF0FF30DF
:101E500070474FF400534B600020704701207047DB
:101E6000002070470A4A116808B5034609B90949B4
:101E700011601068694603448B4206D919F008FBCB
:101E80000C2303604FF0FF3008BD1360FCE700BF78
:101E9000A81A0020682B0120704710B504210446C1
:101EA00019F096FA204610BD012908B506D002297E
:101EB00008D059B901F0BCFC006808BD01F0B8FCBD
:101EC0004068FAE701F0B4FC8068F6E70020F4E728
:101ED0000048704734CC01082E20704713B5002409
:101EE00051B1036801948DF8034001AA9C680DF17B
:101EF0000303A04702B010BD0846FBE7C089704746
:101F0000008A7047C088704780887047807A00F0E8
:101F10007F007047807AC0097047704710B508216C
:101F2000044619F055FA204610BD7047704700F579
:101F300098730868496803C37047704770474160E9
:101F400070477047064BC0F84C310023C0F8503141
:101F500000F5A273C0F84801C0F84031704700BFD7
:101F60006D2300080123037270477047704710B457
:101F7000C26841685410034601EB6200D20748BFB3
:101F80000A599B685DF8044B48BFD358184743680B
:101F90002BB183682BB9C06800F001007047184668
:101FA00070470120704710B50C21044619F010FA53
:101FB000204610BD10B51021044619F009FA20463C
:101FC00010BD10B54FF4AE71044619F001FA204669
:101FD00010BD08B50AF00CFFBDE808400BF09ABB35
:101FE00010B50446D0F8400158B10368DB68984743
:101FF00038B1D4F8400103689B6898470023C4F8BF
:10200000403110BDF8B5044617460E460AF0FCFFF5
:10201000104B0025C4E955760F4E1C60C4E953559A
:102020000E4B306823600E4BC4E951350368012123
:102030009B68C4E94F559847284601F0ADFB3368CB
:1020400093F876200AB1D86C00B9986812F0A5FA16
:102050002046F8BD0C290120C028012030D50108F8
:1020600018D50108064BC0F84C310023C0F8503198
:1020700000F5A273C0F84801C0F84031704700BFB6
:102080006D230008064BC0F84C310023C0F85031D6
:1020900000F5A273C0F84801C0F84031704700BF96
:1020A0001D220008064BC0F84C310023C0F8503107
:1020B00000F5A273C0F84801C0F84031704700BF76
:1020C000CD20000803685B6A184700002DE9F14F36
:1020D000D0E9555A0746A86803681B6A9847B0F5C7
:1020E000477F05D2454B464AA321464819F09EF941
:1020F000686803681B6A98470F2803D8424B404A18
:10210000A421F2E7E86803681B6A98470B2803D804
:102110003E4B3B4AA521E8E70AF06AFEDFF8F4905F
:1021200004300AF0A3FED9F8000010B10368DB68A0
:102130009847D9F8000010B103681B689847DFF88A
:10214000D880D8F8000010B103685B699847D7F8C9
:102150003C0110B103685B689847D8F8000010B1E3
:1021600003681B689847D7F83C0110B103689B6867
:102170009847E8680021FFF7A5FF4FF0000B244BBC
:1021800003600446C0F804B080F808B0A86803688B
:1021900059465B6A9847064602F0F4F86868036897
:1021A00059465B6A98473146054602F0C5F8C9F8BA
:1021B0000040C7F83C51C8F80060E5B12B1DCAF8D3
:1021C00000303368C5F808A03046DB68F5639847EF
:1021D0002B6828461B689847214630460CF0EAFADF
:1021E000236820461B69984723685B69204601B035
:1021F000BDE8F04F18472B46E1E700BFDCCF0108F0
:102200006AD0010872D10108B9D101085CD2010875
:102210007CD5010800290120FC2801202DE9F14F7F
:10222000D0E9555A0746A86803681B6A9847B0F575
:10223000D16F05D2454B464AA321464819F0F6F81E
:10224000686803681B6A98470F2803D8424B404AC6
:10225000A421F2E7E86803681B6A98470B2803D8B3
:102260003E4B3B4AA521E8E70AF0C2FDDFF8F490B7
:1022700004300AF0FBFDD9F8000010B10368DB68F8
:102280009847D9F8000010B103681B689847DFF839
:10229000D880D8F8000010B103685B699847D7F878
:1022A0003C0110B103685B689847D8F8000010B192
:1022B00003681B689847D7F83C0110B103689B6816
:1022C0009847E8680021FFF7FDFE4FF0000B244B14
:1022D00003600446C0F804B080F808B0A86803683A
:1022E00059465B6A9847064602F08CF868680368AE
:1022F00059465B6A98473146054602F05DF8C9F8D1
:102300000040C7F83C51C8F80060E5B12B1DCAF881
:1023100000303368C5F808A03046DB68F56398479D
:102320002B6828461B689847214630460CF042FA35
:10233000236820461B69984723685B69204601B0E3
:10234000BDE8F04F18472B46E1E700BFDCCF01089E
:10235000FFD2010872D10108B9D101085CD201088D
:102360007CD5010800290120FC2801202DE9F14F2E
:10237000D0E9555A0746A86803681B6A9847B0F524
:10238000946F05D2454B464AA321464819F04EF8B2
:10239000686803681B6A98470F2803D8424B404A75
:1023A000A421F2E7E86803681B6A98470B2803D862
:1023B0003E4B3B4AA521E8E70AF01AFDDFF8F4900E
:1023C00004300AF053FDD9F8000010B10368DB684F
:1023D0009847D9F8000010B103681B689847DFF8E8
:1023E000D880D8F8000010B103685B699847D7F827
:1023F0003C0110B103685B689847D8F8000010B141
:1024000003681B689847D7F83C0110B103689B68C4
:102410009847E8680021FFF755FE4FF0000B244B6A
:1024200003600446C0F804B080F808B0A8680368E8
:1024300059465B6A9847064601F060FF6868036882
:1024400059465B6A98473146054601F031FFC9F8A5
:102450000040C7F83C51C8F80060E5B12B1DCAF830
:1024600000303368C5F808A03046DB68F56398474C
:102470002B6828461B689847214630460CF09AF98D
:10248000236820461B69984723685B69204601B092
:10249000BDE8F04F18472B46E1E700BFDCCF01084D
:1024A0000FD4010872D10108B9D101085CD201082A
:1024B0007CD5010800290120FC280120406A7047D2
:1024C000806A704770478B88C0690A68DB0A50F8D9
:1024D00023001044704710B5C2B1137BB3B1547BD5
:1024E000D27A240204F4E0641443026A98B202EB44
:1024F000840213888B4202D192F9020010BD05D8E4
:10250000013880B204320028F3D1F7E70020F5E764
:1025100010B52C21044618F05BFF204610BD0000CA
:1025200030B58BB00446BDF860500895BDF85C50DE
:1025300007959DF8505006959DF84C5005959DF8CF
:10254000485004959DF8445003959DF840500295DD
:102550009DF83C500195BDF8385000950BF084FD76
:10256000064B2360159BE361169B2362199B6362F4
:102570001A9BA36220460BB030BD00BFA0D5010856
:10258000806A70477047704770477047704730B532
:102590000368018185B06D460146D3F88430044656
:1025A0002846984795E807003C3484E8070005B0C2
:1025B00030BD30B50368418185B06D460146D3F822
:1025C000843004462846984795E807003C3484E860
:1025D000070005B030BD0022028042808280C280A8
:1025E000704780F83610704770B5036804461B6B5F
:1025F000154698472368294620465B6EBDE8704023
:10260000184700207047806C7047704770477047CC
:1026100090F82C304BB100F17002126802663BB1A9
:1026200000F178031B684366704700F16C02F4E721
:1026300000F17403F6E708B590F82C303BB100F1D7
:10264000C8031B68C0F8AC30FFF7E2FF08BD00F11B
:10265000C403F6E770477047704730B4C2684468F7
:102660005510034604EB6200D20748BF62599B68CD
:1026700030BC48BFD358184743682BB183682BB987
:10268000C06800F00100704718467047012070478D
:1026900090F82D3080F8B23080F85E30704790F8B6
:1026A0002D3080F85E30704710B54C21044618F08C
:1026B0008FFE204610BD10B51021044618F088FE8C
:1026C000204610BD10B57C21044618F081FE20463E
:1026D00010BD10B5CC21044618F07AFE204610BD7E
:1026E00010B54FF49461044618F072FE204610BDF8
:1026F00008B5FEF793FD08BD10B50446006B50B158
:102700000368DB68984730B1206B036821469B68FB
:10271000BDE81040184710BD036870B55E6B124BE2
:102720001B6804468DB22BB9104B114A6C2111481D
:1027300018F07CFE1049828D0988914203D80F4B16
:102740000B4A6D21F3E713F812200D4B1B6853F869
:10275000220003681B6B9847281A01B233462046B3
:10276000BDE87040184700BF10290120F8D50108C6
:102770003AD6010875D6010814290120BCD60108F3
:102780001829012070B50D46097990F8342090F889
:102790002C30A1F1020CDCF1000646EB0C060129FD
:1027A000044680F8346016D0BAB983F0010380F88B
:1027B0002C300368D3F88C309847236820465B6937
:1027C00098472B79012B08D123682046D3F888300D
:1027D000BDE870401847002AF6D070BD38B500F546
:1027E0008963994204460D4603D10AF001FBFFF7C5
:1027F00049FC04F5B274A54205D10AF0F9FABDE826
:102800003840FFF74FBC38BD00224FF0FF31C0E920
:1028100000218260704770B5036804461B6B154643
:1028200098472368294620465B6BBDE870401847EF
:1028300070B5036804469B6B154698472368294684
:102840002046DB6BBDE87040184738B504461D468E
:10285000FFF7E1FFBDF9102029462046FFF7E8FF0A
:1028600038BD00000022C0E90122C0E90322C0E90E
:102870000522C0E907224FF480728284014A026077
:10288000704700BF3CD7010810B52622044600213E
:1028900018F058FE2046FFF7E5FF044B2360FF23A6
:1028A00084F826300023A362204610BD30E00108E2
:1028B00010B526220446002118F044FE2046FFF7FA
:1028C000D1FF0A4B23600A4BA3624FF6FF73A38527
:1028D0004FF47F020023C4E90C324FF0FF32C4E909
:1028E00010232387E363204610BD00BFA0DF01084B
:1028F000D4CF01081A4B73B51B88018F8B42064653
:102900002AD9184B1B682BB9174B184A18486C2149
:1029100018F08CFD13F81120164B1B6853F8225049
:10292000154B186800F074FF2B6801909B6B2846CC
:1029300098472B6801999B6C0446284698472B685A
:1029400001995B6A14FB00F428469847A4B204443A
:10295000A6F8464002B070BD0023A0F84630F9E763
:102960001429012010290120F8D501083AD60108C0
:1029700075D60108182901201C2901204FF47F4336
:1029800070B50646838540F20113002583841A4BF7
:102990008562C0E90155C0E90355C0E90555C0E9A4
:1029A0000755056380F8345046F8383B04463046F6
:1029B000FFF76AFF114BA3632A4629463046C4E954
:1029C0001B55C4E91D556566A4F86850FFF723FF41
:1029D00031462046264606F013FB094B46F87C3B61
:1029E0003046FFF765FF2046C4E93155314606F011
:1029F00007FB204670BD00BF34D8010898E00108ED
:102A0000D0D8010813B504467C30019008F010F9C5
:102A1000B4F90A20B4F908100198FFF709FF02B0D1
:102A200010BD00002DE9F04F2DED0A8B04468FB04C
:102A3000A24600250BF012FDE94BE5634AF8403B46
:102A400004F16C095046FFF71FFF4FF6FF76262270
:102A500029464846ADF8306018F074FD4846FFF747
:102A600001FFE04BE3660DF1300BBDF83030A4F808
:102A70009230594604F19808484684F8946008F06A
:102A8000A2FB4046FFF77AFF04F5B27304F5D07756
:102A900018460BEE103A08F06FFB3846FFF76EFF52
:102AA00004F51B7318460BEE903ACF4EFFF7ECFE81
:102AB00004F52873C4F86C621846C4F89852A4F858
:102AC0009C520CEE103AFFF7DFFE04F53573C4F8A4
:102AD000A0621846C4F8CC52A4F8D05209EE903A3D
:102AE000FFF7E6FE04F54773184608EE103ABF4EAE
:102AF000FFF7DEFE04F55A73C4F81C631846C4F8E9
:102B0000645308EE903AFFF7D3FE04F56D73C4F8F2
:102B100068631846C4F8B0530AEE103AFFF7C8FECF
:102B200004F57F73184609EE103AFFF7C1FE04F56D
:102B30008963C4F8FC631846C4F844540AEE903A1A
:102B400008F078FCAA4BC4F89034AA4BC4F8983427
:102B50004FF4A0732A46504600932946F023C4F848
:102B60009444C4F89C54261DFFF76FFE4FF07F433A
:102B7000A3665146304606F043FA2A46484629469F
:102B8000FFF749FE48465946ADF8305008F01BFBA8
:102B9000494630464FF0330906F032FA2946CDF85F
:102BA0000090F0232A4604F1D000FFF74EFE924A2F
:102BB000924BC4E94123C4E94333D4F898304FF031
:102BC000050A4046D3F88C30A4F800A198478C4BF6
:102BD0000C93404620235946ADF83430FFF712FFDE
:102BE0000C22CDF80090F023294604F58A70FFF7F7
:102BF0002CFE8449844B4046C4E95713FFF71BFD64
:102C0000F0239E224046CDF800902946FFF71DFE96
:102C10004146304606F0F4F91BEE100A0722AD21BA
:102C2000FFF7F9FD29230BA80AAAADF82C30ADF85F
:102C3000303009A90346CDF800B01BEE100AADF8FC
:102C400024A0ADF828A008F001FA4FF0051304F510
:102C500092601BEE101AC4F89C310390C4F88C01EA
:102C6000304606F0CDF9012384F8CC31D4F8A031F8
:102C7000DFF8A491D3F88C304FF0320838469847EB
:102C80002A46CDF80080F023294604F5EC70FFF7C2
:102C9000DCFD5E495E4BA4F808A2C4E98313C4E9D5
:102CA0008533D4F8A0313846D3F88C309847544A4D
:102CB0000C921F2338465946ADF83430FFF7A2FE78
:102CC0000C22CDF80080F023294604F50770FFF7A9
:102CD000BCFD4C494C4B3846C4E99913FFF7ABFC9B
:102CE000F023D9223846CDF800802946FFF7ADFD04
:102CF0004FF043083946304606F082F997232A46BA
:102D00001BEE900ACDF800802946FFF79EFD414951
:102D1000A4F89CA27927C4E9A59184F892721BEECD
:102D2000901A304606F06CF9F0234F221CEE100A80
:102D3000CDF800802946FFF788FD3649C4F8CC124B
:102D400084F8C6721CEE101A3046C4F8C892A4F873
:102D5000D0A206F055F9082219EE900A0F21FFF7CC
:102D60005AFD04AF284BC4F8043319EE901A3846C4
:102D7000A4F8085307F0C2FC97E8070004F5447371
:102D800083E807001D231E4AADF8343019EE900A7F
:102D900059460C9207F04CFF19EE901A304606F097
:102DA0002FF9212218EE100A0F21FFF734FD164BE0
:102DB000C4F84C33D4F81C33A4F85053D3F88430FF
:102DC000DFF8588018EE101A3846984797E8070041
:102DD00004F5567383E80700D8F8003033BB1FE0D2
:102DE00084D9010878E1010898E00108A4D7010816
:102DF0006CD90108DD2700089CFFB6FF008232FF76
:102E0000D4CF0108745E34FFFBF6E8FF8B8BF7FF2D
:102E10000000B5FF574728FF93764EFF1029012089
:102E20007B4B7C4A60217C4818F000FBDFF8F8A15E
:102E3000BAF80030192B03D8784B764A6121F2E7B3
:102E4000DFF8E8911921D9F8000000F0E1FCC4F89E
:102E5000640318EE100A07F0CBFE714B0C9318EECA
:102E6000100A12235946ADF8343007F0E1FE18EE8F
:102E7000101A304606F0C4F818EE900A21225B21A1
:102E8000FFF7C9FCD4F86833664AD3F88430C4F835
:102E9000982318EE901A3846A4F89C53984797E860
:102EA000070004F5697383E80700D8F80030002BA9
:102EB000B6D0BAF80030182BBED91821D9F80000C6
:102EC00000F0A6FCC4F8B00318EE900A07F090FEDC
:102ED000534B0C9318EE900A11235946ADF8343039
:102EE00007F0A6FE18EE901A304606F089F81AEEA2
:102EF000100A57220B21FFF78EFC4A4AC4F8E4233C
:102F00001AEE101A3846A4F8E85307F0F7FB97E8D2
:102F1000070004F57C7383E80700414B0C931AEE1D
:102F2000100A1C235946ADF8343007F081FE1AEE22
:102F3000101A304606F064F819EE100A70220B21C0
:102F4000FFF769FCD4F8FC33364AD3F88430C4F870
:102F50002C2419EE101A3846A4F83054984797E8F4
:102F6000070004F5876383E80700D8F80030002BDA
:102F70003FF456AFBAF80030172B7FF65DAF17213C
:102F8000D9F8000000F044FCC4F8440419EE100A1B
:102F900007F02EFE224B0C9319EE100A102359460F
:102FA000ADF8343007F044FE19EE101A304606F042
:102FB00027F81AEE900A4FF48A725F21FFF72BFC74
:102FC00006235A460BA91AEE900AADF82C300723B7
:102FD000ADF8303007F086FE1E231AEE900AA4F8F2
:102FE0008034FFF787FC4FF0FF33C4F88434C4F813
:102FF0008834039BC4F8703430461AEE901A05F0FA
:10300000FFFF20460FB0BDEC0A8BBDE8F08F00BF7C
:10301000F8D50108FAD6010875D60108BCD6010812
:10302000D4CF0108FBF6E8FF142901201C29012058
:1030300070477047704730B4C26844685510034603
:1030400004EB6200D20748BF62599B6830BC48BF9E
:10305000D358184743682BB183682BB9C06800F078
:1030600001007047184670470120704710B51021C5
:10307000044618F0ADF9204610BD10B54FF4477165
:10308000044618F0A5F9204610BDCC30884208B59A
:1030900005D109F0ADFEBDE80840FEF7E3BF08BD6D
:1030A0002DE9F04F2DED088B04468DB0A24600258A
:1030B0000BF0D4F9DC4BE5634AF8403B04F16C09B2
:1030C0005046FFF7E1FB4FF6FF7626222946484699
:1030D000ADF8286018F036FA4846FFF7C3FBD34B2B
:1030E000E3660AAFBDF82830A4F89230394604F1FF
:1030F000980B484684F8946008F065F85846FFF746
:10310000C3FBCB4BC4F8983004F1CC03C4F8C450D3
:10311000A4F8C850184609EE903A08F02DF804F5C6
:10312000847318460AEE103A08F026F804F5A273E4
:1031300018460AEE903A08F01FF804F5C0731846D6
:1031400008EE103AFFF7B4FB04F5E473184608EEF6
:10315000903AFFF7ADFB04F5047309EE103A2946E7
:103160002622184618F0EEF919EE100AFFF77AFB3E
:103170004FF0010304F5127884F83432AD4BC4F8F3
:10318000385284F83C52A4F83E62A4F8406284F8B5
:103190004262C4F81032A4F844624046FFF788FB4C
:1031A000A54BC4F8483204F52573C4F8905218466C
:1031B0000BEE103A07F0E0FF04F5347318460BEEFF
:1031C000903A07F0D9FF9D4BC4E9C3349C4BC4E946
:1031D000C5354FF4A0732A46294650460093F02384
:1031E000261DFFF732FB4FF07F43A3665146304662
:1031F00005F006FF2A4629464846FFF70CFB4846DD
:103200003946ADF8285007F0DEFF4946304605F054
:10321000F7FE4323294658460093B422F023FFF7D4
:1032200014FB884A884B4FF00509C4E93023792301
:1032300084F8BE305946A4F8C890304605F0E0FE48
:103240004A46494619EE900AFFF7E5FA27234FF060
:10325000020B4FF0010A08AA19EE900AADF82430CB
:10326000ADF8283007A909AB0097ADF81CA0ADF860
:1032700020B007F0EBFE754BC4F8043104F543733E
:10328000C4F8F43019EE901A304605F0B9FE4A46FB
:103290001AEE100AC321FFF7BEFA2D2308AA1AEE70
:1032A000100AADF81CA0ADF824306FF0061AADF886
:1032B000283007A909AB0097ADF820B007F0C6FE8B
:1032C0001AEE101AC4F840A1304605F099FE4A469D
:1032D0001AEE900A9621FFF79EFA4FF00103ADF81F
:1032E0001C302C2308AA1AEE900AADF82430ADF851
:1032F000283007A909AB0097ADF820B007F0A6FE6B
:103300001AEE901AC4F87CA130460DF1080905F0B8
:1033100077FEDFF858B1322218EE100A1F21FFF7AE
:103320007AFA18EE101AA4F8B4514846C4F8B0B1AD
:1033300007F0E4F999E8070004F5DE7383E8070075
:10334000434B0A9318EE100A1B233946ADF82C3074
:1033500007F06EFC18EE101A304605F051FE94226C
:1033600018EE900A0D21FFF756FA18EE901AA4F8FD
:10337000FC514846C4F8F8B107F0C0F999E80700D5
:1033800004F5017383E80700314B0A9318EE900AA5
:103390001A233946ADF82C3007F04AFC18EE901A83
:1033A000304605F02DFE4FF00A0A19EE100A52229F
:1033B0003321FFF730FA0B233A4619EE100A09A918
:1033C000A4F844A2ADF82430ADF828A007F08AFC98
:1033D00019EE101A304605F013FEBD226121404659
:1033E000FFF719FAD4F84822A4F87C52D2F88420C6
:1033F000C4F878B241464846904799E8070004F57A
:10340000217585E80700134A12682AB9124B134A3E
:103410006021134818F00AF8124A1288132A27D894
:10342000114B0E4A6121F4E7D0D9010878E1010877
:1034300098E00108B0DE0108A4D70108B8D9010856
:103440008B30000893764EFF574728FF0400020098
:10345000D4CF010810290120F8D50108FAD60108B7
:1034600075D6010814290120BCD60108FBF6E8FF37
:103470002F4A304D1068132100F0CAF9C4F89002A9
:10348000404607F0B5FB2C4B0A9339464046ADF851
:103490002CA007F0CDFB4146304605F0B1FD1BEEF8
:1034A000100A40F207120D21FFF7B5F92B2308AAE5
:1034B0001BEE100A4FF008094FF00908ADF8243050
:1034C000ADF8283007A909AB0097ADF81C90ADF80E
:1034D000208007F0BBFD1BEE101A3046C4F8CC521A
:1034E00005F08EFD1BEE900A40F207128021FFF7D7
:1034F00092F92A231BEE900AADF82430ADF828305B
:1035000008AA09AB07A90097ADF81C90ADF8208078
:1035100007F09CFD30461BEE901AC4F8085305F0E6
:103520006FFD20460DB0BDEC088BBDE8F08F00BFED
:103530001C2901201900F9FFD4CF010870470000B1
:1035400030B5174D2C78BFF35B8F14F001048FB0AA
:1035500022D1284617F03EFFF0B13F230993114BCB
:103560000893114B114912480A94CDE906430122F0
:103570000423CDE903320A23009315220C23CDE95D
:103580000B44CDE901440594FEF7CAFF094817F042
:103590006BFF284617F02AFF05480FB030BD00BF6B
:1035A000AC1A0020E4F50108F4F50108B4F20108B2
:1035B000B01A00203D3500087047000030B5174DA7
:1035C0002C78BFF35B8F14F001048FB022D1284612
:1035D00017F000FFF0B13F230993114B0893114BF3
:1035E00007930123CDE9053304930423CDE9024376
:1035F00014230D49009323221823CDE90B440B48D3
:103600000A940194FEF78CFF094817F02DFF284615
:1036100017F0ECFE05480FB030BD00BFDC1A0020EB
:10362000E8F50108F8F50108DCF30108E01A0020CC
:10363000B93500087047000030B5164D2C78BFF33F
:103640005B8F14F001048FB021D1284617F0C2FE21
:10365000E8B13F230993104B0893104B10491148D0
:103660000A94CDE9064301220423CDE9033228233D
:1036700000930222CDE90B44CDE901440594FEF705
:103680004FFF094817F0F0FE284617F0AFFE054837
:103690000FB030BD0C1B0020F0F50108FCF501084F
:1036A000C8F50108101B00203536000800207047BF
:1036B000002070470EB403B503AB002153F8042B70
:1036C00001930AF0F9FA02B05DF804EB03B0704719
:1036D0000CB407B504AB53F8042B01930AF0ECFAD1
:1036E00003B05DF804EB02B070470000436C10B506
:1036F000044673B3038F2BB9184B194AC5211948D7
:1037000017F094FEC38E00EB43035B8C0BB30BF0FE
:1037100080FD238F012B03D8134B144ACB21EEE7F6
:10372000E28E531C9BB2092B194688BFA3F10A01F4
:1037300004EB410140F63F10498C814209D10A2B2C
:1037400004EB420228BF002304EB4303508C58844F
:1037500051842046BDE810400BF05EBCFCD9010846
:1037600005DA0108B0DA0108FADA010808DB010815
:103770000BF019BC10B586B002AC84E806001A46FE
:103780000AAB05930193099B00932146089B08F01F
:10379000EDFE06B010BD000038B518BB124B134843
:1037A0001B681349B3B11A689C681A4402605A68CE
:1037B0001A440A601C440F4B00221A8000F038F8AB
:1037C000054600F033F80C4B1C600C4B1D600C4B95
:1037D000188007E00B4B03600B4B0B600B4B1C6816
:1037E000002CE8D138BD00BF3C1B0020401B00204E
:1037F000441B0020481B002010290120182901200B
:103800001429012084F6010800F60108CCF701080C
:10381000044B1B6853F82100034B1B6803EB40006B
:10382000704700BF441B0020401B00202120704730
:10383000004870474C1B002010B5FFF7BFFE044C3A
:103840002060FFF7F9FE6060FFF77AFEA06010BD10
:103850004C1B002070477047704730B4C268446802
:103860005510034604EB6200D20748BF62599B68BB
:1038700030BC48BFD358184743682BB183682BB975
:10388000C06800F00100704718467047012070477B
:1038900010B51021044617F09BFD204610BD10B551
:1038A0004FF4D161044617F093FD204610BD38B5A2
:1038B00000F5EC73994204460D4603D109F098FADD
:1038C000FEF7D0FB9834A54205D109F091FABDE886
:1038D0003840FEF7E7BB38BD38B5262204460D4612
:1038E000002117F02FFE2046FEF7BCFF064B236099
:1038F0002B88E384FF23204684F82830294607F0EC
:1039000062FC204638BD00BF78E1010800224FF07C
:10391000FF31C0E9002182607047000037B54FF6E3
:10392000FF7304460D4601A9ADF80430FFF7D4FF3C
:10393000084B23604FF0FF320023C4E90B322A7892
:1039400084F83420204684F83530E38684F8383013
:1039500003B030BD24DF010810B50446FEF7A8FF10
:10396000024B23600023A364204610BDA4D70108A6
:103970002DE9F04F2DED108B044693B027464FF004
:10398000000B0AF06BFDEB4BC4F83CB047F8403B32
:1039900026225946384617F0D5FD3846FEF762FF15
:1039A000E54B2364FF230FAD84F8663004F16C030C
:1039B0004FF6FF7629461846C4F868B0ADF83C606B
:1039C0000793FFF789FF04F1980304F1D40A18461E
:1039D000059307F0D1FB29465046ADF83C60FFF750
:1039E0007BFF04F5807304F5A47818460BEE903A3B
:1039F000FEF75EFF4046FEF75BFF04F5C87318460E
:103A00000CEE103AFEF754FF04F5EC7318460693DB
:103A100007F0B2FB04F505734FF00109294618467B
:103A200008EE103A8DF83C90FFF778FF04F5147318
:103A30002946184608EE903A8DF83C90FFF76EFF45
:103A400004F5237318460CEE903AFEF731FF04F5A7
:103A5000357318460DEE103AFEF72AFF04F547734A
:103A600018460DEE903AFEF723FF04F559731846F9
:103A70000EEE103AFEF71CFF04F56B7318460EEEBF
:103A8000903AFFF769FF04F57E7318460FEE103A7F
:103A9000FFF762FF04F2444318460FEE903AFFF737
:103AA0005BFF04F5926318460393FFF755FF04F29A
:103AB000DC4318460493FFF74FFF04F5A56318464F
:103AC00009EE103AFEF7F4FE04F5AE63184609EE6F
:103AD000903AFEF7EDFE04F5B76318460AEE103A89
:103AE000FEF7E6FE04F5C063294618460AEE903A52
:103AF0008DF83C90FFF712FF04F23C63184629460C
:103B00000BEE103A8DF83C90FFF708FF8B4AC4F893
:103B100078268B4AC4F8802638465A465946C4F857
:103B20007C46C4F884B6FEF776FE3846F021FDF7F1
:103B3000F1FA38464FF4A071261DFDF7EDFA4FF06B
:103B40007F423946A266304605F05AFA079B5A462C
:103B500018465946FEF75FFE079BADF83CB0184685
:103B6000294607F030FB079B3046194605F048FA16
:103B700005980722AD21FEF74EFE4FF00503ADF884
:103B80003030ADF834300EA929230DAA0598ADF8D0
:103B90003830ADF83C3000950B460CA907F056FACA
:103BA0004FF00511C4F8D01004F5CF610791C4F8A7
:103BB000C0103046059905F023FA482250460321EB
:103BC000FEF729FE4FF00C015046ADF83C10294697
:103BD00007F0F9FA5146304608AFDFF86CA105F05E
:103BE0000FFA78221BEE900A5C21FEF714FE1BEE02
:103BF000901A3846C4F830A1A4F834B106F07EFD1E
:103C000097E8070004F59E7383E807004D4B0F9378
:103C10004FF005021BEE900A2946ADF8402007F050
:103C200007F81BEE901A304605F0EAF97822404674
:103C30008E21FEF7F0FD41463846C4F878A1A4F87D
:103C40007CB106F05BFD97E8070004F5C27383E8DA
:103C500007003C4B0F93404608232946ADF84030FF
:103C600006F0E6FF4146304605F0CAF978221CEE20
:103C7000100A9A21FEF7CFFD1CEE101A3846C4F840
:103C8000C0A1A4F8C4B106F039FD97E8070004F517
:103C9000E67383E807002B4B0F931CEE100A0923F1
:103CA0002946ADF8403006F0C3FF1CEE101A30462E
:103CB00005F0A6F9052211460698FEF7ACFD04238F
:103CC000ADF834300EAA28234FF003080698ADF85B
:103CD0003830ADF83C300CA9134600950DAAADF86C
:103CE000308007F0B3F94FF00512C4F81022079A9C
:103CF0000699C4F80022304605F082F918EE100A41
:103D000085221521FEF787FD182218EE100A0D21D5
:103D100006F0F9FB18EE100A414606F007FC4B4688
:103D20004A4618EE100A594606F045FB18EE101ADE
:103D300030460BE0FCDB010830E00108E4DB010861
:103D4000AF380008D4CF0108FBF6E8FF05F058F9BA
:103D500018EE900A8522B521FEF75DFD182218EEB7
:103D6000900A0D2106F0CFFB18EE900A414606F0AE
:103D7000DDFB4B464A4618EE900A594606F01BFBFF
:103D800018EE901A304605F03BF9AC221CEE900A72
:103D90001C21FEF740FD1CEE901A3846C4F8BCA268
:103DA000A4F8C0B206F0AAFC97E8070004F5327345
:103DB00083E807004E4B0F931CEE900A2946ADF89E
:103DC00040B006F035FF1CEE901A304605F018F9A9
:103DD000AC221DEE100ABC21FEF71DFD1DEE101ACF
:103DE0003846C4F804A3A4F808B306F087FC97E8A3
:103DF000070004F5447383E807003D4B0F931DEE65
:103E0000100A02232946ADF8403006F011FF1DEEDE
:103E1000101A304605F0F4F8AC221DEE900ACE21BF
:103E2000FEF7F9FC1DEE901A3846C4F84CA3A4F82E
:103E300050B306F063FC97E8070004F5567383E877
:103E400007002B4B0F931DEE900A2946ADF84080DA
:103E500006F0EEFE1DEE901A304605F0D1F8AC22C9
:103E60001EEE100A2E21FEF7D6FC1EEE101A384662
:103E7000C4F894A3A4F898B306F040FC97E80700B0
:103E800004F5687383E80700194B0F931EEE100AC0
:103E90002946ADF8409006F0CBFE1EEE101A3046D3
:103EA00005F0AEF8E22225211EEE900AFEF7B3FCE3
:103EB000C4F8DCA3A4F8E0B32846FFF727FD95E893
:103EC0000700DFF8449004F57A7383E80700D9F817
:103ED00000302BB9074B084A6021084817F0A6FAB2
:103EE000074F3B88152B11D8064B034A6121F4E795
:103EF000D4CF0108F8D50108FAD6010875D6010813
:103F000014290120BCD6010810290120DFF84083C4
:103F10001521D8F80000FFF77BFCC4F8F4031EEE6F
:103F2000900A06F065FEC94B0F931EEE900A0E2311
:103F30002946ADF8403006F07BFE1EEE901A304662
:103F400005F05EF8E222BA211FEE100AFEF763FCCC
:103F5000C4F828A4A4F82CB42846FFF7D7FC95E8A9
:103F6000070004F2344383E80700D9F80030002B3F
:103F7000B0D03B88162BB7D91621D8F80000FFF730
:103F800047FCC4F840041FEE100A06F031FEAF4BA8
:103F90000F931FEE100A0F232946ADF8403006F0AC
:103FA00047FE1FEE101A304605F02AF8E2224E2195
:103FB0001FEE900AFEF72FFCC4F874A4A4F878B49E
:103FC0002846FFF7A3FC95E8070004F5906383E813
:103FD0000700D9F80030002B3FF47CAF3B88192B49
:103FE00082D91921D8F80000FFF712FCC4F88C041C
:103FF0001FEE900A06F0FCFD944B0F934FF00C025D
:104000001FEE900A2946ADF8402006F011FE1FEE83
:10401000901A304604F0F4FFE2228C210398FEF758
:10402000FAFBC4F8C0A4A4F8C4B42846FFF76EFC99
:1040300095E8070004F2CC4383E80700D9F8003084
:10404000002B3FF447AF3B88182B7FF64DAF18216C
:10405000D8F80000FFF7DCFBC4F8D804039806F09A
:10406000C7FD7A4B03980F9329460D23ADF84030D6
:1040700006F0DEFD0399304604F0C2FFA52271214F
:104080000498FEF7C8FBC4F80CA5A4F810B52846A0
:10409000FFF73CFC95E8070004F5A36383E80700FD
:1040A000D9F80030002B3FF415AF3B88142B7FF676
:1040B0001BAF1421D8F80000DFF89081DFF894914D
:1040C000FFF7A6FBC4F82405049806F091FD0B2326
:1040D0000498ADF840300FA9CDF83C8006F0A8FD5B
:1040E0000499304608AD04F08BFF002719EE100A42
:1040F00078225021FEF78FFB19EE101A2846C4F8DB
:104100005895A4F85C7506F0F9FA95E8070019EEE1
:10411000103A3C3383E80700042319EE100A0FA974
:10412000ADF84030CDF83C8006F082FD19EE101A53
:10413000304604F065FF19EE900A78228221FEF7DE
:104140006AFB19EE901A2846C4F8A095A4F8A47545
:1041500006F0D4FA95E8070019EE903A3C3383E86C
:104160000700072319EE900A0FA9ADF84030CDF8EB
:104170003C8006F05DFD19EE901A304604F040FFD9
:104180001AEE100A78226721FEF745FB1AEE101A84
:104190002846C4F8E895A4F8EC7506F0AFFA95E85F
:1041A00007001AEE103A3C3383E8070006231AEEA4
:1041B000100A0FA9ADF84030CDF83C8006F038FD6C
:1041C0001AEE101A304604F01BFF1AEE900A56221F
:1041D0003F21FEF720FB1AEE900A2622192106F055
:1041E00092F91AEE900A052106F0A0F901231A4669
:1041F00019461AEE900A06F0DEF81AEE901A3046CA
:1042000004F0FEFE1BEE100A56229921FEF703FB76
:104210001BEE100A2622192106F075F91BEE100A72
:10422000052106F083F901231BEE100A1A463946D0
:1042300006F0C1F830461BEE101A04F0E1FE2046ED
:1042400013B0BDEC108BBDE8F08F00BFD4CF0108D8
:104250001C290120FBF6E8FF704710B54FF4AE7142
:10426000044617F0B5F8204610BD10B50446D0F846
:10427000580100F052F82046BDE8104008F054BE46
:1042800010B50446FDF7BEFE014B2360204610BD6D
:1042900030DC0108704704387047704710B51021B2
:1042A000044617F095F8204610BDA0F10400F5E78C
:1042B00010B500228260044AC16002F10804203275
:1042C0000460426010BD00BF74DC0108704700004C
:1042D00010B5034B03600446FEF797F9204610BD66
:1042E000A4DC010810B50446FFF7F2FF20464FF4A6
:1042F000946117F06DF8204610BD000010B504461B
:10430000FEF790FB014B2360204610BDA4DC0108A2
:10431000FEF77CB90022026070477047704704388E
:104320007047704710B51021044617F051F8204629
:1043300010BDA0F10400F5E710B500228260044A28
:10434000C16002F1080420320460426010BD00BF69
:10435000D0DC01087047000010B5034B0360044631
:10436000FEF766FE204610BD00DD010810B50446CC
:10437000FFF7F2FF20464FF4477117F029F8204667
:1043800010BD000010B50446FEF78AFE014B236005
:10439000204610BD00DD0108FEF74BBE7047043813
:1043A0007047704710B51021044617F011F82046E9
:1043B00010BDA0F10400F5E710B500228260044AA8
:1043C000C16002F1080420320460426010BD00BFE9
:1043D0002CDD01087047000010B5034B0360044654
:1043E000FFF738FA204610BD5CDD010810B5044621
:1043F000FFF7F2FF20464FF4D16116F0E9FF2046A7
:1044000010BD000010B50446FFF7B2FA014B23605F
:10441000204610BD5CDD0108FFF71DBAF020704793
:104420004FF4A07070472920FDF7ECB92820FDF764
:10443000E9B908B5FDF7BAF9CA20FDF7E3F9C320D9
:10444000FDF7C4F90820FDF7C1F95020FDF7BEF9CA
:10445000CF20FDF7D7F90020FDF7B8F9C120FDF70F
:10446000B5F93020FDF7B2F9ED20FDF7CBF9642066
:10447000FDF7ACF90320FDF7A9F91220FDF7A6F925
:104480008120FDF7A3F9E820FDF7BCF98520FDF7B1
:104490009DF90020FDF79AF97820FDF797F9CB20D8
:1044A000FDF7B0F93920FDF791F92C20FDF78EF9D1
:1044B0000020FDF78BF93420FDF788F90220FDF785
:1044C00085F9F720FDF79EF92020FDF77FF9EA2016
:1044D000FDF798F90020FDF779F90020FDF776F94E
:1044E000B120FDF78FF90020FDF770F91B20FDF7D3
:1044F0006DF9B620FDF786F90A20FDF767F9A220CD
:10450000FDF764F9C020FDF77DF91020FDF75EF995
:10451000C120FDF777F91020FDF758F9C520FDF708
:1045200071F94520FDF752F91520FDF74FF9C72025
:10453000FDF768F99020FDF749F93620FDF762F99B
:10454000C820FDF743F9F220FDF75CF90020FDF7E4
:104550003DF9B020FDF756F9C220FDF737F9B62036
:10456000FDF750F90A20FDF731F9A720FDF72EF9E4
:104570002720FDF72BF90420FDF728F92A20FDF765
:1045800041F90020FDF722F90020FDF71FF9002076
:10459000FDF71CF9EF20FDF719F92B20FDF732F993
:1045A0000020FDF713F90020FDF710F90120FDF7B9
:1045B0000DF93F20FDF70AF9F620FDF723F9012058
:1045C000FDF704F90020FDF701F90620FDF7FEF8DC
:1045D0002C20FDF717F9C820FDF762F92620FDF71A
:1045E00011F90120FDF7F2F8E020FDF70BF90F209B
:1045F000FDF7ECF82920FDF7E9F82420FDF7E6F8AF
:104600000C20FDF7E3F80E20FDF7E0F80920FDF798
:10461000DDF84E20FDF7DAF87820FDF7D7F83C20DA
:10462000FDF7D4F80920FDF7D1F81320FDF7CEF8F7
:104630000520FDF7CBF81720FDF7C8F81120FDF78E
:10464000C5F80020FDF7C2F8E120FDF7DBF80020F7
:10465000FDF7BCF81620FDF7B9F81B20FDF7B6F8FA
:104660000420FDF7B3F81120FDF7B0F80720FDF79F
:10467000ADF83120FDF7AAF83320FDF7A7F8422066
:10468000FDF7A4F80520FDF7A1F80C20FDF79EF832
:104690000A20FDF79BF82820FDF798F82F20FDF75A
:1046A00095F80F20FDF792F81120FDF7ABF8C82020
:1046B000FDF7F6F82920FDF7A5F8BDE808402C2005
:1046C000FDF7A0B808B5FDF771F80321D320FDF779
:1046D000B5F880B208BD10B5C4B20222032120464D
:1046E000FDF71AF80A20FDF75FF8204600220321A3
:1046F000FDF712F8BDE810400220FDF755B838B5B7
:104700000446E4B2FDF706F800212046FDF71CF848
:10471000012105462046FDF717F840EA052080B242
:1047200038BD10B5C4B240212046FDF70DF8030690
:1047300007D54C212046FDF707F8003818BF0120A7
:1047400010BD01224B212046FCF7E6FF2046002247
:104750004B21FCF7E1FF0020F2E773B50423C4B25C
:104760000E461546D7210DEB03022046FDF706F84D
:10477000019B1BBA1A0DC3F30B23328020462B80FA
:1047800001224B21FCF7C8FF00224B212046FCF7F9
:10479000C3FF02B070BD000010B50A4B1A789042FA
:1047A00004460DD0597888420AD00AB141B9012295
:1047B0009C54FCF7AFFF2046BDE81040FFF78BBFCD
:1047C00010BD00BF581B002010B5C4B209212046FF
:1047D000FCF7BAFF40F00100C2B209212046BDE853
:1047E0001040FCF799BF10B5C4B209212046FCF770
:1047F000ABFF092100F0FE022046BDE81040FCF7A7
:104800008BBF38B5C4B20D4620460A21FCF79CFF89
:104810002843C2B20A212046BDE83840FCF77CBFDD
:1048200007B50190FCF777FF01981F21FFF7E9FF1B
:10483000019803B05DF804EBFFF7C6BF38B5C4B20A
:104840000D4620460A21FCF77FFF20EA0500C2B290
:104850000A212046BDE83840FCF75EBF10B504468B
:10486000FFF7C1FF20461F21BDE81040FFF7E6BF5C
:1048700010B5C0B20C460B21FCF766FF204010BDFE
:104880001F21FFF7F5BF0A46C0B20B21FCF744BF5A
:104890001F21FFF7F8BF38B5C4B20D4620461721D7
:1048A000FCF752FF20EA0500C2B217212046BDE8FE
:1048B0003840FCF731BF70B5C4B20646042120462B
:1048C000FCF742FF042100F0FB0205462046FCF7FE
:1048D00023FF3046F021FFF7DEFF05F0F802204607
:1048E0000421FCF719FF492220212046FCF714FF80
:1048F0000220FCF759FF204601222121FCF70CFF82
:1049000020469A224121FCF707FF204601224A2136
:10491000FCF702FF204601224B21FCF7FDFE20465A
:1049200000224B21FCF7F8FE204601225621FCF71D
:10493000F3FE204601225821FCF7EEFE204601221C
:104940004021FCF7E9FE2046FF220B21FCF7E4FEA4
:10495000BDE870400220FCF727BF0000054BD3F8EC
:10496000882042F47002C3F888204FF000629A60F9
:10497000704700BF00ED00E008B50B4B1A6842F429
:1049800000721A601A6842F480621A601A6842F46F
:1049900080721A60032000F02FF80020FDF7C2F9A2
:1049A000FCF78CFF002008BD003C0240034A044B8A
:1049B00011681B780B441360704700BF5C1B00201C
:1049C00078000020014B1868704700BF5C1B002076
:1049D00038B50446FFF7F6FF631C1CBF054B1B7878
:1049E000054618BFE418FFF7EDFF431BA342FAD3B7
:1049F00038BD00BF780000200749CA6822F4E06291
:104A00000302120403F4E063120C134343F0BF6388
:104A100043F40033CB60704700ED00E0164B30B537
:104A2000DC68C4F30224C4F10705231D042D28BF4C
:104A30000425062B4FF0FF338CBF033C002403FA00
:104A400005F521EA0501A34022EA0302A14000285E
:104A500041EA0203ACBF00F16040084A4FEA031389
:104A6000B8BF00F00F00DBB2AABF00F561401354DD
:104A700080F8003330BD00BF00ED00E014ED00E031
:104A8000002808DB4209012300F01F0003FA00F0B0
:104A9000014B43F82200704700E100E010B50446E6
:104AA00050B1437903F0FF0213B90271FCF726FFFE
:104AB00001236371002010BD0120FCE710B50446FE
:104AC00030B390F8393003F0FF021BB980F838207A
:104AD000FCF72CFF22686168022384F839301368E0
:104AE00023F440330B431360536BA16823F0070397
:104AF0000B435363136CE16823F47F5323F03F03AC
:104B00000B43136400200123E06384F8393010BDA7
:104B10000120FCE770477047036870B55E681D6848
:104B2000F207044614D5E90512D51A6822F48072FA
:104B30001A60C26B42F00102C26301229A60042330
:104B400080F83930002380F83830436903B1984742
:104B5000B20616D5AB0414D523681A6822F40052A5
:104B60001A6020229A60E36B43F00203E36304239C
:104B700084F83930002384F8383063690BB120465B
:104B80009847300716D5290514D523681A6822F4EA
:104B900000621A6008229A60E36B43F00403E36347
:104BA000042384F83930002384F8383063690BB16A
:104BB0002046984772070BD56B0509D523681A68FC
:104BC00022F480621A6004229A602046FFF7A2FF56
:104BD000B00714D5A90512D523681A6822F400720B
:104BE0001A6002229A60E36BE363012384F8393090
:104BF000002384F8383023690BB120469847F20629
:104C000013D5EB0411D523681A6822F480521A6078
:104C100010229A60E36BE363012384F839300023A8
:104C200084F838302046FFF776FF70BDF0B590F875
:104C30003830012B4FF002032BD0012280F839309D
:104C400080F8382000EB0113D3E907425D6A184F62
:104C500044EA0242093C012C9CBF05F07F431A4301
:104C60004FEA0116036888BF42EA056299B9596A9A
:104C700039400A435A62012C82699A6103D8426A18
:104C800022F07F429A62012380F83930002380F8B5
:104C900038301846F0BDD96939400A43DA618219C3
:104CA000012C92691A619CBF25F07F451D62EAE7DD
:104CB000F0FFFC002DE9F74FDFF8C0916D4A0023AB
:104CC0000D6801249C4004EA050CAC4340F0B98017
:104CD0004D6805F003044FEA43080326671E06FAF1
:104CE00008F6012F6FEA060634D8876807EA060E31
:104CF000CF6807FA08F747EA0E078760476827EA90
:104D00000C0EC5F300179F4047EA0E074760C768BF
:104D100007EA060E8F6807FA08F747EA0E07022C23
:104D2000C76019D14FEAD30A00EB8A0A03F0070BD8
:104D3000DAF820704FEA8B0B4FF00F0E0EFA0BFED5
:104D400027EA0E0E0F6907FA0BF747EA0E07CAF8B3
:104D5000207001E0032CDAD1076804FA08F43E4021
:104D6000264315F4403F06606BD04FF0000ACDF8A3
:104D700004A0D9F84460404C46F48046C9F8446029
:104D8000D9F8446006F480460196019E23F003069C
:104D900006F1804606F59C3603F0030ED6F808802F
:104DA0004FEA8E0E0F2707FA0EF7A04228EA0707F0
:104DB0004ED004F58064A0424CD004F58064A0423B
:104DC0004AD004F58064A04248D004F58064A04233
:104DD00046D004F58064A04244D004F58064A0422B
:104DE00042D004F58064A04240D004F58064A04223
:104DF0003ED004F58064A0420CBF09240A2404FAC2
:104E00000EF43C43B46094686FEA0C06EF0254BFA2
:104E100034404CEA04049460D468AF0254BF344078
:104E20004CEA0404D4605468AF0354BF34404CEAE5
:104E3000040454601468ED0354BF34404CEA040485
:104E400014600133102B7FF43BAF03B0BDE8F08F4B
:104E50005446D4E70124D2E70224D0E70324CEE766
:104E60000424CCE70524CAE70624C8E70724C6E7DC
:104E70000824C4E7003C0140000002400038024022
:104E80000369194214BF0120002070470AB18161F3
:104E900070470904FBE7436901EA030221EA0301C1
:104EA00041EA02418161704701684B6913F48063F4
:104EB0004FF0000210D06FF480634B612023026337
:104EC00080F83D3080F83E20036C80F83C2043F0B1
:104ED0000403036401207047184670472DE9F84623
:104EE00006460F4691461D464FEA114A3368BAF10D
:104EF000010F0CBF5C699C6927EA0404A4B2B4FAF0
:104F000084F46409A14501D0002017E06A1CEED0AA
:104F1000FFF758FD089BC01AA84201D8002DE5D123
:104F200000232022336386F83D2086F83E30326C21
:104F300086F83C3042F0200232640120BDE8F88659
:104F40002DE9F04104460F461646984625686869E3
:104F500027EA000080B2B8B16B695A0516D52B68F4
:104F600043F400732B606FF480636B612022002395
:104F7000236384F83D2084F83E30226C42F0040222
:104F8000226484F83C300120BDE8F081731CDED03F
:104F9000FFF718FDA0EB0800B04201D8002ED5D1D4
:104FA00000232022236384F83D2084F83E30226CC5
:104FB00042F02002E4E770B504460D46164621682B
:104FC0004B6913F0400301D0002010E04A69D2067B
:104FD0000ED56FF010024A612022236384F83D2031
:104FE00084F83E30226C226484F83C30012070BD8D
:104FF000FFF7E8FC801BA84201D8002DDFD1002379
:105000002022236384F83D2084F83E30226C42F055
:105010002002E8E770B504460D46164623685B6932
:105020005B0701D5002070BD2046FFF73DFFA8B902
:105030006A1CF3D0FFF7C6FC801BA84201D8002DE4
:10504000ECD100232022236384F83D2084F83E30F5
:10505000226C84F83C3042F0200222640120E2E716
:1050600070B504460D46164623685B691B0601D5DC
:10507000002070BD2046FFF717FFA8B96A1CF3D0C7
:10508000FFF7A0FC801BA84201D8002DECD1002323
:105090002022236384F83D2084F83E30226C84F87B
:1050A0003C3042F0200222640120E2E72DE9F04387
:1050B0001546026885B0DDE90C789946136843F41B
:1050C000807313600E463B46CDF8008000224FF0FF
:1050D00001110446FFF702FF236838B11B68DB05A6
:1050E00002D54FF40073236403200AE006F0FE06A5
:1050F0001E61194943463A462046FFF721FF18B181
:10510000012005B0BDE8F083236803905A6903923B
:105110009B690393424639462046039BFFF7A0FF55
:1051200040B1236C042B01BF2268136843F4007361
:105130001360E5E7B9F1010F236802D1EDB21D61FB
:10514000DFE72A0A1A61394642462046FFF788FF00
:105150000028E6D12368F1E7020001002DE9FF47AE
:105160009A46036815461A6842F480621A601A6803
:10517000DDE90C7842F480721A600E463B46CDF8A9
:10518000008000224FF001110446FFF7A7FE2368BC
:1051900048B11B68DB0502D54FF40073236403207C
:1051A00004B0BDE8F0875FFA86F906F0FE061E61DE
:1051B0002A4943463A462046FFF7C2FE08B101207D
:1051C000EEE7236803905A6903929B690393424672
:1051D00039462046039BFFF743FF40B1236C042B65
:1051E00001BF2268136843F400731360E7E7BAF164
:1051F000010F23681AD1EDB21D614246394620469F
:10520000FFF72EFF0028E9D12268136843F480736A
:1052100013604FF001110246CDF800803B46204656
:10522000FFF75CFE226860B11368B3E72A0A1A61CF
:10523000394642462046FFF713FF0028CED12368A7
:10524000D9E749F001031361044943463A46204631
:10525000FFF776FE003818BF0120A1E70200010029
:1052600070B5044608B9012070BD90F83D3003F0D8
:10527000FF021BB980F83C20FCF77AFB242384F85A
:105280003D3023681A6822F001021A601A6842F45D
:1052900000421A601A6822F400421A6000F074FE9C
:1052A0003F4B65689D4294BF3E4B3F4B98428CBF3D
:1052B00000230123002BD6D12268394E53683B4985
:1052C000B0FBF1F123F03F030B43B542536088BFBD
:1052D0004FF49676136A88BF714323F03F0384BF6F
:1052E0004FF47A76B1FBF6F1013119431162D169BD
:1052F000431E2B4821F44F41854221F0FF0132D853
:105300006D0040F6FC70B3FBF5F30133034242D06D
:10531000C3F30B030B43D361D4E907301168034394
:1053200021F0C0010B4313609168D4E9030321F419
:105330000341034321F0FF010B439360D4E905309F
:10534000D168034321F0FF010B43D360136843F09E
:105350000103136000202023206484F83D30206383
:1053600084F83E0080E7A06850B905EB4505B3FB23
:10537000F5F30133C3F30B037BB143F40043C9E7F7
:1053800019204543B3FBF5F30133C3F30B0323B1FA
:1053900043F44043BEE70423BCE70123BAE700BF60
:1053A000A08601007F841E00FF083D0040420F00E0
:1053B0002DE9F743044699460C9E0F469046FFF7A9
:1053C00001FB94F83D30202B054603D0022003B0AA
:1053D000BDE8F08300903C49192301222046FFF7E5
:1053E0007DFD0028F2D194F83C30012BEED02068EE
:1053F000012384F83C300368D9075EBF036843F09B
:1054000001030360036823F400630360212384F82D
:105410003D30402384F83E30002323640A9B6362BE
:10542000BDF82C306385638D2385284BE362CDE97D
:1054300000654B46424639462046FFF737FE0028B6
:105440002AD00120C3E7FFF70BFE40B1236C042BE9
:1054500001BF2268136843F400731360F1E7636AC5
:1054600027681A4612F8011B39616262628D218D2C
:10547000013A92B262857A69481E80B2520720854D
:105480000AD548B15A783A6102336362638D013BB1
:1054900002399BB221856385238D2A4631462046F9
:1054A000002BD0D1FFF7B6FD0028CFD122681368BA
:1054B00043F400731360202384F83D3084F83C00EB
:1054C00084F83E0083E700BF020010000000FFFFE9
:1054D0002DE9F043044687B09946109F0D4690464B
:1054E000FFF770FA94F83D30202B064604D00225D1
:1054F000284607B0BDE8F0830090764919230122C1
:105500002046FFF7EBFC0028F1D194F83C30012B4A
:10551000EDD02068012384F83C300368DB075EBFD0
:10552000036843F001030360036823F4006303602E
:10553000222384F83D30402384F83E300023236446
:105540000E9B6362BDF83C306385638D2385624B9F
:10555000E3622946CDE900764B4642462046FFF7F6
:10556000FDFD054608B10125C2E7228D2368B2B9C9
:1055700002905A6902929A690292029A1A6842F457
:1055800000721A60DFF85481238D002B2CD1202269
:1055900084F83D2084F83C3084F83E30A8E7012AA6
:1055A0000AD11A6822F480621A6003905A69039241
:1055B0009A690392039AE1E7022A0ED11A6822F44B
:1055C00080621A601A6842F400621A6004905A6994
:1055D00004929B690493049BD4E705905A69059251
:1055E0009B690593059BCDE7032B56D8012B15D15D
:1055F000324639462046FFF7DEFC0028B3D1236847
:105600001A69636A1A70636A01336362238D013B0E
:105610002385638D013B9BB26385B5E7022B009622
:105620003B464FF000024146204619D1FFF756FC99
:10563000002898D123681A6842F400721A601A6927
:10564000636A1A70626A531C6362238D013B23856F
:10565000638D013B9BB2638523681B695370D2E75E
:10566000FFF73CFC00287FF47EAF23681A6822F421
:1056700080621A601A69636A1A70636A009601335D
:105680006362238D013B2385638D013B9BB2638560
:1056900002463B4641462046C8E732463946204648
:1056A000FFF789FC00287FF45EAF23681A69636AFC
:1056B0001A70626A531C6362238D013B2385638DDC
:1056C000013B9BB263852368596949077FF55CAF4D
:1056D000C3E700BF020010000000FFFF040001004C
:1056E00010B590F83D30202BDCB216D1242380F881
:1056F0003D3003681A6822F001021A605A6A22F0EB
:1057000010025A625A6A114359621A6842F0010241
:105710001A6080F83D40002010BD0220FCE730B543
:1057200090F83D30202BDCB216D10268242380F89B
:105730003D30136823F001031360556A4FF6F07390
:105740002B400B439BB25362136843F00103136079
:1057500080F83D40002030BD0220FCE70068D1F811
:1057600000C0D201843283182DE9F043C6685D6819
:105770004C68D1F8189005F470455D60C5680CF16F
:105780000107C5F30B45C6F30B463D44264445EAE5
:1057900006455D60C568CE68C5F30A052E449D6860
:1057A00005F470459D60C7688D68C7F30A07013529
:1057B0003D4445EA06459D601D690E6925F00705D3
:1057C0001D614FF0000E1E619D6991F8327091F8D5
:1057D0003180C3F818E091F8305045EA096545EA90
:1057E000082545EA07459D615D6925F0FF055D6176
:1057F0004D695D61DD6925F4E06525F00705DD6132
:10580000D1E907573D43DD619D6A4D6AC3F828E041
:105810009D621EB3012E23D0B51E022D22D9072E64
:105820000CBF02250125DE6A06F0E026DE62A4EB4D
:105830000C048E6AC96A6C436E43033444EA06441E
:10584000DC621C6B24F4FF6424F007041C631963FE
:10585000835843F001038350BDE8F0830425E2E759
:105860000325E0E70225DEE738B50446002863D0CB
:1058700090F8A13003F0FF021BB980F8A020FCF7DC
:10588000D3F8022384F8A13023689A6922F0704289
:105890009A61D4E901200243E068996902432069D2
:1058A00002430A439A619A68244960690A409A60EF
:1058B0009A6842EA0042A06902439A60DA68E069A5
:1058C0000A40DA60DA6842EA0042206A0243DA609B
:1058D0001A69606A0A401A611A6942EA0042A06ABB
:1058E00002431A615A69114059615A69E16A42EAF0
:1058F0000142216B0A435A61D96A94F8360094F840
:10590000355001F07F41D962D96A94F834200A43B6
:1059100042EA052242EA0042DA625A6B42F006028B
:105920005A639A6942F001029A6100200123C4F887
:10593000A40084F8A13038BD0120FCE700F800F095
:1059400070477047036870B59E6B5D6B72070446C5
:1059500014D5690712D55A6B22F004025A63042247
:10596000DA63D0F8A43043F00103C0F8A430002378
:1059700080F8A12080F8A030FFF7E2FFB20716D52B
:10598000AB0714D523685A6B22F002025A63022235
:10599000DA63D4F8A4301343C4F8A430042384F8A1
:1059A000A130002384F8A0302046FFF7C9FFF0079C
:1059B00010D5E9070ED523685A6B22F001025A630D
:1059C0000122DA63002384F8A12084F8A030204665
:1059D000FBF74AFC320711D52B070FD523685A6B0A
:1059E00022F008025A630822DA63012384F8A13006
:1059F000002384F8A0302046FFF7A3FF70BD2DE9F7
:105A0000F04190F8A030012B06460F4694464FF027
:105A100002001FD04FF0010886F8A08086F8A10090
:105A200034240D4604FB02640FCD38340FC40FCD6F
:105A30000FC40FCD0FC42B68236030466246394631
:105A4000FFF78CFE33680020C3F8248086F8A1801D
:105A500086F8A000BDE8F08190F8A030012B4FF04F
:105A6000020312D080F8A13003685A6B22F00102C1
:105A70005A63074A11645A6B42F001025A630123C8
:105A800080F8A130002380F8A0301846704700BF8E
:105A9000006801402DE9F341044640B30368DD0787
:105AA00010D4236898075ED423681A0700F1A080F9
:105AB00023685B0700F1C080A069002840F02881BE
:105AC00000202BE08F4B9A6802F00C02042A07D0CA
:105AD0009A6802F00C02082A0BD15A68510208D5C4
