:020000040800F2
:10000000000003202D100008092900080B29000812
:100010000D2900080F290008112900080000000020
:1000200000000000000000000000000091AD00088A
:10003000132900080000000021AE00082BA30008CF
:100040007D1000087D1000087D1000087D1000085C
:100050007D1000087D1000087D1000087D1000084C
:100060007D1000087D1000087D1000087D1000083C
:100070007D1000087D1000087D1000087D1000082C
:100080007D1000087D1000087D1000087D1000081C
:100090007D1000087D1000087D1000087D1000080C
:1000A0007D1000087D1000087D1000087D100008FC
:1000B0007D1000087D1000087D1000087D100008EC
:1000C0007D1000087D1000087D1000087D100008DC
:1000D0007D1000087D1000087D1000087D100008CC
:1000E0007D1000087D1000087D1000087D100008BC
:1000F0007D1000087D1000087D1000087D100008AC
:100100007D1000087D1000087D1000087D1000089B
:100110007D1000087D100008152900087D100008DA
:100120007D1000087D1000087D1000087D1000087B
:100130007D1000087D1000087D1000087D1000086B
:100140007D1000087D1000087D1000087D1000085B
:100150007D1000087D1000087D1000087D1000084B
:100160007D1000087D1000087D1000087D1000083B
:100170007D1000087D1000087D10000800000000C0
:100180007D1000087D1000087D1000087D1000081B
:100190007D1000087D1000087D1000087D1000080B
:0C01A000212900087D1000082D2900080E
:1001B00010B5054C237833B9044B13B10448AFF3A1
:1001C00000800123237010BDC40300200000000044
:1001D000A415040808B5034B1BB103490348AFF34A
:1001E000008008BD00000000C8030020A41504081A
:1001F00001F0FF01102A2BDB10F0070F08D010F8D8
:10020000013B013A8B422DD010F0070F42B3F6D1DB
:10021000F0B441EA012141EA014122F007047FF0F4
:1002200000070023F0E80256083C85EA010586EA4B
:10023000010685FA47F5A3FA87F586FA47F6A5FA87
:1002400087F68EB9EED1F0BC01F0FF0102F0070293
:1002500032B110F8013B013A83EA010313B1F8D13E
:100260000020704701387047002D06BF354603381F
:10027000073815F0010F07D1013015F4807F02BF58
:10028000013015F4C03F0130F0BC0138704700BFA9
:1002900010F8012B11F8013B012A28BF9A42F7D030
:1002A000D01A7047034613F8012B002AFBD1181A05
:1002B0000138704781F0004102E000BF83F0004345
:1002C00030B54FEA41044FEA430594EA050F08BFF1
:1002D00090EA020F1FBF54EA000C55EA020C7FEAB5
:1002E000645C7FEA655C00F0E2804FEA5454D4EB32
:1002F0005555B8BF6D420CDD2C4480EA020281EAFC
:10030000030382EA000083EA010180EA020281EA33
:100310000303362D88BF30BD11F0004F4FEA013185
:100320004FF4801C4CEA113102D0404261EB410194
:1003300013F0004F4FEA03334CEA133302D052421A
:1003400063EB430394EA050F00F0A780A4F10104D6
:10035000D5F1200E0DDB02FA0EFC22FA05F2801810
:1003600041F1000103FA0EF2801843FA05F35941F6
:100370000EE0A5F120050EF1200E012A03FA0EFC75
:1003800028BF4CF0020C43FA05F3C01851EBE3719F
:1003900001F0004507D54FF0000EDCF1000C7EEBBC
:1003A00000006EEB0101B1F5801F1BD3B1F5001FFA
:1003B0000CD349085FEA30004FEA3C0C04F1010419
:1003C0004FEA445212F5800F80F09A80BCF1004F42
:1003D00008BF5FEA500C50F1000041EB045141EAC4
:1003E000050130BD5FEA4C0C404141EB0101013C8D
:1003F00028BFB1F5801FE9D291F0000F04BF01467C
:100400000020B1FA81F308BF2033A3F10B03B3F14D
:1004100020020CDA0C3208DD02F1140CC2F10C02DD
:1004200001FA0CF021FA02F10CE002F11402D8BF3B
:10043000C2F1200C01FA02F120FA0CFCDCBF41EA07
:100440000C019040E41AA2BF01EB0451294330BDD6
:100450006FEA04041F3C1CDA0C340EDC04F11404B3
:10046000C4F1200220FA04F001FA02F340EA03008A
:1004700021FA04F345EA030130BDC4F10C04C4F1D0
:10048000200220FA02F001FA04F340EA03002946B0
:1004900030BD21FA04F0294630BD94F0000F83F4FA
:1004A000801306BF81F480110134013D4EE77FEADD
:1004B000645C18BF7FEA655C29D094EA050F08BF29
:1004C00090EA020F05D054EA000C04BF194610460A
:1004D00030BD91EA030F1EBF0021002030BD5FEA4E
:1004E000545C05D14000494128BF41F0004130BD76
:1004F00014F580043CBF01F5801130BD01F00045CA
:1005000045F0FE4141F470014FF0000030BD7FEA3C
:10051000645C1ABF194610467FEA655C1CBF0B4637
:10052000024650EA013406BF52EA033591EA030F4E
:1005300041F4002130BD00BF90F0000F04BF002146
:10054000704730B54FF4806404F132044FF0000579
:100550004FF0000150E700BF90F0000F04BF0021F2
:10056000704730B54FF4806404F1320410F0004558
:1005700048BF40424FF000013EE700BF42004FEA53
:10058000E2014FEA31014FEA02701FBF12F07F43D0
:1005900093F07F4F81F06051704732F07F4208BF87
:1005A000704793F07F4F04BF41F40021704730B58E
:1005B0004FF4607401F0004521F000411CE700BFDA
:1005C00050EA010208BF704730B54FF000050AE05D
:1005D00050EA010208BF704730B511F0004502D55E
:1005E000404261EB41014FF4806404F132045FEA60
:1005F000915C3FF4D8AE4FF003025FEADC0C18BF09
:1006000003325FEADC0C18BF033202EBDC02C2F1FA
:10061000200300FA03FC20FA02F001FA03FE40EA8C
:100620000E0021FA02F11444BDE600BF70B54FF090
:10063000FF0C4CF4E06C1CEA11541DBF1CEA13556E
:1006400094EA0C0F95EA0C0F00F0DEF82C4481EAD6
:10065000030621EA4C5123EA4C5350EA013518BFF6
:1006600052EA033541F4801143F4801338D0A0FBE3
:1006700002CE4FF00005E1FB02E506F00042E0FB90
:1006800003E54FF00006E1FB03569CF0000F18BF96
:100690004EF0010EA4F1FF04B6F5007F64F540743E
:1006A00004D25FEA4E0E6D4146EB060642EAC621D1
:1006B00041EA55514FEAC52040EA5E504FEACE2E3E
:1006C000B4F1FD0C88BFBCF5E06F1ED8BEF1004F41
:1006D00008BF5FEA500E50F1000041EB045170BDBD
:1006E00006F0004646EA010140EA020081EA030101
:1006F000B4EB5C04C2BFD4EB0C0541EA045170BDFD
:1007000041F480114FF0000E013C00F3AB8014F176
:10071000360FDEBF002001F0004170BDC4F10004BF
:10072000203C35DA0C341BDC04F11404C4F1200540
:1007300000FA05F320FA04F001FA05F240EA02009B
:1007400001F0004221F0004110EBD37021FA04F6D1
:1007500042EB06015EEA430E08BF20EAD37070BD8B
:10076000C4F10C04C4F1200500FA04F320FA05F0EA
:1007700001FA04F240EA020001F0004110EBD370EC
:1007800041F100015EEA430E08BF20EAD37070BD5C
:10079000C4F1200500FA05F24EEA020E20FA04F335
:1007A00001FA05F243EA020321FA04F001F00041E4
:1007B00021FA04F220EA020000EBD3705EEA430E55
:1007C00008BF20EAD37070BD94F0000F0FD101F084
:1007D0000046400041EB010111F4801F08BF013CBD
:1007E000F7D041EA060195F0000F18BF704703F0FB
:1007F0000046520043EB030313F4801F08BF013D82
:10080000F7D043EA0603704794EA0C0F0CEA13553D
:1008100018BF95EA0C0F0CD050EA410618BF52EAF7
:100820004306D1D181EA030101F000414FF00000FD
:1008300070BD50EA410606BF1046194652EA43060B
:1008400019D094EA0C0F02D150EA013613D195EA7F
:100850000C0F05D152EA03361CBF104619460AD1C7
:1008600081EA030101F0004141F0FE4141F47001D1
:100870004FF0000070BD41F0FE4141F4780170BDC1
:1008800070B54FF0FF0C4CF4E06C1CEA11541DBF26
:100890001CEA135594EA0C0F95EA0C0F00F0A7F828
:1008A000A4EB050481EA030E52EA03354FEA013155
:1008B00000F088804FEA03334FF0805545EA131368
:1008C00043EA12634FEA022245EA111545EA106530
:1008D0004FEA00260EF000419D4208BF964244F1C7
:1008E000FD0404F5407402D25B084FEA3202B61AE6
:1008F00065EB03055B084FEA32024FF480104FF4BA
:10090000002CB6EB020E75EB030E22BFB61A75462D
:1009100040EA0C005B084FEA3202B6EB020E75EBC0
:10092000030E22BFB61A754640EA5C005B084FEA28
:100930003202B6EB020E75EB030E22BFB61A7546F5
:1009400040EA9C005B084FEA3202B6EB020E75EB00
:10095000030E22BFB61A754640EADC0055EA060EC1
:1009600018D04FEA051545EA16754FEA06164FEA04
:10097000C30343EA52734FEAC2025FEA1C1CC0D1B0
:1009800011F4801F0BD141EA00014FF000004FF03D
:10099000004CB6E711F4801F04BF01430020B4F1FE
:1009A000FD0C88BFBCF5E06F3FF6AFAEB5EB030CB6
:1009B00004BFB6EB020C5FEA500C50F1000041EBB3
:1009C000045170BD0EF0004E4EEA113114EB5C0480
:1009D000C2BFD4EB0C0541EA045170BD41F4801153
:1009E0004FF0000E013C90E645EA060E8DE60CEA5B
:1009F000135594EA0C0F08BF95EA0C0F3FF43BAF78
:100A000094EA0C0F0AD150EA01347FF434AF95EA2E
:100A10000C0F7FF425AF104619462CE795EA0C0F12
:100A200006D152EA03353FF4FDAE1046194622E7DF
:100A300050EA410618BF52EA43067FF4C5AE50EAB9
:100A400041047FF40DAF52EA43057FF4EBAE12E7A9
:100A50004FF0FF3C06E000BF4FF0010C02E000BF8A
:100A60004FF0010C4DF804CD4FEA410C7FEA6C5C6D
:100A70004FEA430C18BF7FEA6C5C1BD001B050EA10
:100A8000410C0CBF52EA430C91EA030F02BF90EAFB
:100A9000020F0020704710F1000F91EA030F58BFBA
:100AA000994208BF90422CBFD8176FEAE37040F01C
:100AB000010070474FEA410C7FEA6C5C02D150EABA
:100AC000013C07D14FEA430C7FEA6C5CD6D152EA75
:100AD000033CD3D05DF8040B704700BF844610463A
:100AE00062468C461946634600E000BF01B5FFF739
:100AF000B7FF002848BF10F1000F01BD4DF808ED09
:100B0000FFF7F4FF0CBF012000205DF808FB00BFD9
:100B10004DF808EDFFF7EAFF34BF012000205DF833
:100B200008FB00BF4DF808EDFFF7E0FF94BF012080
:100B300000205DF808FB00BF4DF808EDFFF7CEFF81
:100B400094BF012000205DF808FB00BF4DF808EDC0
:100B5000FFF7C4FF34BF012000205DF808FB00BF91
:100B60004FEA410C7FEA6C5C02D150EA013C0AD1A9
:100B70004FEA430C7FEA6C5C02D152EA033C02D19B
:100B80004FF0000070474FF0010070474FEA4102FC
:100B900012F5001215D211D56FF47873B3EB6252CF
:100BA00012D94FEAC12343F0004343EA505311F0F6
:100BB000004F23FA02F018BF404270474FF0000088
:100BC000704750EA013005D111F0004008BF6FF0C6
:100BD000004070474FF00000704700BF4A0011D23C
:100BE00012F5001211D20DD56FF47873B3EB625287
:100BF0000ED44FEAC12343F0004343EA505323FA93
:100C000002F070474FF00000704750EA013002D107
:100C10004FF0FF3070474FF0000070474FEA41023D
:100C2000B2F1E04324BFB3F5001CDCF1FE5C0DD94A
:100C300001F0004C4FEAC0024CEA5070B2F1004F94
:100C400040EB830008BF20F00100704711F0804F97
:100C500021D113F13872BCBF01F00040704741F45C
:100C600080114FEA5252C2F11802C2F1200C10FA60
:100C70000CF320FA02F018BF40F001004FEAC12344
:100C80004FEAD32303FA0CFC40EA0C0023FA02F3E8
:100C90004FEA4303CCE77FEA625307D150EA0133BE
:100CA0001EBF4FF0FE4040F44000704701F000408E
:100CB00040F0FE4040F40000704700BF53B94AB90D
:100CC000002908BF00281CBF4FF0FF314FF0FF3054
:100CD00000F0AAB9ADF1080C6DE904CE00F03CF8C3
:100CE000DDF804E0DDE9022304B0704738B50022E6
:100CF000002304460D46FFF70BFF28B9204629467E
:100D0000BDE8384000F00AB8204605F1004100F087
:100D100005F8404261EB410138BD00BFD0B50C4B36
:100D2000002206460F46FFF781FCFFF757FF0446F7
:100D3000FFF702FC074B0022FFF778FC02460B4648
:100D400030463946FFF7BAFAFFF748FF2146D0BDD3
:100D50000000F03D0000F0412DE9F047089D0446F9
:100D60008E46002B4DD18A42944669D9B2FA82F25E
:100D700052B101FA02F3C2F1200120FA01F10CFA9A
:100D800002FC41EA030E94404FEA1C48210CBEFBD2
:100D9000F8F61FFA8CF708FB16E341EA034306FB5B
:100DA00007F199420AD91CEB030306F1FF3080F0EA
:100DB0001F81994240F21C81023E63445B1AA4B237
:100DC000B3FBF8F008FB103344EA034400FB07F7D9
:100DD000A7420AD91CEB040400F1FF3380F00A811A
:100DE000A74240F207816444023840EA0640E41B0F
:100DF00000261DB1D4400023C5E900433146BDE8BB
:100E0000F0878B4209D9002D00F0EF800026C5E95C
:100E1000000130463146BDE8F087B3FA83F6002E74
:100E20004AD18B4202D3824200F2F980841A61EBEC
:100E3000030301209E46002DE0D0C5E9004EDDE70A
:100E400002B9FFDEB2FA82F2002A40F09280A1EBF2
:100E50000C014FEA1C471FFA8CFE0126200CB1FB47
:100E6000F7F307FB131140EA01410EFB03F0884240
:100E700008D91CEB010103F1FF3802D2884200F2CD
:100E8000CB804346091AA4B2B1FBF7F007FB10115F
:100E900044EA01440EFB00FEA64508D91CEB0404FD
:100EA00000F1FF3102D2A64500F2BB800846A4EB58
:100EB0000E0440EA03409CE7C6F12007B34022FA43
:100EC00007FC4CEA030C20FA07F401FA06F31C4372
:100ED000F9404FEA1C4900FA06F3B1FBF9F8200C7F
:100EE0001FFA8CFE09FB181140EA014108FB0EF0C5
:100EF000884202FA06F20BD91CEB010108F1FF3A15
:100F000080F08880884240F28580A8F10208614420
:100F1000091AA4B2B1FBF9F009FB101144EA01412E
:100F200000FB0EFE8E4508D91CEB010100F1FF34D9
:100F30006CD28E456AD90238614440EA0840A0FB71
:100F40000294A1EB0E01A142C846A64656D353D047
:100F50005DB1B3EB080261EB0E0101FA07F722FA6B
:100F600006F3F1401F43C5E9007100263146BDE894
:100F7000F087C2F12003D8400CFA02FC21FA03F3F7
:100F8000914001434FEA1C471FFA8CFEB3FBF7F078
:100F900007FB10360B0C43EA064300FB0EF69E429D
:100FA00004FA02F408D91CEB030300F1FF382FD236
:100FB0009E422DD9023863449B1B89B2B3FBF7F6DE
:100FC00007FB163341EA034106FB0EF38B4208D9B7
:100FD0001CEB010106F1FF3816D28B4214D9023EF8
:100FE0006144C91A46EA004638E72E46284605E716
:100FF0000646E3E61846F8E64B45A9D2B9EB0208E7
:1010000064EB0C0E0138A3E74646EAE7204694E776
:101010004046D1E7D0467BE7023B614432E73046A9
:1010200009E76444023842E7704700BFDFF834D074
:10103000002103E00C4B5B58435004310B480C4B30
:1010400042189A42F6D30B4A02E0002342F8043BCE
:10105000094B9A42F9D306F037FF38F065FB00F0F0
:10106000F3FE704700000320DC821408000000201B
:10107000C4030020C4030020A8440120FEE77047F9
:1010800008B500F01DFDBDE8084000F0A9BC00F067
:1010900019BD704710B5042104461EF0E3FC20463C
:1010A00010BD000038B50C4B0C4C18800C4B822046
:1010B00019806368984740F6110398420AD1094D98
:1010C00023682C60822098472B688220DB68984731
:1010D000002038BD0120FCE7E00300205000002084
:1010E000E2030020E40300204FF4A071F020FFF79A
:1010F000D9BF0000F7B52D4D2B6804461B6982202F
:10110000984780B22080002843D02B680DF106025A
:101110005B6901A982209847BDF80620A2F5B47248
:1011200092B20A2A37D90B23B2FBF3F2204B1B8869
:101130009A4201D9013B9AB2BDF8043040F6B83169
:101140008B422AD8C3F571630E339BB20F21B3FBD8
:10115000F1F3184909888B4201D94B1E9BB2164EF8
:10116000164D30682F68834281B28CBF591AC91A54
:10117000B8B2BA428CBF101A801A89B280B2014448
:101180000529C8BF33603368C8BF2A6063802B68F5
:10119000A38003B0F0BD0022CEE7C3F56D63083332
:1011A0009BB20E2BD2D80023D9E700BFE403002066
:1011B000E2030020E0030020E8030020EC0300200D
:1011C00037B568460D461446FFF794FFBDF800009A
:1011D00030B1BDF802302B60BDF80430236001202F
:1011E00003B030BD032821D8DFE800F0020B12194C
:1011F0000F4B1A68B2FA82F2520904210D4807F027
:10120000FBB80B4B5A68B2FA82F252090821F5E793
:10121000074B9A68B2FA82F252091021EEE7044BAA
:10122000DA68B2FA82F252092021E7E7704700BF7C
:10123000F003002000100240032821D8DFE800F06E
:10124000020B12190F4B1A68003A18BF0122042131
:101250000D4807F0D1B80B4B5A68003A18BF01226D
:101260000821F5E7074B9A68003A18BF01221021C0
:10127000EEE7044BDA68003A18BF01222021E7E7C5
:10128000704700BFF00300200010024003280DD873
:10129000DFE800F00206080A0421054807F0B1B8AB
:1012A0000821FAE71021F8E72021F6E7704700BF90
:1012B0000010024008B5032811D8DFE800F0020A48
:1012C0000C0E0421074807F091F8431E584258417C
:1012D00008BD0821F6E71021F4E72021F2E70020FD
:1012E000F3E700BF0010024070B5084D002401264E
:1012F000E0B2FFF7DFFF18B12B68012B18BF2E609B
:101300000134052C05F10405F2D170BDF003002075
:10131000012380F8741080F8753070470020704702
:10132000034B4164003918BF01211970704700BF99
:101330009F2B012000207047836B0BB10846184794
:1013400070474FF6FF707047406803689B69184705
:10135000704770477047000070B5044600F080FC8D
:101360002368D3F88850044BD4E90F122046AC46CA
:10137000BDE87040604700BF000000D008B50368BA
:101380000446D3F880309847236820469B6F9847DF
:1013900000F0ECF8236820461B6F9847292000F0E6
:1013A000D3FF00F0E3F8236820461B6F9847F8E767
:1013B00010B504460CF056FC23682046D3F8AC3038
:1013C000BDE81040184700F03DBC00F041BC00F003
:1013D0006DBC00F013BC00F075BC00F07DBC00F0EB
:1013E00017BC0BF0A5BE10B57C2104461EF03AFBDD
:1013F000204610BD90F877301BB1406803681B6829
:10140000184718467047000010B590F8341090F84F
:1014100074400C4B8C421A7809D03AB90A4A0B49ED
:101420001488088810800C8001221A7010BD002AD0
:10143000FCD0054A05491488088810800C800022D9
:10144000F3E700BF982B0120942B0120962B01205D
:1014500070B50D46194635B9094B0A4A0A4840F29B
:10146000D22137F077FCC0E90F52084B003A18BF81
:1014700001221A700368BDE87040D3F88C30184719
:10148000241604085C160408AA1604089E2B0120E2
:1014900008B5094B1B888B4203D8084B1B88934225
:1014A00005D9074B074A08489E2137F053FC074BE4
:1014B0001980074B1A8008BD942B0120962B012020
:1014C000EF16040852170408AA1604089A2B0120E4
:1014D0009C2B0120012108B50022084609F06AF87A
:1014E0000A4B186028B90A4B0A4A28210A4837F0E3
:1014F00031FC00220421012009F0F9F8074B1860A3
:1015000018B9074B034A2C21F0E708BD040400205A
:1015100070180408B9180408E8180408000400202A
:101520002F190408024B4FF0FF31186809F08CB8EE
:1015300004040020014B186809F0B1B8040400202D
:10154000024B0021186809F07FB800BF0404002096
:10155000FFF7F0BF03480449006800231A4609F06A
:1015600001B900BF000400200400002013B5084C9E
:1015700000231A4601A9206809F024F920684FF0D9
:10158000FF33002201A909F01DF902B010BD00BF10
:101590000004002003685B6C184701207047036853
:1015A0009B6A184782B0002301930D4B1A6B42F4DB
:1015B00000021A631A6B02F400020192019A1A697E
:1015C00042F400021A611A6922F400021A61054B02
:1015D000054A1A61054B4FF080629A6002B070476D
:1015E00000380240901A00203116000800E100E0A7
:1015F00040F2EF3070470000054B0360054B4FF0A1
:101600008062C3F88820BFF34F8FBFF36F8F70479E
:10161000C81A040800E100E010B504464FF45A610E
:10162000FFF7EAFF20461EF01DFA204610BD00001D
:10163000024B1B68586803685B691847A02B0120A0
:1016400070B5044625460A4B0C30002660602672B1
:10165000667245F8203B602229460CF041FC04F5F7
:101660005A63EE602435AB42FBD1204670BD00BF0B
:10167000C81A040808B50B290BD8DFE801F01206D8
:10168000100A0A0A0A0808080808012008BD0520EF
:10169000FCE7054B054A0648662137F05BFB002056
:1016A000F4E70220F2E700BF711904088C1904085E
:1016B000D619040808B50A2909D8DFE801F0100690
:1016C0000E080808080606060600012008BD054B9E
:1016D000054A0648872137F03DFB0020F6E7022047
:1016E000F4E700BF711904081B1A0408D61904088E
:1016F0002DE9F8434F7F0C4639468146FFF7BAFF84
:1017000094F81E80054641464846FFF7B3FF414620
:1017100006464846FFF7CEFFA18A628B424B521A1B
:101720001A649A61228B521A1A61E28A586342EA59
:1017300001425A6420696268D863DA60216894F8CB
:101740001CC080294FEA0C6226D010D8202945EA17
:10175000020461D040295FD004295DD0324B2A4376
:1017600042F400324745DA615AD0304A40E0B1F5E0
:10177000807F07D0B1F5007FF0D142F4003242F013
:10178000090203E042F4003242F00A02DA61E26840
:101790001A625E6258612AE0A4682A4342F4003269
:1017A000211DD962DA6122785E62586142B1012A54
:1017B00021D01F4B1F4A204840F2111137F0CAFABE
:1017C000DA69618822F47F42013922F0100242EA8C
:1017D0000122DA610120144BDA6942F02002DA6159
:1017E000DA699206FCD410229A600028BDD0134A10
:1017F0001A60BDE8F8836288D969541E21F47F42DB
:1018000022F0100242EA0422BCF1FF0042F0100272
:1018100018BF0120DA61DEE744F40034DC61B8E788
:1018200040F20122E4E700BF00B0024001020100E3
:10183000661A0408801A0408D61904080102020076
:1018400070B50C46897FFFF735FFA68AE18A628B67
:10185000154B2569586341EA0641921B5964DD63C3
:101860001A642668E168082E0DD19A611A615862DF
:10187000207F0E4A42EA0062DA610D4A19625D6118
:10188000DD601A6070BD0022D8611A6148090A0A39
:1018900002F4784200F4FC600243C1F3C4010A433D
:1018A0009A63044AEDE700BF00B00240090001005E
:1018B0000102020001020300012070470C20704762
:1018C0000C2303FB0100083070470C2303FB0100CD
:1018D00008307047012070474FF4C26070474FF4E2
:1018E000C26303FB0100083070474FF4C26303FB7F
:1018F000010008307047012070471020704700EB4E
:1019000001100830704700EB01100830704708469E
:1019100001F04CB910B5034B036004460BF05FF9BE
:10192000204610BD801B040810B50446FFF7F2FFE7
:10193000204614211EF096F8204610BD10B5034B2A
:10194000036004460BF04BF9204610BD4C1B040805
:1019500010B50446FFF7F2FF20464FF4C3611EF0B6
:1019600081F8204610BD000010B5034B036004460B
:101970000BF035F9204610BD181B040810B50446BD
:10198000FFF7F2FF204618211EF06CF8204610BD2C
:1019900010B5084B0360044600F24460FFF7BAFF3D
:1019A00004F12C00FFF7CAFF04F11400FFF7DCFF7D
:1019B000204610BDB41B040808B50248FFF7E8FF35
:1019C00008BD00BF0C04002010B50446FFF7E0FF7F
:1019D000204640F2BC711EF045F8204610BD0000C4
:1019E0002DE9F34101F018F8054601F019F800243B
:1019F0000146234628462246009412F027FA254B3A
:101A0000254A264D1A60204604F0D8FE244812F0DC
:101A100085F92B78BFF35B8FDB0735D428461EF0A2
:101A200023F888B31F4C204B236004F5CC6604F1E7
:101A3000140004F12C0804F244676060C4F80880C4
:101A4000E76026610BF0CCF8184B636140460BF061
:101A5000C7F8174BE36238460BF0C2F8154BC4F8D1
:101A6000443604F5CB6005F00BFC224604F5CB614F
:101A7000304605F0B9FB304601F098F80E4837F0D3
:101A800087F928461DF0FCFF0C4802B0BDE8F04184
:101A9000FFF762BCFC2B0120E8190020080400209D
:101AA000080000200C040020B41B0408181B0408C4
:101AB0004C1B0408801B0408B91900086C1900208D
:101AC000704700000148FFF759BC00BF6C190020A7
:101AD00070B5234C234E244B244D23603046FFF732
:101AE000AFFD284615F0BCFA214B2248DC60224CA1
:101AF00003600022F0204FF480712080C3E91212AD
:101B00001E4C1F492080C3E919121E4C1A864FF043
:101B100080714FF4A07059670121C3E90422C3E921
:101B20000622C3E90822C3E90A22C3E90E22C3E957
:101B30001022C3E91422C3E916221A6683F86C2026
:101B40001A67C3E9016583F8781020800E4C83F88A
:101B5000341020800D4802700D4A1A6070BD00BF1D
:101B6000C80B0020CC0B002014160408EC19002030
:101B70006C190020A02B0120942B01209A2B01200E
:101B800001000001962B01209C2B0120982B0120A5
:101B9000A01704080148FFF72FBD00BFCC0B0020A1
:101BA0000020704781807047C18070470181704775
:101BB000418170477047704770477047704710B455
:101BC000C4880368121B84885B6D091B12B25DF820
:101BD000044B09B218474FF6FF7383814FF0FF3370
:101BE00003621368C3611060704790F825201AB132
:101BF00090F8242002B1186070470000034B902237
:101C000083F85A2383F85823704700BF00E100E0AF
:101C1000094A0A49D3680A48C3F30A03013B9BB245
:101C20000B801169C1F30A01013901801364536B00
:101C300043F001035363704700680140681A0020B5
:101C4000661A0020014BD3F8AC00704700680140D1
:101C5000024B0122C3F8AC105A6270470068014081
:101C600070B504460BF0B9FA23685D6E0EF0D0FE35
:101C700001462046A8472368054AD3F888502046E5
:101C8000AC460023BDE87040A2F51631604700BFA6
:101C900000B004D00BF088BA90F84B3013B1024B6F
:101CA00001221A700BF08CBA641A00200BF046BAAD
:101CB0000BF0A1BB90F8252012B103685B691847AF
:101CC00070470000034B4FF080629A604FF08072C3
:101CD0009A60704700E100E0084B4FF08062C3F863
:101CE0008820BFF34F8FBFF36F8F4FF08072C3F820
:101CF0008820BFF34F8FBFF36F8F704700E100E084
:101D000010B5144C236823B3134B144A1B6C118871
:101D10008B4213D1124B198807F054F9226892F8BC
:101D20006630013382F86630FFF714FC20680BF050
:101D300099FFBDE810400020FFF754BA07F042F9C0
:101D4000206803681B6A9847BDE810400020FFF731
:101D500073BA10BDA02B012000680140681A002052
:101D6000661A0020704700207047000007B5064B38
:101D7000ADF806001B68054801220DF1060107F0C9
:101D80006DFE03B05DF804FB10000020001C002075
:101D900008B5012008F04BFBFBE708B50AF0FAFE96
:101DA000FCE708B50AF0F0FEFCE70AF0D5BE00003B
:101DB00030B595B0102200210AA837F08BFE14220E
:101DC000002103A837F086FE00241D4B01941A6CF5
:101DD00042F080521A641B6C03F080530193019B04
:101DE000184B02941A6842F440421A601B6803F4CC
:101DF000404302930122029B4FF48033CDE9082334
:101E000002254FF48003CDE90E5308214FF4A87347
:101E1000CDE9101308A804231393129507F0F0F8E6
:101E20000F23CDE903354FF4A0504FF48053CDE993
:101E30000603052103A8059407F0C0FA15B030BDCC
:101E4000003802400070004080B59AB006F04AF8B1
:101E5000FFF7AEFF142200210DA8002437F03AFE50
:101E6000C64B00941A6BC648C64D42F010021A6366
:101E70001A6B02F010020092009A01941A6B42F061
:101E800020021A631A6B02F020020192019A029456
:101E90001A6B42F080021A631A6B02F080020292FF
:101EA000029A03941A6B42F004021A631A6B02F04E
:101EB00004020392039A04941A6B42F001021A631B
:101EC0001A6B02F001020492049A05941A6B42F014
:101ED00002021A631A6B02F002020592059A069436
:101EE0001A6B42F040021A631A6B02F0400206922B
:101EF000069A07941A6B42F008021A631B6B03F0F0
:101F00000803079322463C21079B06F075FA9E487A
:101F10002246042106F070FA9C4822464FF44051B4
:101F200006F06AFA22469A484FF4C04106F064FA75
:101F300001264FF003083C239148CDF840800DA9BD
:101F400002274FF00409CDE90D360F9406F068F929
:101F50008D480F940DA9CDE90D96109706F060F904
:101F60004FF4405389480DA9CDE90D36CDE90F470F
:101F700006F056F90DA94FF4C0438548CDE90D365A
:101F8000CDE90F4406F04CF98248834B036006F01C
:101F90003BF8824A824B2C62C5E9002328464FF465
:101FA0008043C5E90434C5E90244C5E9064406F0A6
:101FB0000DFC1021284606F049FE2146284606F071
:101FC00064FE7848784984624FF48273C0E9001354
:101FD0004FF400751823C0E906530A23734DC362FA
:101FE000C0E90244C0E90444C0E9084407F0DAFC4F
:101FF0006F4B0D974FF0100CC5E900364023C5E933
:1020000004C34FF4C073C5E906344FF40063C5E957
:1020100008344FF40053AB620DA907232846CDE9DD
:102020000E39CDE910384FF0080AC5E90249CDE96B
:10203000127707F0B7FB4FF6FF7209A92846CDE9E2
:102040000AA6089409960C9407F0CCFB304605F0DC
:1020500075FF4FF6FF7209A92846CDE9097ACDE947
:102060000B6407F0BFFB4FF6FF7209A92846CDE9C4
:10207000098ACDE90B9407F0B5FB4FF40C73089374
:10208000089B0C934FF6FF7209A92846CDE9099ADF
:102090000B9607F0A7FB40F26A51284607F0C0FBF9
:1020A000342221460DEB020037F014FD414D424B26
:1020B000AC86C5E900340923C5E905361D2340F285
:1020C0000D1EC5E9073840F24313C5E909E3284668
:1020D00040F2471340F21718C5E90B83C5E90244E3
:1020E0002C6185F8364006F075FEFF21F022CDE91F
:1020F00012144FF4806905214FF4A073CDE90E242A
:10210000CDE91491CDE916420DA922462846CDE924
:1021100010372A4D18930D94ADF864408DF8664041
:1021200006F023FF264B2B601B6898472B68254D34
:10213000DB689847244BC5E90A47C5E90C442846A3
:10214000C5E90034C5E9027405F06EFF3146284642
:1021500006F022F8FEF794FFFEF791FF08F0F2F880
:1021600022461A4B1A48314608F06EF9194B4FF4C3
:102170007A71186008F0A4F92EE000BF0038024020
:1021800000100240D01A002000080240000C02405B
:1021900000180240881A002000300240005C004015
:1021A000A0860100001C002000500140CC1B002034
:1021B000400100A0241B002000680140781A002084
:1021C00018000020901A002000B002402C1C0408C7
:1021D000AB1D0008701A0020114A1248214608F071
:1021E000DDF8114B114A18602146114808F0D6F865
:1021F000104B114A18602146104808F0CFF8104BD8
:10220000104A18602146104808F0C8F80F4B1860B3
:102210000F4808F06CF90F4B186008F0A5F8FEE7BE
:10222000941C0408911D0008841A00203C1C04081A
:102230008F100008741A0020081C04089B1D000859
:102240006C1A0020701C0408A31D0008801A0020CE
:10225000601C04087C1A0020704770477FB5094B4A
:102260008DF817201B6802930DF1170201230092CD
:1022700001930A460146044806F050FB07B05DF89A
:1022800004FB00BF0C000020D01A00207FB5002303
:102290008DF81730084B1B6802930A4601230DF195
:1022A0001701009101930146044806F0C7FB9DF811
:1022B000170007B05DF804FB0C000020D01A0020C6
:1022C0001FB5084C24680092CDE901340A46012369
:1022D0000146054806F0B2FB003818BF012004B0E3
:1022E00010BD00BF0C000020D01A002005F026BE53
:1022F00008B506480022042106F07EF8BDE8084033
:1023000002480122042106F077B800BF000802400D
:1023100038B50B4D044601220A484FF4005106F02F
:102320006BF800220421284606F066F82046FFF7E5
:102330001DFD28460122BDE83840042106F05CB8A6
:1023400000080240000C024038B50B4D0446002244
:102350000A484FF4005106F04FF8002204212846A5
:1023600006F04AF82046FFF701FD28460122BDE8A5
:102370003840042106F040B800080240000C02403A
:10238000F7B5144E144F05460C4630460022042182
:1023900006F032F800224FF40051384606F02CF8CF
:1023A0002846FFF7E3FC0D4B0D481B68224601A9A8
:1023B00007F0F6FC384601224FF40051019C06F06C
:1023C0001BF830460122042106F016F8204603B01F
:1023D000F0BD00BF00080240000C024010000020C9
:1023E000001C002005F0AABD0268034B9A4201D1EF
:1023F00005F092BD704700BF00100040704700001C
:1024000082B00E4B00220092596C41F48041596415
:10241000596C01F48041009100990192196C41F0CE
:10242000805119641B6C03F080530193019B0F21B1
:102430006FF0010002B005F0A7BD00BF00380240F8
:102440000268094B9A4282B00BD100230193074BDB
:102450001A6B42F480521A631B6B03F4805301938E
:10246000019B02B0704700BF0030024000380240BC
:1024700007B50F4B02689A4216D10022A3F5F0432C
:102480000192196B41F4000119631B6B03F4000303
:10249000019305215A20019B05F076FD5A2003B0D7
:1024A0005DF804EB05F0A2BD03B05DF804FB00BFCE
:1024B00000B002402DE9F043044689B01422002107
:1024C00003A837F007FB2268244B9A4243D1244CDF
:1024D000244800250095236B43F004032363236BFA
:1024E00003F004030093009B0195236B43F0010369
:1024F0002363236B03F001030193019B4FF0120947
:102500004FF400734FF001080327042603A9CDE917
:102510000339CDE90587079605F082FE4FF48073F5
:102520001148079603A9CDE90339CDE9058705F0E0
:1025300077FE0295236C43F400032364236C03F4B9
:1025400000030293029B236A43F400032362236A7D
:1025500023F40003236209B0BDE8F083005C00406F
:10256000003802400008024000000240F0B599B077
:1025700004461422002107A837F0ACFA30220DEBF4
:102580000200002137F0A6FA22685E4B9A4240F022
:10259000B78008230C93C0231093042312930CA834
:1025A0004FF40033159306F0D3FF08B1FFF726FF71
:1025B000554B5648002400945A6C42F080625A648D
:1025C0005A6C02F080620092009A01941A6B42F0F9
:1025D00020021A631A6B02F020020192019A0294FF
:1025E0001A6B42F001021A631A6B02F001020292A6
:1025F000029A03941A6B42F002021A631A6B02F0F9
:1026000002020392039A04941A6B42F040021A6386
:102610001A6B02F040020492049A05941A6B42F07D
:1026200004021A631A6B02F004020592059A0694DA
:102630001A6B42F008021A631B6B03F0080306933F
:1026400002250E26069B0B964FF4806307A9CDE961
:102650000735CDE9094505F0E3FD41F658032C485F
:102660000B9607A9CDE907350927CDE9094505F0FE
:10267000D7FD032327480B9707A9CDE90735CDE9F7
:10268000094505F0CDFD4FF4706322480B9607A96C
:10269000CDE90735CDE9094505F0C2FD4FF40C63DE
:1026A0001D480B9607A9CDE90735CDE9094505F089
:1026B000B7FDC02319480B9607A9CDE90735CDE929
:1026C000094505F0ADFD082315480B9607A9CDE98E
:1026D0000735CDE9094505F0A3FD4FF4A0530E4899
:1026E0000B9707A9CDE90735CDE9094505F098FD18
:1026F00058202246052105F047FC582005F076FCBD
:1027000019B0F0BD006801400038024000140240DA
:10271000000002400004024000180240000802408D
:10272000000C024010B5044688B01422002103A812
:1027300037F0D0F92268144B9A4223D103F568434D
:10274000002101915A6C114842F480125A645A6C6B
:1027500002F480120192019A02911A6B42F0200257
:102760001A631B6B03F020030293029B4FF4607209
:1027700002230321CDE903230523CDE9061303A991
:1027800005F04EFD08B010BD00500140001402409D
:102790002DE9F04186B0002303932B4B1C68002CDD
:1027A0004FD14FF00108C3F80080284B00949A6B7A
:1027B000274842EA08029A639B6B03EA08030093E6
:1027C000022703260C25009B01A94FF63F03CDE904
:1027D0000137CDE9046505F023FD1E48059501A9E3
:1027E000CDE90187CDE9034605F01AFD48F2331320
:1027F0001948059501A9CDE90137CDE9034605F052
:102800000FFD4FF683731548059501A9CDE90137F2
:10281000CDE9034605F004FD4CF20373104805951D
:1028200001A9CDE90137CDE9034605F0F9FC6023A4
:102830000C48059501A9CDE90137CDE9034605F01E
:10284000EFFC06B0BDE8F081581C002000380240C3
:10285000001402400008024000180240001002402C
:10286000000C02400004024070B588B000230293BF
:10287000204B1A6C42F010021A641B6C03F0100318
:102880000293054601A903A8029B06F043FE069B9E
:102890004BBB06F02FFE184E184B336040F2E73367
:1028A000F360174BB0FBF3F3013B7360304600233A
:1028B0003361B360B36107F05FFC044680B9304612
:1028C00007F014FB044658B9362005F08FFB0F2D96
:1028D0000DD822462946362005F056FB094B1D60CF
:1028E000204608B070BD06F005FE4000D3E7012485
:1028F000F6E700BF003802405C1C002000100040DA
:1029000040420F00800000207047FEE7FEE7FEE730
:10291000FEE77047014807F027BB00BF5C1C0020A2
:10292000014806F0C5BA00BF241B0020014805F08D
:10293000A9BB00BF901A00200120704708B536F0EF
:1029400085FA162303604FF0FF3008BD08B536F056
:102950007DFA16230360FEE770B50D4614460E4659
:10296000731B9C4201DC204670BDAFF3008006F86B
:10297000010BF5E770B50D4614460E46731B9C42DD
:1029800001DC204670BD16F8010BAFF30080F5E7BF
:102990004FF0FF3070474FF400534B6000207047FA
:1029A00001207047002070470A4A116808B50346A5
:1029B00009B9094911601068694603448B4206D978
:1029C00036F044FA0C2303604FF0FF3008BD13606B
:1029D000FCE700BFA81C0020A8440120704710B5E8
:1029E000042104461DF03EF8204610BD08B5032919
:1029F0000FD8DFE801F0020A060A03F02BFF006897
:102A000008BD03F027FF8068FAE703F023FF406862
:102A1000F6E70020F4E7000000487047CC1C0408EB
:102A20003620704713B5002451B1036801948DF826
:102A3000034001AA9C680DF10303A04702B010BD3A
:102A40000846FBE7C0897047008A7047C088704716
:102A500080887047807A00F07F007047807AC009D4
:102A60007047704710B5082104461CF0FBFF204654
:102A700010BD7047704700F598730868496803C334
:102A8000704770477047416070477047064BC0F809
:102A90004C310023C0F8503100F5A273C0F8480152
:102AA000C0F84031704700BF75340008012303723D
:102AB00070477047704710B4C268416854100346AD
:102AC00001EB6200D20748BF0A599B685DF8044BCE
:102AD00048BFD358184743682BB183682BB9C068E7
:102AE00000F001007047184670470120704710B58C
:102AF0000C2104461CF0B6FF204610BD10B5102175
:102B000004461CF0AFFF204610BD10B54FF4AE7167
:102B100004461CF0A7FF204610BD08B50DF078FF55
:102B2000BDE808400EF006BC10B50446D0F84001E0
:102B300058B10368DB68984738B1D4F8400103689E
:102B40009B6898470023C4F8403110BDF8B504468F
:102B500017460E460EF068F8104B0025C4E955766E
:102B60000F4E1C60C4E953550E4B306823600E4B6A
:102B7000C4E95135036801219B68C4E94F55984762
:102B8000284603F01BFE336893F876200AB1D86C10
:102B900000B9986816F04BF82046F8BDEC2B0120E0
:102BA000A02B01208C2A0408742A0408064BC0F8C4
:102BB0004C310023C0F8503100F5A273C0F8480131
:102BC000C0F84031704700BF75340008064BC0F8AC
:102BD0004C310023C0F8503100F5A273C0F8480111
:102BE000C0F84031704700BF25330008064BC0F8DD
:102BF0004C310023C0F8503100F5A273C0F84801F1
:102C0000C0F84031704700BFD5310008064BC0F80E
:102C10004C310023C0F8503100F5A273C0F84801D0
:102C2000C0F84031704700BF85300008064BC0F83F
:102C30004C310023C0F8503100F5A273C0F84801B0
:102C4000C0F84031704700BF352F0008064BC0F870
:102C50004C310023C0F8503100F5A273C0F8480190
:102C6000C0F84031704700BFE52D0008064BC0F8A2
:102C70004C310023C0F8503100F5A273C0F8480170
:102C8000C0F84031704700BF952C000803685B6AAC
:102C9000184700002DE9F14FD0E9555A0746A868BA
:102CA00003681B6A984740F20B63984205D8454B6E
:102CB000454AA321454836F04DF8686803681B6A09
:102CC00098470F2803D8424B3F4AA421F2E7E8680F
:102CD00003681B6A98470B2803D83E4B3A4AA52144
:102CE000E8E70DF095FEDFF8F49004300DF0CEFE2D
:102CF000D9F8000010B10368DB689847D9F80000E4
:102D000010B103681B689847DFF8D480D8F800003A
:102D100010B103685B699847D7F83C0110B10368AC
:102D20005B689847D8F8000010B103681B689847A3
:102D3000D7F83C0110B103689B689847E868002108
:102D4000FFF7A4FF4FF0000B234B03600446C0F8CD
:102D500004B080F808B0A868036859465B6A9847D1
:102D6000064604F0D3FC6868036859465B6A9847D6
:102D70003146054604F0A4FCC9F80040C7F83C51B0
:102D8000C8F80060E5B12B1DCAF800303368C5F8FB
:102D900008A03046DB68F56398472B6828461B6817
:102DA0009847214630460FF015FB236820461B69E3
:102DB000984723685B69204601B0BDE8F04F18478B
:102DC0002B46E1E714210408A2210408AA220408E2
:102DD000F122040894230408D82A0408E02B0120D7
:102DE000DC2B01202DE9F14FD0E9555A0746A868A0
:102DF00003681B6A984740F20B63984205D8454B1D
:102E0000454AA321454835F0A5FF686803681B6A59
:102E100098470F2803D8424B3F4AA421F2E7E868BD
:102E200003681B6A98470B2803D83E4B3A4AA521F2
:102E3000E8E70DF0EDFDDFF8F49004300DF026FE2C
:102E4000D9F8000010B10368DB689847D9F8000092
:102E500010B103681B689847DFF8D480D8F80000E9
:102E600010B103685B699847D7F83C0110B103685B
:102E70005B689847D8F8000010B103681B68984752
:102E8000D7F83C0110B103689B689847E8680021B7
:102E9000FFF7FCFE4FF0000B234B03600446C0F825
:102EA00004B080F808B0A868036859465B6A984780
:102EB000064604F05DFB6868036859465B6A9847FC
:102EC0003146054604F020FBC9F80040C7F83C51E4
:102ED000C8F80060E5B12B1DCAF800303368C5F8AA
:102EE00008A03046DB68F56398472B6828461B68C6
:102EF0009847214630460FF06DFA236820461B693B
:102F0000984723685B69204601B0BDE8F04F184739
:102F10002B46E1E71421040837240408AA220408F8
:102F2000F122040894230408D82A0408E02B012085
:102F3000DC2B01202DE9F14FD0E9555A0746A8684E
:102F400003681B6A9847B0F5976F05D2454B464A10
:102F5000A321464835F0FEFE686803681B6A98475F
:102F60000F2803D8424B404AA421F2E7E8680368DF
:102F70001B6A98470B2803D83E4B3B4AA521E8E73C
:102F80000DF046FDDFF8F49004300DF07FFDD9F828
:102F9000000010B10368DB689847D9F8000010B151
:102FA00003681B689847DFF8D880D8F8000010B194
:102FB00003685B699847D7F83C0110B103685B6808
:102FC0009847D8F8000010B103681B689847D7F8F5
:102FD0003C0110B103689B689847E8680021FFF73F
:102FE00055FE4FF0000B244B03600446C0F804B0BC
:102FF00080F808B0A868036859465B6A9847064697
:1030000004F022FA6868036859465B6A98473146BB
:10301000054604F0DFF9C9F80040C7F83C51C8F88C
:103020000060E5B12B1DCAF800303368C5F808A070
:103030003046DB68F56398472B6828461B6898473D
:10304000214630460FF0C6F9236820461B69984791
:1030500023685B69204601B0BDE8F04F18472B4656
:10306000E1E700BF142104083F250408AA22040850
:10307000F122040894230408D82A0408E02B012034
:10308000DC2B01202DE9F14FD0E9555A0746A868FD
:1030900003681B6A9847B0F55C7F05D2454B464AEA
:1030A000A321464835F056FE686803681B6A9847B6
:1030B0000F2803D8424B404AA421F2E7E86803688E
:1030C0001B6A98470B2803D83E4B3B4AA521E8E7EB
:1030D0000DF09EFCDFF8F49004300DF0D7FCD9F829
:1030E000000010B10368DB689847D9F8000010B100
:1030F00003681B689847DFF8D880D8F8000010B143
:1031000003685B699847D7F83C0110B103685B68B6
:103110009847D8F8000010B103681B689847D7F8A3
:103120003C0110B103689B689847E8680021FFF7ED
:10313000ADFD4FF0000B244B03600446C0F804B013
:1031400080F808B0A868036859465B6A9847064645
:1031500004F0D4F86868036859465B6A98473146BA
:10316000054604F0A5F8C9F80040C7F83C51C8F876
:103170000060E5B12B1DCAF800303368C5F808A01F
:103180003046DB68F56398472B6828461B689847EC
:10319000214630460FF01EF9236820461B699847E8
:1031A00023685B69204601B0BDE8F04F18472B4605
:1031B000E1E700BF1421040847260408AA220408F6
:1031C000F122040894230408D82A0408E02B0120E3
:1031D000DC2B01202DE9F14FD0E9555A0746A868AC
:1031E00003681B6A9847B0F5317F05D2454B464AC4
:1031F000A321464835F0AEFD686803681B6A98470E
:103200000F2803D8424B404AA421F2E7E86803683C
:103210001B6A98470B2803D83E4B3B4AA521E8E799
:103220000DF0F6FBDFF8F49004300DF02FFCD9F828
:10323000000010B10368DB689847D9F8000010B1AE
:1032400003681B689847DFF8D880D8F8000010B1F1
:1032500003685B699847D7F83C0110B103685B6865
:103260009847D8F8000010B103681B689847D7F852
:103270003C0110B103689B689847E8680021FFF79C
:1032800005FD4FF0000B244B03600446C0F804B06A
:1032900080F808B0A868036859465B6A98470646F4
:1032A00004F002FB6868036859465B6A9847314638
:1032B000054604F0D3FAC9F80040C7F83C51C8F8F5
:1032C0000060E5B12B1DCAF800303368C5F808A0CE
:1032D0003046DB68F56398472B6828461B6898479B
:1032E000214630460FF076F8236820461B69984740
:1032F00023685B69204601B0BDE8F04F18472B46B4
:10330000E1E700BF142104084F270408AA2204089B
:10331000F122040894230408D82A0408E02B012091
:10332000DC2B01202DE9F14FD0E9555A0746A8685A
:1033300003681B6A9847B0F5C26F05D2454B464AF1
:10334000A321464835F006FD686803681B6A984764
:103350000F2803D8424B404AA421F2E7E8680368EB
:103360001B6A98470B2803D83E4B3B4AA521E8E748
:103370000DF04EFBDFF8F49004300DF087FBD9F828
:10338000000010B10368DB689847D9F8000010B15D
:1033900003681B689847DFF8D880D8F8000010B1A0
:1033A00003685B699847D7F83C0110B103685B6814
:1033B0009847D8F8000010B103681B689847D7F801
:1033C0003C0110B103689B689847E8680021FFF74B
:1033D0005DFC4FF0000B244B03600446C0F804B0C2
:1033E00080F808B0A868036859465B6A98470646A3
:1033F00004F0A2FA6868036859465B6A9847314648
:10340000054604F073FAC9F80040C7F83C51C8F803
:103410000060E5B12B1DCAF800303368C5F808A07C
:103420003046DB68F56398472B6828461B68984749
:10343000214630460EF0CEFF236820461B69984790
:1034400023685B69204601B0BDE8F04F18472B4662
:10345000E1E700BF142104085D280408AA2204083B
:10346000F122040894230408D82A0408E02B012040
:10347000DC2B01202DE9F14FD0E9555A0746A86809
:1034800003681B6A9847B0F5946F05D2454B464ACE
:10349000A321464835F05EFC686803681B6A9847BC
:1034A0000F2803D8424B404AA421F2E7E86803689A
:1034B0001B6A98470B2803D83E4B3B4AA521E8E7F7
:1034C0000DF0A6FADFF8F49004300DF0DFFAD9F829
:1034D000000010B10368DB689847D9F8000010B10C
:1034E00003681B689847DFF8D880D8F8000010B14F
:1034F00003685B699847D7F83C0110B103685B68C3
:103500009847D8F8000010B103681B689847D7F8AF
:103510003C0110B103689B689847E8680021FFF7F9
:10352000B5FB4FF0000B244B03600446C0F804B019
:1035300080F808B0A868036859465B6A9847064651
:1035400003F092FE6868036859465B6A9847314603
:10355000054603F063FEC9F80040C7F83C51C8F8BF
:103560000060E5B12B1DCAF800303368C5F808A02B
:103570003046DB68F56398472B6828461B689847F8
:10358000214630460EF026FF236820461B699847E7
:1035900023685B69204601B0BDE8F04F18472B4611
:1035A000E1E700BF142104086D290408AA220408D9
:1035B000F122040894230408D82A0408E02B0120EF
:1035C000DC2B0120406A7047806A704770478B8807
:1035D000C0690A68DB0A50F823001044704710B530
:1035E000C2B1137BB3B1547BD27A240204F4E064F9
:1035F0001443026A98B202EB840213888B4202D110
:1036000092F9020010BD05D8013880B204320028BA
:10361000F3D1F7E70020F5E710B52C2104461CF0A4
:1036200021FA204610BD000030B58BB00446BDF82D
:1036300060500895BDF85C5007959DF85050069570
:103640009DF84C5005959DF8485004959DF84450C0
:1036500003959DF8405002959DF83C500195BDF8AA
:10366000385000950EF010FB064B2360159BE3616C
:10367000169B2362199B63621A9BA36220460BB0C0
:1036800030BD00BFFC2A0408806A7047704770474D
:1036900070477047704730B50368018185B06D464B
:1036A0000146D3F8843004462846984795E8070039
:1036B0003C3484E8070005B030BD30B50368418173
:1036C00085B06D460146D3F88430044628469847B5
:1036D00095E807003C3484E8070005B030BD0022BF
:1036E000028042808280C280704780F83610704726
:1036F00070B5036804461B6B154698472368294636
:1037000020465B6EBDE87040184700207047806C13
:10371000704770477047704790F82C304BB100F1FC
:103720007002126802663BB100F178031B684366C1
:10373000704700F16C02F4E700F17403F6E708B596
:1037400090F82C303BB100F1C8031B68C0F8AC30D6
:10375000FFF7E2FF08BD00F1C403F6E770477047CA
:10376000704730B4C26844685510034604EB6200E9
:10377000D20748BF62599B6830BC48BFD35818472E
:1037800043682BB183682BB9C06800F00100704713
:10379000184670470120704790F82D3080F8B230FD
:1037A00080F85E30704790F82D3080F85E307047BA
:1037B00010B54C2104461CF055F9204610BD10B53B
:1037C000102104461CF04EF9204610BD10B57C2196
:1037D00004461CF047F9204610BD10B5CC21044624
:1037E0001CF040F9204610BD10B54FF4946104461A
:1037F0001CF038F9204610BD08B5FEF75BFA08BD8D
:1038000010B50446006B50B10368DB68984730B1CF
:10381000206B036821469B68BDE81040184710BD27
:10382000036870B55E6B124B1B6804468DB22BB9F2
:10383000104B114A6C21114835F08CFA1049828DD9
:103840000988914203D80F4B0B4A6D21F3E713F817
:1038500012200D4B1B6853F8220003681B6B98471E
:10386000281A01B233462046BDE87040184700BF11
:10387000F02B0120542B0408962B0408D12B0408AC
:10388000F42B0120182C0408F82B012070B50D46EC
:10389000097990F8342090F82C30A1F1020CDCF179
:1038A000000646EB0C060129044680F8346016D069
:1038B000BAB983F0010380F82C300368D3F88C3058
:1038C0009847236820465B6998472B79012B08D1DC
:1038D00023682046D3F88830BDE870401847002A96
:1038E000F6D070BD38B500F58963994204460D469F
:1038F00003D10DF08DF8FFF769F904F5B274A54214
:1039000005D10DF085F8BDE83840FFF76FB938BD37
:1039100000224FF0FF31C0E900218260704770B58E
:10392000036804461B6B15469847236829462046C2
:103930005B6BBDE87040184770B5036804469B6B2D
:1039400015469847236829462046DB6BBDE8704042
:10395000184738B504461D46FFF7E1FFBDF91020B2
:1039600029462046FFF7E8FF38BD00000022C0E9E5
:103970000122C0E90322C0E90522C0E907224FF471
:1039800080728284014A0260704700BF982C04084C
:1039900010B526220446002136F09CF82046FFF799
:1039A000E5FF044B2360FF2384F826300023A36245
:1039B000204610BD7039040810B5262204460021A7
:1039C00036F088F82046FFF7D1FF0A4B23600A4BF8
:1039D000A3624FF6FF73A3854FF47F020023C4E96F
:1039E0000C324FF0FF32C4E910232387E3632046F3
:1039F00010BD00BFE03804080C2104081A4B73B551
:103A00001B88018F8B4206462AD9184B1B682BB99D
:103A1000174B184A18486C2135F09CF913F81120FF
:103A2000164B1B6853F82250154B186802F002FF22
:103A30002B6801909B6B284698472B6801999B6CDB
:103A40000446284698472B6801995B6A14FB00F4EA
:103A500028469847A4B20444A6F8464002B070BD78
:103A60000023A0F84630F9E7F42B0120F02B0120C9
:103A7000542B0408962B0408D12B0408F82B0120A2
:103A8000FC2B01204FF47F4370B50646838540F23E
:103A90000113002583841A4B8562C0E90155C0E9F2
:103AA0000355C0E90555C0E90755056380F8345052
:103AB00046F8383B04463046FFF76AFF114BA363D4
:103AC0002A4629463046C4E91B55C4E91D5565669A
:103AD000A4F86850FFF723FF31462046264609F038
:103AE00091F8094B46F87C3B3046FFF765FF2046CE
:103AF000C4E93155314609F085F8204670BD00BF54
:103B0000902D0408D83904082C2E040813B5044657
:103B10007C3001900AF09CFEB4F90A20B4F9081038
:103B20000198FFF709FF02B010BD00002DE9F04F2A
:103B30002DED0A8B04468FB0A24600250EF09EFAAA
:103B4000EA4BE5634AF8403B04F16C095046FFF745
:103B50001FFF4FF6FF76262229464846ADF8306013
:103B600035F0B8FF4846FFF701FFE14BE3660DF182
:103B7000300BBDF83030A4F89230594604F1980863
:103B8000484684F894600BF02EF94046FFF77AFF20
:103B900004F5B27304F5D07718460BEE103A0BF02B
:103BA000FBF83846FFF76EFF04F51B7318460BEE63
:103BB000903AD04EFFF7ECFE04F52873C4F86C621F
:103BC0001846C4F89852A4F89C520CEE103AFFF72D
:103BD000DFFE04F53573C4F8A0621846C4F8CC5271
:103BE000A4F8D05209EE903AFFF7E6FE04F54773C9
:103BF000184608EE103AC04EFFF7DEFE04F55A7381
:103C0000C4F81C631846C4F8645308EE903AFFF7F2
:103C1000D3FE04F56D73C4F868631846C4F8B05356
:103C20000AEE103AFFF7C8FE04F57F73184609EE56
:103C3000103AFFF7C1FE04F58963C4F8FC63184627
:103C4000C4F844540AEE903A0BF004FAAB4BC4F8B3
:103C50009034AB4BC4F898344FF4A0732A465046C6
:103C600000932946F023C4F89444C4F89C54261DBC
:103C7000FFF76FFE4FF07F43A3665146304608F0D2
:103C8000C1FF2A4648462946FFF749FE484659469D
:103C9000ADF830500BF0A7F8494630464FF03309E5
:103CA00008F0B0FF2946CDF80090F0232A4604F131
:103CB000D000FFF74EFE934A934BC4E94123C4E979
:103CC0004333D4F898304FF0050A4046D3F88C308F
:103CD000A4F800A198478D4B0C9340462D235946DC
:103CE000ADF83430FFF712FF0C22CDF80090F0232E
:103CF000294604F58A70FFF72CFE8549854B40461E
:103D0000C4E95713FFF71BFDF0239E224046CDF870
:103D100000902946FFF71DFE4146304608F072FF2D
:103D20001BEE100A0722AD21FFF7F9FD30230BA887
:103D30000AAAADF82C30ADF8303009A90346CDF809
:103D400000B01BEE100AADF824A0ADF828A00AF0D0
:103D50008DFF4FF0051304F592601BEE101AC4F8A6
:103D60009C310390C4F88C01304608F04BFF0123CE
:103D700084F8CC31D4F8A031DFF8A891D3F88C3096
:103D80004FF03208384698472A46CDF80080F02395
:103D9000294604F5EC70FFF7DCFD5F495F4BA4F8A2
:103DA00008A2C4E98313C4E98533D4F8A0313846A6
:103DB000D3F88C309847554A0C922C2338465946F4
:103DC000ADF83430FFF7A2FE0C22CDF80080F023CE
:103DD000294604F50770FFF7BCFD4D494D4B3846A9
:103DE000C4E99913FFF7ABFCF023D9223846CDF88C
:103DF00000802946FFF7ADFD4FF0430839463046B5
:103E000008F000FF97232A461BEE900ACDF80080A9
:103E10002946FFF79EFD4249A4F89CA27927C4E9F0
:103E2000A59184F892721BEE901A304608F0EAFED3
:103E3000F0234F221CEE100ACDF800802946FFF730
:103E400088FD3749C4F8CC1284F8C6721CEE101AEB
:103E50003046C4F8C892A4F8D0A208F0D3FE0822D5
:103E600019EE900A0F21FFF75AFD04AF294BC4F851
:103E7000043319EE901A3846A4F808530AF04EFAA3
:103E800097E8070004F5447383E807001F4A0C9283
:103E900019EE900A4FF026025946ADF834200AF088
:103EA000D7FC19EE901A304608F0ACFE212218EE2D
:103EB000100A0F21FFF733FD164BC4F84C33D4F82A
:103EC0001C33A4F85053D3F88430DFF85C8018EE2C
:103ED000101A3846984797E8070004F5567383E8A8
:103EE0000700D8F800303BBB20E000BFE02E0408FC
:103EF000B83A0408D8390408002D0408C82E04086C
:103F0000E53800089CFFB6FF008232FF0C21040850
:103F1000745E34FFFBF6E8FF8B8BF7FF0000B5FF04
:103F2000574728FF93764EFFF02B01207B4B7C4AAE
:103F300060217C4834F00EFFDFF8F8A1BAF80030B9
:103F4000192B03D8784B764A6121F2E7DFF8E89124
:103F50001921D9F8000002F06DFCC4F8640318EED2
:103F6000100A0AF055FC714B0C9318EE100A12233C
:103F70005946ADF834300AF06BFC18EE101A304692
:103F800008F040FE18EE900A21225B21FFF7C7FCE3
:103F9000D4F86833664AD3F88430C4F8982318EE0E
:103FA000901A3846A4F89C53984797E8070004F500
:103FB000697383E80700D8F80030002BB6D0BAF850
:103FC0000030182BBED91821D9F8000002F032FCBD
:103FD000C4F8B00318EE900A0AF01AFC534B0C9385
:103FE00018EE900A11235946ADF834300AF030FC2F
:103FF00018EE901A304608F005FE1AEE100A572205
:104000000B21FFF78CFC4A4AC4F8E4231AEE101A7D
:104010003846A4F8E8530AF081F997E8070004F558
:104020007C7383E80700414B0C931AEE100A25239A
:104030005946ADF834300AF00BFC1AEE101A30462F
:1040400008F0E0FD19EE100A70220B21FFF767FC63
:10405000D4F8FC33364AD3F88430C4F82C2419EE53
:10406000101A3846A4F83054984797E8070004F52A
:10407000876383E80700D8F80030002B3FF456AF81
:10408000BAF80030172B7FF65DAF1721D9F8000082
:1040900002F0D0FBC4F8440419EE100A0AF0B8FB91
:1040A000224B0C9319EE100A10235946ADF8343008
:1040B0000AF0CEFB19EE101A304608F0A3FD1AEEF6
:1040C000900A4FF48A725F21FFF729FC06235A46B3
:1040D0000BA91AEE900AADF82C300723ADF830305A
:1040E0000AF010FC2B231AEE900AA4F88034FFF794
:1040F00085FC4FF0FF33C4F88434C4F88834039B44
:10410000C4F8703430461AEE901A08F07BFD204651
:104110000FB0BDEC0A8BBDE8F08F00BF542B040834
:10412000562C0408D12B0408182C04080C21040870
:10413000FBF6E8FFF42B0120FC2B012070477047B1
:1041400070477047704730B4C268446855100346E2
:1041500004EB6200D20748BF62599B6830BC48BF7D
:10416000D358184743682BB183682BB9C06800F057
:1041700001007047184670470120704710B51021A4
:1041800004461BF06FFC204610BD10B54FF45B7168
:1041900004461BF067FC204610BD38B500F1CC0387
:1041A000994204460D4603D10CF032FCFEF7FEFCAA
:1041B00004F5A2739D4203D10CF02AFCFEF736FDF4
:1041C00004F584739D4203D10CF022FCFEF70EFD32
:1041D00004F534739D4203D123682046DB6A984777
:1041E00004F543739D4203D1236820461B6B984717
:1041F00004F5C074A54205D10CF00AFCBDE83840B6
:10420000FEF734BD38BD00002DE9F04F2DED0A8BCF
:1042100004468DB0A14600250DF030FFEA4BE56362
:1042200049F8403B04F16C084846FFF7B1FB4FF6F4
:10423000FF76262229464046ADF8286035F04AFC34
:104240004046FFF793FBE14BE3660AAFBDF8283029
:10425000A4F89230394604F1980B404684F89460F3
:104260000AF0C1FD5846FFF793FBD94BC4F89830CC
:1042700004F1CC03C4F8C450A4F8C850184609EEA1
:10428000903A0AF089FD04F5847318460AEE103A54
:104290000AF082FD04F5A27318460AEE903A0AF07D
:1042A0007BFD04F5C07318460BEE103A0AF074FD5E
:1042B00004F5DE73184608EE103AFFF77DFB04F5AF
:1042C0000173184608EE903AFFF776FB04F5137376
:1042D00009EE103A29462622184635F0FBFB19EE66
:1042E000100AFFF743FB4FF0010304F5217A84F82D
:1042F0007032B84BC4F8745284F87852A4F87A62D9
:10430000A4F87C6284F87E62C4F84C32A4F880621F
:104310005046FFF751FBB04BC4F8843204F53473B8
:10432000C4F8CC5218460BEE903A0AF035FD04F56D
:10433000437318460CEE103A0AF02EFDA74BC4E961
:10434000D734A74BC4E9D9354FF4A0732A46294680
:1043500048460093F023261DFFF7FBFA4FF07F43FA
:10436000A3664946304608F04DFC2A462946404699
:10437000FFF7D5FA40463946ADF828500AF033FD2C
:104380004146304608F03EFC432358460093BA228B
:10439000AD232221FFF7DDFA924A934B4FF0050837
:1043A000C4E93023792384F8BE305946A4F8C88084
:1043B000304608F027FC4246414619EE900AFFF7C6
:1043C000AEFA4FF00103ADF81C302E234FF0020B74
:1043D00008AA19EE900AADF82430ADF8283007A9E4
:1043E00009AB009704F55779ADF820B00AF03EFC10
:1043F0007E4BC4F8043119EE901A3046C4F8F4909C
:1044000008F000FC42461AEE100A6621FFF787FA10
:10441000312309A94FF00102ADF82430ADF828305E
:104420000B4608A91AEE100AADF81C2000970A46A0
:1044300007A9ADF820B00AF019FC6C4BC4F8403164
:104440001AEE101A3046C4F8309108F0DBFB4246F1
:104450001AEE900AC321FFF762FA352309A94FF03B
:104460000102ADF82430ADF828300B4608A91AEE49
:10447000900AADF81C2000970A4607A9ADF820B0B5
:104480000AF0F4FB594BC4F87C311AEE901A30460E
:10449000C4F86C9108F0B6FB42461BEE100A962158
:1044A000FFF73DFA4FF001023423ADF81C2009AAB2
:1044B0001BEE100AADF82430ADF8283007A91346DA
:1044C000009708AAADF820B00AF0D0FB474BC4F81B
:1044D000B8311BEE101A3046C4F8A8910DF1080847
:1044E00008F090FBDFF80CB1362218EE100A1A2102
:1044F000FFF715FA18EE101AA4F8F0514046C4F868
:10450000ECB109F00BFF98E8070004F5FC7383E8B1
:104510000700374B0A9318EE100A24233946ADF8EA
:104520002C300AF095F918EE101A304608F06AFBA4
:10453000942218EE900A2221FFF7F1F918EE901A52
:10454000A4F838524046C4F834B209F0E7FE98E8BF
:10455000070004F5107383E80700254B0A9318EE53
:10456000900A23233946ADF82C300AF071F918EE81
:10457000901A304608F046FB19EE100A54223321F7
:10458000FFF7CDF90F23ADF824300E23A4F88032C5
:104590003A4619EE100A09A9ADF828300AF0B2F926
:1045A00019EE101A304608F02DFBC3226121504647
:1045B000FFF7B5F9D4F88432A4F8B852D3F88430B0
:1045C000C4F8B4B218E000BF302F0408B83A0408A9
:1045D000D8390408F0370408002D0408182F0408FF
:1045E0009B41000893764EFF574728FF04000200C6
:1045F0000C210408FBF6E8FF51464046984798E82E
:10460000070004F5307383E807003E4B1B6804F590
:1046100052752BB93C4B3D4A60213D4834F09AFB22
:104620003C4B1B88132B03D83B4B384A6121F4E7E2
:104630003A4B1321186802F0FDF8394A03460A2163
:1046400028460FF0A5F9C4F8CC5250460AF0E0F81D
:104650000A25344B0A9339465046ADF82C500AF0DF
:10466000F7F85146304608F0CDFA1BEE900A29467D
:1046700040F20D12FFF753F9332308AA1BEE900AFC
:10468000294DADF824304FF0080A4FF00908ADF875
:10469000283007A909AB0097ADF81CA0ADF8208021
:1046A0000AF0E4FA1BEE901A3046C4F80853C4F836
:1046B000F89208F0A7FA1CEE100A40F20D128221BF
:1046C000FFF72DF932231CEE100AADF82430ADF8B7
:1046D000283008AA09AB07A90097ADF81CA0ADF8CF
:1046E00020800AF0C3FA30461CEE101AC4F8445376
:1046F000C4F8349308F086FA20460DB0BDEC0A8B5E
:10470000BDE8F08FF02B0120542B0408562C040830
:10471000D12B0408F42B0120182C0408FC2B0120B9
:104720000C2F04080C2104081900F9FF704770478A
:1047300070477047704730B4C268446855100346EC
:1047400004EB6200D20748BF62599B6830BC48BF87
:10475000D358184743682BB183682BB9C06800F061
:1047600001007047184670470120704710B51021AE
:1047700004461BF077F9204610BD10B54FF4976141
:1047800004461BF06FF9204610BD00F5A673994250
:1047900070B504460D4603D10CF03AF9FEF706FA5F
:1047A00004F1D4039D4203D10CF032F9FEF72EFA46
:1047B00004F198039D4203D10CF02AF9FEF716FA92
:1047C00004F588739D4203D10CF022F9FEF73EFAFE
:1047D00004F5C4739D4203D123682046DB6A9847E1
:1047E00004F514739D4205D1236820461B6BBDE878
:1047F0007040184770BD000010B526220446002105
:1048000035F068F92046FFF7B1F80023A36284F879
:104810002C300123064A84F824304FF6FF73E385D9
:10482000238684F832302260A386204610BD00BF64
:10483000F03704082DE9F04F2DED0E8B04468FB0B4
:10484000274600250DF01AFCE74BE56347F8403B8F
:1048500029462622384635F03DF93846FFF786F8D6
:1048600004F16C09E14B2364FF264FF6FF7184F8D5
:104870006660ADF8301026222946A566484635F018
:1048800029F94846FFF772F8D94AE266BDF83020A8
:10489000A4F892200CA904F1980B84F8946048467F
:1048A0000AF0A1FA04F1D40A58460AF075FA504603
:1048B0000AF072FA04F5887318460DEE903A0AF081
:1048C0006BFA04F5A67304F5C47818460EEE103A98
:1048D0000AF062FA4046FFF78FFF04F5E0731846CE
:1048E00008EE103AFFF768F804F50273184608EE70
:1048F000903AFFF761F804F51473184609EE103A80
:10490000FFF77AFF04F52273184609EE903AFFF795
:1049100053F804F5347318460AEE103AFFF74CF8D2
:1049200004F5467318460AEE903AFFF765FF04F562
:10493000547318460BEE103AFFF73EF804F5667311
:1049400018460BEE903AFFF737F804F578731846DF
:104950000CEE103AFFF730F804F5856318460CEEBC
:10496000903AFFF729F804F58E6318460DEE103AD9
:10497000FFF742FF9F4AC4F8A8249F4AC4F8B02416
:1049800029462A463846C4F8AC44C4F8B454FEF765
:10499000C6FF3846F021FDF709F938464FF4A071FB
:1049A000261DFDF705F94FF07F42A26639463046D5
:1049B00008F028F92A4629464846FEF7B0FF0CA918
:1049C0004846ADF830500AF00EFA4946304608F035
:1049D00019F9584605226621FEF7A1FF4FF00203A0
:1049E000ADF828303123ADF82C30ADF830300CABB9
:1049F0004FF001090AAA009309A90BAB58467F4F53
:104A0000ADF824900AF032F904F59563C4F8C0308B
:104A1000C4F8D07059463046039308F0F3F8504676
:104A200005229621FEF77BFF3423ADF82C30ADF83C
:104A300030300CAB4FF0020B0AAA009309A90BAB64
:104A40005046ADF82490ADF828B00AF00FF9039B5A
:104A5000C4F8FC30C4F80C715146304608F0D2F866
:104A60001DEE900A0522C321FEF759FF3523ADF84C
:104A70002C30ADF830300CAB0AAA1DEE900A009332
:104A800009A90BABADF82490ADF828B00AF0EEF808
:104A9000039BC4F838311DEE901AC4F848713046B3
:104AA00008F0B0F805221EEE100A1146FEF737FF97
:104AB0002E23ADF82C30ADF830300CAB0AAA1EEE28
:104AC000100A009309A90BABADF82490ADF828B0FB
:104AD0000AF0CCF8039BC4F874311EEE101AC4F827
:104AE0008471304608F08EF84FF00E0A40467C2262
:104AF0006321FEF714FF4FF00F0B0CAAA4F8BCA122
:104B00000BA94046ADF82CB0ADF830A009F0FAFE84
:104B10004046012109F029FA039BC4F8B03141460F
:104B2000304604AFDFF8D890DFF8D88008F06AF894
:104B300018EE100A8F220421FEF7F1FE18EE101A6B
:104B40003846C4F8F091A4F8F45109F0E7FB97E86F
:104B5000070004F5FE7383E807001B2318EE100A14
:104B60000CA9ADF83430CDF8308009F071FE18EEA4
:104B7000101A304608F046F818EE900A4FF48A7280
:104B80000421FEF7CCFE18EE901A3846C4F838928D
:104B9000A4F83C5209F0C2FB97E8070004F5117332
:104BA00083E807001F2318EE900A0CA9ADF83430F3
:104BB000CDF8308009F04CFE18EE901A304608F01F
:104BC00021F819EE100A40F201126321FEF7A7FE48
:104BD0000CAA19EE100AA4F884A20BA9ADF82CB007
:104BE000ADF830A010E000BF842F0408703904082D
:104BF000B83A04086C2F04088B4700080400020030
:104C0000FBF6E8FF0C21040809F07CFE19EE100AFF
:104C1000012109F0AAF9039BC4F8783219EE101AA1
:104C2000304607F0EFFF19EE900A2F220721FEF71A
:104C300076FE19EE901A3846C4F8B892A4F8BC5221
:104C400009F06CFB97E8070004F5317383E807006F
:104C50001C2319EE900A0CA9ADF83430CDF8308041
:104C600009F0F6FD19EE901A304607F0CBFF1AEE68
:104C7000100AB2224621FEF752FE1AEE101A3846EA
:104C8000C4F80093A4F8045309F048FB97E8070020
:104C900004F5437383E8070022231AEE100A0CA9D7
:104CA000ADF83430CDF8308009F0D2FD1AEE101A8C
:104CB000304607F0A7FF4FF00C0A1AEE900A482280
:104CC0004121FEF72CFE4FF00D0B0CAA1AEE900AB4
:104CD0000BA9A4F84CA3ADF82CB0ADF830A009F0A6
:104CE00011FE1AEE900A012109F03FF91AEE901A0E
:104CF000304684F83D5307F085FF1BEE100A5B2217
:104D00000A21FEF70CFE1BEE101A3846C4F88093F9
:104D1000A4F8845309F002FB97E8070004F56373D5
:104D200083E807001D231BEE100A0CA9ADF83430F0
:104D3000CDF8308009F08CFD1BEE101A304607F0DC
:104D400061FF1BEE900A5B22BB21FEF7E8FD1BEE24
:104D5000901A3846C4F8C893A4F8CC5309F0DEFA88
:104D600097E8070004F5757383E807001E231BEE20
:104D7000900A0CA9ADF83430CDF8308009F068FD08
:104D80001BEE901A304607F03DFF1CEE100ADF22A2
:104D9000BB21FEF7C4FD1CEE101A3846C4F810946F
:104DA000A4F8145409F0BAFA97E8070004F21C4377
:104DB00083E8070021231CEE100A0CA9ADF834305B
:104DC000CDF8308009F044FD1CEE101A304607F093
:104DD00019FF1CEE900ADF220A21FEF7A0FD1CEE4F
:104DE000901A3846C4F85894A4F85C5409F096FA1E
:104DF00097E8070004F2644383E8070020231CEED1
:104E0000900A0CA9ADF83430CDF8308009F020FDBF
:104E10001CEE901A304607F0F5FE1DEE100ACC226B
:104E20004421FEF77CFD0CAA1DEE100A0BA9A4F884
:104E3000A4A4ADF82CB0ADF830A009F063FD1DEED0
:104E4000100A012109F091F830461DEE101A84F87D
:104E5000955407F0D7FE20460FB0BDEC0E8BBDE891
:104E6000F08F00BF704770477047704770477047BA
:104E7000704730B4C26844685510034604EB6200C2
:104E8000D20748BF62599B6830BC48BFD358184707
:104E900043682BB183682BB9C06800F001007047EC
:104EA000184670470120704710B5102104461AF0CB
:104EB000D9FD204610BD10B540F20C6104461AF031
:104EC000D1FD204610BD00F59A73994270B5044695
:104ED0000D4603D10BF09CFDFDF768FE04F5D6737B
:104EE0009D4203D10BF094FDFDF7A0FE04F516736F
:104EF0009D4203D10BF08CFDFDF778FE04F5B873ED
:104F00009D4203D10BF084FDFDF7B0FE04F5F47370
:104F10009D4203D123682046DB6A984704F5087355
:104F20009D4203D1236820461B6B984704F234430B
:104F30009D4203D1236820465B6B984704F57F733D
:104F40009D4205D1236820469B6BBDE87040184701
:104F500070BD00002DE9F04F2DED108B044691B08F
:104F600027464FF000090DF089F8E74BC4F83C9054
:104F700047F8403B04F16C063846FEF709FD26224F
:104F80004FF0FF3349463046ADF8383034F0A2FDDB
:104F90003046FEF7EBFCDD4BE366BDF83830A4F895
:104FA00092304FF0FF330EA984F8943004F1980B3F
:104FB000304609F018FF04F1CC0AD54D5846FEF7EB
:104FC000E7FCC4F89850C4F8C490A4F8C8905046C0
:104FD000FEF7DEFC04F58073C4F8CC50C4F8F890FA
:104FE000A4F8FC9018460593FEF7D2FC04F59A73DA
:104FF000C4F80051C4F82C91A4F8309118460FEE73
:10500000903A09F0C9FE04F5B87304F5D67818464D
:10501000039309F0C1FE404609F0BEFE04F5F473A7
:10502000184608EE103AFFF7E7FB04F50873184638
:1050300008EE903AFFF7E0FB04F516731846049368
:1050400009F0AAFE04F52573184609EE103AFEF79A
:10505000B3FC04F53773184609EE903AFEF7ACFC42
:1050600004F5497318460AEE103AFEF7A5FC04F55C
:105070005B7318460AEE903AFEF79EFC04F56D73DA
:1050800018460BEE103AFEF797FC04F57F731846AE
:105090000BEE903AFFF7B0FB04F2344318460CEEE7
:1050A000103AFFF7A9FB04F26C4318460CEE903A55
:1050B000FFF7A2FB04F2A44318460DEE103AFFF7E7
:1050C0009BFB04F2DC4318460DEE903AFEF774FCAD
:1050D00004F2245318460EEE103AFEF76DFC04F26B
:1050E0006C5318460EEE903AFEF766FC04F2B45389
:1050F00018460FEE103AFEF75FFC864BC4F8FC35FD
:10510000854BC4F804364FF4A0734A4600934946D1
:105110003846C4F80046C4F80896F023251DFEF76B
:1051200018FC4FF07F43A3663946284607F06AFD16
:105130004A4649463046FEF7F2FB0EA93046ADF826
:10514000389009F050FE3146284607F05BFD5B239E
:10515000009349465846F0233822FEF7FAFB6F4B7E
:105160006F4A05267927C4E93032A4F8C86084F86C
:10517000BE705946284607F045FD4FF04E0BF02310
:10518000CDF800B01A4649465046FEF7E2FB634BA5
:10519000634AA4F8FC60C4E93D3284F8F2705146D9
:1051A000284607F02FFD0598CDF800B04946F023BA
:1051B0009A22FEF7CEFB594B594A0599A4F8306163
:1051C000C4E94A3284F82671284607F01BFD1FEE19
:1051D000900A32463146FEF7A2FB2E23ADF834305A
:1051E000ADF838300EAB01274FF0020A0CAA1FEEC3
:1051F000900A00930BA90DAB04F2FC5BADF82C7088
:10520000ADF830A009F032FD464BC4F86C311FEE0A
:10521000901AC4F85CB1284607F0F4FC03983246B3
:10522000C321FEF77CFB4FF035020DA9ADF8342009
:10523000ADF838200B460EAA0CA9039800920A4636
:105240000BA9ADF82C70ADF830A009F00FFD354B6F
:10525000C4F8A8310399C4F898B1284607F0D2FCE5
:10526000324640469621FEF75AFB4FF034020DA914
:10527000ADF83420ADF838200B460EAA0CA90092E8
:1052800040460A460BA9ADF82C70ADF830A009F0E5
:10529000EDFC244BC4F8E431C4F8D4B141462846AF
:1052A00007F0B0FC18EE100A69220A214FF010082E
:1052B000FEF735FB0EA94FF0110218EE100AADF8FB
:1052C0003420A4F81C820A460DA9ADF8388009F0F4
:1052D00019FB18EE100A394608F047FE18EE101AAE
:1052E000C4F810B2284607F08DFC18EE900A692227
:1052F000A721FEF714FB0EA94FF0110218EE900A39
:10530000ADF8342010E000BFD82F0408B83A0408E4
:10531000D8390408C02F0408C74E000893764EFF02
:10532000574728FF04000200A4F854820A460DA93A
:10533000ADF8388009F0E6FA18EE900A394608F020
:1053400014FE18EE901AC4F848B2284607F05AFC2A
:10535000049832466621FEF7E2FA31230DA9ADF832
:105360003430ADF838300EAA0B460CA904980092E0
:105370000A460BA9ADF82C70ADF830A009F076FC08
:10538000F44BC4F890320499C4F880B2284607F070
:1053900039FC19EE100A3D22132106AEFEF7BFFAC2
:1053A000DFF8B8A3C4F8C4A24FF0FF3319EE101A07
:1053B000A4F8C832304608F0B1FF96E8070004F5BB
:1053C000347383E80700E44B0E9338230DEB03019D
:1053D00019EE100AADF83C3009F03AFA19EE101A3D
:1053E000284607F00FFC19EE900A58221221FEF70A
:1053F00096FA4FF0FF31A4F81013304619EE901AC8
:10540000C4F80CA308F08AFF96E8070004F5467379
:105410000DF1380C83E80700CF4B0E93614637231C
:1054200019EE900AADF83C3009F012FA19EE901A14
:10543000284607F0E7FB1AEE100A74226021FEF7F7
:105440006EFA4FF0FF31A4F8581330461AEE101AD6
:10545000C4F854A308F062FF96E8070004F55873F7
:105460000DF1380C83E807004FF03400BA4BADF86B
:105470003C0061461AEE100A0E9309F0E9F91AEEA3
:10548000101A284607F0BEFB1AEE900AA12224212A
:10549000FEF745FA1AEE901A3046C4F89CA3A4F819
:1054A000A09308F03BFF96E8070004F56A730DF13E
:1054B000380C83E80700A84B0E93614639231AEE97
:1054C000900AADF83C3009F0C3F91AEE901A28465C
:1054D00007F098FB1BEE100AC6226021FEF71FFAA8
:1054E0004FF0FF31A4F8E81330461BEE101AC4F851
:1054F000E4A308F013FF96E8070004F57C7383E843
:1055000007000DF1380C4FF03400934BADF83C0020
:1055100061461BEE100A0E9309F09AF91BEE101A61
:10552000284607F06FFB1BEE900ABB22A721FEF76F
:10553000F6F90DF1380C4FF01102ADF83420624647
:105540000DF1340C61461BEE900AA4F83084ADF8DE
:10555000388009F0D7F91BEE900A394608F005FDAE
:105560001BEE901AC4F824B4284684F8219407F05E
:1055700049FB1CEE100ABB220A21FEF7D0F90DF1FF
:10558000380C4FF01102ADF8342062460DF1340CA6
:1055900061461CEE100AA4F86884ADF8388009F062
:1055A000B1F91CEE100A394608F0DFFC1CEE101AA7
:1055B000C4F85CB4284684F8599407F023FB1CEE29
:1055C000900A40F211120A21FEF7A9F90DF1380CE8
:1055D00062460DF1340C61461CEE900A4FF0110B3F
:1055E000A4F8A084ADF83880ADF834B009F08AF999
:1055F0001CEE900A394608F0B8FC1CEE901A2846BA
:1056000084F8919407F0FEFA1DEE100A40F2111290
:10561000A721FEF784F90DF1380C62460DF1340C28
:1056200061461DEE100AA4F8D884ADF83880ADF8B4
:1056300034B009F067F91DEE100A394608F095FC00
:105640001DEE101A284684F8C99407F0DBFA4FF0D3
:10565000FF381DEE900A5822AF21FEF760F91DEECB
:10566000901A3046C4F80CA5A4F8108508F056FE30
:1056700096E8070004F5A36383E80700364F0E970A
:1056800036231DEE900A0EA9ADF83C3009F0E0F883
:105690001DEE901A284607F0B5FA1EEE100A4FF4D8
:1056A0008E726021FEF73BF91EEE101A3046C4F8E8
:1056B00054A5A4F8588508F031FE96E8070004F5D3
:1056C000AC6383E807004FF03400ADF83C000EA94E
:1056D0001EEE100A0E9709F0BBF81EEE101A2846AF
:1056E00007F090FA1EEE900A74226121FEF717F976
:1056F0004FF07F431EEE901AC4F89C353046A4F854
:10570000A09508F00BFE96E8070004F5B56383E862
:10571000070033231EEE900A0EA9ADF83C300E9719
:1057200009F096F81EEE901A284607F06BFA1FEE65
:10573000100AF6224B21FEF7F2F81FEE101A30463F
:10574000C4F8E4A5A4F8E89508F0E8FD96E8070099
:1057500006E000BF040002000C210408FBF6E8FF8D
:1057600004F5BE6383E807004FF035021FEE100A10
:105770000EA9ADF83C200E9709F06AF828461FEEF6
:10578000101A07F03FFA204611B0BDEC108BBDE8AF
:10579000F08F00BF70477047704770477047704781
:1057A000704730B4C26844685510034604EB620089
:1057B000D20748BF62599B6830BC48BFD3581847CE
:1057C00043682BB183682BB9C06800F001007047B3
:1057D000184670470120704710B5102104461AF092
:1057E00041F9204610BD10B540F20C6104461AF094
:1057F00039F9204610BD00F59A73994270B50446F8
:105800000D4603D10BF004F9FDF7D0F904F5D6737A
:105810009D4203D10BF0FCF8FDF718FA04F516735E
:105820009D4203D10BF0F4F8FDF7E0F904F5B873ED
:105830009D4203D10BF0ECF8FDF7E8F904F5F473A1
:105840009D4203D123682046DB6A984704F508731C
:105850009D4203D1236820461B6B984704F23443D2
:105860009D4203D1236820465B6B984704F57F7304
:105870009D4205D1236820469B6BBDE870401847C8
:1058800070BD00002DE9F04F2DED108B044691B056
:1058900027464FF000090CF0F1FBE74BC4F83C90B1
:1058A00047F8403B04F16C063846FEF771F82622B3
:1058B0004FF0FF3349463046ADF8383034F00AF93E
:1058C0003046FEF753F8DD4BE366BDF83830A4F8F8
:1058D00092304FF0FF330EA984F8943004F1980B06
:1058E000304609F080FA04F1CC0AD54D5846FEF74F
:1058F0004FF8C4F89850C4F8C490A4F8C890504623
:10590000FEF746F804F58073C4F8CC50C4F8F8905C
:10591000A4F8FC9018460593FEF73AF804F59A733C
:10592000C4F80051C4F82C91A4F8309118460FEE39
:10593000903A09F031FA04F5B87304F5D6781846B0
:10594000039309F029FA404609F026FA04F5F473A6
:10595000184608EE103AFEF74FFF04F50873184694
:1059600008EE903AFEF748FF04F5167318460493C4
:1059700009F012FA04F52573184609EE103AFEF7FD
:105980001BF804F53773184609EE903AFEF714F841
:1059900004F5497318460AEE103AFEF70DF804F5BF
:1059A0005B7318460AEE903AFEF706F804F56D733D
:1059B00018460BEE103AFDF7FFFF04F57F7318460B
:1059C0000BEE903AFEF718FF04F2344318460CEE43
:1059D000103AFEF711FF04F26C4318460CEE903AB1
:1059E000FEF70AFF04F2A44318460DEE103AFEF744
:1059F00003FF04F2DC4318460DEE903AFDF7DCFF9E
:105A000004F2245318460EEE103AFDF7D5FF04F2C7
:105A10006C5318460EEE903AFDF7CEFF04F2B453E5
:105A200018460FEE103AFDF7C7FF864BC4F8FC3559
:105A3000854BC4F804364FF4A0734A460093494698
:105A40003846C4F80046C4F80896F023251DFDF733
:105A500080FF4FF07F43A3663946284607F0D2F80F
:105A60004A4649463046FDF75AFF0EA93046ADF882
:105A7000389009F0B8F93146284607F0C3F85B239F
:105A8000009349465846F0233822FDF762FF6F4BDA
:105A90006F4A05267927C4E93032A4F8C86084F833
:105AA000BE705946284607F0ADF84FF04E0BF02374
:105AB000CDF800B01A4649465046FDF74AFF634B01
:105AC000634AA4F8FC60C4E93D3284F8F2705146A0
:105AD000284607F097F80598CDF800B04946F0231E
